{
  "contractName": "CryptoBoys",
  "abi": [
    {
      "inputs": [],
      "stateMutability": "nonpayable",
      "type": "constructor"
    },
    {
      "anonymous": false,
      "inputs": [
        {
          "indexed": true,
          "internalType": "address",
          "name": "owner",
          "type": "address"
        },
        {
          "indexed": true,
          "internalType": "address",
          "name": "approved",
          "type": "address"
        },
        {
          "indexed": true,
          "internalType": "uint256",
          "name": "tokenId",
          "type": "uint256"
        }
      ],
      "name": "Approval",
      "type": "event"
    },
    {
      "anonymous": false,
      "inputs": [
        {
          "indexed": true,
          "internalType": "address",
          "name": "owner",
          "type": "address"
        },
        {
          "indexed": true,
          "internalType": "address",
          "name": "operator",
          "type": "address"
        },
        {
          "indexed": false,
          "internalType": "bool",
          "name": "approved",
          "type": "bool"
        }
      ],
      "name": "ApprovalForAll",
      "type": "event"
    },
    {
      "anonymous": false,
      "inputs": [
        {
          "indexed": true,
          "internalType": "address",
          "name": "from",
          "type": "address"
        },
        {
          "indexed": true,
          "internalType": "address",
          "name": "to",
          "type": "address"
        },
        {
          "indexed": true,
          "internalType": "uint256",
          "name": "tokenId",
          "type": "uint256"
        }
      ],
      "name": "Transfer",
      "type": "event"
    },
    {
      "inputs": [
        {
          "internalType": "uint256",
          "name": "",
          "type": "uint256"
        }
      ],
      "name": "allCryptoBoys",
      "outputs": [
        {
          "internalType": "uint256",
          "name": "tokenId",
          "type": "uint256"
        },
        {
          "internalType": "string",
          "name": "tokenName",
          "type": "string"
        },
        {
          "internalType": "string",
          "name": "tokenURI",
          "type": "string"
        },
        {
          "internalType": "address payable",
          "name": "mintedBy",
          "type": "address"
        },
        {
          "internalType": "address payable",
          "name": "currentOwner",
          "type": "address"
        },
        {
          "internalType": "address payable",
          "name": "previousOwner",
          "type": "address"
        },
        {
          "internalType": "uint256",
          "name": "price",
          "type": "uint256"
        },
        {
          "internalType": "string",
          "name": "imageHash",
          "type": "string"
        },
        {
          "internalType": "uint256",
          "name": "numberOfTransfers",
          "type": "uint256"
        },
        {
          "internalType": "bool",
          "name": "forSale",
          "type": "bool"
        }
      ],
      "stateMutability": "view",
      "type": "function",
      "constant": true
    },
    {
      "inputs": [
        {
          "internalType": "address",
          "name": "",
          "type": "address"
        }
      ],
      "name": "allUsers",
      "outputs": [
        {
          "internalType": "uint256",
          "name": "userId",
          "type": "uint256"
        },
        {
          "internalType": "string",
          "name": "userName",
          "type": "string"
        },
        {
          "internalType": "string",
          "name": "email",
          "type": "string"
        },
        {
          "internalType": "string",
          "name": "social",
          "type": "string"
        },
        {
          "internalType": "string",
          "name": "repo",
          "type": "string"
        },
        {
          "internalType": "string",
          "name": "bio",
          "type": "string"
        },
        {
          "internalType": "string",
          "name": "avatarhash",
          "type": "string"
        },
        {
          "internalType": "address",
          "name": "userAddress",
          "type": "address"
        }
      ],
      "stateMutability": "view",
      "type": "function",
      "constant": true
    },
    {
      "inputs": [
        {
          "internalType": "address",
          "name": "to",
          "type": "address"
        },
        {
          "internalType": "uint256",
          "name": "tokenId",
          "type": "uint256"
        }
      ],
      "name": "approve",
      "outputs": [],
      "stateMutability": "nonpayable",
      "type": "function"
    },
    {
      "inputs": [
        {
          "internalType": "address",
          "name": "owner",
          "type": "address"
        }
      ],
      "name": "balanceOf",
      "outputs": [
        {
          "internalType": "uint256",
          "name": "",
          "type": "uint256"
        }
      ],
      "stateMutability": "view",
      "type": "function",
      "constant": true
    },
    {
      "inputs": [],
      "name": "baseURI",
      "outputs": [
        {
          "internalType": "string",
          "name": "",
          "type": "string"
        }
      ],
      "stateMutability": "view",
      "type": "function",
      "constant": true
    },
    {
      "inputs": [],
      "name": "collectionName",
      "outputs": [
        {
          "internalType": "string",
          "name": "",
          "type": "string"
        }
      ],
      "stateMutability": "view",
      "type": "function",
      "constant": true
    },
    {
      "inputs": [],
      "name": "collectionNameSymbol",
      "outputs": [
        {
          "internalType": "string",
          "name": "",
          "type": "string"
        }
      ],
      "stateMutability": "view",
      "type": "function",
      "constant": true
    },
    {
      "inputs": [],
      "name": "cryptoBoyCounter",
      "outputs": [
        {
          "internalType": "uint256",
          "name": "",
          "type": "uint256"
        }
      ],
      "stateMutability": "view",
      "type": "function",
      "constant": true
    },
    {
      "inputs": [
        {
          "internalType": "uint256",
          "name": "tokenId",
          "type": "uint256"
        }
      ],
      "name": "getApproved",
      "outputs": [
        {
          "internalType": "address",
          "name": "",
          "type": "address"
        }
      ],
      "stateMutability": "view",
      "type": "function",
      "constant": true
    },
    {
      "inputs": [
        {
          "internalType": "string",
          "name": "",
          "type": "string"
        }
      ],
      "name": "imageExists",
      "outputs": [
        {
          "internalType": "bool",
          "name": "",
          "type": "bool"
        }
      ],
      "stateMutability": "view",
      "type": "function",
      "constant": true
    },
    {
      "inputs": [
        {
          "internalType": "address",
          "name": "owner",
          "type": "address"
        },
        {
          "internalType": "address",
          "name": "operator",
          "type": "address"
        }
      ],
      "name": "isApprovedForAll",
      "outputs": [
        {
          "internalType": "bool",
          "name": "",
          "type": "bool"
        }
      ],
      "stateMutability": "view",
      "type": "function",
      "constant": true
    },
    {
      "inputs": [],
      "name": "name",
      "outputs": [
        {
          "internalType": "string",
          "name": "",
          "type": "string"
        }
      ],
      "stateMutability": "view",
      "type": "function",
      "constant": true
    },
    {
      "inputs": [
        {
          "internalType": "uint256",
          "name": "tokenId",
          "type": "uint256"
        }
      ],
      "name": "ownerOf",
      "outputs": [
        {
          "internalType": "address",
          "name": "",
          "type": "address"
        }
      ],
      "stateMutability": "view",
      "type": "function",
      "constant": true
    },
    {
      "inputs": [
        {
          "internalType": "address",
          "name": "from",
          "type": "address"
        },
        {
          "internalType": "address",
          "name": "to",
          "type": "address"
        },
        {
          "internalType": "uint256",
          "name": "tokenId",
          "type": "uint256"
        }
      ],
      "name": "safeTransferFrom",
      "outputs": [],
      "stateMutability": "nonpayable",
      "type": "function"
    },
    {
      "inputs": [
        {
          "internalType": "address",
          "name": "from",
          "type": "address"
        },
        {
          "internalType": "address",
          "name": "to",
          "type": "address"
        },
        {
          "internalType": "uint256",
          "name": "tokenId",
          "type": "uint256"
        },
        {
          "internalType": "bytes",
          "name": "_data",
          "type": "bytes"
        }
      ],
      "name": "safeTransferFrom",
      "outputs": [],
      "stateMutability": "nonpayable",
      "type": "function"
    },
    {
      "inputs": [
        {
          "internalType": "address",
          "name": "operator",
          "type": "address"
        },
        {
          "internalType": "bool",
          "name": "approved",
          "type": "bool"
        }
      ],
      "name": "setApprovalForAll",
      "outputs": [],
      "stateMutability": "nonpayable",
      "type": "function"
    },
    {
      "inputs": [
        {
          "internalType": "bytes4",
          "name": "interfaceId",
          "type": "bytes4"
        }
      ],
      "name": "supportsInterface",
      "outputs": [
        {
          "internalType": "bool",
          "name": "",
          "type": "bool"
        }
      ],
      "stateMutability": "view",
      "type": "function",
      "constant": true
    },
    {
      "inputs": [],
      "name": "symbol",
      "outputs": [
        {
          "internalType": "string",
          "name": "",
          "type": "string"
        }
      ],
      "stateMutability": "view",
      "type": "function",
      "constant": true
    },
    {
      "inputs": [
        {
          "internalType": "uint256",
          "name": "index",
          "type": "uint256"
        }
      ],
      "name": "tokenByIndex",
      "outputs": [
        {
          "internalType": "uint256",
          "name": "",
          "type": "uint256"
        }
      ],
      "stateMutability": "view",
      "type": "function",
      "constant": true
    },
    {
      "inputs": [
        {
          "internalType": "string",
          "name": "",
          "type": "string"
        }
      ],
      "name": "tokenNameExists",
      "outputs": [
        {
          "internalType": "bool",
          "name": "",
          "type": "bool"
        }
      ],
      "stateMutability": "view",
      "type": "function",
      "constant": true
    },
    {
      "inputs": [
        {
          "internalType": "address",
          "name": "owner",
          "type": "address"
        },
        {
          "internalType": "uint256",
          "name": "index",
          "type": "uint256"
        }
      ],
      "name": "tokenOfOwnerByIndex",
      "outputs": [
        {
          "internalType": "uint256",
          "name": "",
          "type": "uint256"
        }
      ],
      "stateMutability": "view",
      "type": "function",
      "constant": true
    },
    {
      "inputs": [
        {
          "internalType": "uint256",
          "name": "tokenId",
          "type": "uint256"
        }
      ],
      "name": "tokenURI",
      "outputs": [
        {
          "internalType": "string",
          "name": "",
          "type": "string"
        }
      ],
      "stateMutability": "view",
      "type": "function",
      "constant": true
    },
    {
      "inputs": [
        {
          "internalType": "string",
          "name": "",
          "type": "string"
        }
      ],
      "name": "tokenURIExists",
      "outputs": [
        {
          "internalType": "bool",
          "name": "",
          "type": "bool"
        }
      ],
      "stateMutability": "view",
      "type": "function",
      "constant": true
    },
    {
      "inputs": [],
      "name": "totalSupply",
      "outputs": [
        {
          "internalType": "uint256",
          "name": "",
          "type": "uint256"
        }
      ],
      "stateMutability": "view",
      "type": "function",
      "constant": true
    },
    {
      "inputs": [
        {
          "internalType": "address",
          "name": "from",
          "type": "address"
        },
        {
          "internalType": "address",
          "name": "to",
          "type": "address"
        },
        {
          "internalType": "uint256",
          "name": "tokenId",
          "type": "uint256"
        }
      ],
      "name": "transferFrom",
      "outputs": [],
      "stateMutability": "nonpayable",
      "type": "function"
    },
    {
      "inputs": [
        {
          "internalType": "address",
          "name": "",
          "type": "address"
        }
      ],
      "name": "userAddressExists",
      "outputs": [
        {
          "internalType": "bool",
          "name": "",
          "type": "bool"
        }
      ],
      "stateMutability": "view",
      "type": "function",
      "constant": true
    },
    {
      "inputs": [],
      "name": "userCounter",
      "outputs": [
        {
          "internalType": "uint256",
          "name": "",
          "type": "uint256"
        }
      ],
      "stateMutability": "view",
      "type": "function",
      "constant": true
    },
    {
      "inputs": [
        {
          "internalType": "string",
          "name": "",
          "type": "string"
        }
      ],
      "name": "userEmailExists",
      "outputs": [
        {
          "internalType": "bool",
          "name": "",
          "type": "bool"
        }
      ],
      "stateMutability": "view",
      "type": "function",
      "constant": true
    },
    {
      "inputs": [
        {
          "internalType": "string",
          "name": "",
          "type": "string"
        }
      ],
      "name": "userNameExists",
      "outputs": [
        {
          "internalType": "bool",
          "name": "",
          "type": "bool"
        }
      ],
      "stateMutability": "view",
      "type": "function",
      "constant": true
    },
    {
      "inputs": [
        {
          "internalType": "string",
          "name": "_userName",
          "type": "string"
        },
        {
          "internalType": "string",
          "name": "_avatar",
          "type": "string"
        },
        {
          "internalType": "string",
          "name": "_email",
          "type": "string"
        },
        {
          "internalType": "string",
          "name": "_social",
          "type": "string"
        },
        {
          "internalType": "string",
          "name": "_repo",
          "type": "string"
        },
        {
          "internalType": "string",
          "name": "_bio",
          "type": "string"
        }
      ],
      "name": "createUser",
      "outputs": [],
      "stateMutability": "nonpayable",
      "type": "function"
    },
    {
      "inputs": [
        {
          "internalType": "string",
          "name": "_userName",
          "type": "string"
        },
        {
          "internalType": "string",
          "name": "_avatar",
          "type": "string"
        },
        {
          "internalType": "string",
          "name": "_email",
          "type": "string"
        },
        {
          "internalType": "string",
          "name": "_social",
          "type": "string"
        },
        {
          "internalType": "string",
          "name": "_repo",
          "type": "string"
        },
        {
          "internalType": "string",
          "name": "_bio",
          "type": "string"
        }
      ],
      "name": "updateUser",
      "outputs": [],
      "stateMutability": "nonpayable",
      "type": "function"
    },
    {
      "inputs": [
        {
          "internalType": "string",
          "name": "_name",
          "type": "string"
        },
        {
          "internalType": "string",
          "name": "_tokenURI",
          "type": "string"
        },
        {
          "internalType": "uint256",
          "name": "_price",
          "type": "uint256"
        },
        {
          "internalType": "string",
          "name": "_imageHash",
          "type": "string"
        }
      ],
      "name": "mintCryptoBoy",
      "outputs": [],
      "stateMutability": "nonpayable",
      "type": "function"
    },
    {
      "inputs": [
        {
          "internalType": "uint256",
          "name": "_tokenId",
          "type": "uint256"
        }
      ],
      "name": "getTokenOwner",
      "outputs": [
        {
          "internalType": "address",
          "name": "",
          "type": "address"
        }
      ],
      "stateMutability": "view",
      "type": "function",
      "constant": true
    },
    {
      "inputs": [
        {
          "internalType": "uint256",
          "name": "_tokenId",
          "type": "uint256"
        }
      ],
      "name": "getTokenMetaData",
      "outputs": [
        {
          "internalType": "string",
          "name": "",
          "type": "string"
        }
      ],
      "stateMutability": "view",
      "type": "function",
      "constant": true
    },
    {
      "inputs": [],
      "name": "getNumberOfTokensMinted",
      "outputs": [
        {
          "internalType": "uint256",
          "name": "",
          "type": "uint256"
        }
      ],
      "stateMutability": "view",
      "type": "function",
      "constant": true
    },
    {
      "inputs": [
        {
          "internalType": "address",
          "name": "_owner",
          "type": "address"
        }
      ],
      "name": "getTotalNumberOfTokensOwnedByAnAddress",
      "outputs": [
        {
          "internalType": "uint256",
          "name": "",
          "type": "uint256"
        }
      ],
      "stateMutability": "view",
      "type": "function",
      "constant": true
    },
    {
      "inputs": [
        {
          "internalType": "uint256",
          "name": "_tokenId",
          "type": "uint256"
        }
      ],
      "name": "getTokenExists",
      "outputs": [
        {
          "internalType": "bool",
          "name": "",
          "type": "bool"
        }
      ],
      "stateMutability": "view",
      "type": "function",
      "constant": true
    },
    {
      "inputs": [
        {
          "internalType": "uint256",
          "name": "_tokenId",
          "type": "uint256"
        }
      ],
      "name": "buyToken",
      "outputs": [],
      "stateMutability": "payable",
      "type": "function",
      "payable": true
    },
    {
      "inputs": [
        {
          "internalType": "uint256",
          "name": "_tokenId",
          "type": "uint256"
        },
        {
          "internalType": "uint256",
          "name": "_newPrice",
          "type": "uint256"
        }
      ],
      "name": "changeTokenPrice",
      "outputs": [],
      "stateMutability": "nonpayable",
      "type": "function"
    },
    {
      "inputs": [
        {
          "internalType": "uint256",
          "name": "_tokenId",
          "type": "uint256"
        }
      ],
      "name": "toggleForSale",
      "outputs": [],
      "stateMutability": "nonpayable",
      "type": "function"
    }
  ],
  "bytecode": "0x60806040523480156200001157600080fd5b506040518060400160405280601681526020017f43727970746f20426f797320436f6c6c656374696f6e000000000000000000008152506040518060400160405280600281526020017f4342000000000000000000000000000000000000000000000000000000000000815250620000966301ffc9a760e01b6200016860201b60201c565b8160069080519060200190620000ae929190620003bd565b508060079080519060200190620000c7929190620003bd565b50620000e06380ac58cd60e01b6200016860201b60201c565b620000f8635b5e139f60e01b6200016860201b60201c565b6200011063780e9d6360e01b6200016860201b60201c565b5050620001226200027160201b60201c565b600a908051906020019062000139929190620003bd565b506200014a6200031760201b60201c565b600b908051906020019062000161929190620003bd565b5062000473565b63ffffffff60e01b817bffffffffffffffffffffffffffffffffffffffffffffffffffffffff1916141562000205576040517f08c379a000000000000000000000000000000000000000000000000000000000815260040180806020018281038252601c8152602001807f4552433136353a20696e76616c696420696e746572666163652069640000000081525060200191505060405180910390fd5b6001600080837bffffffffffffffffffffffffffffffffffffffffffffffffffffffff19167bffffffffffffffffffffffffffffffffffffffffffffffffffffffff1916815260200190815260200160002060006101000a81548160ff02191690831515021790555050565b606060068054600181600116156101000203166002900480601f0160208091040260200160405190810160405280929190818152602001828054600181600116156101000203166002900480156200030d5780601f10620002e1576101008083540402835291602001916200030d565b820191906000526020600020905b815481529060010190602001808311620002ef57829003601f168201915b5050505050905090565b606060078054600181600116156101000203166002900480601f016020809104026020016040519081016040528092919081815260200182805460018160011615610100020316600290048015620003b35780601f106200038757610100808354040283529160200191620003b3565b820191906000526020600020905b8154815290600101906020018083116200039557829003601f168201915b5050505050905090565b828054600181600116156101000203166002900490600052602060002090601f016020900481019282620003f5576000855562000441565b82601f106200041057805160ff191683800117855562000441565b8280016001018555821562000441579182015b828111156200044057825182559160200191906001019062000423565b5b50905062000450919062000454565b5090565b5b808211156200046f57600081600090555060010162000455565b5090565b615b5c80620004836000396000f3fe60806040526004361061023b5760003560e01c806367c623cf1161012e578063b88d4fde116100ab578063e5326ab11161006f578063e5326ab114610939578063e985e9c514610964578063edbece37146109a1578063f0c37a59146109e5578063ff6cef0814610a105761023b565b8063b88d4fde14610840578063bffec20214610869578063c87b56dd14610894578063cc151f3a146108d1578063e04b6f04146108fc5761023b565b806395d89b41116100f257806395d89b4114610749578063a22cb46514610774578063a32018b91461079d578063a46b1fac146107c6578063a5cd761f146108035761023b565b806367c623cf146106505780636c0360eb1461068d5780636f9507f9146106b857806370a08231146106e3578063898678a2146107205761023b565b80632d296bf1116101bc57806344c0d7eb1161018057806344c0d7eb1461052a5780634f6ccce71461057057806355d8a914146105ad57806362e8e8ac146105ea5780636352211e146106135761023b565b80632d296bf11461042e5780632f745c591461044a57806342842e0e1461048757806343902850146104b057806343d32ae7146104ed5761023b565b8063095ea7b311610203578063095ea7b31461034b578063142687f31461037457806315f5744a146103b157806318160ddd146103da57806323b872dd146104055761023b565b806301dadb2b1461024057806301ffc9a71461026957806302c90584146102a657806306fdde03146102e3578063081812fc1461030e575b600080fd5b34801561024c57600080fd5b506102676004803603810190610262919061520c565b610a4d565b005b34801561027557600080fd5b50610290600480360381019061028b91906151a2565b610dc3565b60405161029d919061550d565b60405180910390f35b3480156102b257600080fd5b506102cd60048036038101906102c89190614ffb565b610e2a565b6040516102da919061550d565b60405180910390f35b3480156102ef57600080fd5b506102f8610e4a565b6040516103059190615528565b60405180910390f35b34801561031a57600080fd5b50610335600480360381019061033091906153d0565b610eec565b60405161034291906154f2565b60405180910390f35b34801561035757600080fd5b50610372600480360381019061036d9190615166565b610f87565b005b34801561038057600080fd5b5061039b600480360381019061039691906153d0565b6110cb565b6040516103a8919061550d565b60405180910390f35b3480156103bd57600080fd5b506103d860048036038101906103d3919061520c565b6110e2565b005b3480156103e657600080fd5b506103ef6113b7565b6040516103fc919061554a565b60405180910390f35b34801561041157600080fd5b5061042c60048036038101906104279190615060565b6113c8565b005b610448600480360381019061044391906153d0565b61143e565b005b34801561045657600080fd5b50610471600480360381019061046c9190615166565b611ad8565b60405161047e919061554a565b60405180910390f35b34801561049357600080fd5b506104ae60048036038101906104a99190615060565b611b33565b005b3480156104bc57600080fd5b506104d760048036038101906104d29190614ffb565b611b53565b6040516104e4919061554a565b60405180910390f35b3480156104f957600080fd5b50610514600480360381019061050f91906151cb565b611b6a565b604051610521919061550d565b60405180910390f35b34801561053657600080fd5b50610551600480360381019061054c91906153d0565b611ba0565b6040516105679a99989796959493929190615565565b60405180910390f35b34801561057c57600080fd5b50610597600480360381019061059291906153d0565b611e29565b6040516105a4919061554a565b60405180910390f35b3480156105b957600080fd5b506105d460048036038101906105cf91906151cb565b611e4c565b6040516105e1919061550d565b60405180910390f35b3480156105f657600080fd5b50610611600480360381019061060c91906153f9565b611e82565b005b34801561061f57600080fd5b5061063a600480360381019061063591906153d0565b6123ea565b60405161064791906154f2565b60405180910390f35b34801561065c57600080fd5b50610677600480360381019061067291906153d0565b612421565b6040516106849190615528565b60405180910390f35b34801561069957600080fd5b506106a2612439565b6040516106af9190615528565b60405180910390f35b3480156106c457600080fd5b506106cd6124db565b6040516106da9190615528565b60405180910390f35b3480156106ef57600080fd5b5061070a60048036038101906107059190614ffb565b612579565b604051610717919061554a565b60405180910390f35b34801561072c57600080fd5b5061074760048036038101906107429190615325565b61264e565b005b34801561075557600080fd5b5061075e612a2d565b60405161076b9190615528565b60405180910390f35b34801561078057600080fd5b5061079b6004803603810190610796919061512a565b612acf565b005b3480156107a957600080fd5b506107c460048036038101906107bf91906153d0565b612c85565b005b3480156107d257600080fd5b506107ed60048036038101906107e891906151cb565b613217565b6040516107fa919061550d565b60405180910390f35b34801561080f57600080fd5b5061082a600480360381019061082591906153d0565b61324d565b60405161083791906154f2565b60405180910390f35b34801561084c57600080fd5b50610867600480360381019061086291906150af565b613264565b005b34801561087557600080fd5b5061087e6132dc565b60405161088b919061554a565b60405180910390f35b3480156108a057600080fd5b506108bb60048036038101906108b691906153d0565b6132e2565b6040516108c89190615528565b60405180910390f35b3480156108dd57600080fd5b506108e66135b3565b6040516108f3919061554a565b60405180910390f35b34801561090857600080fd5b50610923600480360381019061091e91906151cb565b6135c7565b604051610930919061550d565b60405180910390f35b34801561094557600080fd5b5061094e6135fd565b60405161095b9190615528565b60405180910390f35b34801561097057600080fd5b5061098b60048036038101906109869190615024565b61369b565b604051610998919061550d565b60405180910390f35b3480156109ad57600080fd5b506109c860048036038101906109c39190614ffb565b61372f565b6040516109dc989796959493929190615616565b60405180910390f35b3480156109f157600080fd5b506109fa613b27565b604051610a07919061554a565b60405180910390f35b348015610a1c57600080fd5b50610a376004803603810190610a3291906151cb565b613b2d565b604051610a44919061550d565b60405180910390f35b600073ffffffffffffffffffffffffffffffffffffffff163373ffffffffffffffffffffffffffffffffffffffff161415610a8757600080fd5b600d60008154809291906001019190505550601560003373ffffffffffffffffffffffffffffffffffffffff1673ffffffffffffffffffffffffffffffffffffffff16815260200190815260200160002060009054906101000a900460ff1615610af057600080fd5b601386604051610b0091906154db565b908152602001604051809103902060009054906101000a900460ff1615610b2657600080fd5b601484604051610b3691906154db565b908152602001604051809103902060009054906101000a900460ff1615610b5c57600080fd5b6001601387604051610b6e91906154db565b908152602001604051809103902060006101000a81548160ff0219169083151502179055506001601560003373ffffffffffffffffffffffffffffffffffffffff1673ffffffffffffffffffffffffffffffffffffffff16815260200190815260200160002060006101000a81548160ff0219169083151502179055506001601485604051610bfd91906154db565b908152602001604051809103902060006101000a81548160ff0219169083151502179055506000604051806101000160405280600d5481526020018881526020018681526020018581526020018481526020018381526020018781526020013373ffffffffffffffffffffffffffffffffffffffff16815250905080601260003373ffffffffffffffffffffffffffffffffffffffff1673ffffffffffffffffffffffffffffffffffffffff168152602001908152602001600020600082015181600001556020820151816001019080519060200190610cde929190614e2c565b506040820151816002019080519060200190610cfb929190614e2c565b506060820151816003019080519060200190610d18929190614e2c565b506080820151816004019080519060200190610d35929190614e2c565b5060a0820151816005019080519060200190610d52929190614e2c565b5060c0820151816006019080519060200190610d6f929190614e2c565b5060e08201518160070160006101000a81548173ffffffffffffffffffffffffffffffffffffffff021916908373ffffffffffffffffffffffffffffffffffffffff16021790555090505050505050505050565b6000806000837bffffffffffffffffffffffffffffffffffffffffffffffffffffffff19167bffffffffffffffffffffffffffffffffffffffffffffffffffffffff1916815260200190815260200160002060009054906101000a900460ff169050919050565b60156020528060005260406000206000915054906101000a900460ff1681565b606060068054600181600116156101000203166002900480601f016020809104026020016040519081016040528092919081815260200182805460018160011615610100020316600290048015610ee25780601f10610eb757610100808354040283529160200191610ee2565b820191906000526020600020905b815481529060010190602001808311610ec557829003601f168201915b5050505050905090565b6000610ef782613b63565b610f4c576040517f08c379a000000000000000000000000000000000000000000000000000000000815260040180806020018281038252602c815260200180615a25602c913960400191505060405180910390fd5b6004600083815260200190815260200160002060009054906101000a900473ffffffffffffffffffffffffffffffffffffffff169050919050565b6000610f92826123ea565b90508073ffffffffffffffffffffffffffffffffffffffff168373ffffffffffffffffffffffffffffffffffffffff161415611019576040517f08c379a0000000000000000000000000000000000000000000000000000000008152600401808060200182810382526021815260200180615ad56021913960400191505060405180910390fd5b8073ffffffffffffffffffffffffffffffffffffffff16611038613b80565b73ffffffffffffffffffffffffffffffffffffffff161480611067575061106681611061613b80565b61369b565b5b6110bc576040517f08c379a00000000000000000000000000000000000000000000000000000000081526004018080602001828103825260388152602001806159786038913960400191505060405180910390fd5b6110c68383613b88565b505050565b6000806110d783613b63565b905080915050919050565b600073ffffffffffffffffffffffffffffffffffffffff163373ffffffffffffffffffffffffffffffffffffffff16141561111c57600080fd5b601560003373ffffffffffffffffffffffffffffffffffffffff1673ffffffffffffffffffffffffffffffffffffffff16815260200190815260200160002060009054906101000a900460ff1661117257600080fd5b60138660405161118291906154db565b908152602001604051809103902060009054906101000a900460ff16156111a857600080fd5b60016013876040516111ba91906154db565b908152602001604051809103902060006101000a81548160ff02191690831515021790555060016014856040516111f191906154db565b908152602001604051809103902060006101000a81548160ff0219169083151502179055506000604051806101000160405280600d5481526020018881526020018681526020018581526020018481526020018381526020018781526020013373ffffffffffffffffffffffffffffffffffffffff16815250905080601260003373ffffffffffffffffffffffffffffffffffffffff1673ffffffffffffffffffffffffffffffffffffffff1681526020019081526020016000206000820151816000015560208201518160010190805190602001906112d2929190614e2c565b5060408201518160020190805190602001906112ef929190614e2c565b50606082015181600301908051906020019061130c929190614e2c565b506080820151816004019080519060200190611329929190614e2c565b5060a0820151816005019080519060200190611346929190614e2c565b5060c0820151816006019080519060200190611363929190614e2c565b5060e08201518160070160006101000a81548173ffffffffffffffffffffffffffffffffffffffff021916908373ffffffffffffffffffffffffffffffffffffffff16021790555090505050505050505050565b60006113c36002613c41565b905090565b6113d96113d3613b80565b82613c56565b61142e576040517f08c379a0000000000000000000000000000000000000000000000000000000008152600401808060200182810382526031815260200180615af66031913960400191505060405180910390fd5b611439838383613d4a565b505050565b600073ffffffffffffffffffffffffffffffffffffffff163373ffffffffffffffffffffffffffffffffffffffff16141561147857600080fd5b61148181613b63565b61148a57600080fd5b6000611495826123ea565b9050600073ffffffffffffffffffffffffffffffffffffffff168173ffffffffffffffffffffffffffffffffffffffff1614156114d157600080fd5b3373ffffffffffffffffffffffffffffffffffffffff168173ffffffffffffffffffffffffffffffffffffffff16141561150a57600080fd5b6000600e60008481526020019081526020016000206040518061014001604052908160008201548152602001600182018054600181600116156101000203166002900480601f0160208091040260200160405190810160405280929190818152602001828054600181600116156101000203166002900480156115ce5780601f106115a3576101008083540402835291602001916115ce565b820191906000526020600020905b8154815290600101906020018083116115b157829003601f168201915b50505050508152602001600282018054600181600116156101000203166002900480601f0160208091040260200160405190810160405280929190818152602001828054600181600116156101000203166002900480156116705780601f1061164557610100808354040283529160200191611670565b820191906000526020600020905b81548152906001019060200180831161165357829003601f168201915b505050505081526020016003820160009054906101000a900473ffffffffffffffffffffffffffffffffffffffff1673ffffffffffffffffffffffffffffffffffffffff1673ffffffffffffffffffffffffffffffffffffffff1681526020016004820160009054906101000a900473ffffffffffffffffffffffffffffffffffffffff1673ffffffffffffffffffffffffffffffffffffffff1673ffffffffffffffffffffffffffffffffffffffff1681526020016005820160009054906101000a900473ffffffffffffffffffffffffffffffffffffffff1673ffffffffffffffffffffffffffffffffffffffff1673ffffffffffffffffffffffffffffffffffffffff16815260200160068201548152602001600782018054600181600116156101000203166002900480601f01602080910402602001604051908101604052809291908181526020018280546001816001161561010002031660029004801561181e5780601f106117f35761010080835404028352916020019161181e565b820191906000526020600020905b81548152906001019060200180831161180157829003601f168201915b50505050508152602001600882015481526020016009820160009054906101000a900460ff16151515158152505090508060c0015134101561185f57600080fd5b80610120015161186e57600080fd5b611879823385613d4a565b6000816080015190508073ffffffffffffffffffffffffffffffffffffffff166108fc349081150290604051600060405180830381858888f193505050501580156118c8573d6000803e3d6000fd5b5081608001518260a0019073ffffffffffffffffffffffffffffffffffffffff16908173ffffffffffffffffffffffffffffffffffffffff168152505033826080019073ffffffffffffffffffffffffffffffffffffffff16908173ffffffffffffffffffffffffffffffffffffffff168152505060018261010001818151019150818152505081600e6000868152602001908152602001600020600082015181600001556020820151816001019080519060200190611989929190614e2c565b5060408201518160020190805190602001906119a6929190614e2c565b5060608201518160030160006101000a81548173ffffffffffffffffffffffffffffffffffffffff021916908373ffffffffffffffffffffffffffffffffffffffff16021790555060808201518160040160006101000a81548173ffffffffffffffffffffffffffffffffffffffff021916908373ffffffffffffffffffffffffffffffffffffffff16021790555060a08201518160050160006101000a81548173ffffffffffffffffffffffffffffffffffffffff021916908373ffffffffffffffffffffffffffffffffffffffff16021790555060c0820151816006015560e0820151816007019080519060200190611aa2929190614e2c565b5061010082015181600801556101208201518160090160006101000a81548160ff02191690831515021790555090505050505050565b6000611b2b82600160008673ffffffffffffffffffffffffffffffffffffffff1673ffffffffffffffffffffffffffffffffffffffff168152602001908152602001600020613f8d90919063ffffffff16565b905092915050565b611b4e83838360405180602001604052806000815250613264565b505050565b600080611b5f83612579565b905080915050919050565b6011818051602081018201805184825260208301602085012081835280955050505050506000915054906101000a900460ff1681565b600e602052806000526040600020600091509050806000015490806001018054600181600116156101000203166002900480601f016020809104026020016040519081016040528092919081815260200182805460018160011615610100020316600290048015611c525780601f10611c2757610100808354040283529160200191611c52565b820191906000526020600020905b815481529060010190602001808311611c3557829003601f168201915b505050505090806002018054600181600116156101000203166002900480601f016020809104026020016040519081016040528092919081815260200182805460018160011615610100020316600290048015611cf05780601f10611cc557610100808354040283529160200191611cf0565b820191906000526020600020905b815481529060010190602001808311611cd357829003601f168201915b5050505050908060030160009054906101000a900473ffffffffffffffffffffffffffffffffffffffff16908060040160009054906101000a900473ffffffffffffffffffffffffffffffffffffffff16908060050160009054906101000a900473ffffffffffffffffffffffffffffffffffffffff1690806006015490806007018054600181600116156101000203166002900480601f016020809104026020016040519081016040528092919081815260200182805460018160011615610100020316600290048015611e065780601f10611ddb57610100808354040283529160200191611e06565b820191906000526020600020905b815481529060010190602001808311611de957829003601f168201915b5050505050908060080154908060090160009054906101000a900460ff1690508a565b600080611e40836002613fa790919063ffffffff16565b50905080915050919050565b6014818051602081018201805184825260208301602085012081835280955050505050506000915054906101000a900460ff1681565b600073ffffffffffffffffffffffffffffffffffffffff163373ffffffffffffffffffffffffffffffffffffffff161415611ebc57600080fd5b611ec582613b63565b611ece57600080fd5b6000611ed9836123ea565b90503373ffffffffffffffffffffffffffffffffffffffff168173ffffffffffffffffffffffffffffffffffffffff1614611f1357600080fd5b6000600e60008581526020019081526020016000206040518061014001604052908160008201548152602001600182018054600181600116156101000203166002900480601f016020809104026020016040519081016040528092919081815260200182805460018160011615610100020316600290048015611fd75780601f10611fac57610100808354040283529160200191611fd7565b820191906000526020600020905b815481529060010190602001808311611fba57829003601f168201915b50505050508152602001600282018054600181600116156101000203166002900480601f0160208091040260200160405190810160405280929190818152602001828054600181600116156101000203166002900480156120795780601f1061204e57610100808354040283529160200191612079565b820191906000526020600020905b81548152906001019060200180831161205c57829003601f168201915b505050505081526020016003820160009054906101000a900473ffffffffffffffffffffffffffffffffffffffff1673ffffffffffffffffffffffffffffffffffffffff1673ffffffffffffffffffffffffffffffffffffffff1681526020016004820160009054906101000a900473ffffffffffffffffffffffffffffffffffffffff1673ffffffffffffffffffffffffffffffffffffffff1673ffffffffffffffffffffffffffffffffffffffff1681526020016005820160009054906101000a900473ffffffffffffffffffffffffffffffffffffffff1673ffffffffffffffffffffffffffffffffffffffff1673ffffffffffffffffffffffffffffffffffffffff16815260200160068201548152602001600782018054600181600116156101000203166002900480601f0160208091040260200160405190810160405280929190818152602001828054600181600116156101000203166002900480156122275780601f106121fc57610100808354040283529160200191612227565b820191906000526020600020905b81548152906001019060200180831161220a57829003601f168201915b50505050508152602001600882015481526020016009820160009054906101000a900460ff1615151515815250509050828160c001818152505080600e600086815260200190815260200160002060008201518160000155602082015181600101908051906020019061229b929190614e2c565b5060408201518160020190805190602001906122b8929190614e2c565b5060608201518160030160006101000a81548173ffffffffffffffffffffffffffffffffffffffff021916908373ffffffffffffffffffffffffffffffffffffffff16021790555060808201518160040160006101000a81548173ffffffffffffffffffffffffffffffffffffffff021916908373ffffffffffffffffffffffffffffffffffffffff16021790555060a08201518160050160006101000a81548173ffffffffffffffffffffffffffffffffffffffff021916908373ffffffffffffffffffffffffffffffffffffffff16021790555060c0820151816006015560e08201518160070190805190602001906123b4929190614e2c565b5061010082015181600801556101208201518160090160006101000a81548160ff02191690831515021790555090505050505050565b600061241a826040518060600160405280602981526020016159da602991396002613fd39092919063ffffffff16565b9050919050565b6060600061242e836132e2565b905080915050919050565b606060098054600181600116156101000203166002900480601f0160208091040260200160405190810160405280929190818152602001828054600181600116156101000203166002900480156124d15780601f106124a6576101008083540402835291602001916124d1565b820191906000526020600020905b8154815290600101906020018083116124b457829003601f168201915b5050505050905090565b600b8054600181600116156101000203166002900480601f0160208091040260200160405190810160405280929190818152602001828054600181600116156101000203166002900480156125715780601f1061254657610100808354040283529160200191612571565b820191906000526020600020905b81548152906001019060200180831161255457829003601f168201915b505050505081565b60008073ffffffffffffffffffffffffffffffffffffffff168273ffffffffffffffffffffffffffffffffffffffff161415612600576040517f08c379a000000000000000000000000000000000000000000000000000000000815260040180806020018281038252602a8152602001806159b0602a913960400191505060405180910390fd5b612647600160008473ffffffffffffffffffffffffffffffffffffffff1673ffffffffffffffffffffffffffffffffffffffff168152602001908152602001600020613ff2565b9050919050565b600073ffffffffffffffffffffffffffffffffffffffff163373ffffffffffffffffffffffffffffffffffffffff16141561268857600080fd5b600c600081548092919060010191905055506126a5600c54613b63565b156126af57600080fd5b6010816040516126bf91906154db565b908152602001604051809103902060009054906101000a900460ff16156126e557600080fd5b6011836040516126f591906154db565b908152602001604051809103902060009054906101000a900460ff161561271b57600080fd5b600f8460405161272b91906154db565b908152602001604051809103902060009054906101000a900460ff161561275157600080fd5b61275d33600c54614007565b612769600c54846141fb565b600160118460405161277b91906154db565b908152602001604051809103902060006101000a81548160ff0219169083151502179055506001600f856040516127b291906154db565b908152602001604051809103902060006101000a81548160ff02191690831515021790555060016010826040516127e991906154db565b908152602001604051809103902060006101000a81548160ff0219169083151502179055506000604051806101400160405280600c5481526020018681526020018581526020013373ffffffffffffffffffffffffffffffffffffffff1681526020013373ffffffffffffffffffffffffffffffffffffffff168152602001600073ffffffffffffffffffffffffffffffffffffffff1681526020018481526020018381526020016000815260200160011515815250905080600e6000600c5481526020019081526020016000206000820151816000015560208201518160010190805190602001906128dd929190614e2c565b5060408201518160020190805190602001906128fa929190614e2c565b5060608201518160030160006101000a81548173ffffffffffffffffffffffffffffffffffffffff021916908373ffffffffffffffffffffffffffffffffffffffff16021790555060808201518160040160006101000a81548173ffffffffffffffffffffffffffffffffffffffff021916908373ffffffffffffffffffffffffffffffffffffffff16021790555060a08201518160050160006101000a81548173ffffffffffffffffffffffffffffffffffffffff021916908373ffffffffffffffffffffffffffffffffffffffff16021790555060c0820151816006015560e08201518160070190805190602001906129f6929190614e2c565b5061010082015181600801556101208201518160090160006101000a81548160ff0219169083151502179055509050505050505050565b606060078054600181600116156101000203166002900480601f016020809104026020016040519081016040528092919081815260200182805460018160011615610100020316600290048015612ac55780601f10612a9a57610100808354040283529160200191612ac5565b820191906000526020600020905b815481529060010190602001808311612aa857829003601f168201915b5050505050905090565b612ad7613b80565b73ffffffffffffffffffffffffffffffffffffffff168273ffffffffffffffffffffffffffffffffffffffff161415612b78576040517f08c379a00000000000000000000000000000000000000000000000000000000081526004018080602001828103825260198152602001807f4552433732313a20617070726f766520746f2063616c6c65720000000000000081525060200191505060405180910390fd5b8060056000612b85613b80565b73ffffffffffffffffffffffffffffffffffffffff1673ffffffffffffffffffffffffffffffffffffffff16815260200190815260200160002060008473ffffffffffffffffffffffffffffffffffffffff1673ffffffffffffffffffffffffffffffffffffffff16815260200190815260200160002060006101000a81548160ff0219169083151502179055508173ffffffffffffffffffffffffffffffffffffffff16612c32613b80565b73ffffffffffffffffffffffffffffffffffffffff167f17307eab39ab6107e8899845ad3d59bd9653f200f220920489ca2b5937696c318360405180821515815260200191505060405180910390a35050565b600073ffffffffffffffffffffffffffffffffffffffff163373ffffffffffffffffffffffffffffffffffffffff161415612cbf57600080fd5b612cc881613b63565b612cd157600080fd5b6000612cdc826123ea565b90503373ffffffffffffffffffffffffffffffffffffffff168173ffffffffffffffffffffffffffffffffffffffff1614612d1657600080fd5b6000600e60008481526020019081526020016000206040518061014001604052908160008201548152602001600182018054600181600116156101000203166002900480601f016020809104026020016040519081016040528092919081815260200182805460018160011615610100020316600290048015612dda5780601f10612daf57610100808354040283529160200191612dda565b820191906000526020600020905b815481529060010190602001808311612dbd57829003601f168201915b50505050508152602001600282018054600181600116156101000203166002900480601f016020809104026020016040519081016040528092919081815260200182805460018160011615610100020316600290048015612e7c5780601f10612e5157610100808354040283529160200191612e7c565b820191906000526020600020905b815481529060010190602001808311612e5f57829003601f168201915b505050505081526020016003820160009054906101000a900473ffffffffffffffffffffffffffffffffffffffff1673ffffffffffffffffffffffffffffffffffffffff1673ffffffffffffffffffffffffffffffffffffffff1681526020016004820160009054906101000a900473ffffffffffffffffffffffffffffffffffffffff1673ffffffffffffffffffffffffffffffffffffffff1673ffffffffffffffffffffffffffffffffffffffff1681526020016005820160009054906101000a900473ffffffffffffffffffffffffffffffffffffffff1673ffffffffffffffffffffffffffffffffffffffff1673ffffffffffffffffffffffffffffffffffffffff16815260200160068201548152602001600782018054600181600116156101000203166002900480601f01602080910402602001604051908101604052809291908181526020018280546001816001161561010002031660029004801561302a5780601f10612fff5761010080835404028352916020019161302a565b820191906000526020600020905b81548152906001019060200180831161300d57829003601f168201915b50505050508152602001600882015481526020016009820160009054906101000a900460ff16151515158152505090508061012001511561307c5760008161012001901515908115158152505061308f565b6001816101200190151590811515815250505b80600e60008581526020019081526020016000206000820151816000015560208201518160010190805190602001906130c9929190614e2c565b5060408201518160020190805190602001906130e6929190614e2c565b5060608201518160030160006101000a81548173ffffffffffffffffffffffffffffffffffffffff021916908373ffffffffffffffffffffffffffffffffffffffff16021790555060808201518160040160006101000a81548173ffffffffffffffffffffffffffffffffffffffff021916908373ffffffffffffffffffffffffffffffffffffffff16021790555060a08201518160050160006101000a81548173ffffffffffffffffffffffffffffffffffffffff021916908373ffffffffffffffffffffffffffffffffffffffff16021790555060c0820151816006015560e08201518160070190805190602001906131e2929190614e2c565b5061010082015181600801556101208201518160090160006101000a81548160ff021916908315150217905550905050505050565b600f818051602081018201805184825260208301602085012081835280955050505050506000915054906101000a900460ff1681565b600080613259836123ea565b905080915050919050565b61327561326f613b80565b83613c56565b6132ca576040517f08c379a0000000000000000000000000000000000000000000000000000000008152600401808060200182810382526031815260200180615af66031913960400191505060405180910390fd5b6132d684848484614285565b50505050565b600c5481565b60606132ed82613b63565b613342576040517f08c379a000000000000000000000000000000000000000000000000000000000815260040180806020018281038252602f815260200180615aa6602f913960400191505060405180910390fd5b6000600860008481526020019081526020016000208054600181600116156101000203166002900480601f0160208091040260200160405190810160405280929190818152602001828054600181600116156101000203166002900480156133eb5780601f106133c0576101008083540402835291602001916133eb565b820191906000526020600020905b8154815290600101906020018083116133ce57829003601f168201915b5050505050905060006133fc612439565b90506000815114156134125781925050506135ae565b6000825111156134e35780826040516020018083805190602001908083835b602083106134545780518252602082019150602081019050602083039250613431565b6001836020036101000a03801982511681845116808217855250505050505090500182805190602001908083835b602083106134a55780518252602082019150602081019050602083039250613482565b6001836020036101000a03801982511681845116808217855250505050505090500192505050604051602081830303815290604052925050506135ae565b806134ed856142f7565b6040516020018083805190602001908083835b602083106135235780518252602082019150602081019050602083039250613500565b6001836020036101000a03801982511681845116808217855250505050505090500182805190602001908083835b602083106135745780518252602082019150602081019050602083039250613551565b6001836020036101000a03801982511681845116808217855250505050505090500192505050604051602081830303815290604052925050505b919050565b6000806135be6113b7565b90508091505090565b6013818051602081018201805184825260208301602085012081835280955050505050506000915054906101000a900460ff1681565b600a8054600181600116156101000203166002900480601f0160208091040260200160405190810160405280929190818152602001828054600181600116156101000203166002900480156136935780601f1061366857610100808354040283529160200191613693565b820191906000526020600020905b81548152906001019060200180831161367657829003601f168201915b505050505081565b6000600560008473ffffffffffffffffffffffffffffffffffffffff1673ffffffffffffffffffffffffffffffffffffffff16815260200190815260200160002060008373ffffffffffffffffffffffffffffffffffffffff1673ffffffffffffffffffffffffffffffffffffffff16815260200190815260200160002060009054906101000a900460ff16905092915050565b6012602052806000526040600020600091509050806000015490806001018054600181600116156101000203166002900480601f0160208091040260200160405190810160405280929190818152602001828054600181600116156101000203166002900480156137e15780601f106137b6576101008083540402835291602001916137e1565b820191906000526020600020905b8154815290600101906020018083116137c457829003601f168201915b505050505090806002018054600181600116156101000203166002900480601f01602080910402602001604051908101604052809291908181526020018280546001816001161561010002031660029004801561387f5780601f106138545761010080835404028352916020019161387f565b820191906000526020600020905b81548152906001019060200180831161386257829003601f168201915b505050505090806003018054600181600116156101000203166002900480601f01602080910402602001604051908101604052809291908181526020018280546001816001161561010002031660029004801561391d5780601f106138f25761010080835404028352916020019161391d565b820191906000526020600020905b81548152906001019060200180831161390057829003601f168201915b505050505090806004018054600181600116156101000203166002900480601f0160208091040260200160405190810160405280929190818152602001828054600181600116156101000203166002900480156139bb5780601f10613990576101008083540402835291602001916139bb565b820191906000526020600020905b81548152906001019060200180831161399e57829003601f168201915b505050505090806005018054600181600116156101000203166002900480601f016020809104026020016040519081016040528092919081815260200182805460018160011615610100020316600290048015613a595780601f10613a2e57610100808354040283529160200191613a59565b820191906000526020600020905b815481529060010190602001808311613a3c57829003601f168201915b505050505090806006018054600181600116156101000203166002900480601f016020809104026020016040519081016040528092919081815260200182805460018160011615610100020316600290048015613af75780601f10613acc57610100808354040283529160200191613af7565b820191906000526020600020905b815481529060010190602001808311613ada57829003601f168201915b5050505050908060070160009054906101000a900473ffffffffffffffffffffffffffffffffffffffff16905088565b600d5481565b6010818051602081018201805184825260208301602085012081835280955050505050506000915054906101000a900460ff1681565b6000613b7982600261443e90919063ffffffff16565b9050919050565b600033905090565b816004600083815260200190815260200160002060006101000a81548173ffffffffffffffffffffffffffffffffffffffff021916908373ffffffffffffffffffffffffffffffffffffffff160217905550808273ffffffffffffffffffffffffffffffffffffffff16613bfb836123ea565b73ffffffffffffffffffffffffffffffffffffffff167f8c5be1e5ebec7d5bd14f71427d1e84f3dd0314c0f7b2291e5b200ac8c7c3b92560405160405180910390a45050565b6000613c4f82600001614458565b9050919050565b6000613c6182613b63565b613cb6576040517f08c379a000000000000000000000000000000000000000000000000000000000815260040180806020018281038252602c81526020018061594c602c913960400191505060405180910390fd5b6000613cc1836123ea565b90508073ffffffffffffffffffffffffffffffffffffffff168473ffffffffffffffffffffffffffffffffffffffff161480613d3057508373ffffffffffffffffffffffffffffffffffffffff16613d1884610eec565b73ffffffffffffffffffffffffffffffffffffffff16145b80613d415750613d40818561369b565b5b91505092915050565b8273ffffffffffffffffffffffffffffffffffffffff16613d6a826123ea565b73ffffffffffffffffffffffffffffffffffffffff1614613dd6576040517f08c379a0000000000000000000000000000000000000000000000000000000008152600401808060200182810382526029815260200180615a7d6029913960400191505060405180910390fd5b600073ffffffffffffffffffffffffffffffffffffffff168273ffffffffffffffffffffffffffffffffffffffff161415613e5c576040517f08c379a00000000000000000000000000000000000000000000000000000000081526004018080602001828103825260248152602001806159026024913960400191505060405180910390fd5b613e67838383614469565b613e72600082613b88565b613ec381600160008673ffffffffffffffffffffffffffffffffffffffff1673ffffffffffffffffffffffffffffffffffffffff16815260200190815260200160002061446e90919063ffffffff16565b50613f1581600160008573ffffffffffffffffffffffffffffffffffffffff1673ffffffffffffffffffffffffffffffffffffffff16815260200190815260200160002061448890919063ffffffff16565b50613f2c818360026144a29092919063ffffffff16565b50808273ffffffffffffffffffffffffffffffffffffffff168473ffffffffffffffffffffffffffffffffffffffff167fddf252ad1be2c89b69c2b068fc378daa952ba7f163c4a11628f55a4df523b3ef60405160405180910390a4505050565b6000613f9c83600001836144d7565b60001c905092915050565b600080600080613fba866000018661455a565b915091508160001c8160001c9350935050509250929050565b6000613fe6846000018460001b846145f3565b60001c90509392505050565b6000614000826000016146e9565b9050919050565b600073ffffffffffffffffffffffffffffffffffffffff168273ffffffffffffffffffffffffffffffffffffffff1614156140aa576040517f08c379a00000000000000000000000000000000000000000000000000000000081526004018080602001828103825260208152602001807f4552433732313a206d696e7420746f20746865207a65726f206164647265737381525060200191505060405180910390fd5b6140b381613b63565b15614126576040517f08c379a000000000000000000000000000000000000000000000000000000000815260040180806020018281038252601c8152602001807f4552433732313a20746f6b656e20616c7265616479206d696e7465640000000081525060200191505060405180910390fd5b61413260008383614469565b61418381600160008573ffffffffffffffffffffffffffffffffffffffff1673ffffffffffffffffffffffffffffffffffffffff16815260200190815260200160002061448890919063ffffffff16565b5061419a818360026144a29092919063ffffffff16565b50808273ffffffffffffffffffffffffffffffffffffffff16600073ffffffffffffffffffffffffffffffffffffffff167fddf252ad1be2c89b69c2b068fc378daa952ba7f163c4a11628f55a4df523b3ef60405160405180910390a45050565b61420482613b63565b614259576040517f08c379a000000000000000000000000000000000000000000000000000000000815260040180806020018281038252602c815260200180615a51602c913960400191505060405180910390fd5b80600860008481526020019081526020016000209080519060200190614280929190614e2c565b505050565b614290848484613d4a565b61429c848484846146fa565b6142f1576040517f08c379a00000000000000000000000000000000000000000000000000000000081526004018080602001828103825260328152602001806158d06032913960400191505060405180910390fd5b50505050565b6060600082141561433f576040518060400160405280600181526020017f30000000000000000000000000000000000000000000000000000000000000008152509050614439565b600082905060005b60008214614369578080600101915050600a828161436157fe5b049150614347565b60008167ffffffffffffffff8111801561438257600080fd5b506040519080825280601f01601f1916602001820160405280156143b55781602001600182028036833780820191505090505b50905060006001830390508593505b6000841461443157600a84816143d657fe5b0660300160f81b828280600190039350815181106143f057fe5b60200101907effffffffffffffffffffffffffffffffffffffffffffffffffffffffffffff1916908160001a905350600a848161442957fe5b0493506143c4565b819450505050505b919050565b6000614450836000018360001b614913565b905092915050565b600081600001805490509050919050565b505050565b6000614480836000018360001b614936565b905092915050565b600061449a836000018360001b614a1e565b905092915050565b60006144ce846000018460001b8473ffffffffffffffffffffffffffffffffffffffff1660001b614a8e565b90509392505050565b600081836000018054905011614538576040517f08c379a00000000000000000000000000000000000000000000000000000000081526004018080602001828103825260228152602001806158ae6022913960400191505060405180910390fd5b82600001828154811061454757fe5b9060005260206000200154905092915050565b600080828460000180549050116145bc576040517f08c379a0000000000000000000000000000000000000000000000000000000008152600401808060200182810382526022815260200180615a036022913960400191505060405180910390fd5b60008460000184815481106145cd57fe5b906000526020600020906002020190508060000154816001015492509250509250929050565b600080846001016000858152602001908152602001600020549050600081141583906146ba576040517f08c379a00000000000000000000000000000000000000000000000000000000081526004018080602001828103825283818151815260200191508051906020019080838360005b8381101561467f578082015181840152602081019050614664565b50505050905090810190601f1680156146ac5780820380516001836020036101000a031916815260200191505b509250505060405180910390fd5b508460000160018203815481106146cd57fe5b9060005260206000209060020201600101549150509392505050565b600081600001805490509050919050565b600061471b8473ffffffffffffffffffffffffffffffffffffffff16614b6a565b614728576001905061490b565b600061489263150b7a0260e01b61473d613b80565b888787604051602401808573ffffffffffffffffffffffffffffffffffffffff1681526020018473ffffffffffffffffffffffffffffffffffffffff16815260200183815260200180602001828103825283818151815260200191508051906020019080838360005b838110156147c15780820151818401526020810190506147a6565b50505050905090810190601f1680156147ee5780820380516001836020036101000a031916815260200191505b5095505050505050604051602081830303815290604052907bffffffffffffffffffffffffffffffffffffffffffffffffffffffff19166020820180517bffffffffffffffffffffffffffffffffffffffffffffffffffffffff83818316178352505050506040518060600160405280603281526020016158d0603291398773ffffffffffffffffffffffffffffffffffffffff16614b7d9092919063ffffffff16565b905060008180602001905160208110156148ab57600080fd5b8101908080519060200190929190505050905063150b7a0260e01b7bffffffffffffffffffffffffffffffffffffffffffffffffffffffff1916817bffffffffffffffffffffffffffffffffffffffffffffffffffffffff191614925050505b949350505050565b600080836001016000848152602001908152602001600020541415905092915050565b60008083600101600084815260200190815260200160002054905060008114614a12576000600182039050600060018660000180549050039050600086600001828154811061498157fe5b906000526020600020015490508087600001848154811061499e57fe5b90600052602060002001819055506001830187600101600083815260200190815260200160002081905550866000018054806149d657fe5b60019003818190600052602060002001600090559055866001016000878152602001908152602001600020600090556001945050505050614a18565b60009150505b92915050565b6000614a2a8383614b95565b614a83578260000182908060018154018082558091505060019003906000526020600020016000909190919091505582600001805490508360010160008481526020019081526020016000208190555060019050614a88565b600090505b92915050565b6000808460010160008581526020019081526020016000205490506000811415614b3557846000016040518060400160405280868152602001858152509080600181540180825580915050600190039060005260206000209060020201600090919091909150600082015181600001556020820151816001015550508460000180549050856001016000868152602001908152602001600020819055506001915050614b63565b82856000016001830381548110614b4857fe5b90600052602060002090600202016001018190555060009150505b9392505050565b600080823b905060008111915050919050565b6060614b8c8484600085614bb8565b90509392505050565b600080836001016000848152602001908152602001600020541415905092915050565b606082471015614c13576040517f08c379a00000000000000000000000000000000000000000000000000000000081526004018080602001828103825260268152602001806159266026913960400191505060405180910390fd5b614c1c85614b6a565b614c8e576040517f08c379a000000000000000000000000000000000000000000000000000000000815260040180806020018281038252601d8152602001807f416464726573733a2063616c6c20746f206e6f6e2d636f6e747261637400000081525060200191505060405180910390fd5b6000808673ffffffffffffffffffffffffffffffffffffffff1685876040518082805190602001908083835b60208310614cdd5780518252602082019150602081019050602083039250614cba565b6001836020036101000a03801982511681845116808217855250505050505090500191505060006040518083038185875af1925050503d8060008114614d3f576040519150601f19603f3d011682016040523d82523d6000602084013e614d44565b606091505b5091509150614d54828286614d60565b92505050949350505050565b60608315614d7057829050614e25565b600083511115614d835782518084602001fd5b816040517f08c379a00000000000000000000000000000000000000000000000000000000081526004018080602001828103825283818151815260200191508051906020019080838360005b83811015614dea578082015181840152602081019050614dcf565b50505050905090810190601f168015614e175780820380516001836020036101000a031916815260200191505b509250505060405180910390fd5b9392505050565b828054600181600116156101000203166002900490600052602060002090601f016020900481019282614e625760008555614ea9565b82601f10614e7b57805160ff1916838001178555614ea9565b82800160010185558215614ea9579182015b82811115614ea8578251825591602001919060010190614e8d565b5b509050614eb69190614eba565b5090565b5b80821115614ed3576000816000905550600101614ebb565b5090565b6000614eea614ee5846156ef565b6156be565b905082815260208101848484011115614f0257600080fd5b614f0d8482856157fc565b509392505050565b6000614f28614f238461571f565b6156be565b905082815260208101848484011115614f4057600080fd5b614f4b8482856157fc565b509392505050565b600081359050614f6281615851565b92915050565b600081359050614f7781615868565b92915050565b600081359050614f8c8161587f565b92915050565b600082601f830112614fa357600080fd5b8135614fb3848260208601614ed7565b91505092915050565b600082601f830112614fcd57600080fd5b8135614fdd848260208601614f15565b91505092915050565b600081359050614ff581615896565b92915050565b60006020828403121561500d57600080fd5b600061501b84828501614f53565b91505092915050565b6000806040838503121561503757600080fd5b600061504585828601614f53565b925050602061505685828601614f53565b9150509250929050565b60008060006060848603121561507557600080fd5b600061508386828701614f53565b935050602061509486828701614f53565b92505060406150a586828701614fe6565b9150509250925092565b600080600080608085870312156150c557600080fd5b60006150d387828801614f53565b94505060206150e487828801614f53565b93505060406150f587828801614fe6565b925050606085013567ffffffffffffffff81111561511257600080fd5b61511e87828801614f92565b91505092959194509250565b6000806040838503121561513d57600080fd5b600061514b85828601614f53565b925050602061515c85828601614f68565b9150509250929050565b6000806040838503121561517957600080fd5b600061518785828601614f53565b925050602061519885828601614fe6565b9150509250929050565b6000602082840312156151b457600080fd5b60006151c284828501614f7d565b91505092915050565b6000602082840312156151dd57600080fd5b600082013567ffffffffffffffff8111156151f757600080fd5b61520384828501614fbc565b91505092915050565b60008060008060008060c0878903121561522557600080fd5b600087013567ffffffffffffffff81111561523f57600080fd5b61524b89828a01614fbc565b965050602087013567ffffffffffffffff81111561526857600080fd5b61527489828a01614fbc565b955050604087013567ffffffffffffffff81111561529157600080fd5b61529d89828a01614fbc565b945050606087013567ffffffffffffffff8111156152ba57600080fd5b6152c689828a01614fbc565b935050608087013567ffffffffffffffff8111156152e357600080fd5b6152ef89828a01614fbc565b92505060a087013567ffffffffffffffff81111561530c57600080fd5b61531889828a01614fbc565b9150509295509295509295565b6000806000806080858703121561533b57600080fd5b600085013567ffffffffffffffff81111561535557600080fd5b61536187828801614fbc565b945050602085013567ffffffffffffffff81111561537e57600080fd5b61538a87828801614fbc565b935050604061539b87828801614fe6565b925050606085013567ffffffffffffffff8111156153b857600080fd5b6153c487828801614fbc565b91505092959194509250565b6000602082840312156153e257600080fd5b60006153f084828501614fe6565b91505092915050565b6000806040838503121561540c57600080fd5b600061541a85828601614fe6565b925050602061542b85828601614fe6565b9150509250929050565b61543e81615788565b82525050565b61544d81615776565b82525050565b61545c8161579a565b82525050565b600061546d8261574f565b615477818561575a565b935061548781856020860161580b565b61549081615840565b840191505092915050565b60006154a68261574f565b6154b0818561576b565b93506154c081856020860161580b565b80840191505092915050565b6154d5816157f2565b82525050565b60006154e7828461549b565b915081905092915050565b60006020820190506155076000830184615444565b92915050565b60006020820190506155226000830184615453565b92915050565b600060208201905081810360008301526155428184615462565b905092915050565b600060208201905061555f60008301846154cc565b92915050565b60006101408201905061557b600083018d6154cc565b818103602083015261558d818c615462565b905081810360408301526155a1818b615462565b90506155b0606083018a615435565b6155bd6080830189615435565b6155ca60a0830188615435565b6155d760c08301876154cc565b81810360e08301526155e98186615462565b90506155f96101008301856154cc565b615607610120830184615453565b9b9a5050505050505050505050565b60006101008201905061562c600083018b6154cc565b818103602083015261563e818a615462565b905081810360408301526156528189615462565b905081810360608301526156668188615462565b9050818103608083015261567a8187615462565b905081810360a083015261568e8186615462565b905081810360c08301526156a28185615462565b90506156b160e0830184615444565b9998505050505050505050565b6000604051905081810181811067ffffffffffffffff821117156156e5576156e461583e565b5b8060405250919050565b600067ffffffffffffffff82111561570a5761570961583e565b5b601f19601f8301169050602081019050919050565b600067ffffffffffffffff82111561573a5761573961583e565b5b601f19601f8301169050602081019050919050565b600081519050919050565b600082825260208201905092915050565b600081905092915050565b6000615781826157d2565b9050919050565b6000615793826157d2565b9050919050565b60008115159050919050565b60007fffffffff0000000000000000000000000000000000000000000000000000000082169050919050565b600073ffffffffffffffffffffffffffffffffffffffff82169050919050565b6000819050919050565b82818337600083830152505050565b60005b8381101561582957808201518184015260208101905061580e565b83811115615838576000848401525b50505050565bfe5b6000601f19601f8301169050919050565b61585a81615776565b811461586557600080fd5b50565b6158718161579a565b811461587c57600080fd5b50565b615888816157a6565b811461589357600080fd5b50565b61589f816157f2565b81146158aa57600080fd5b5056fe456e756d657261626c655365743a20696e646578206f7574206f6620626f756e64734552433732313a207472616e7366657220746f206e6f6e20455243373231526563656976657220696d706c656d656e7465724552433732313a207472616e7366657220746f20746865207a65726f2061646472657373416464726573733a20696e73756666696369656e742062616c616e636520666f722063616c6c4552433732313a206f70657261746f7220717565727920666f72206e6f6e6578697374656e7420746f6b656e4552433732313a20617070726f76652063616c6c6572206973206e6f74206f776e6572206e6f7220617070726f76656420666f7220616c6c4552433732313a2062616c616e636520717565727920666f7220746865207a65726f20616464726573734552433732313a206f776e657220717565727920666f72206e6f6e6578697374656e7420746f6b656e456e756d657261626c654d61703a20696e646578206f7574206f6620626f756e64734552433732313a20617070726f76656420717565727920666f72206e6f6e6578697374656e7420746f6b656e4552433732314d657461646174613a2055524920736574206f66206e6f6e6578697374656e7420746f6b656e4552433732313a207472616e73666572206f6620746f6b656e2074686174206973206e6f74206f776e4552433732314d657461646174613a2055524920717565727920666f72206e6f6e6578697374656e7420746f6b656e4552433732313a20617070726f76616c20746f2063757272656e74206f776e65724552433732313a207472616e736665722063616c6c6572206973206e6f74206f776e6572206e6f7220617070726f766564a2646970667358221220b214cdf09475a588b04290d9478f2abf0b7c552df152baf6ac5f5ce440a91e4264736f6c63430007060033",
  "immutableReferences": {},
  "source": "// SPDX-License-Identifier: MIT\r\npragma solidity >=0.4.21 <0.8.0;\r\npragma abicoder v2;\r\n\r\n// import ERC721 iterface\r\nimport \"./ERC721.sol\";\r\n\r\n// CryptoBoys smart contract inherits ERC721 interface\r\ncontract CryptoBoys is ERC721 {\r\n\r\n  // this contract's token collection name\r\n  string public collectionName;\r\n  // this contract's token symbol\r\n  string public collectionNameSymbol;\r\n  // total number of crypto boys minted\r\n  uint256 public cryptoBoyCounter;\r\n  // total number of users\r\n  uint256 public userCounter;\r\n\r\n  // define crypto boy struct\r\n   struct CryptoBoy {\r\n    uint256 tokenId;\r\n    string tokenName;\r\n    string tokenURI;\r\n    address payable mintedBy;\r\n    address payable currentOwner;\r\n    address payable previousOwner;\r\n    uint256 price;\r\n    string imageHash;\r\n    \r\n    uint256 numberOfTransfers;\r\n    bool forSale;\r\n  }\r\n\r\n  //define user struct\r\n  struct User{\r\n    uint userId;\r\n    string userName;\r\n    string email;\r\n    string social;\r\n    string repo;\r\n    string bio;\r\n    string avatarhash;\r\n    address userAddress;\r\n  }\r\n\r\n  // map cryptoboy's token id to crypto boy\r\n  mapping(uint256 => CryptoBoy) public allCryptoBoys;\r\n  // check if token name exists\r\n  mapping(string => bool) public tokenNameExists;\r\n  // check if image exists\r\n  mapping(string => bool) public imageExists;\r\n  // check if token URI exists\r\n  mapping(string => bool) public tokenURIExists;\r\n  // map cryptoboy's token id to crypto boy\r\n  mapping(address => User) public allUsers;\r\n  // check if token name exists\r\n  mapping(string => bool) public userNameExists;\r\n  // check if image exists\r\n  mapping(string => bool) public userEmailExists;\r\n  // check if user Address exists\r\n  mapping(address => bool) public userAddressExists;\r\n\r\n  // initialize contract while deployment with contract's collection name and token\r\n  constructor() ERC721(\"Crypto Boys Collection\", \"CB\") {\r\n    collectionName = name();\r\n    collectionNameSymbol = symbol();\r\n  }\r\n\r\n\r\n  //create a user\r\n  function createUser(string memory _userName,string memory _avatar,string memory _email,string memory _social,string memory _repo,string memory _bio)external{\r\n    // check if thic fucntion caller is not an zero address account\r\n    require(msg.sender != address(0));\r\n    \r\n    // increment counter\r\n    userCounter ++;\r\n    // check if user already exists\r\n    require(!userAddressExists[msg.sender]); \r\n    // check if the userName already exists or not\r\n    require(!userNameExists[_userName]);\r\n    // check if the email already exists or not\r\n    require(!userEmailExists[_email]);\r\n    // make passed userName as exists\r\n    userNameExists[_userName]=true;\r\n    // make passed userAddress as exists\r\n    userAddressExists[msg.sender]=true;\r\n    // make passed email as exists\r\n    userEmailExists[_email]=true;\r\n    // creat a new user (struct) and pass in new values\r\n    User memory newUser=User(\r\n     userCounter,\r\n     _userName,\r\n     _email,\r\n     _social,\r\n     _repo,\r\n     _bio,\r\n     _avatar,\r\n     msg.sender\r\n    );\r\n    // add the address and it's user to all users mapping\r\n    allUsers[msg.sender] = newUser;\r\n\r\n  }\r\n\r\n  //update User\r\n  function updateUser(string memory _userName,string memory _avatar,string memory _email,string memory _social,string memory _repo,string memory _bio)external{\r\n   // check if thic fucntion caller is not an zero address account\r\n    require(msg.sender != address(0));\r\n    // user already exists\r\n    require(userAddressExists[msg.sender]); \r\n    // check if the userName already exists or not\r\n    require(!userNameExists[_userName]);\r\n    // check if the email already exists or not\r\n    //require(!userEmailExists[_email]);\r\n    // // make passed userName as exists\r\n    userNameExists[_userName]=true;\r\n    // make passed email as exists\r\n    userEmailExists[_email]=true;\r\n    // creat a new user (struct) and pass in new values\r\n    User memory newUser=User(\r\n     userCounter,\r\n     _userName,\r\n     _email,\r\n     _social,\r\n     _repo,\r\n     _bio,\r\n     _avatar,\r\n     msg.sender\r\n    );\r\n    // add the address and it's user to all users mapping\r\n    allUsers[msg.sender] = newUser;\r\n  }\r\n\r\n  // mint a new crypto boy\r\n  function mintCryptoBoy(string memory _name, string memory _tokenURI, uint256 _price,string memory _imageHash) external {\r\n    // check if thic fucntion caller is not an zero address account\r\n    require(msg.sender != address(0));\r\n    // increment counter\r\n    cryptoBoyCounter ++;\r\n    // check if a token exists with the above token id => incremented counter\r\n    require(!_exists(cryptoBoyCounter));\r\n\r\n    // loop through the colors passed and check if each colors already exists or not\r\n    // for(uint i=0; i<_colors.length; i++) {\r\n    //   require(!colorExists[_colors[i]]);\r\n    // }\r\n    // check if the image already exists or not\r\n    require(!imageExists[_imageHash]);\r\n    // check if the token URI already exists or not\r\n    require(!tokenURIExists[_tokenURI]);\r\n    // check if the token name already exists or not\r\n    require(!tokenNameExists[_name]);\r\n\r\n    // mint the token\r\n    _mint(msg.sender, cryptoBoyCounter);\r\n    // set token URI (bind token id with the passed in token URI)\r\n    _setTokenURI(cryptoBoyCounter, _tokenURI);\r\n\r\n    // loop through the colors passed and make each of the colors as exists since the token is already minted\r\n    // for (uint i=0; i<_colors.length; i++) {\r\n    //   colorExists[_colors[i]] = true;\r\n    // }\r\n    // make passed token URI as exists\r\n    tokenURIExists[_tokenURI] = true;\r\n    // make token name passed as exists\r\n    tokenNameExists[_name] = true;\r\n    // make passed image as exists\r\n    imageExists[_imageHash]=true;\r\n\r\n    // creat a new crypto boy (struct) and pass in new values\r\n    CryptoBoy memory newCryptoBoy = CryptoBoy(\r\n    cryptoBoyCounter,\r\n    _name,\r\n    _tokenURI,\r\n    msg.sender,\r\n    msg.sender,\r\n    address(0),\r\n    _price,\r\n    _imageHash,\r\n    0,\r\n    true);\r\n    // add the token id and it's crypto boy to all crypto boys mapping\r\n    allCryptoBoys[cryptoBoyCounter] = newCryptoBoy;\r\n  }\r\n\r\n  // get owner of the token\r\n  function getTokenOwner(uint256 _tokenId) public view returns(address) {\r\n    address _tokenOwner = ownerOf(_tokenId);\r\n    return _tokenOwner;\r\n  }\r\n\r\n  // get metadata of the token\r\n  function getTokenMetaData(uint _tokenId) public view returns(string memory) {\r\n    string memory tokenMetaData = tokenURI(_tokenId);\r\n    return tokenMetaData;\r\n  }\r\n\r\n  // get total number of tokens minted so far\r\n  function getNumberOfTokensMinted() public view returns(uint256) {\r\n    uint256 totalNumberOfTokensMinted = totalSupply();\r\n    return totalNumberOfTokensMinted;\r\n  }\r\n\r\n  // get total number of tokens owned by an address\r\n  function getTotalNumberOfTokensOwnedByAnAddress(address _owner) public view returns(uint256) {\r\n    uint256 totalNumberOfTokensOwned = balanceOf(_owner);\r\n    return totalNumberOfTokensOwned;\r\n  }\r\n\r\n  // check if the token already exists\r\n  function getTokenExists(uint256 _tokenId) public view returns(bool) {\r\n    bool tokenExists = _exists(_tokenId);\r\n    return tokenExists;\r\n  }\r\n\r\n  // by a token by passing in the token's id\r\n  function buyToken(uint256 _tokenId) public payable {\r\n    // check if the function caller is not an zero account address\r\n    require(msg.sender != address(0));\r\n    // check if the token id of the token being bought exists or not\r\n    require(_exists(_tokenId));\r\n    // get the token's owner\r\n    address tokenOwner = ownerOf(_tokenId);\r\n    // token's owner should not be an zero address account\r\n    require(tokenOwner != address(0));\r\n    // the one who wants to buy the token should not be the token's owner\r\n    require(tokenOwner != msg.sender);\r\n    // get that token from all crypto boys mapping and create a memory of it defined as (struct => CryptoBoy)\r\n    CryptoBoy memory cryptoboy = allCryptoBoys[_tokenId];\r\n    // price sent in to buy should be equal to or more than the token's price\r\n    require(msg.value >= cryptoboy.price);\r\n    // token should be for sale\r\n    require(cryptoboy.forSale);\r\n    // transfer the token from owner to the caller of the function (buyer)\r\n    _transfer(tokenOwner, msg.sender, _tokenId);\r\n    // get owner of the token\r\n    address payable sendTo = cryptoboy.currentOwner;\r\n    // send token's worth of ethers to the owner from smart contract\r\n    sendTo.transfer(msg.value);\r\n    // update the token's previous owner\r\n    cryptoboy.previousOwner = cryptoboy.currentOwner;\r\n    // update the token's current owner\r\n    cryptoboy.currentOwner = msg.sender;\r\n    // update the how many times this token was transfered\r\n    cryptoboy.numberOfTransfers += 1;\r\n    // set and update that token in the mapping\r\n    allCryptoBoys[_tokenId] = cryptoboy;\r\n  }\r\n\r\n  function changeTokenPrice(uint256 _tokenId, uint256 _newPrice) public {\r\n    // require caller of the function is not an empty address\r\n    require(msg.sender != address(0));\r\n    // require that token should exist\r\n    require(_exists(_tokenId));\r\n    // get the token's owner\r\n    address tokenOwner = ownerOf(_tokenId);\r\n    // check that token's owner should be equal to the caller of the function\r\n    require(tokenOwner == msg.sender);\r\n    // get that token from all crypto boys mapping and create a memory of it defined as (struct => CryptoBoy)\r\n    CryptoBoy memory cryptoboy = allCryptoBoys[_tokenId];\r\n    // update token's price with new price\r\n   cryptoboy.price = _newPrice;\r\n    // set and update that token in the mapping\r\n    allCryptoBoys[_tokenId] = cryptoboy;\r\n  }\r\n\r\n  // switch between set for sale and set not for sale\r\n  function toggleForSale(uint256 _tokenId) public {\r\n    // require caller of the function is not an empty address\r\n    require(msg.sender != address(0));\r\n    // require that token should exist\r\n    require(_exists(_tokenId));\r\n    // get the token's owner\r\n    address tokenOwner = ownerOf(_tokenId);\r\n    // check that token's owner should be equal to the caller of the function\r\n    require(tokenOwner == msg.sender);\r\n    // get that token from all crypto boys mapping and create a memory of it defined as (struct => CryptoBoy)\r\n    CryptoBoy memory cryptoboy = allCryptoBoys[_tokenId];\r\n    // if token's forSale is false make it true and vice versa\r\n    if(cryptoboy.forSale) {\r\n      cryptoboy.forSale = false;\r\n    } else {\r\n      cryptoboy.forSale = true;\r\n    }\r\n    // set and update that token in the mapping\r\n    allCryptoBoys[_tokenId] = cryptoboy;\r\n  }\r\n}",
  "sourcePath": "C:/Users/mehta/git/fashion-nft/src/contracts/CryptoBoys.sol",
  "compiler": {
    "name": "solc",
    "version": "0.7.6+commit.7338295f.Emscripten.clang"
  },
  "schemaVersion": "3.4.1",
  "updatedAt": "2021-07-07T10:21:57.976Z",
  "networkType": "ethereum",
  "devdoc": {
    "kind": "dev",
    "methods": {
      "approve(address,uint256)": {
        "details": "See {IERC721-approve}."
      },
      "balanceOf(address)": {
        "details": "See {IERC721-balanceOf}."
      },
      "baseURI()": {
        "details": "Returns the base URI set via {_setBaseURI}. This will be automatically added as a prefix in {tokenURI} to each token's URI, or to the token ID if no specific URI is set for that token ID."
      },
      "getApproved(uint256)": {
        "details": "See {IERC721-getApproved}."
      },
      "isApprovedForAll(address,address)": {
        "details": "See {IERC721-isApprovedForAll}."
      },
      "name()": {
        "details": "See {IERC721Metadata-name}."
      },
      "ownerOf(uint256)": {
        "details": "See {IERC721-ownerOf}."
      },
      "safeTransferFrom(address,address,uint256)": {
        "details": "See {IERC721-safeTransferFrom}."
      },
      "safeTransferFrom(address,address,uint256,bytes)": {
        "details": "See {IERC721-safeTransferFrom}."
      },
      "setApprovalForAll(address,bool)": {
        "details": "See {IERC721-setApprovalForAll}."
      },
      "supportsInterface(bytes4)": {
        "details": "See {IERC165-supportsInterface}. Time complexity O(1), guaranteed to always use less than 30 000 gas."
      },
      "symbol()": {
        "details": "See {IERC721Metadata-symbol}."
      },
      "tokenByIndex(uint256)": {
        "details": "See {IERC721Enumerable-tokenByIndex}."
      },
      "tokenOfOwnerByIndex(address,uint256)": {
        "details": "See {IERC721Enumerable-tokenOfOwnerByIndex}."
      },
      "tokenURI(uint256)": {
        "details": "See {IERC721Metadata-tokenURI}."
      },
      "totalSupply()": {
        "details": "See {IERC721Enumerable-totalSupply}."
      },
      "transferFrom(address,address,uint256)": {
        "details": "See {IERC721-transferFrom}."
      }
    },
    "version": 1
  },
  "userdoc": {
    "kind": "user",
    "methods": {},
    "version": 1
  }
}