{
  "contractName": "CryptoBoys",
  "abi": [
    {
      "inputs": [],
      "stateMutability": "nonpayable",
      "type": "constructor"
    },
    {
      "anonymous": false,
      "inputs": [
        {
          "indexed": true,
          "internalType": "address",
          "name": "owner",
          "type": "address"
        },
        {
          "indexed": true,
          "internalType": "address",
          "name": "approved",
          "type": "address"
        },
        {
          "indexed": true,
          "internalType": "uint256",
          "name": "tokenId",
          "type": "uint256"
        }
      ],
      "name": "Approval",
      "type": "event"
    },
    {
      "anonymous": false,
      "inputs": [
        {
          "indexed": true,
          "internalType": "address",
          "name": "owner",
          "type": "address"
        },
        {
          "indexed": true,
          "internalType": "address",
          "name": "operator",
          "type": "address"
        },
        {
          "indexed": false,
          "internalType": "bool",
          "name": "approved",
          "type": "bool"
        }
      ],
      "name": "ApprovalForAll",
      "type": "event"
    },
    {
      "anonymous": false,
      "inputs": [
        {
          "indexed": true,
          "internalType": "address",
          "name": "from",
          "type": "address"
        },
        {
          "indexed": true,
          "internalType": "address",
          "name": "to",
          "type": "address"
        },
        {
          "indexed": true,
          "internalType": "uint256",
          "name": "tokenId",
          "type": "uint256"
        }
      ],
      "name": "Transfer",
      "type": "event"
    },
    {
      "inputs": [
        {
          "internalType": "uint256",
          "name": "",
          "type": "uint256"
        }
      ],
      "name": "allCryptoBoys",
      "outputs": [
        {
          "internalType": "uint256",
          "name": "tokenId",
          "type": "uint256"
        },
        {
          "internalType": "string",
          "name": "tokenName",
          "type": "string"
        },
        {
          "internalType": "string",
          "name": "tokenURI",
          "type": "string"
        },
        {
          "internalType": "address payable",
          "name": "mintedBy",
          "type": "address"
        },
        {
          "internalType": "address payable",
          "name": "currentOwner",
          "type": "address"
        },
        {
          "internalType": "address payable",
          "name": "previousOwner",
          "type": "address"
        },
        {
          "internalType": "uint256",
          "name": "price",
          "type": "uint256"
        },
        {
          "internalType": "string",
          "name": "imageHash",
          "type": "string"
        },
        {
          "internalType": "uint256",
          "name": "numberOfTransfers",
          "type": "uint256"
        },
        {
          "internalType": "bool",
          "name": "forSale",
          "type": "bool"
        }
      ],
      "stateMutability": "view",
      "type": "function",
      "constant": true
    },
    {
      "inputs": [
        {
          "internalType": "address",
          "name": "",
          "type": "address"
        }
      ],
      "name": "allUsers",
      "outputs": [
        {
          "internalType": "uint256",
          "name": "userId",
          "type": "uint256"
        },
        {
          "internalType": "string",
          "name": "userName",
          "type": "string"
        },
        {
          "internalType": "string",
          "name": "email",
          "type": "string"
        },
        {
          "internalType": "string",
          "name": "social",
          "type": "string"
        },
        {
          "internalType": "string",
          "name": "repo",
          "type": "string"
        },
        {
          "internalType": "string",
          "name": "bio",
          "type": "string"
        },
        {
          "internalType": "string",
          "name": "avatarHash",
          "type": "string"
        },
        {
          "internalType": "address",
          "name": "userAddress",
          "type": "address"
        }
      ],
      "stateMutability": "view",
      "type": "function",
      "constant": true
    },
    {
      "inputs": [
        {
          "internalType": "address",
          "name": "to",
          "type": "address"
        },
        {
          "internalType": "uint256",
          "name": "tokenId",
          "type": "uint256"
        }
      ],
      "name": "approve",
      "outputs": [],
      "stateMutability": "nonpayable",
      "type": "function"
    },
    {
      "inputs": [
        {
          "internalType": "address",
          "name": "owner",
          "type": "address"
        }
      ],
      "name": "balanceOf",
      "outputs": [
        {
          "internalType": "uint256",
          "name": "",
          "type": "uint256"
        }
      ],
      "stateMutability": "view",
      "type": "function",
      "constant": true
    },
    {
      "inputs": [],
      "name": "baseURI",
      "outputs": [
        {
          "internalType": "string",
          "name": "",
          "type": "string"
        }
      ],
      "stateMutability": "view",
      "type": "function",
      "constant": true
    },
    {
      "inputs": [],
      "name": "collectionName",
      "outputs": [
        {
          "internalType": "string",
          "name": "",
          "type": "string"
        }
      ],
      "stateMutability": "view",
      "type": "function",
      "constant": true
    },
    {
      "inputs": [],
      "name": "collectionNameSymbol",
      "outputs": [
        {
          "internalType": "string",
          "name": "",
          "type": "string"
        }
      ],
      "stateMutability": "view",
      "type": "function",
      "constant": true
    },
    {
      "inputs": [],
      "name": "cryptoBoyCounter",
      "outputs": [
        {
          "internalType": "uint256",
          "name": "",
          "type": "uint256"
        }
      ],
      "stateMutability": "view",
      "type": "function",
      "constant": true
    },
    {
      "inputs": [
        {
          "internalType": "uint256",
          "name": "tokenId",
          "type": "uint256"
        }
      ],
      "name": "getApproved",
      "outputs": [
        {
          "internalType": "address",
          "name": "",
          "type": "address"
        }
      ],
      "stateMutability": "view",
      "type": "function",
      "constant": true
    },
    {
      "inputs": [
        {
          "internalType": "string",
          "name": "",
          "type": "string"
        }
      ],
      "name": "imageExists",
      "outputs": [
        {
          "internalType": "bool",
          "name": "",
          "type": "bool"
        }
      ],
      "stateMutability": "view",
      "type": "function",
      "constant": true
    },
    {
      "inputs": [
        {
          "internalType": "address",
          "name": "owner",
          "type": "address"
        },
        {
          "internalType": "address",
          "name": "operator",
          "type": "address"
        }
      ],
      "name": "isApprovedForAll",
      "outputs": [
        {
          "internalType": "bool",
          "name": "",
          "type": "bool"
        }
      ],
      "stateMutability": "view",
      "type": "function",
      "constant": true
    },
    {
      "inputs": [],
      "name": "name",
      "outputs": [
        {
          "internalType": "string",
          "name": "",
          "type": "string"
        }
      ],
      "stateMutability": "view",
      "type": "function",
      "constant": true
    },
    {
      "inputs": [
        {
          "internalType": "uint256",
          "name": "tokenId",
          "type": "uint256"
        }
      ],
      "name": "ownerOf",
      "outputs": [
        {
          "internalType": "address",
          "name": "",
          "type": "address"
        }
      ],
      "stateMutability": "view",
      "type": "function",
      "constant": true
    },
    {
      "inputs": [
        {
          "internalType": "address",
          "name": "from",
          "type": "address"
        },
        {
          "internalType": "address",
          "name": "to",
          "type": "address"
        },
        {
          "internalType": "uint256",
          "name": "tokenId",
          "type": "uint256"
        }
      ],
      "name": "safeTransferFrom",
      "outputs": [],
      "stateMutability": "nonpayable",
      "type": "function"
    },
    {
      "inputs": [
        {
          "internalType": "address",
          "name": "from",
          "type": "address"
        },
        {
          "internalType": "address",
          "name": "to",
          "type": "address"
        },
        {
          "internalType": "uint256",
          "name": "tokenId",
          "type": "uint256"
        },
        {
          "internalType": "bytes",
          "name": "_data",
          "type": "bytes"
        }
      ],
      "name": "safeTransferFrom",
      "outputs": [],
      "stateMutability": "nonpayable",
      "type": "function"
    },
    {
      "inputs": [
        {
          "internalType": "address",
          "name": "operator",
          "type": "address"
        },
        {
          "internalType": "bool",
          "name": "approved",
          "type": "bool"
        }
      ],
      "name": "setApprovalForAll",
      "outputs": [],
      "stateMutability": "nonpayable",
      "type": "function"
    },
    {
      "inputs": [
        {
          "internalType": "bytes4",
          "name": "interfaceId",
          "type": "bytes4"
        }
      ],
      "name": "supportsInterface",
      "outputs": [
        {
          "internalType": "bool",
          "name": "",
          "type": "bool"
        }
      ],
      "stateMutability": "view",
      "type": "function",
      "constant": true
    },
    {
      "inputs": [],
      "name": "symbol",
      "outputs": [
        {
          "internalType": "string",
          "name": "",
          "type": "string"
        }
      ],
      "stateMutability": "view",
      "type": "function",
      "constant": true
    },
    {
      "inputs": [
        {
          "internalType": "uint256",
          "name": "index",
          "type": "uint256"
        }
      ],
      "name": "tokenByIndex",
      "outputs": [
        {
          "internalType": "uint256",
          "name": "",
          "type": "uint256"
        }
      ],
      "stateMutability": "view",
      "type": "function",
      "constant": true
    },
    {
      "inputs": [
        {
          "internalType": "string",
          "name": "",
          "type": "string"
        }
      ],
      "name": "tokenNameExists",
      "outputs": [
        {
          "internalType": "bool",
          "name": "",
          "type": "bool"
        }
      ],
      "stateMutability": "view",
      "type": "function",
      "constant": true
    },
    {
      "inputs": [
        {
          "internalType": "address",
          "name": "owner",
          "type": "address"
        },
        {
          "internalType": "uint256",
          "name": "index",
          "type": "uint256"
        }
      ],
      "name": "tokenOfOwnerByIndex",
      "outputs": [
        {
          "internalType": "uint256",
          "name": "",
          "type": "uint256"
        }
      ],
      "stateMutability": "view",
      "type": "function",
      "constant": true
    },
    {
      "inputs": [
        {
          "internalType": "uint256",
          "name": "tokenId",
          "type": "uint256"
        }
      ],
      "name": "tokenURI",
      "outputs": [
        {
          "internalType": "string",
          "name": "",
          "type": "string"
        }
      ],
      "stateMutability": "view",
      "type": "function",
      "constant": true
    },
    {
      "inputs": [
        {
          "internalType": "string",
          "name": "",
          "type": "string"
        }
      ],
      "name": "tokenURIExists",
      "outputs": [
        {
          "internalType": "bool",
          "name": "",
          "type": "bool"
        }
      ],
      "stateMutability": "view",
      "type": "function",
      "constant": true
    },
    {
      "inputs": [],
      "name": "totalSupply",
      "outputs": [
        {
          "internalType": "uint256",
          "name": "",
          "type": "uint256"
        }
      ],
      "stateMutability": "view",
      "type": "function",
      "constant": true
    },
    {
      "inputs": [
        {
          "internalType": "address",
          "name": "from",
          "type": "address"
        },
        {
          "internalType": "address",
          "name": "to",
          "type": "address"
        },
        {
          "internalType": "uint256",
          "name": "tokenId",
          "type": "uint256"
        }
      ],
      "name": "transferFrom",
      "outputs": [],
      "stateMutability": "nonpayable",
      "type": "function"
    },
    {
      "inputs": [
        {
          "internalType": "address",
          "name": "",
          "type": "address"
        }
      ],
      "name": "userAddressExists",
      "outputs": [
        {
          "internalType": "bool",
          "name": "",
          "type": "bool"
        }
      ],
      "stateMutability": "view",
      "type": "function",
      "constant": true
    },
    {
      "inputs": [],
      "name": "userCounter",
      "outputs": [
        {
          "internalType": "uint256",
          "name": "",
          "type": "uint256"
        }
      ],
      "stateMutability": "view",
      "type": "function",
      "constant": true
    },
    {
      "inputs": [
        {
          "internalType": "string",
          "name": "",
          "type": "string"
        }
      ],
      "name": "userNameExists",
      "outputs": [
        {
          "internalType": "bool",
          "name": "",
          "type": "bool"
        }
      ],
      "stateMutability": "view",
      "type": "function",
      "constant": true
    },
    {
      "inputs": [
        {
          "internalType": "string",
          "name": "_userName",
          "type": "string"
        },
        {
          "internalType": "string",
          "name": "_avatarHash",
          "type": "string"
        },
        {
          "internalType": "string",
          "name": "_email",
          "type": "string"
        },
        {
          "internalType": "string",
          "name": "_social",
          "type": "string"
        },
        {
          "internalType": "string",
          "name": "_repo",
          "type": "string"
        },
        {
          "internalType": "string",
          "name": "_bio",
          "type": "string"
        }
      ],
      "name": "createUser",
      "outputs": [],
      "stateMutability": "nonpayable",
      "type": "function"
    },
    {
      "inputs": [
        {
          "internalType": "address",
          "name": "_userAddress",
          "type": "address"
        }
      ],
      "name": "getIndexByAddress",
      "outputs": [
        {
          "internalType": "uint256",
          "name": "",
          "type": "uint256"
        }
      ],
      "stateMutability": "view",
      "type": "function",
      "constant": true
    },
    {
      "inputs": [
        {
          "internalType": "string",
          "name": "_userName",
          "type": "string"
        },
        {
          "internalType": "string",
          "name": "_avatarHash",
          "type": "string"
        },
        {
          "internalType": "string",
          "name": "_email",
          "type": "string"
        },
        {
          "internalType": "string",
          "name": "_social",
          "type": "string"
        },
        {
          "internalType": "string",
          "name": "_repo",
          "type": "string"
        },
        {
          "internalType": "string",
          "name": "_bio",
          "type": "string"
        }
      ],
      "name": "updateUser",
      "outputs": [
        {
          "internalType": "bool",
          "name": "",
          "type": "bool"
        }
      ],
      "stateMutability": "nonpayable",
      "type": "function"
    },
    {
      "inputs": [
        {
          "internalType": "string",
          "name": "_name",
          "type": "string"
        },
        {
          "internalType": "string",
          "name": "_tokenURI",
          "type": "string"
        },
        {
          "internalType": "uint256",
          "name": "_price",
          "type": "uint256"
        },
        {
          "internalType": "string",
          "name": "_imageHash",
          "type": "string"
        }
      ],
      "name": "mintCryptoBoy",
      "outputs": [],
      "stateMutability": "nonpayable",
      "type": "function"
    },
    {
      "inputs": [
        {
          "internalType": "uint256",
          "name": "_tokenId",
          "type": "uint256"
        }
      ],
      "name": "getTokenOwner",
      "outputs": [
        {
          "internalType": "address",
          "name": "",
          "type": "address"
        }
      ],
      "stateMutability": "view",
      "type": "function",
      "constant": true
    },
    {
      "inputs": [
        {
          "internalType": "uint256",
          "name": "_tokenId",
          "type": "uint256"
        }
      ],
      "name": "getTokenMetaData",
      "outputs": [
        {
          "internalType": "string",
          "name": "",
          "type": "string"
        }
      ],
      "stateMutability": "view",
      "type": "function",
      "constant": true
    },
    {
      "inputs": [],
      "name": "getNumberOfTokensMinted",
      "outputs": [
        {
          "internalType": "uint256",
          "name": "",
          "type": "uint256"
        }
      ],
      "stateMutability": "view",
      "type": "function",
      "constant": true
    },
    {
      "inputs": [
        {
          "internalType": "address",
          "name": "_owner",
          "type": "address"
        }
      ],
      "name": "getTotalNumberOfTokensOwnedByAnAddress",
      "outputs": [
        {
          "internalType": "uint256",
          "name": "",
          "type": "uint256"
        }
      ],
      "stateMutability": "view",
      "type": "function",
      "constant": true
    },
    {
      "inputs": [
        {
          "internalType": "uint256",
          "name": "_tokenId",
          "type": "uint256"
        }
      ],
      "name": "getTokenExists",
      "outputs": [
        {
          "internalType": "bool",
          "name": "",
          "type": "bool"
        }
      ],
      "stateMutability": "view",
      "type": "function",
      "constant": true
    },
    {
      "inputs": [
        {
          "internalType": "uint256",
          "name": "_tokenId",
          "type": "uint256"
        }
      ],
      "name": "buyToken",
      "outputs": [],
      "stateMutability": "payable",
      "type": "function",
      "payable": true
    },
    {
      "inputs": [
        {
          "internalType": "uint256",
          "name": "_tokenId",
          "type": "uint256"
        },
        {
          "internalType": "uint256",
          "name": "_newPrice",
          "type": "uint256"
        }
      ],
      "name": "changeTokenPrice",
      "outputs": [],
      "stateMutability": "nonpayable",
      "type": "function"
    },
    {
      "inputs": [
        {
          "internalType": "uint256",
          "name": "_tokenId",
          "type": "uint256"
        }
      ],
      "name": "toggleForSale",
      "outputs": [],
      "stateMutability": "nonpayable",
      "type": "function"
    }
  ],
  "bytecode": "0x60806040523480156200001157600080fd5b506040518060400160405280601681526020017f43727970746f20426f797320436f6c6c656374696f6e000000000000000000008152506040518060400160405280600281526020017f4342000000000000000000000000000000000000000000000000000000000000815250620000966301ffc9a760e01b6200016860201b60201c565b8160069080519060200190620000ae929190620003bd565b508060079080519060200190620000c7929190620003bd565b50620000e06380ac58cd60e01b6200016860201b60201c565b620000f8635b5e139f60e01b6200016860201b60201c565b6200011063780e9d6360e01b6200016860201b60201c565b5050620001226200027160201b60201c565b600a908051906020019062000139929190620003bd565b506200014a6200031760201b60201c565b600b908051906020019062000161929190620003bd565b5062000473565b63ffffffff60e01b817bffffffffffffffffffffffffffffffffffffffffffffffffffffffff1916141562000205576040517f08c379a000000000000000000000000000000000000000000000000000000000815260040180806020018281038252601c8152602001807f4552433136353a20696e76616c696420696e746572666163652069640000000081525060200191505060405180910390fd5b6001600080837bffffffffffffffffffffffffffffffffffffffffffffffffffffffff19167bffffffffffffffffffffffffffffffffffffffffffffffffffffffff1916815260200190815260200160002060006101000a81548160ff02191690831515021790555050565b606060068054600181600116156101000203166002900480601f0160208091040260200160405190810160405280929190818152602001828054600181600116156101000203166002900480156200030d5780601f10620002e1576101008083540402835291602001916200030d565b820191906000526020600020905b815481529060010190602001808311620002ef57829003601f168201915b5050505050905090565b606060078054600181600116156101000203166002900480601f016020809104026020016040519081016040528092919081815260200182805460018160011615610100020316600290048015620003b35780601f106200038757610100808354040283529160200191620003b3565b820191906000526020600020905b8154815290600101906020018083116200039557829003601f168201915b5050505050905090565b828054600181600116156101000203166002900490600052602060002090601f016020900481019282620003f5576000855562000441565b82601f106200041057805160ff191683800117855562000441565b8280016001018555821562000441579182015b828111156200044057825182559160200191906001019062000423565b5b50905062000450919062000454565b5090565b5b808211156200046f57600081600090555060010162000455565b5090565b615ad880620004836000396000f3fe60806040526004361061023b5760003560e01c806367c623cf1161012e578063b88d4fde116100ab578063e5326ab11161006f578063e5326ab11461094d578063e985e9c514610978578063edbece37146109b5578063f0c37a59146109f9578063ff6cef0814610a245761023b565b8063b88d4fde14610854578063bffec2021461087d578063c87b56dd146108a8578063cc151f3a146108e5578063e04b6f04146109105761023b565b806395d89b41116100f257806395d89b411461075d578063a22cb46514610788578063a32018b9146107b1578063a46b1fac146107da578063a5cd761f146108175761023b565b806367c623cf146106645780636c0360eb146106a15780636f9507f9146106cc57806370a08231146106f7578063898678a2146107345761023b565b806323b872dd116101bc57806343d32ae71161018057806343d32ae71461053e57806344c0d7eb1461057b5780634f6ccce7146105c157806362e8e8ac146105fe5780636352211e146106275761023b565b806323b872dd146104565780632d296bf11461047f5780632f745c591461049b57806342842e0e146104d857806343902850146105015761023b565b8063095ea7b311610203578063095ea7b31461034b578063142687f31461037457806315f5744a146103b157806318160ddd146103ee5780631973ef91146104195761023b565b806301dadb2b1461024057806301ffc9a71461026957806302c90584146102a657806306fdde03146102e3578063081812fc1461030e575b600080fd5b34801561024c57600080fd5b5061026760048036038101906102629190615188565b610a61565b005b34801561027557600080fd5b50610290600480360381019061028b919061511e565b610db0565b60405161029d9190615489565b60405180910390f35b3480156102b257600080fd5b506102cd60048036038101906102c89190614f77565b610e17565b6040516102da9190615489565b60405180910390f35b3480156102ef57600080fd5b506102f8610e37565b60405161030591906154a4565b60405180910390f35b34801561031a57600080fd5b506103356004803603810190610330919061534c565b610ed9565b604051610342919061546e565b60405180910390f35b34801561035757600080fd5b50610372600480360381019061036d91906150e2565b610f74565b005b34801561038057600080fd5b5061039b6004803603810190610396919061534c565b6110b8565b6040516103a89190615489565b60405180910390f35b3480156103bd57600080fd5b506103d860048036038101906103d39190615188565b6110cf565b6040516103e59190615489565b60405180910390f35b3480156103fa57600080fd5b506104036112ca565b60405161041091906154c6565b60405180910390f35b34801561042557600080fd5b50610440600480360381019061043b9190614f77565b6112db565b60405161044d91906154c6565b60405180910390f35b34801561046257600080fd5b5061047d60048036038101906104789190614fdc565b61137a565b005b6104996004803603810190610494919061534c565b6113f0565b005b3480156104a757600080fd5b506104c260048036038101906104bd91906150e2565b611a8a565b6040516104cf91906154c6565b60405180910390f35b3480156104e457600080fd5b506104ff60048036038101906104fa9190614fdc565b611ae5565b005b34801561050d57600080fd5b5061052860048036038101906105239190614f77565b611b05565b60405161053591906154c6565b60405180910390f35b34801561054a57600080fd5b5061056560048036038101906105609190615147565b611b1c565b6040516105729190615489565b60405180910390f35b34801561058757600080fd5b506105a2600480360381019061059d919061534c565b611b52565b6040516105b89a999897969594939291906154e1565b60405180910390f35b3480156105cd57600080fd5b506105e860048036038101906105e3919061534c565b611ddb565b6040516105f591906154c6565b60405180910390f35b34801561060a57600080fd5b5061062560048036038101906106209190615375565b611dfe565b005b34801561063357600080fd5b5061064e6004803603810190610649919061534c565b612366565b60405161065b919061546e565b60405180910390f35b34801561067057600080fd5b5061068b6004803603810190610686919061534c565b61239d565b60405161069891906154a4565b60405180910390f35b3480156106ad57600080fd5b506106b66123b5565b6040516106c391906154a4565b60405180910390f35b3480156106d857600080fd5b506106e1612457565b6040516106ee91906154a4565b60405180910390f35b34801561070357600080fd5b5061071e60048036038101906107199190614f77565b6124f5565b60405161072b91906154c6565b60405180910390f35b34801561074057600080fd5b5061075b600480360381019061075691906152a1565b6125ca565b005b34801561076957600080fd5b506107726129a9565b60405161077f91906154a4565b60405180910390f35b34801561079457600080fd5b506107af60048036038101906107aa91906150a6565b612a4b565b005b3480156107bd57600080fd5b506107d860048036038101906107d3919061534c565b612c01565b005b3480156107e657600080fd5b5061080160048036038101906107fc9190615147565b613193565b60405161080e9190615489565b60405180910390f35b34801561082357600080fd5b5061083e6004803603810190610839919061534c565b6131c9565b60405161084b919061546e565b60405180910390f35b34801561086057600080fd5b5061087b6004803603810190610876919061502b565b6131e0565b005b34801561088957600080fd5b50610892613258565b60405161089f91906154c6565b60405180910390f35b3480156108b457600080fd5b506108cf60048036038101906108ca919061534c565b61325e565b6040516108dc91906154a4565b60405180910390f35b3480156108f157600080fd5b506108fa61352f565b60405161090791906154c6565b60405180910390f35b34801561091c57600080fd5b5061093760048036038101906109329190615147565b613543565b6040516109449190615489565b60405180910390f35b34801561095957600080fd5b50610962613579565b60405161096f91906154a4565b60405180910390f35b34801561098457600080fd5b5061099f600480360381019061099a9190614fa0565b613617565b6040516109ac9190615489565b60405180910390f35b3480156109c157600080fd5b506109dc60048036038101906109d79190614f77565b6136ab565b6040516109f0989796959493929190615592565b60405180910390f35b348015610a0557600080fd5b50610a0e613aa3565b604051610a1b91906154c6565b60405180910390f35b348015610a3057600080fd5b50610a4b6004803603810190610a469190615147565b613aa9565b604051610a589190615489565b60405180910390f35b600073ffffffffffffffffffffffffffffffffffffffff163373ffffffffffffffffffffffffffffffffffffffff161415610a9b57600080fd5b600d60008154809291906001019190505550601386604051610abd9190615457565b908152602001604051809103902060009054906101000a900460ff1615610ae357600080fd5b601460003373ffffffffffffffffffffffffffffffffffffffff1673ffffffffffffffffffffffffffffffffffffffff16815260200190815260200160002060009054906101000a900460ff1615610b3a57600080fd5b6001601387604051610b4c9190615457565b908152602001604051809103902060006101000a81548160ff0219169083151502179055506001601460003373ffffffffffffffffffffffffffffffffffffffff1673ffffffffffffffffffffffffffffffffffffffff16815260200190815260200160002060006101000a81548160ff0219169083151502179055506000604051806101000160405280600d5481526020018881526020018681526020018581526020018481526020018381526020018781526020013373ffffffffffffffffffffffffffffffffffffffff16815250905080601260003373ffffffffffffffffffffffffffffffffffffffff1673ffffffffffffffffffffffffffffffffffffffff168152602001908152602001600020600082015181600001556020820151816001019080519060200190610c85929190614da8565b506040820151816002019080519060200190610ca2929190614da8565b506060820151816003019080519060200190610cbf929190614da8565b506080820151816004019080519060200190610cdc929190614da8565b5060a0820151816005019080519060200190610cf9929190614da8565b5060c0820151816006019080519060200190610d16929190614da8565b5060e08201518160070160006101000a81548173ffffffffffffffffffffffffffffffffffffffff021916908373ffffffffffffffffffffffffffffffffffffffff160217905550905050600d54601560003373ffffffffffffffffffffffffffffffffffffffff1673ffffffffffffffffffffffffffffffffffffffff1681526020019081526020016000208190555050505050505050565b6000806000837bffffffffffffffffffffffffffffffffffffffffffffffffffffffff19167bffffffffffffffffffffffffffffffffffffffffffffffffffffffff1916815260200190815260200160002060009054906101000a900460ff169050919050565b60146020528060005260406000206000915054906101000a900460ff1681565b606060068054600181600116156101000203166002900480601f016020809104026020016040519081016040528092919081815260200182805460018160011615610100020316600290048015610ecf5780601f10610ea457610100808354040283529160200191610ecf565b820191906000526020600020905b815481529060010190602001808311610eb257829003601f168201915b5050505050905090565b6000610ee482613adf565b610f39576040517f08c379a000000000000000000000000000000000000000000000000000000000815260040180806020018281038252602c8152602001806159a1602c913960400191505060405180910390fd5b6004600083815260200190815260200160002060009054906101000a900473ffffffffffffffffffffffffffffffffffffffff169050919050565b6000610f7f82612366565b90508073ffffffffffffffffffffffffffffffffffffffff168373ffffffffffffffffffffffffffffffffffffffff161415611006576040517f08c379a0000000000000000000000000000000000000000000000000000000008152600401808060200182810382526021815260200180615a516021913960400191505060405180910390fd5b8073ffffffffffffffffffffffffffffffffffffffff16611025613afc565b73ffffffffffffffffffffffffffffffffffffffff16148061105457506110538161104e613afc565b613617565b5b6110a9576040517f08c379a00000000000000000000000000000000000000000000000000000000081526004018080602001828103825260388152602001806158f46038913960400191505060405180910390fd5b6110b38383613b04565b505050565b6000806110c483613adf565b905080915050919050565b6000601460003373ffffffffffffffffffffffffffffffffffffffff1673ffffffffffffffffffffffffffffffffffffffff16815260200190815260200160002060009054906101000a900460ff1661112757600080fd5b6000604051806101000160405280600d5481526020018981526020018881526020018781526020018681526020018581526020018481526020013373ffffffffffffffffffffffffffffffffffffffff16815250905080601260003373ffffffffffffffffffffffffffffffffffffffff1673ffffffffffffffffffffffffffffffffffffffff1681526020019081526020016000206000820151816000015560208201518160010190805190602001906111e3929190614da8565b506040820151816002019080519060200190611200929190614da8565b50606082015181600301908051906020019061121d929190614da8565b50608082015181600401908051906020019061123a929190614da8565b5060a0820151816005019080519060200190611257929190614da8565b5060c0820151816006019080519060200190611274929190614da8565b5060e08201518160070160006101000a81548173ffffffffffffffffffffffffffffffffffffffff021916908373ffffffffffffffffffffffffffffffffffffffff160217905550905050509695505050505050565b60006112d66002613bbd565b905090565b6000601460008373ffffffffffffffffffffffffffffffffffffffff1673ffffffffffffffffffffffffffffffffffffffff16815260200190815260200160002060009054906101000a900460ff1661133357600080fd5b601560008373ffffffffffffffffffffffffffffffffffffffff1673ffffffffffffffffffffffffffffffffffffffff168152602001908152602001600020549050919050565b61138b611385613afc565b82613bd2565b6113e0576040517f08c379a0000000000000000000000000000000000000000000000000000000008152600401808060200182810382526031815260200180615a726031913960400191505060405180910390fd5b6113eb838383613cc6565b505050565b600073ffffffffffffffffffffffffffffffffffffffff163373ffffffffffffffffffffffffffffffffffffffff16141561142a57600080fd5b61143381613adf565b61143c57600080fd5b600061144782612366565b9050600073ffffffffffffffffffffffffffffffffffffffff168173ffffffffffffffffffffffffffffffffffffffff16141561148357600080fd5b3373ffffffffffffffffffffffffffffffffffffffff168173ffffffffffffffffffffffffffffffffffffffff1614156114bc57600080fd5b6000600e60008481526020019081526020016000206040518061014001604052908160008201548152602001600182018054600181600116156101000203166002900480601f0160208091040260200160405190810160405280929190818152602001828054600181600116156101000203166002900480156115805780601f1061155557610100808354040283529160200191611580565b820191906000526020600020905b81548152906001019060200180831161156357829003601f168201915b50505050508152602001600282018054600181600116156101000203166002900480601f0160208091040260200160405190810160405280929190818152602001828054600181600116156101000203166002900480156116225780601f106115f757610100808354040283529160200191611622565b820191906000526020600020905b81548152906001019060200180831161160557829003601f168201915b505050505081526020016003820160009054906101000a900473ffffffffffffffffffffffffffffffffffffffff1673ffffffffffffffffffffffffffffffffffffffff1673ffffffffffffffffffffffffffffffffffffffff1681526020016004820160009054906101000a900473ffffffffffffffffffffffffffffffffffffffff1673ffffffffffffffffffffffffffffffffffffffff1673ffffffffffffffffffffffffffffffffffffffff1681526020016005820160009054906101000a900473ffffffffffffffffffffffffffffffffffffffff1673ffffffffffffffffffffffffffffffffffffffff1673ffffffffffffffffffffffffffffffffffffffff16815260200160068201548152602001600782018054600181600116156101000203166002900480601f0160208091040260200160405190810160405280929190818152602001828054600181600116156101000203166002900480156117d05780601f106117a5576101008083540402835291602001916117d0565b820191906000526020600020905b8154815290600101906020018083116117b357829003601f168201915b50505050508152602001600882015481526020016009820160009054906101000a900460ff16151515158152505090508060c0015134101561181157600080fd5b80610120015161182057600080fd5b61182b823385613cc6565b6000816080015190508073ffffffffffffffffffffffffffffffffffffffff166108fc349081150290604051600060405180830381858888f1935050505015801561187a573d6000803e3d6000fd5b5081608001518260a0019073ffffffffffffffffffffffffffffffffffffffff16908173ffffffffffffffffffffffffffffffffffffffff168152505033826080019073ffffffffffffffffffffffffffffffffffffffff16908173ffffffffffffffffffffffffffffffffffffffff168152505060018261010001818151019150818152505081600e600086815260200190815260200160002060008201518160000155602082015181600101908051906020019061193b929190614da8565b506040820151816002019080519060200190611958929190614da8565b5060608201518160030160006101000a81548173ffffffffffffffffffffffffffffffffffffffff021916908373ffffffffffffffffffffffffffffffffffffffff16021790555060808201518160040160006101000a81548173ffffffffffffffffffffffffffffffffffffffff021916908373ffffffffffffffffffffffffffffffffffffffff16021790555060a08201518160050160006101000a81548173ffffffffffffffffffffffffffffffffffffffff021916908373ffffffffffffffffffffffffffffffffffffffff16021790555060c0820151816006015560e0820151816007019080519060200190611a54929190614da8565b5061010082015181600801556101208201518160090160006101000a81548160ff02191690831515021790555090505050505050565b6000611add82600160008673ffffffffffffffffffffffffffffffffffffffff1673ffffffffffffffffffffffffffffffffffffffff168152602001908152602001600020613f0990919063ffffffff16565b905092915050565b611b00838383604051806020016040528060008152506131e0565b505050565b600080611b11836124f5565b905080915050919050565b6011818051602081018201805184825260208301602085012081835280955050505050506000915054906101000a900460ff1681565b600e602052806000526040600020600091509050806000015490806001018054600181600116156101000203166002900480601f016020809104026020016040519081016040528092919081815260200182805460018160011615610100020316600290048015611c045780601f10611bd957610100808354040283529160200191611c04565b820191906000526020600020905b815481529060010190602001808311611be757829003601f168201915b505050505090806002018054600181600116156101000203166002900480601f016020809104026020016040519081016040528092919081815260200182805460018160011615610100020316600290048015611ca25780601f10611c7757610100808354040283529160200191611ca2565b820191906000526020600020905b815481529060010190602001808311611c8557829003601f168201915b5050505050908060030160009054906101000a900473ffffffffffffffffffffffffffffffffffffffff16908060040160009054906101000a900473ffffffffffffffffffffffffffffffffffffffff16908060050160009054906101000a900473ffffffffffffffffffffffffffffffffffffffff1690806006015490806007018054600181600116156101000203166002900480601f016020809104026020016040519081016040528092919081815260200182805460018160011615610100020316600290048015611db85780601f10611d8d57610100808354040283529160200191611db8565b820191906000526020600020905b815481529060010190602001808311611d9b57829003601f168201915b5050505050908060080154908060090160009054906101000a900460ff1690508a565b600080611df2836002613f2390919063ffffffff16565b50905080915050919050565b600073ffffffffffffffffffffffffffffffffffffffff163373ffffffffffffffffffffffffffffffffffffffff161415611e3857600080fd5b611e4182613adf565b611e4a57600080fd5b6000611e5583612366565b90503373ffffffffffffffffffffffffffffffffffffffff168173ffffffffffffffffffffffffffffffffffffffff1614611e8f57600080fd5b6000600e60008581526020019081526020016000206040518061014001604052908160008201548152602001600182018054600181600116156101000203166002900480601f016020809104026020016040519081016040528092919081815260200182805460018160011615610100020316600290048015611f535780601f10611f2857610100808354040283529160200191611f53565b820191906000526020600020905b815481529060010190602001808311611f3657829003601f168201915b50505050508152602001600282018054600181600116156101000203166002900480601f016020809104026020016040519081016040528092919081815260200182805460018160011615610100020316600290048015611ff55780601f10611fca57610100808354040283529160200191611ff5565b820191906000526020600020905b815481529060010190602001808311611fd857829003601f168201915b505050505081526020016003820160009054906101000a900473ffffffffffffffffffffffffffffffffffffffff1673ffffffffffffffffffffffffffffffffffffffff1673ffffffffffffffffffffffffffffffffffffffff1681526020016004820160009054906101000a900473ffffffffffffffffffffffffffffffffffffffff1673ffffffffffffffffffffffffffffffffffffffff1673ffffffffffffffffffffffffffffffffffffffff1681526020016005820160009054906101000a900473ffffffffffffffffffffffffffffffffffffffff1673ffffffffffffffffffffffffffffffffffffffff1673ffffffffffffffffffffffffffffffffffffffff16815260200160068201548152602001600782018054600181600116156101000203166002900480601f0160208091040260200160405190810160405280929190818152602001828054600181600116156101000203166002900480156121a35780601f10612178576101008083540402835291602001916121a3565b820191906000526020600020905b81548152906001019060200180831161218657829003601f168201915b50505050508152602001600882015481526020016009820160009054906101000a900460ff1615151515815250509050828160c001818152505080600e6000868152602001908152602001600020600082015181600001556020820151816001019080519060200190612217929190614da8565b506040820151816002019080519060200190612234929190614da8565b5060608201518160030160006101000a81548173ffffffffffffffffffffffffffffffffffffffff021916908373ffffffffffffffffffffffffffffffffffffffff16021790555060808201518160040160006101000a81548173ffffffffffffffffffffffffffffffffffffffff021916908373ffffffffffffffffffffffffffffffffffffffff16021790555060a08201518160050160006101000a81548173ffffffffffffffffffffffffffffffffffffffff021916908373ffffffffffffffffffffffffffffffffffffffff16021790555060c0820151816006015560e0820151816007019080519060200190612330929190614da8565b5061010082015181600801556101208201518160090160006101000a81548160ff02191690831515021790555090505050505050565b600061239682604051806060016040528060298152602001615956602991396002613f4f9092919063ffffffff16565b9050919050565b606060006123aa8361325e565b905080915050919050565b606060098054600181600116156101000203166002900480601f01602080910402602001604051908101604052809291908181526020018280546001816001161561010002031660029004801561244d5780601f106124225761010080835404028352916020019161244d565b820191906000526020600020905b81548152906001019060200180831161243057829003601f168201915b5050505050905090565b600b8054600181600116156101000203166002900480601f0160208091040260200160405190810160405280929190818152602001828054600181600116156101000203166002900480156124ed5780601f106124c2576101008083540402835291602001916124ed565b820191906000526020600020905b8154815290600101906020018083116124d057829003601f168201915b505050505081565b60008073ffffffffffffffffffffffffffffffffffffffff168273ffffffffffffffffffffffffffffffffffffffff16141561257c576040517f08c379a000000000000000000000000000000000000000000000000000000000815260040180806020018281038252602a81526020018061592c602a913960400191505060405180910390fd5b6125c3600160008473ffffffffffffffffffffffffffffffffffffffff1673ffffffffffffffffffffffffffffffffffffffff168152602001908152602001600020613f6e565b9050919050565b600073ffffffffffffffffffffffffffffffffffffffff163373ffffffffffffffffffffffffffffffffffffffff16141561260457600080fd5b600c60008154809291906001019190505550612621600c54613adf565b1561262b57600080fd5b60108160405161263b9190615457565b908152602001604051809103902060009054906101000a900460ff161561266157600080fd5b6011836040516126719190615457565b908152602001604051809103902060009054906101000a900460ff161561269757600080fd5b600f846040516126a79190615457565b908152602001604051809103902060009054906101000a900460ff16156126cd57600080fd5b6126d933600c54613f83565b6126e5600c5484614177565b60016011846040516126f79190615457565b908152602001604051809103902060006101000a81548160ff0219169083151502179055506001600f8560405161272e9190615457565b908152602001604051809103902060006101000a81548160ff02191690831515021790555060016010826040516127659190615457565b908152602001604051809103902060006101000a81548160ff0219169083151502179055506000604051806101400160405280600c5481526020018681526020018581526020013373ffffffffffffffffffffffffffffffffffffffff1681526020013373ffffffffffffffffffffffffffffffffffffffff168152602001600073ffffffffffffffffffffffffffffffffffffffff1681526020018481526020018381526020016000815260200160011515815250905080600e6000600c548152602001908152602001600020600082015181600001556020820151816001019080519060200190612859929190614da8565b506040820151816002019080519060200190612876929190614da8565b5060608201518160030160006101000a81548173ffffffffffffffffffffffffffffffffffffffff021916908373ffffffffffffffffffffffffffffffffffffffff16021790555060808201518160040160006101000a81548173ffffffffffffffffffffffffffffffffffffffff021916908373ffffffffffffffffffffffffffffffffffffffff16021790555060a08201518160050160006101000a81548173ffffffffffffffffffffffffffffffffffffffff021916908373ffffffffffffffffffffffffffffffffffffffff16021790555060c0820151816006015560e0820151816007019080519060200190612972929190614da8565b5061010082015181600801556101208201518160090160006101000a81548160ff0219169083151502179055509050505050505050565b606060078054600181600116156101000203166002900480601f016020809104026020016040519081016040528092919081815260200182805460018160011615610100020316600290048015612a415780601f10612a1657610100808354040283529160200191612a41565b820191906000526020600020905b815481529060010190602001808311612a2457829003601f168201915b5050505050905090565b612a53613afc565b73ffffffffffffffffffffffffffffffffffffffff168273ffffffffffffffffffffffffffffffffffffffff161415612af4576040517f08c379a00000000000000000000000000000000000000000000000000000000081526004018080602001828103825260198152602001807f4552433732313a20617070726f766520746f2063616c6c65720000000000000081525060200191505060405180910390fd5b8060056000612b01613afc565b73ffffffffffffffffffffffffffffffffffffffff1673ffffffffffffffffffffffffffffffffffffffff16815260200190815260200160002060008473ffffffffffffffffffffffffffffffffffffffff1673ffffffffffffffffffffffffffffffffffffffff16815260200190815260200160002060006101000a81548160ff0219169083151502179055508173ffffffffffffffffffffffffffffffffffffffff16612bae613afc565b73ffffffffffffffffffffffffffffffffffffffff167f17307eab39ab6107e8899845ad3d59bd9653f200f220920489ca2b5937696c318360405180821515815260200191505060405180910390a35050565b600073ffffffffffffffffffffffffffffffffffffffff163373ffffffffffffffffffffffffffffffffffffffff161415612c3b57600080fd5b612c4481613adf565b612c4d57600080fd5b6000612c5882612366565b90503373ffffffffffffffffffffffffffffffffffffffff168173ffffffffffffffffffffffffffffffffffffffff1614612c9257600080fd5b6000600e60008481526020019081526020016000206040518061014001604052908160008201548152602001600182018054600181600116156101000203166002900480601f016020809104026020016040519081016040528092919081815260200182805460018160011615610100020316600290048015612d565780601f10612d2b57610100808354040283529160200191612d56565b820191906000526020600020905b815481529060010190602001808311612d3957829003601f168201915b50505050508152602001600282018054600181600116156101000203166002900480601f016020809104026020016040519081016040528092919081815260200182805460018160011615610100020316600290048015612df85780601f10612dcd57610100808354040283529160200191612df8565b820191906000526020600020905b815481529060010190602001808311612ddb57829003601f168201915b505050505081526020016003820160009054906101000a900473ffffffffffffffffffffffffffffffffffffffff1673ffffffffffffffffffffffffffffffffffffffff1673ffffffffffffffffffffffffffffffffffffffff1681526020016004820160009054906101000a900473ffffffffffffffffffffffffffffffffffffffff1673ffffffffffffffffffffffffffffffffffffffff1673ffffffffffffffffffffffffffffffffffffffff1681526020016005820160009054906101000a900473ffffffffffffffffffffffffffffffffffffffff1673ffffffffffffffffffffffffffffffffffffffff1673ffffffffffffffffffffffffffffffffffffffff16815260200160068201548152602001600782018054600181600116156101000203166002900480601f016020809104026020016040519081016040528092919081815260200182805460018160011615610100020316600290048015612fa65780601f10612f7b57610100808354040283529160200191612fa6565b820191906000526020600020905b815481529060010190602001808311612f8957829003601f168201915b50505050508152602001600882015481526020016009820160009054906101000a900460ff161515151581525050905080610120015115612ff85760008161012001901515908115158152505061300b565b6001816101200190151590811515815250505b80600e6000858152602001908152602001600020600082015181600001556020820151816001019080519060200190613045929190614da8565b506040820151816002019080519060200190613062929190614da8565b5060608201518160030160006101000a81548173ffffffffffffffffffffffffffffffffffffffff021916908373ffffffffffffffffffffffffffffffffffffffff16021790555060808201518160040160006101000a81548173ffffffffffffffffffffffffffffffffffffffff021916908373ffffffffffffffffffffffffffffffffffffffff16021790555060a08201518160050160006101000a81548173ffffffffffffffffffffffffffffffffffffffff021916908373ffffffffffffffffffffffffffffffffffffffff16021790555060c0820151816006015560e082015181600701908051906020019061315e929190614da8565b5061010082015181600801556101208201518160090160006101000a81548160ff021916908315150217905550905050505050565b600f818051602081018201805184825260208301602085012081835280955050505050506000915054906101000a900460ff1681565b6000806131d583612366565b905080915050919050565b6131f16131eb613afc565b83613bd2565b613246576040517f08c379a0000000000000000000000000000000000000000000000000000000008152600401808060200182810382526031815260200180615a726031913960400191505060405180910390fd5b61325284848484614201565b50505050565b600c5481565b606061326982613adf565b6132be576040517f08c379a000000000000000000000000000000000000000000000000000000000815260040180806020018281038252602f815260200180615a22602f913960400191505060405180910390fd5b6000600860008481526020019081526020016000208054600181600116156101000203166002900480601f0160208091040260200160405190810160405280929190818152602001828054600181600116156101000203166002900480156133675780601f1061333c57610100808354040283529160200191613367565b820191906000526020600020905b81548152906001019060200180831161334a57829003601f168201915b5050505050905060006133786123b5565b905060008151141561338e57819250505061352a565b60008251111561345f5780826040516020018083805190602001908083835b602083106133d057805182526020820191506020810190506020830392506133ad565b6001836020036101000a03801982511681845116808217855250505050505090500182805190602001908083835b6020831061342157805182526020820191506020810190506020830392506133fe565b6001836020036101000a038019825116818451168082178552505050505050905001925050506040516020818303038152906040529250505061352a565b8061346985614273565b6040516020018083805190602001908083835b6020831061349f578051825260208201915060208101905060208303925061347c565b6001836020036101000a03801982511681845116808217855250505050505090500182805190602001908083835b602083106134f057805182526020820191506020810190506020830392506134cd565b6001836020036101000a03801982511681845116808217855250505050505090500192505050604051602081830303815290604052925050505b919050565b60008061353a6112ca565b90508091505090565b6013818051602081018201805184825260208301602085012081835280955050505050506000915054906101000a900460ff1681565b600a8054600181600116156101000203166002900480601f01602080910402602001604051908101604052809291908181526020018280546001816001161561010002031660029004801561360f5780601f106135e45761010080835404028352916020019161360f565b820191906000526020600020905b8154815290600101906020018083116135f257829003601f168201915b505050505081565b6000600560008473ffffffffffffffffffffffffffffffffffffffff1673ffffffffffffffffffffffffffffffffffffffff16815260200190815260200160002060008373ffffffffffffffffffffffffffffffffffffffff1673ffffffffffffffffffffffffffffffffffffffff16815260200190815260200160002060009054906101000a900460ff16905092915050565b6012602052806000526040600020600091509050806000015490806001018054600181600116156101000203166002900480601f01602080910402602001604051908101604052809291908181526020018280546001816001161561010002031660029004801561375d5780601f106137325761010080835404028352916020019161375d565b820191906000526020600020905b81548152906001019060200180831161374057829003601f168201915b505050505090806002018054600181600116156101000203166002900480601f0160208091040260200160405190810160405280929190818152602001828054600181600116156101000203166002900480156137fb5780601f106137d0576101008083540402835291602001916137fb565b820191906000526020600020905b8154815290600101906020018083116137de57829003601f168201915b505050505090806003018054600181600116156101000203166002900480601f0160208091040260200160405190810160405280929190818152602001828054600181600116156101000203166002900480156138995780601f1061386e57610100808354040283529160200191613899565b820191906000526020600020905b81548152906001019060200180831161387c57829003601f168201915b505050505090806004018054600181600116156101000203166002900480601f0160208091040260200160405190810160405280929190818152602001828054600181600116156101000203166002900480156139375780601f1061390c57610100808354040283529160200191613937565b820191906000526020600020905b81548152906001019060200180831161391a57829003601f168201915b505050505090806005018054600181600116156101000203166002900480601f0160208091040260200160405190810160405280929190818152602001828054600181600116156101000203166002900480156139d55780601f106139aa576101008083540402835291602001916139d5565b820191906000526020600020905b8154815290600101906020018083116139b857829003601f168201915b505050505090806006018054600181600116156101000203166002900480601f016020809104026020016040519081016040528092919081815260200182805460018160011615610100020316600290048015613a735780601f10613a4857610100808354040283529160200191613a73565b820191906000526020600020905b815481529060010190602001808311613a5657829003601f168201915b5050505050908060070160009054906101000a900473ffffffffffffffffffffffffffffffffffffffff16905088565b600d5481565b6010818051602081018201805184825260208301602085012081835280955050505050506000915054906101000a900460ff1681565b6000613af58260026143ba90919063ffffffff16565b9050919050565b600033905090565b816004600083815260200190815260200160002060006101000a81548173ffffffffffffffffffffffffffffffffffffffff021916908373ffffffffffffffffffffffffffffffffffffffff160217905550808273ffffffffffffffffffffffffffffffffffffffff16613b7783612366565b73ffffffffffffffffffffffffffffffffffffffff167f8c5be1e5ebec7d5bd14f71427d1e84f3dd0314c0f7b2291e5b200ac8c7c3b92560405160405180910390a45050565b6000613bcb826000016143d4565b9050919050565b6000613bdd82613adf565b613c32576040517f08c379a000000000000000000000000000000000000000000000000000000000815260040180806020018281038252602c8152602001806158c8602c913960400191505060405180910390fd5b6000613c3d83612366565b90508073ffffffffffffffffffffffffffffffffffffffff168473ffffffffffffffffffffffffffffffffffffffff161480613cac57508373ffffffffffffffffffffffffffffffffffffffff16613c9484610ed9565b73ffffffffffffffffffffffffffffffffffffffff16145b80613cbd5750613cbc8185613617565b5b91505092915050565b8273ffffffffffffffffffffffffffffffffffffffff16613ce682612366565b73ffffffffffffffffffffffffffffffffffffffff1614613d52576040517f08c379a00000000000000000000000000000000000000000000000000000000081526004018080602001828103825260298152602001806159f96029913960400191505060405180910390fd5b600073ffffffffffffffffffffffffffffffffffffffff168273ffffffffffffffffffffffffffffffffffffffff161415613dd8576040517f08c379a000000000000000000000000000000000000000000000000000000000815260040180806020018281038252602481526020018061587e6024913960400191505060405180910390fd5b613de38383836143e5565b613dee600082613b04565b613e3f81600160008673ffffffffffffffffffffffffffffffffffffffff1673ffffffffffffffffffffffffffffffffffffffff1681526020019081526020016000206143ea90919063ffffffff16565b50613e9181600160008573ffffffffffffffffffffffffffffffffffffffff1673ffffffffffffffffffffffffffffffffffffffff16815260200190815260200160002061440490919063ffffffff16565b50613ea88183600261441e9092919063ffffffff16565b50808273ffffffffffffffffffffffffffffffffffffffff168473ffffffffffffffffffffffffffffffffffffffff167fddf252ad1be2c89b69c2b068fc378daa952ba7f163c4a11628f55a4df523b3ef60405160405180910390a4505050565b6000613f188360000183614453565b60001c905092915050565b600080600080613f3686600001866144d6565b915091508160001c8160001c9350935050509250929050565b6000613f62846000018460001b8461456f565b60001c90509392505050565b6000613f7c82600001614665565b9050919050565b600073ffffffffffffffffffffffffffffffffffffffff168273ffffffffffffffffffffffffffffffffffffffff161415614026576040517f08c379a00000000000000000000000000000000000000000000000000000000081526004018080602001828103825260208152602001807f4552433732313a206d696e7420746f20746865207a65726f206164647265737381525060200191505060405180910390fd5b61402f81613adf565b156140a2576040517f08c379a000000000000000000000000000000000000000000000000000000000815260040180806020018281038252601c8152602001807f4552433732313a20746f6b656e20616c7265616479206d696e7465640000000081525060200191505060405180910390fd5b6140ae600083836143e5565b6140ff81600160008573ffffffffffffffffffffffffffffffffffffffff1673ffffffffffffffffffffffffffffffffffffffff16815260200190815260200160002061440490919063ffffffff16565b506141168183600261441e9092919063ffffffff16565b50808273ffffffffffffffffffffffffffffffffffffffff16600073ffffffffffffffffffffffffffffffffffffffff167fddf252ad1be2c89b69c2b068fc378daa952ba7f163c4a11628f55a4df523b3ef60405160405180910390a45050565b61418082613adf565b6141d5576040517f08c379a000000000000000000000000000000000000000000000000000000000815260040180806020018281038252602c8152602001806159cd602c913960400191505060405180910390fd5b806008600084815260200190815260200160002090805190602001906141fc929190614da8565b505050565b61420c848484613cc6565b61421884848484614676565b61426d576040517f08c379a000000000000000000000000000000000000000000000000000000000815260040180806020018281038252603281526020018061584c6032913960400191505060405180910390fd5b50505050565b606060008214156142bb576040518060400160405280600181526020017f300000000000000000000000000000000000000000000000000000000000000081525090506143b5565b600082905060005b600082146142e5578080600101915050600a82816142dd57fe5b0491506142c3565b60008167ffffffffffffffff811180156142fe57600080fd5b506040519080825280601f01601f1916602001820160405280156143315781602001600182028036833780820191505090505b50905060006001830390508593505b600084146143ad57600a848161435257fe5b0660300160f81b8282806001900393508151811061436c57fe5b60200101907effffffffffffffffffffffffffffffffffffffffffffffffffffffffffffff1916908160001a905350600a84816143a557fe5b049350614340565b819450505050505b919050565b60006143cc836000018360001b61488f565b905092915050565b600081600001805490509050919050565b505050565b60006143fc836000018360001b6148b2565b905092915050565b6000614416836000018360001b61499a565b905092915050565b600061444a846000018460001b8473ffffffffffffffffffffffffffffffffffffffff1660001b614a0a565b90509392505050565b6000818360000180549050116144b4576040517f08c379a000000000000000000000000000000000000000000000000000000000815260040180806020018281038252602281526020018061582a6022913960400191505060405180910390fd5b8260000182815481106144c357fe5b9060005260206000200154905092915050565b60008082846000018054905011614538576040517f08c379a000000000000000000000000000000000000000000000000000000000815260040180806020018281038252602281526020018061597f6022913960400191505060405180910390fd5b600084600001848154811061454957fe5b906000526020600020906002020190508060000154816001015492509250509250929050565b60008084600101600085815260200190815260200160002054905060008114158390614636576040517f08c379a00000000000000000000000000000000000000000000000000000000081526004018080602001828103825283818151815260200191508051906020019080838360005b838110156145fb5780820151818401526020810190506145e0565b50505050905090810190601f1680156146285780820380516001836020036101000a031916815260200191505b509250505060405180910390fd5b5084600001600182038154811061464957fe5b9060005260206000209060020201600101549150509392505050565b600081600001805490509050919050565b60006146978473ffffffffffffffffffffffffffffffffffffffff16614ae6565b6146a45760019050614887565b600061480e63150b7a0260e01b6146b9613afc565b888787604051602401808573ffffffffffffffffffffffffffffffffffffffff1681526020018473ffffffffffffffffffffffffffffffffffffffff16815260200183815260200180602001828103825283818151815260200191508051906020019080838360005b8381101561473d578082015181840152602081019050614722565b50505050905090810190601f16801561476a5780820380516001836020036101000a031916815260200191505b5095505050505050604051602081830303815290604052907bffffffffffffffffffffffffffffffffffffffffffffffffffffffff19166020820180517bffffffffffffffffffffffffffffffffffffffffffffffffffffffff838183161783525050505060405180606001604052806032815260200161584c603291398773ffffffffffffffffffffffffffffffffffffffff16614af99092919063ffffffff16565b9050600081806020019051602081101561482757600080fd5b8101908080519060200190929190505050905063150b7a0260e01b7bffffffffffffffffffffffffffffffffffffffffffffffffffffffff1916817bffffffffffffffffffffffffffffffffffffffffffffffffffffffff191614925050505b949350505050565b600080836001016000848152602001908152602001600020541415905092915050565b6000808360010160008481526020019081526020016000205490506000811461498e57600060018203905060006001866000018054905003905060008660000182815481106148fd57fe5b906000526020600020015490508087600001848154811061491a57fe5b906000526020600020018190555060018301876001016000838152602001908152602001600020819055508660000180548061495257fe5b60019003818190600052602060002001600090559055866001016000878152602001908152602001600020600090556001945050505050614994565b60009150505b92915050565b60006149a68383614b11565b6149ff578260000182908060018154018082558091505060019003906000526020600020016000909190919091505582600001805490508360010160008481526020019081526020016000208190555060019050614a04565b600090505b92915050565b6000808460010160008581526020019081526020016000205490506000811415614ab157846000016040518060400160405280868152602001858152509080600181540180825580915050600190039060005260206000209060020201600090919091909150600082015181600001556020820151816001015550508460000180549050856001016000868152602001908152602001600020819055506001915050614adf565b82856000016001830381548110614ac457fe5b90600052602060002090600202016001018190555060009150505b9392505050565b600080823b905060008111915050919050565b6060614b088484600085614b34565b90509392505050565b600080836001016000848152602001908152602001600020541415905092915050565b606082471015614b8f576040517f08c379a00000000000000000000000000000000000000000000000000000000081526004018080602001828103825260268152602001806158a26026913960400191505060405180910390fd5b614b9885614ae6565b614c0a576040517f08c379a000000000000000000000000000000000000000000000000000000000815260040180806020018281038252601d8152602001807f416464726573733a2063616c6c20746f206e6f6e2d636f6e747261637400000081525060200191505060405180910390fd5b6000808673ffffffffffffffffffffffffffffffffffffffff1685876040518082805190602001908083835b60208310614c595780518252602082019150602081019050602083039250614c36565b6001836020036101000a03801982511681845116808217855250505050505090500191505060006040518083038185875af1925050503d8060008114614cbb576040519150601f19603f3d011682016040523d82523d6000602084013e614cc0565b606091505b5091509150614cd0828286614cdc565b92505050949350505050565b60608315614cec57829050614da1565b600083511115614cff5782518084602001fd5b816040517f08c379a00000000000000000000000000000000000000000000000000000000081526004018080602001828103825283818151815260200191508051906020019080838360005b83811015614d66578082015181840152602081019050614d4b565b50505050905090810190601f168015614d935780820380516001836020036101000a031916815260200191505b509250505060405180910390fd5b9392505050565b828054600181600116156101000203166002900490600052602060002090601f016020900481019282614dde5760008555614e25565b82601f10614df757805160ff1916838001178555614e25565b82800160010185558215614e25579182015b82811115614e24578251825591602001919060010190614e09565b5b509050614e329190614e36565b5090565b5b80821115614e4f576000816000905550600101614e37565b5090565b6000614e66614e618461566b565b61563a565b905082815260208101848484011115614e7e57600080fd5b614e89848285615778565b509392505050565b6000614ea4614e9f8461569b565b61563a565b905082815260208101848484011115614ebc57600080fd5b614ec7848285615778565b509392505050565b600081359050614ede816157cd565b92915050565b600081359050614ef3816157e4565b92915050565b600081359050614f08816157fb565b92915050565b600082601f830112614f1f57600080fd5b8135614f2f848260208601614e53565b91505092915050565b600082601f830112614f4957600080fd5b8135614f59848260208601614e91565b91505092915050565b600081359050614f7181615812565b92915050565b600060208284031215614f8957600080fd5b6000614f9784828501614ecf565b91505092915050565b60008060408385031215614fb357600080fd5b6000614fc185828601614ecf565b9250506020614fd285828601614ecf565b9150509250929050565b600080600060608486031215614ff157600080fd5b6000614fff86828701614ecf565b935050602061501086828701614ecf565b925050604061502186828701614f62565b9150509250925092565b6000806000806080858703121561504157600080fd5b600061504f87828801614ecf565b945050602061506087828801614ecf565b935050604061507187828801614f62565b925050606085013567ffffffffffffffff81111561508e57600080fd5b61509a87828801614f0e565b91505092959194509250565b600080604083850312156150b957600080fd5b60006150c785828601614ecf565b92505060206150d885828601614ee4565b9150509250929050565b600080604083850312156150f557600080fd5b600061510385828601614ecf565b925050602061511485828601614f62565b9150509250929050565b60006020828403121561513057600080fd5b600061513e84828501614ef9565b91505092915050565b60006020828403121561515957600080fd5b600082013567ffffffffffffffff81111561517357600080fd5b61517f84828501614f38565b91505092915050565b60008060008060008060c087890312156151a157600080fd5b600087013567ffffffffffffffff8111156151bb57600080fd5b6151c789828a01614f38565b965050602087013567ffffffffffffffff8111156151e457600080fd5b6151f089828a01614f38565b955050604087013567ffffffffffffffff81111561520d57600080fd5b61521989828a01614f38565b945050606087013567ffffffffffffffff81111561523657600080fd5b61524289828a01614f38565b935050608087013567ffffffffffffffff81111561525f57600080fd5b61526b89828a01614f38565b92505060a087013567ffffffffffffffff81111561528857600080fd5b61529489828a01614f38565b9150509295509295509295565b600080600080608085870312156152b757600080fd5b600085013567ffffffffffffffff8111156152d157600080fd5b6152dd87828801614f38565b945050602085013567ffffffffffffffff8111156152fa57600080fd5b61530687828801614f38565b935050604061531787828801614f62565b925050606085013567ffffffffffffffff81111561533457600080fd5b61534087828801614f38565b91505092959194509250565b60006020828403121561535e57600080fd5b600061536c84828501614f62565b91505092915050565b6000806040838503121561538857600080fd5b600061539685828601614f62565b92505060206153a785828601614f62565b9150509250929050565b6153ba81615704565b82525050565b6153c9816156f2565b82525050565b6153d881615716565b82525050565b60006153e9826156cb565b6153f381856156d6565b9350615403818560208601615787565b61540c816157bc565b840191505092915050565b6000615422826156cb565b61542c81856156e7565b935061543c818560208601615787565b80840191505092915050565b6154518161576e565b82525050565b60006154638284615417565b915081905092915050565b600060208201905061548360008301846153c0565b92915050565b600060208201905061549e60008301846153cf565b92915050565b600060208201905081810360008301526154be81846153de565b905092915050565b60006020820190506154db6000830184615448565b92915050565b6000610140820190506154f7600083018d615448565b8181036020830152615509818c6153de565b9050818103604083015261551d818b6153de565b905061552c606083018a6153b1565b61553960808301896153b1565b61554660a08301886153b1565b61555360c0830187615448565b81810360e083015261556581866153de565b9050615575610100830185615448565b6155836101208301846153cf565b9b9a5050505050505050505050565b6000610100820190506155a8600083018b615448565b81810360208301526155ba818a6153de565b905081810360408301526155ce81896153de565b905081810360608301526155e281886153de565b905081810360808301526155f681876153de565b905081810360a083015261560a81866153de565b905081810360c083015261561e81856153de565b905061562d60e08301846153c0565b9998505050505050505050565b6000604051905081810181811067ffffffffffffffff82111715615661576156606157ba565b5b8060405250919050565b600067ffffffffffffffff821115615686576156856157ba565b5b601f19601f8301169050602081019050919050565b600067ffffffffffffffff8211156156b6576156b56157ba565b5b601f19601f8301169050602081019050919050565b600081519050919050565b600082825260208201905092915050565b600081905092915050565b60006156fd8261574e565b9050919050565b600061570f8261574e565b9050919050565b60008115159050919050565b60007fffffffff0000000000000000000000000000000000000000000000000000000082169050919050565b600073ffffffffffffffffffffffffffffffffffffffff82169050919050565b6000819050919050565b82818337600083830152505050565b60005b838110156157a557808201518184015260208101905061578a565b838111156157b4576000848401525b50505050565bfe5b6000601f19601f8301169050919050565b6157d6816156f2565b81146157e157600080fd5b50565b6157ed81615716565b81146157f857600080fd5b50565b61580481615722565b811461580f57600080fd5b50565b61581b8161576e565b811461582657600080fd5b5056fe456e756d657261626c655365743a20696e646578206f7574206f6620626f756e64734552433732313a207472616e7366657220746f206e6f6e20455243373231526563656976657220696d706c656d656e7465724552433732313a207472616e7366657220746f20746865207a65726f2061646472657373416464726573733a20696e73756666696369656e742062616c616e636520666f722063616c6c4552433732313a206f70657261746f7220717565727920666f72206e6f6e6578697374656e7420746f6b656e4552433732313a20617070726f76652063616c6c6572206973206e6f74206f776e6572206e6f7220617070726f76656420666f7220616c6c4552433732313a2062616c616e636520717565727920666f7220746865207a65726f20616464726573734552433732313a206f776e657220717565727920666f72206e6f6e6578697374656e7420746f6b656e456e756d657261626c654d61703a20696e646578206f7574206f6620626f756e64734552433732313a20617070726f76656420717565727920666f72206e6f6e6578697374656e7420746f6b656e4552433732314d657461646174613a2055524920736574206f66206e6f6e6578697374656e7420746f6b656e4552433732313a207472616e73666572206f6620746f6b656e2074686174206973206e6f74206f776e4552433732314d657461646174613a2055524920717565727920666f72206e6f6e6578697374656e7420746f6b656e4552433732313a20617070726f76616c20746f2063757272656e74206f776e65724552433732313a207472616e736665722063616c6c6572206973206e6f74206f776e6572206e6f7220617070726f766564a26469706673582212202bd50b1735014719ce7070eaec6a1366d3cc44e2c3f245340c59492728431a3964736f6c63430007060033",
  "immutableReferences": {},
  "source": "// SPDX-License-Identifier: MIT\r\npragma solidity >=0.4.21 <0.8.0;\r\npragma abicoder v2;\r\n\r\n// import ERC721 iterface\r\nimport \"./ERC721.sol\";\r\n\r\n// CryptoBoys smart contract inherits ERC721 interface\r\ncontract CryptoBoys is ERC721 {\r\n\r\n  // this contract's token collection name\r\n  string public collectionName;\r\n  // this contract's token symbol\r\n  string public collectionNameSymbol;\r\n  // total number of crypto boys minted\r\n  uint256 public cryptoBoyCounter;\r\n\r\n  //total number of users\r\n  uint256 public userCounter;\r\n\r\n  // define crypto boy struct\r\n   struct CryptoBoy {\r\n    uint256 tokenId;\r\n    string tokenName;\r\n    string tokenURI;\r\n    address payable mintedBy;\r\n    address payable currentOwner;\r\n    address payable previousOwner;\r\n    uint256 price;\r\n    string imageHash;\r\n    \r\n    uint256 numberOfTransfers;\r\n    bool forSale;\r\n  }\r\n //define User struct\r\n  struct User {\r\n    uint userId;\r\n    string userName;\r\n    string email;\r\n    string social;\r\n    string repo;\r\n    string bio;\r\n    string avatarHash;\r\n    address userAddress;\r\n  }\r\n\r\n  // map cryptoboy's token id to crypto boy\r\n  mapping(uint256 => CryptoBoy) public allCryptoBoys;\r\n  // check if token name exists\r\n  mapping(string => bool) public tokenNameExists;\r\n  // check if image exists\r\n  mapping(string => bool) public imageExists;\r\n  // check if token URI exists\r\n  mapping(string => bool) public tokenURIExists;\r\n  //map address to user\r\n  mapping(address=>User) public allUsers;\r\n  //check if user name exists\r\n  mapping(string => bool) public userNameExists;\r\n   //check if user Address exists\r\n  mapping(address => bool) public userAddressExists;\r\n  //mapping user address to its index\r\n  mapping(address => uint) private addressToIndex;\r\n  \r\n \r\n\r\n  // initialize contract while deployment with contract's collection name and token\r\n  constructor() ERC721(\"Crypto Boys Collection\", \"CB\") {\r\n    collectionName = name();\r\n    collectionNameSymbol = symbol();\r\n  }\r\n\r\n  function createUser(string memory _userName,string memory _avatarHash,string memory _email,string memory _social,string memory _repo,string memory _bio)external{\r\n   // check if thic fucntion caller is not an zero address account\r\n    require(msg.sender != address(0));\r\n    // increment counter\r\n    userCounter ++;\r\n    // check if the user name already exists or not\r\n    require(!userNameExists[_userName]);\r\n    // check if the user address already exists or not\r\n    require(!userAddressExists[msg.sender]);\r\n    // make userName as exists\r\n    userNameExists[_userName]=true;\r\n    // make userAddress as exists\r\n    userAddressExists[msg.sender]=true;\r\n\r\n    // creat a new user (struct) and pass in new values\r\n    User memory newUser = User(\r\n    userCounter,\r\n    _userName,\r\n    _email,\r\n    _social,\r\n    _repo,\r\n    _bio,\r\n    _avatarHash,\r\n    msg.sender\r\n    );\r\n    // add the token id and it's crypto boy to all crypto boys mapping\r\n    allUsers[msg.sender] = newUser;\r\n    addressToIndex[msg.sender] = userCounter;\r\n\r\n  }\r\n\r\n  function getIndexByAddress(address _userAddress) public view returns(uint )\r\n  {\r\n    require(userAddressExists[_userAddress]);\r\n    return addressToIndex[_userAddress];\r\n  }\r\n  \r\n  function updateUser(string memory _userName,string memory _avatarHash,string memory _email,string memory _social,string memory _repo,string memory _bio)public returns (bool)\r\n  {\r\n    require(userAddressExists[msg.sender]);\r\n    User memory newUser = User(\r\n    userCounter,\r\n    _userName,\r\n    _avatarHash,\r\n    _email,\r\n    _social,\r\n    _repo,\r\n    _bio,\r\n    msg.sender\r\n    );\r\n    // add the token id and it's crypto boy to all crypto boys mapping\r\n    allUsers[msg.sender] = newUser;\r\n\r\n  }\r\n\r\n\r\n  \r\n\r\n  // mint a new crypto boy\r\n  function mintCryptoBoy(string memory _name, string memory _tokenURI, uint256 _price,string memory _imageHash) external {\r\n    // check if thic fucntion caller is not an zero address account\r\n    require(msg.sender != address(0));\r\n    // increment counter\r\n    cryptoBoyCounter ++;\r\n    // check if a token exists with the above token id => incremented counter\r\n    require(!_exists(cryptoBoyCounter));\r\n\r\n    // loop through the colors passed and check if each colors already exists or not\r\n    // for(uint i=0; i<_colors.length; i++) {\r\n    //   require(!colorExists[_colors[i]]);\r\n    // }\r\n    // check if the image already exists or not\r\n    require(!imageExists[_imageHash]);\r\n    // check if the token URI already exists or not\r\n    require(!tokenURIExists[_tokenURI]);\r\n    // check if the token name already exists or not\r\n    require(!tokenNameExists[_name]);\r\n\r\n    // mint the token\r\n    _mint(msg.sender, cryptoBoyCounter);\r\n    // set token URI (bind token id with the passed in token URI)\r\n    _setTokenURI(cryptoBoyCounter, _tokenURI);\r\n\r\n    // loop through the colors passed and make each of the colors as exists since the token is already minted\r\n    // for (uint i=0; i<_colors.length; i++) {\r\n    //   colorExists[_colors[i]] = true;\r\n    // }\r\n    // make passed token URI as exists\r\n    tokenURIExists[_tokenURI] = true;\r\n    // make token name passed as exists\r\n    tokenNameExists[_name] = true;\r\n    // make passed image as exists\r\n    imageExists[_imageHash]=true;\r\n\r\n    // creat a new crypto boy (struct) and pass in new values\r\n    CryptoBoy memory newCryptoBoy = CryptoBoy(\r\n    cryptoBoyCounter,\r\n    _name,\r\n    _tokenURI,\r\n    msg.sender,\r\n    msg.sender,\r\n    address(0),\r\n    _price,\r\n    _imageHash,\r\n    0,\r\n    true);\r\n    // add the token id and it's crypto boy to all crypto boys mapping\r\n    allCryptoBoys[cryptoBoyCounter] = newCryptoBoy;\r\n  }\r\n\r\n  // get owner of the token\r\n  function getTokenOwner(uint256 _tokenId) public view returns(address) {\r\n    address _tokenOwner = ownerOf(_tokenId);\r\n    return _tokenOwner;\r\n  }\r\n\r\n  // get metadata of the token\r\n  function getTokenMetaData(uint _tokenId) public view returns(string memory) {\r\n    string memory tokenMetaData = tokenURI(_tokenId);\r\n    return tokenMetaData;\r\n  }\r\n\r\n  // get total number of tokens minted so far\r\n  function getNumberOfTokensMinted() public view returns(uint256) {\r\n    uint256 totalNumberOfTokensMinted = totalSupply();\r\n    return totalNumberOfTokensMinted;\r\n  }\r\n\r\n  // get total number of tokens owned by an address\r\n  function getTotalNumberOfTokensOwnedByAnAddress(address _owner) public view returns(uint256) {\r\n    uint256 totalNumberOfTokensOwned = balanceOf(_owner);\r\n    return totalNumberOfTokensOwned;\r\n  }\r\n\r\n  // check if the token already exists\r\n  function getTokenExists(uint256 _tokenId) public view returns(bool) {\r\n    bool tokenExists = _exists(_tokenId);\r\n    return tokenExists;\r\n  }\r\n\r\n  // by a token by passing in the token's id\r\n  function buyToken(uint256 _tokenId) public payable {\r\n    // check if the function caller is not an zero account address\r\n    require(msg.sender != address(0));\r\n    // check if the token id of the token being bought exists or not\r\n    require(_exists(_tokenId));\r\n    // get the token's owner\r\n    address tokenOwner = ownerOf(_tokenId);\r\n    // token's owner should not be an zero address account\r\n    require(tokenOwner != address(0));\r\n    // the one who wants to buy the token should not be the token's owner\r\n    require(tokenOwner != msg.sender);\r\n    // get that token from all crypto boys mapping and create a memory of it defined as (struct => CryptoBoy)\r\n    CryptoBoy memory cryptoboy = allCryptoBoys[_tokenId];\r\n    // price sent in to buy should be equal to or more than the token's price\r\n    require(msg.value >= cryptoboy.price);\r\n    // token should be for sale\r\n    require(cryptoboy.forSale);\r\n    // transfer the token from owner to the caller of the function (buyer)\r\n    _transfer(tokenOwner, msg.sender, _tokenId);\r\n    // get owner of the token\r\n    address payable sendTo = cryptoboy.currentOwner;\r\n    // send token's worth of ethers to the owner from smart contract\r\n    sendTo.transfer(msg.value);\r\n    // update the token's previous owner\r\n    cryptoboy.previousOwner = cryptoboy.currentOwner;\r\n    // update the token's current owner\r\n    cryptoboy.currentOwner = msg.sender;\r\n    // update the how many times this token was transfered\r\n    cryptoboy.numberOfTransfers += 1;\r\n    // set and update that token in the mapping\r\n    allCryptoBoys[_tokenId] = cryptoboy;\r\n  }\r\n\r\n  function changeTokenPrice(uint256 _tokenId, uint256 _newPrice) public {\r\n    // require caller of the function is not an empty address\r\n    require(msg.sender != address(0));\r\n    // require that token should exist\r\n    require(_exists(_tokenId));\r\n    // get the token's owner\r\n    address tokenOwner = ownerOf(_tokenId);\r\n    // check that token's owner should be equal to the caller of the function\r\n    require(tokenOwner == msg.sender);\r\n    // get that token from all crypto boys mapping and create a memory of it defined as (struct => CryptoBoy)\r\n    CryptoBoy memory cryptoboy = allCryptoBoys[_tokenId];\r\n    // update token's price with new price\r\n   cryptoboy.price = _newPrice;\r\n    // set and update that token in the mapping\r\n    allCryptoBoys[_tokenId] = cryptoboy;\r\n  }\r\n\r\n  // switch between set for sale and set not for sale\r\n  function toggleForSale(uint256 _tokenId) public {\r\n    // require caller of the function is not an empty address\r\n    require(msg.sender != address(0));\r\n    // require that token should exist\r\n    require(_exists(_tokenId));\r\n    // get the token's owner\r\n    address tokenOwner = ownerOf(_tokenId);\r\n    // check that token's owner should be equal to the caller of the function\r\n    require(tokenOwner == msg.sender);\r\n    // get that token from all crypto boys mapping and create a memory of it defined as (struct => CryptoBoy)\r\n    CryptoBoy memory cryptoboy = allCryptoBoys[_tokenId];\r\n    // if token's forSale is false make it true and vice versa\r\n    if(cryptoboy.forSale) {\r\n      cryptoboy.forSale = false;\r\n    } else {\r\n      cryptoboy.forSale = true;\r\n    }\r\n    // set and update that token in the mapping\r\n    allCryptoBoys[_tokenId] = cryptoboy;\r\n  }\r\n}",
  "sourcePath": "C:/Users/mehta/git/fashion-nft/src/contracts/CryptoBoys.sol",
  "compiler": {
    "name": "solc",
    "version": "0.7.6+commit.7338295f.Emscripten.clang"
  },
  "schemaVersion": "3.4.1",
  "updatedAt": "2021-07-07T07:13:12.985Z",
  "networkType": "ethereum",
  "devdoc": {
    "kind": "dev",
    "methods": {
      "approve(address,uint256)": {
        "details": "See {IERC721-approve}."
      },
      "balanceOf(address)": {
        "details": "See {IERC721-balanceOf}."
      },
      "baseURI()": {
        "details": "Returns the base URI set via {_setBaseURI}. This will be automatically added as a prefix in {tokenURI} to each token's URI, or to the token ID if no specific URI is set for that token ID."
      },
      "getApproved(uint256)": {
        "details": "See {IERC721-getApproved}."
      },
      "isApprovedForAll(address,address)": {
        "details": "See {IERC721-isApprovedForAll}."
      },
      "name()": {
        "details": "See {IERC721Metadata-name}."
      },
      "ownerOf(uint256)": {
        "details": "See {IERC721-ownerOf}."
      },
      "safeTransferFrom(address,address,uint256)": {
        "details": "See {IERC721-safeTransferFrom}."
      },
      "safeTransferFrom(address,address,uint256,bytes)": {
        "details": "See {IERC721-safeTransferFrom}."
      },
      "setApprovalForAll(address,bool)": {
        "details": "See {IERC721-setApprovalForAll}."
      },
      "supportsInterface(bytes4)": {
        "details": "See {IERC165-supportsInterface}. Time complexity O(1), guaranteed to always use less than 30 000 gas."
      },
      "symbol()": {
        "details": "See {IERC721Metadata-symbol}."
      },
      "tokenByIndex(uint256)": {
        "details": "See {IERC721Enumerable-tokenByIndex}."
      },
      "tokenOfOwnerByIndex(address,uint256)": {
        "details": "See {IERC721Enumerable-tokenOfOwnerByIndex}."
      },
      "tokenURI(uint256)": {
        "details": "See {IERC721Metadata-tokenURI}."
      },
      "totalSupply()": {
        "details": "See {IERC721Enumerable-totalSupply}."
      },
      "transferFrom(address,address,uint256)": {
        "details": "See {IERC721-transferFrom}."
      }
    },
    "version": 1
  },
  "userdoc": {
    "kind": "user",
    "methods": {},
    "version": 1
  }
}