{
  "contractName": "CryptoBoys",
  "abi": [
    {
      "inputs": [],
      "stateMutability": "nonpayable",
      "type": "constructor"
    },
    {
      "anonymous": false,
      "inputs": [
        {
          "indexed": true,
          "internalType": "address",
          "name": "owner",
          "type": "address"
        },
        {
          "indexed": true,
          "internalType": "address",
          "name": "approved",
          "type": "address"
        },
        {
          "indexed": true,
          "internalType": "uint256",
          "name": "tokenId",
          "type": "uint256"
        }
      ],
      "name": "Approval",
      "type": "event"
    },
    {
      "anonymous": false,
      "inputs": [
        {
          "indexed": true,
          "internalType": "address",
          "name": "owner",
          "type": "address"
        },
        {
          "indexed": true,
          "internalType": "address",
          "name": "operator",
          "type": "address"
        },
        {
          "indexed": false,
          "internalType": "bool",
          "name": "approved",
          "type": "bool"
        }
      ],
      "name": "ApprovalForAll",
      "type": "event"
    },
    {
      "anonymous": false,
      "inputs": [
        {
          "indexed": true,
          "internalType": "address",
          "name": "from",
          "type": "address"
        },
        {
          "indexed": true,
          "internalType": "address",
          "name": "to",
          "type": "address"
        },
        {
          "indexed": true,
          "internalType": "uint256",
          "name": "tokenId",
          "type": "uint256"
        }
      ],
      "name": "Transfer",
      "type": "event"
    },
    {
      "inputs": [
        {
          "internalType": "uint256",
          "name": "",
          "type": "uint256"
        }
      ],
      "name": "allCryptoBoys",
      "outputs": [
        {
          "internalType": "uint256",
          "name": "tokenId",
          "type": "uint256"
        },
        {
          "internalType": "string",
          "name": "tokenName",
          "type": "string"
        },
        {
          "internalType": "string",
          "name": "tokenURI",
          "type": "string"
        },
        {
          "internalType": "address payable",
          "name": "mintedBy",
          "type": "address"
        },
        {
          "internalType": "address payable",
          "name": "currentOwner",
          "type": "address"
        },
        {
          "internalType": "address payable",
          "name": "previousOwner",
          "type": "address"
        },
        {
          "internalType": "uint256",
          "name": "price",
          "type": "uint256"
        },
        {
          "internalType": "uint256",
          "name": "dressPrice",
          "type": "uint256"
        },
        {
          "internalType": "string",
          "name": "imageHash",
          "type": "string"
        },
        {
          "internalType": "uint256",
          "name": "numberOfTransfers",
          "type": "uint256"
        },
        {
          "internalType": "bool",
          "name": "forSale",
          "type": "bool"
        }
      ],
      "stateMutability": "view",
      "type": "function",
      "constant": true
    },
    {
      "inputs": [
        {
          "internalType": "address",
          "name": "to",
          "type": "address"
        },
        {
          "internalType": "uint256",
          "name": "tokenId",
          "type": "uint256"
        }
      ],
      "name": "approve",
      "outputs": [],
      "stateMutability": "nonpayable",
      "type": "function"
    },
    {
      "inputs": [
        {
          "internalType": "address",
          "name": "owner",
          "type": "address"
        }
      ],
      "name": "balanceOf",
      "outputs": [
        {
          "internalType": "uint256",
          "name": "",
          "type": "uint256"
        }
      ],
      "stateMutability": "view",
      "type": "function",
      "constant": true
    },
    {
      "inputs": [],
      "name": "baseURI",
      "outputs": [
        {
          "internalType": "string",
          "name": "",
          "type": "string"
        }
      ],
      "stateMutability": "view",
      "type": "function",
      "constant": true
    },
    {
      "inputs": [],
      "name": "collectionName",
      "outputs": [
        {
          "internalType": "string",
          "name": "",
          "type": "string"
        }
      ],
      "stateMutability": "view",
      "type": "function",
      "constant": true
    },
    {
      "inputs": [],
      "name": "collectionNameSymbol",
      "outputs": [
        {
          "internalType": "string",
          "name": "",
          "type": "string"
        }
      ],
      "stateMutability": "view",
      "type": "function",
      "constant": true
    },
    {
      "inputs": [],
      "name": "cryptoBoyCounter",
      "outputs": [
        {
          "internalType": "uint256",
          "name": "",
          "type": "uint256"
        }
      ],
      "stateMutability": "view",
      "type": "function",
      "constant": true
    },
    {
      "inputs": [],
      "name": "deployer",
      "outputs": [
        {
          "internalType": "address",
          "name": "",
          "type": "address"
        }
      ],
      "stateMutability": "view",
      "type": "function",
      "constant": true
    },
    {
      "inputs": [
        {
          "internalType": "uint256",
          "name": "tokenId",
          "type": "uint256"
        }
      ],
      "name": "getApproved",
      "outputs": [
        {
          "internalType": "address",
          "name": "",
          "type": "address"
        }
      ],
      "stateMutability": "view",
      "type": "function",
      "constant": true
    },
    {
      "inputs": [
        {
          "internalType": "string",
          "name": "",
          "type": "string"
        }
      ],
      "name": "imageExists",
      "outputs": [
        {
          "internalType": "bool",
          "name": "",
          "type": "bool"
        }
      ],
      "stateMutability": "view",
      "type": "function",
      "constant": true
    },
    {
      "inputs": [
        {
          "internalType": "address",
          "name": "owner",
          "type": "address"
        },
        {
          "internalType": "address",
          "name": "operator",
          "type": "address"
        }
      ],
      "name": "isApprovedForAll",
      "outputs": [
        {
          "internalType": "bool",
          "name": "",
          "type": "bool"
        }
      ],
      "stateMutability": "view",
      "type": "function",
      "constant": true
    },
    {
      "inputs": [],
      "name": "name",
      "outputs": [
        {
          "internalType": "string",
          "name": "",
          "type": "string"
        }
      ],
      "stateMutability": "view",
      "type": "function",
      "constant": true
    },
    {
      "inputs": [
        {
          "internalType": "string",
          "name": "",
          "type": "string"
        }
      ],
      "name": "nameToCryptoBoy",
      "outputs": [
        {
          "internalType": "uint256",
          "name": "tokenId",
          "type": "uint256"
        },
        {
          "internalType": "string",
          "name": "tokenName",
          "type": "string"
        },
        {
          "internalType": "string",
          "name": "tokenURI",
          "type": "string"
        },
        {
          "internalType": "address payable",
          "name": "mintedBy",
          "type": "address"
        },
        {
          "internalType": "address payable",
          "name": "currentOwner",
          "type": "address"
        },
        {
          "internalType": "address payable",
          "name": "previousOwner",
          "type": "address"
        },
        {
          "internalType": "uint256",
          "name": "price",
          "type": "uint256"
        },
        {
          "internalType": "uint256",
          "name": "dressPrice",
          "type": "uint256"
        },
        {
          "internalType": "string",
          "name": "imageHash",
          "type": "string"
        },
        {
          "internalType": "uint256",
          "name": "numberOfTransfers",
          "type": "uint256"
        },
        {
          "internalType": "bool",
          "name": "forSale",
          "type": "bool"
        }
      ],
      "stateMutability": "view",
      "type": "function",
      "constant": true
    },
    {
      "inputs": [
        {
          "internalType": "string",
          "name": "",
          "type": "string"
        }
      ],
      "name": "nameToId",
      "outputs": [
        {
          "internalType": "uint256",
          "name": "",
          "type": "uint256"
        }
      ],
      "stateMutability": "view",
      "type": "function",
      "constant": true
    },
    {
      "inputs": [
        {
          "internalType": "uint256",
          "name": "tokenId",
          "type": "uint256"
        }
      ],
      "name": "ownerOf",
      "outputs": [
        {
          "internalType": "address",
          "name": "",
          "type": "address"
        }
      ],
      "stateMutability": "view",
      "type": "function",
      "constant": true
    },
    {
      "inputs": [
        {
          "internalType": "address",
          "name": "from",
          "type": "address"
        },
        {
          "internalType": "address",
          "name": "to",
          "type": "address"
        },
        {
          "internalType": "uint256",
          "name": "tokenId",
          "type": "uint256"
        }
      ],
      "name": "safeTransferFrom",
      "outputs": [],
      "stateMutability": "nonpayable",
      "type": "function"
    },
    {
      "inputs": [
        {
          "internalType": "address",
          "name": "from",
          "type": "address"
        },
        {
          "internalType": "address",
          "name": "to",
          "type": "address"
        },
        {
          "internalType": "uint256",
          "name": "tokenId",
          "type": "uint256"
        },
        {
          "internalType": "bytes",
          "name": "_data",
          "type": "bytes"
        }
      ],
      "name": "safeTransferFrom",
      "outputs": [],
      "stateMutability": "nonpayable",
      "type": "function"
    },
    {
      "inputs": [
        {
          "internalType": "address",
          "name": "operator",
          "type": "address"
        },
        {
          "internalType": "bool",
          "name": "approved",
          "type": "bool"
        }
      ],
      "name": "setApprovalForAll",
      "outputs": [],
      "stateMutability": "nonpayable",
      "type": "function"
    },
    {
      "inputs": [
        {
          "internalType": "bytes4",
          "name": "interfaceId",
          "type": "bytes4"
        }
      ],
      "name": "supportsInterface",
      "outputs": [
        {
          "internalType": "bool",
          "name": "",
          "type": "bool"
        }
      ],
      "stateMutability": "view",
      "type": "function",
      "constant": true
    },
    {
      "inputs": [],
      "name": "symbol",
      "outputs": [
        {
          "internalType": "string",
          "name": "",
          "type": "string"
        }
      ],
      "stateMutability": "view",
      "type": "function",
      "constant": true
    },
    {
      "inputs": [
        {
          "internalType": "uint256",
          "name": "index",
          "type": "uint256"
        }
      ],
      "name": "tokenByIndex",
      "outputs": [
        {
          "internalType": "uint256",
          "name": "",
          "type": "uint256"
        }
      ],
      "stateMutability": "view",
      "type": "function",
      "constant": true
    },
    {
      "inputs": [
        {
          "internalType": "uint256",
          "name": "",
          "type": "uint256"
        }
      ],
      "name": "tokenIdExists",
      "outputs": [
        {
          "internalType": "bool",
          "name": "",
          "type": "bool"
        }
      ],
      "stateMutability": "view",
      "type": "function",
      "constant": true
    },
    {
      "inputs": [
        {
          "internalType": "string",
          "name": "",
          "type": "string"
        }
      ],
      "name": "tokenNameExists",
      "outputs": [
        {
          "internalType": "bool",
          "name": "",
          "type": "bool"
        }
      ],
      "stateMutability": "view",
      "type": "function",
      "constant": true
    },
    {
      "inputs": [
        {
          "internalType": "address",
          "name": "owner",
          "type": "address"
        },
        {
          "internalType": "uint256",
          "name": "index",
          "type": "uint256"
        }
      ],
      "name": "tokenOfOwnerByIndex",
      "outputs": [
        {
          "internalType": "uint256",
          "name": "",
          "type": "uint256"
        }
      ],
      "stateMutability": "view",
      "type": "function",
      "constant": true
    },
    {
      "inputs": [
        {
          "internalType": "uint256",
          "name": "tokenId",
          "type": "uint256"
        }
      ],
      "name": "tokenURI",
      "outputs": [
        {
          "internalType": "string",
          "name": "",
          "type": "string"
        }
      ],
      "stateMutability": "view",
      "type": "function",
      "constant": true
    },
    {
      "inputs": [
        {
          "internalType": "string",
          "name": "",
          "type": "string"
        }
      ],
      "name": "tokenURIExists",
      "outputs": [
        {
          "internalType": "bool",
          "name": "",
          "type": "bool"
        }
      ],
      "stateMutability": "view",
      "type": "function",
      "constant": true
    },
    {
      "inputs": [],
      "name": "totalSupply",
      "outputs": [
        {
          "internalType": "uint256",
          "name": "",
          "type": "uint256"
        }
      ],
      "stateMutability": "view",
      "type": "function",
      "constant": true
    },
    {
      "inputs": [
        {
          "internalType": "address",
          "name": "from",
          "type": "address"
        },
        {
          "internalType": "address",
          "name": "to",
          "type": "address"
        },
        {
          "internalType": "uint256",
          "name": "tokenId",
          "type": "uint256"
        }
      ],
      "name": "transferFrom",
      "outputs": [],
      "stateMutability": "nonpayable",
      "type": "function"
    },
    {
      "inputs": [
        {
          "internalType": "string",
          "name": "_name",
          "type": "string"
        },
        {
          "internalType": "string",
          "name": "_tokenURI",
          "type": "string"
        },
        {
          "internalType": "uint256",
          "name": "_price",
          "type": "uint256"
        },
        {
          "internalType": "uint256",
          "name": "_dressPrice",
          "type": "uint256"
        },
        {
          "internalType": "string",
          "name": "_imageHash",
          "type": "string"
        }
      ],
      "name": "mintCryptoBoy",
      "outputs": [],
      "stateMutability": "nonpayable",
      "type": "function"
    },
    {
      "inputs": [
        {
          "internalType": "uint256",
          "name": "_tokenId",
          "type": "uint256"
        }
      ],
      "name": "getTokenOwner",
      "outputs": [
        {
          "internalType": "address",
          "name": "",
          "type": "address"
        }
      ],
      "stateMutability": "view",
      "type": "function",
      "constant": true
    },
    {
      "inputs": [
        {
          "internalType": "uint256",
          "name": "_tokenId",
          "type": "uint256"
        }
      ],
      "name": "getTokenMetaData",
      "outputs": [
        {
          "internalType": "string",
          "name": "",
          "type": "string"
        }
      ],
      "stateMutability": "view",
      "type": "function",
      "constant": true
    },
    {
      "inputs": [],
      "name": "getNumberOfTokensMinted",
      "outputs": [
        {
          "internalType": "uint256",
          "name": "",
          "type": "uint256"
        }
      ],
      "stateMutability": "view",
      "type": "function",
      "constant": true
    },
    {
      "inputs": [
        {
          "internalType": "address",
          "name": "_owner",
          "type": "address"
        }
      ],
      "name": "getTotalNumberOfTokensOwnedByAnAddress",
      "outputs": [
        {
          "internalType": "uint256",
          "name": "",
          "type": "uint256"
        }
      ],
      "stateMutability": "view",
      "type": "function",
      "constant": true
    },
    {
      "inputs": [
        {
          "internalType": "uint256",
          "name": "_tokenId",
          "type": "uint256"
        }
      ],
      "name": "getTokenExists",
      "outputs": [
        {
          "internalType": "bool",
          "name": "",
          "type": "bool"
        }
      ],
      "stateMutability": "view",
      "type": "function",
      "constant": true
    },
    {
      "inputs": [
        {
          "internalType": "uint256",
          "name": "_tokenId",
          "type": "uint256"
        },
        {
          "internalType": "uint256",
          "name": "_price",
          "type": "uint256"
        },
        {
          "internalType": "address",
          "name": "_ethswapadd",
          "type": "address"
        }
      ],
      "name": "buyToken",
      "outputs": [],
      "stateMutability": "payable",
      "type": "function",
      "payable": true
    },
    {
      "inputs": [
        {
          "internalType": "uint256",
          "name": "_tokenId",
          "type": "uint256"
        },
        {
          "internalType": "uint256",
          "name": "_newPrice",
          "type": "uint256"
        }
      ],
      "name": "changeTokenPrice",
      "outputs": [],
      "stateMutability": "nonpayable",
      "type": "function"
    },
    {
      "inputs": [
        {
          "internalType": "uint256",
          "name": "_tokenId",
          "type": "uint256"
        },
        {
          "internalType": "uint256",
          "name": "_newPrice",
          "type": "uint256"
        }
      ],
      "name": "changeTokenDressPrice",
      "outputs": [],
      "stateMutability": "nonpayable",
      "type": "function"
    },
    {
      "inputs": [
        {
          "internalType": "uint256",
          "name": "_tokenId",
          "type": "uint256"
        }
      ],
      "name": "toggleForSale",
      "outputs": [],
      "stateMutability": "nonpayable",
      "type": "function"
    }
  ],
  "bytecode": "0x60806040523480156200001157600080fd5b506040518060400160405280601681526020017f43727970746f20426f797320436f6c6c656374696f6e000000000000000000008152506040518060400160405280600281526020017f4342000000000000000000000000000000000000000000000000000000000000815250620000966301ffc9a760e01b620001a960201b60201c565b8160069080519060200190620000ae929190620003fe565b508060079080519060200190620000c7929190620003fe565b50620000e06380ac58cd60e01b620001a960201b60201c565b620000f8635b5e139f60e01b620001a960201b60201c565b6200011063780e9d6360e01b620001a960201b60201c565b505033600d60006101000a81548173ffffffffffffffffffffffffffffffffffffffff021916908373ffffffffffffffffffffffffffffffffffffffff16021790555062000163620002b260201b60201c565b600a90805190602001906200017a929190620003fe565b506200018b6200035860201b60201c565b600b9080519060200190620001a2929190620003fe565b50620004b4565b63ffffffff60e01b817bffffffffffffffffffffffffffffffffffffffffffffffffffffffff1916141562000246576040517f08c379a000000000000000000000000000000000000000000000000000000000815260040180806020018281038252601c8152602001807f4552433136353a20696e76616c696420696e746572666163652069640000000081525060200191505060405180910390fd5b6001600080837bffffffffffffffffffffffffffffffffffffffffffffffffffffffff19167bffffffffffffffffffffffffffffffffffffffffffffffffffffffff1916815260200190815260200160002060006101000a81548160ff02191690831515021790555050565b606060068054600181600116156101000203166002900480601f0160208091040260200160405190810160405280929190818152602001828054600181600116156101000203166002900480156200034e5780601f1062000322576101008083540402835291602001916200034e565b820191906000526020600020905b8154815290600101906020018083116200033057829003601f168201915b5050505050905090565b606060078054600181600116156101000203166002900480601f016020809104026020016040519081016040528092919081815260200182805460018160011615610100020316600290048015620003f45780601f10620003c857610100808354040283529160200191620003f4565b820191906000526020600020905b815481529060010190602001808311620003d657829003601f168201915b5050505050905090565b828054600181600116156101000203166002900490600052602060002090601f01602090048101928262000436576000855562000482565b82601f106200045157805160ff191683800117855562000482565b8280016001018555821562000482579182015b828111156200048157825182559160200191906001019062000464565b5b50905062000491919062000495565b5090565b5b80821115620004b057600081600090555060010162000496565b5090565b615a9180620004c46000396000f3fe6080604052600436106102255760003560e01c80636c0360eb11610123578063bffec202116100ab578063e5326ab11161006f578063e5326ab1146108ca578063e8006f95146108f5578063e985e9c51461091e578063f6d8f2cb1461095b578063ff6cef081461099857610225565b8063bffec202146107e3578063c87b56dd1461080e578063cc151f3a1461084b578063d5f3948814610876578063d73bf33d146108a157610225565b8063a22cb465116100f2578063a22cb465146106ee578063a32018b914610717578063a46b1fac14610740578063a5cd761f1461077d578063b88d4fde146107ba57610225565b80636c0360eb146106305780636f9507f91461065b57806370a082311461068657806395d89b41146106c357610225565b80632f745c59116101b157806344c0d7eb1161017557806344c0d7eb146105095780634f6ccce71461055057806362e8e8ac1461058d5780636352211e146105b657806367c623cf146105f357610225565b80632f745c59146103e2578063419e76ba1461041f57806342842e0e14610466578063439028501461048f57806343d32ae7146104cc57610225565b80630d130624116101f85780630d130624146102f8578063142687f31461033557806318160ddd1461037257806321466eb51461039d57806323b872dd146103b957610225565b806301ffc9a71461022a57806306fdde0314610267578063081812fc14610292578063095ea7b3146102cf575b600080fd5b34801561023657600080fd5b50610251600480360381019061024c91906151b8565b6109d5565b60405161025e919061547c565b60405180910390f35b34801561027357600080fd5b5061027c610a3c565b6040516102899190615497565b60405180910390f35b34801561029e57600080fd5b506102b960048036038101906102b491906152e1565b610ade565b6040516102c69190615461565b60405180910390f35b3480156102db57600080fd5b506102f660048036038101906102f1919061517c565b610b79565b005b34801561030457600080fd5b5061031f600480360381019061031a91906152e1565b610cbd565b60405161032c919061547c565b60405180910390f35b34801561034157600080fd5b5061035c600480360381019061035791906152e1565b610cdd565b604051610369919061547c565b60405180910390f35b34801561037e57600080fd5b50610387610cf4565b60405161039491906154b9565b60405180910390f35b6103b760048036038101906103b29190615346565b610d05565b005b3480156103c557600080fd5b506103e060048036038101906103db9190615076565b61143e565b005b3480156103ee57600080fd5b506104096004803603810190610404919061517c565b6114b4565b60405161041691906154b9565b60405180910390f35b34801561042b57600080fd5b50610446600480360381019061044191906151e1565b61150f565b60405161045d9b9a999897969594939291906154fd565b60405180910390f35b34801561047257600080fd5b5061048d60048036038101906104889190615076565b6117b4565b005b34801561049b57600080fd5b506104b660048036038101906104b19190615011565b6117d4565b6040516104c391906154b9565b60405180910390f35b3480156104d857600080fd5b506104f360048036038101906104ee91906151e1565b6117eb565b604051610500919061547c565b60405180910390f35b34801561051557600080fd5b50610530600480360381019061052b91906152e1565b611821565b6040516105479b9a999897969594939291906154fd565b60405180910390f35b34801561055c57600080fd5b50610577600480360381019061057291906152e1565b611ab0565b60405161058491906154b9565b60405180910390f35b34801561059957600080fd5b506105b460048036038101906105af919061530a565b611ad3565b005b3480156105c257600080fd5b506105dd60048036038101906105d891906152e1565b612050565b6040516105ea9190615461565b60405180910390f35b3480156105ff57600080fd5b5061061a600480360381019061061591906152e1565b612087565b6040516106279190615497565b60405180910390f35b34801561063c57600080fd5b5061064561209f565b6040516106529190615497565b60405180910390f35b34801561066757600080fd5b50610670612141565b60405161067d9190615497565b60405180910390f35b34801561069257600080fd5b506106ad60048036038101906106a89190615011565b6121df565b6040516106ba91906154b9565b60405180910390f35b3480156106cf57600080fd5b506106d86122b4565b6040516106e59190615497565b60405180910390f35b3480156106fa57600080fd5b5061071560048036038101906107109190615140565b612356565b005b34801561072357600080fd5b5061073e600480360381019061073991906152e1565b61250c565b005b34801561074c57600080fd5b50610767600480360381019061076291906151e1565b612ab3565b604051610774919061547c565b60405180910390f35b34801561078957600080fd5b506107a4600480360381019061079f91906152e1565b612ae9565b6040516107b19190615461565b60405180910390f35b3480156107c657600080fd5b506107e160048036038101906107dc91906150c5565b612b00565b005b3480156107ef57600080fd5b506107f8612b78565b60405161080591906154b9565b60405180910390f35b34801561081a57600080fd5b50610835600480360381019061083091906152e1565b612b7e565b6040516108429190615497565b60405180910390f35b34801561085757600080fd5b50610860612e4f565b60405161086d91906154b9565b60405180910390f35b34801561088257600080fd5b5061088b612e63565b6040516108989190615461565b60405180910390f35b3480156108ad57600080fd5b506108c860048036038101906108c3919061530a565b612e89565b005b3480156108d657600080fd5b506108df613406565b6040516108ec9190615497565b60405180910390f35b34801561090157600080fd5b5061091c60048036038101906109179190615222565b6134a4565b005b34801561092a57600080fd5b506109456004803603810190610940919061503a565b613a81565b604051610952919061547c565b60405180910390f35b34801561096757600080fd5b50610982600480360381019061097d91906151e1565b613b15565b60405161098f91906154b9565b60405180910390f35b3480156109a457600080fd5b506109bf60048036038101906109ba91906151e1565b613b43565b6040516109cc919061547c565b60405180910390f35b6000806000837bffffffffffffffffffffffffffffffffffffffffffffffffffffffff19167bffffffffffffffffffffffffffffffffffffffffffffffffffffffff1916815260200190815260200160002060009054906101000a900460ff169050919050565b606060068054600181600116156101000203166002900480601f016020809104026020016040519081016040528092919081815260200182805460018160011615610100020316600290048015610ad45780601f10610aa957610100808354040283529160200191610ad4565b820191906000526020600020905b815481529060010190602001808311610ab757829003601f168201915b5050505050905090565b6000610ae982613b79565b610b3e576040517f08c379a000000000000000000000000000000000000000000000000000000000815260040180806020018281038252602c81526020018061595a602c913960400191505060405180910390fd5b6004600083815260200190815260200160002060009054906101000a900473ffffffffffffffffffffffffffffffffffffffff169050919050565b6000610b8482612050565b90508073ffffffffffffffffffffffffffffffffffffffff168373ffffffffffffffffffffffffffffffffffffffff161415610c0b576040517f08c379a0000000000000000000000000000000000000000000000000000000008152600401808060200182810382526021815260200180615a0a6021913960400191505060405180910390fd5b8073ffffffffffffffffffffffffffffffffffffffff16610c2a613b96565b73ffffffffffffffffffffffffffffffffffffffff161480610c595750610c5881610c53613b96565b613a81565b5b610cae576040517f08c379a00000000000000000000000000000000000000000000000000000000081526004018080602001828103825260388152602001806158ad6038913960400191505060405180910390fd5b610cb88383613b9e565b505050565b60126020528060005260406000206000915054906101000a900460ff1681565b600080610ce983613b79565b905080915050919050565b6000610d006002613c57565b905090565b6000819050600073ffffffffffffffffffffffffffffffffffffffff163373ffffffffffffffffffffffffffffffffffffffff161415610d4457600080fd5b610d4d84613b79565b610d5657600080fd5b6000610d6185612050565b9050600073ffffffffffffffffffffffffffffffffffffffff168173ffffffffffffffffffffffffffffffffffffffff161415610d9d57600080fd5b3373ffffffffffffffffffffffffffffffffffffffff168173ffffffffffffffffffffffffffffffffffffffff161415610dd657600080fd5b6000600e60008781526020019081526020016000206040518061016001604052908160008201548152602001600182018054600181600116156101000203166002900480601f016020809104026020016040519081016040528092919081815260200182805460018160011615610100020316600290048015610e9a5780601f10610e6f57610100808354040283529160200191610e9a565b820191906000526020600020905b815481529060010190602001808311610e7d57829003601f168201915b50505050508152602001600282018054600181600116156101000203166002900480601f016020809104026020016040519081016040528092919081815260200182805460018160011615610100020316600290048015610f3c5780601f10610f1157610100808354040283529160200191610f3c565b820191906000526020600020905b815481529060010190602001808311610f1f57829003601f168201915b505050505081526020016003820160009054906101000a900473ffffffffffffffffffffffffffffffffffffffff1673ffffffffffffffffffffffffffffffffffffffff1673ffffffffffffffffffffffffffffffffffffffff1681526020016004820160009054906101000a900473ffffffffffffffffffffffffffffffffffffffff1673ffffffffffffffffffffffffffffffffffffffff1673ffffffffffffffffffffffffffffffffffffffff1681526020016005820160009054906101000a900473ffffffffffffffffffffffffffffffffffffffff1673ffffffffffffffffffffffffffffffffffffffff1673ffffffffffffffffffffffffffffffffffffffff1681526020016006820154815260200160078201548152602001600882018054600181600116156101000203166002900480601f0160208091040260200160405190810160405280929190818152602001828054600181600116156101000203166002900480156110f45780601f106110c9576101008083540402835291602001916110f4565b820191906000526020600020905b8154815290600101906020018083116110d757829003601f168201915b5050505050815260200160098201548152602001600a820160009054906101000a900460ff161515151581525050905080610140015161113357600080fd5b61113e823388613c6c565b6000816080015190508373ffffffffffffffffffffffffffffffffffffffff1663fe715e6587336040518363ffffffff1660e01b81526004016111829291906154d4565b600060405180830381600087803b15801561119c57600080fd5b505af11580156111b0573d6000803e3d6000fd5b505050508373ffffffffffffffffffffffffffffffffffffffff1663c548bce887836040518363ffffffff1660e01b81526004016111ef9291906154d4565b600060405180830381600087803b15801561120957600080fd5b505af115801561121d573d6000803e3d6000fd5b5050505081608001518260a0019073ffffffffffffffffffffffffffffffffffffffff16908173ffffffffffffffffffffffffffffffffffffffff168152505033826080019073ffffffffffffffffffffffffffffffffffffffff16908173ffffffffffffffffffffffffffffffffffffffff168152505060018261012001818151019150818152505081600e60008981526020019081526020016000206000820151816000015560208201518160010190805190602001906112e1929190614e42565b5060408201518160020190805190602001906112fe929190614e42565b5060608201518160030160006101000a81548173ffffffffffffffffffffffffffffffffffffffff021916908373ffffffffffffffffffffffffffffffffffffffff16021790555060808201518160040160006101000a81548173ffffffffffffffffffffffffffffffffffffffff021916908373ffffffffffffffffffffffffffffffffffffffff16021790555060a08201518160050160006101000a81548173ffffffffffffffffffffffffffffffffffffffff021916908373ffffffffffffffffffffffffffffffffffffffff16021790555060c0820151816006015560e08201518160070155610100820151816008019080519060200190611405929190614e42565b50610120820151816009015561014082015181600a0160006101000a81548160ff02191690831515021790555090505050505050505050565b61144f611449613b96565b82613eaf565b6114a4576040517f08c379a0000000000000000000000000000000000000000000000000000000008152600401808060200182810382526031815260200180615a2b6031913960400191505060405180910390fd5b6114af838383613c6c565b505050565b600061150782600160008673ffffffffffffffffffffffffffffffffffffffff1673ffffffffffffffffffffffffffffffffffffffff168152602001908152602001600020613fa390919063ffffffff16565b905092915050565b601381805160208101820180518482526020830160208501208183528095505050505050600091509050806000015490806001018054600181600116156101000203166002900480601f0160208091040260200160405190810160405280929190818152602001828054600181600116156101000203166002900480156115d75780601f106115ac576101008083540402835291602001916115d7565b820191906000526020600020905b8154815290600101906020018083116115ba57829003601f168201915b505050505090806002018054600181600116156101000203166002900480601f0160208091040260200160405190810160405280929190818152602001828054600181600116156101000203166002900480156116755780601f1061164a57610100808354040283529160200191611675565b820191906000526020600020905b81548152906001019060200180831161165857829003601f168201915b5050505050908060030160009054906101000a900473ffffffffffffffffffffffffffffffffffffffff16908060040160009054906101000a900473ffffffffffffffffffffffffffffffffffffffff16908060050160009054906101000a900473ffffffffffffffffffffffffffffffffffffffff1690806006015490806007015490806008018054600181600116156101000203166002900480601f0160208091040260200160405190810160405280929190818152602001828054600181600116156101000203166002900480156117915780601f1061176657610100808354040283529160200191611791565b820191906000526020600020905b81548152906001019060200180831161177457829003601f168201915b50505050509080600901549080600a0160009054906101000a900460ff1690508b565b6117cf83838360405180602001604052806000815250612b00565b505050565b6000806117e0836121df565b905080915050919050565b6011818051602081018201805184825260208301602085012081835280955050505050506000915054906101000a900460ff1681565b600e602052806000526040600020600091509050806000015490806001018054600181600116156101000203166002900480601f0160208091040260200160405190810160405280929190818152602001828054600181600116156101000203166002900480156118d35780601f106118a8576101008083540402835291602001916118d3565b820191906000526020600020905b8154815290600101906020018083116118b657829003601f168201915b505050505090806002018054600181600116156101000203166002900480601f0160208091040260200160405190810160405280929190818152602001828054600181600116156101000203166002900480156119715780601f1061194657610100808354040283529160200191611971565b820191906000526020600020905b81548152906001019060200180831161195457829003601f168201915b5050505050908060030160009054906101000a900473ffffffffffffffffffffffffffffffffffffffff16908060040160009054906101000a900473ffffffffffffffffffffffffffffffffffffffff16908060050160009054906101000a900473ffffffffffffffffffffffffffffffffffffffff1690806006015490806007015490806008018054600181600116156101000203166002900480601f016020809104026020016040519081016040528092919081815260200182805460018160011615610100020316600290048015611a8d5780601f10611a6257610100808354040283529160200191611a8d565b820191906000526020600020905b815481529060010190602001808311611a7057829003601f168201915b50505050509080600901549080600a0160009054906101000a900460ff1690508b565b600080611ac7836002613fbd90919063ffffffff16565b50905080915050919050565b600073ffffffffffffffffffffffffffffffffffffffff163373ffffffffffffffffffffffffffffffffffffffff161415611b0d57600080fd5b611b1682613b79565b611b1f57600080fd5b6000611b2a83612050565b90503373ffffffffffffffffffffffffffffffffffffffff168173ffffffffffffffffffffffffffffffffffffffff1614611b6457600080fd5b6000600e60008581526020019081526020016000206040518061016001604052908160008201548152602001600182018054600181600116156101000203166002900480601f016020809104026020016040519081016040528092919081815260200182805460018160011615610100020316600290048015611c285780601f10611bfd57610100808354040283529160200191611c28565b820191906000526020600020905b815481529060010190602001808311611c0b57829003601f168201915b50505050508152602001600282018054600181600116156101000203166002900480601f016020809104026020016040519081016040528092919081815260200182805460018160011615610100020316600290048015611cca5780601f10611c9f57610100808354040283529160200191611cca565b820191906000526020600020905b815481529060010190602001808311611cad57829003601f168201915b505050505081526020016003820160009054906101000a900473ffffffffffffffffffffffffffffffffffffffff1673ffffffffffffffffffffffffffffffffffffffff1673ffffffffffffffffffffffffffffffffffffffff1681526020016004820160009054906101000a900473ffffffffffffffffffffffffffffffffffffffff1673ffffffffffffffffffffffffffffffffffffffff1673ffffffffffffffffffffffffffffffffffffffff1681526020016005820160009054906101000a900473ffffffffffffffffffffffffffffffffffffffff1673ffffffffffffffffffffffffffffffffffffffff1673ffffffffffffffffffffffffffffffffffffffff1681526020016006820154815260200160078201548152602001600882018054600181600116156101000203166002900480601f016020809104026020016040519081016040528092919081815260200182805460018160011615610100020316600290048015611e825780601f10611e5757610100808354040283529160200191611e82565b820191906000526020600020905b815481529060010190602001808311611e6557829003601f168201915b5050505050815260200160098201548152602001600a820160009054906101000a900460ff1615151515815250509050828160c001818152505080600e6000868152602001908152602001600020600082015181600001556020820151816001019080519060200190611ef6929190614e42565b506040820151816002019080519060200190611f13929190614e42565b5060608201518160030160006101000a81548173ffffffffffffffffffffffffffffffffffffffff021916908373ffffffffffffffffffffffffffffffffffffffff16021790555060808201518160040160006101000a81548173ffffffffffffffffffffffffffffffffffffffff021916908373ffffffffffffffffffffffffffffffffffffffff16021790555060a08201518160050160006101000a81548173ffffffffffffffffffffffffffffffffffffffff021916908373ffffffffffffffffffffffffffffffffffffffff16021790555060c0820151816006015560e0820151816007015561010082015181600801908051906020019061201a929190614e42565b50610120820151816009015561014082015181600a0160006101000a81548160ff02191690831515021790555090505050505050565b60006120808260405180606001604052806029815260200161590f602991396002613fe99092919063ffffffff16565b9050919050565b6060600061209483612b7e565b905080915050919050565b606060098054600181600116156101000203166002900480601f0160208091040260200160405190810160405280929190818152602001828054600181600116156101000203166002900480156121375780601f1061210c57610100808354040283529160200191612137565b820191906000526020600020905b81548152906001019060200180831161211a57829003601f168201915b5050505050905090565b600b8054600181600116156101000203166002900480601f0160208091040260200160405190810160405280929190818152602001828054600181600116156101000203166002900480156121d75780601f106121ac576101008083540402835291602001916121d7565b820191906000526020600020905b8154815290600101906020018083116121ba57829003601f168201915b505050505081565b60008073ffffffffffffffffffffffffffffffffffffffff168273ffffffffffffffffffffffffffffffffffffffff161415612266576040517f08c379a000000000000000000000000000000000000000000000000000000000815260040180806020018281038252602a8152602001806158e5602a913960400191505060405180910390fd5b6122ad600160008473ffffffffffffffffffffffffffffffffffffffff1673ffffffffffffffffffffffffffffffffffffffff168152602001908152602001600020614008565b9050919050565b606060078054600181600116156101000203166002900480601f01602080910402602001604051908101604052809291908181526020018280546001816001161561010002031660029004801561234c5780601f106123215761010080835404028352916020019161234c565b820191906000526020600020905b81548152906001019060200180831161232f57829003601f168201915b5050505050905090565b61235e613b96565b73ffffffffffffffffffffffffffffffffffffffff168273ffffffffffffffffffffffffffffffffffffffff1614156123ff576040517f08c379a00000000000000000000000000000000000000000000000000000000081526004018080602001828103825260198152602001807f4552433732313a20617070726f766520746f2063616c6c65720000000000000081525060200191505060405180910390fd5b806005600061240c613b96565b73ffffffffffffffffffffffffffffffffffffffff1673ffffffffffffffffffffffffffffffffffffffff16815260200190815260200160002060008473ffffffffffffffffffffffffffffffffffffffff1673ffffffffffffffffffffffffffffffffffffffff16815260200190815260200160002060006101000a81548160ff0219169083151502179055508173ffffffffffffffffffffffffffffffffffffffff166124b9613b96565b73ffffffffffffffffffffffffffffffffffffffff167f17307eab39ab6107e8899845ad3d59bd9653f200f220920489ca2b5937696c318360405180821515815260200191505060405180910390a35050565b600073ffffffffffffffffffffffffffffffffffffffff163373ffffffffffffffffffffffffffffffffffffffff16141561254657600080fd5b61254f81613b79565b61255857600080fd5b600061256382612050565b90503373ffffffffffffffffffffffffffffffffffffffff168173ffffffffffffffffffffffffffffffffffffffff161461259d57600080fd5b6000600e60008481526020019081526020016000206040518061016001604052908160008201548152602001600182018054600181600116156101000203166002900480601f0160208091040260200160405190810160405280929190818152602001828054600181600116156101000203166002900480156126615780601f1061263657610100808354040283529160200191612661565b820191906000526020600020905b81548152906001019060200180831161264457829003601f168201915b50505050508152602001600282018054600181600116156101000203166002900480601f0160208091040260200160405190810160405280929190818152602001828054600181600116156101000203166002900480156127035780601f106126d857610100808354040283529160200191612703565b820191906000526020600020905b8154815290600101906020018083116126e657829003601f168201915b505050505081526020016003820160009054906101000a900473ffffffffffffffffffffffffffffffffffffffff1673ffffffffffffffffffffffffffffffffffffffff1673ffffffffffffffffffffffffffffffffffffffff1681526020016004820160009054906101000a900473ffffffffffffffffffffffffffffffffffffffff1673ffffffffffffffffffffffffffffffffffffffff1673ffffffffffffffffffffffffffffffffffffffff1681526020016005820160009054906101000a900473ffffffffffffffffffffffffffffffffffffffff1673ffffffffffffffffffffffffffffffffffffffff1673ffffffffffffffffffffffffffffffffffffffff1681526020016006820154815260200160078201548152602001600882018054600181600116156101000203166002900480601f0160208091040260200160405190810160405280929190818152602001828054600181600116156101000203166002900480156128bb5780601f10612890576101008083540402835291602001916128bb565b820191906000526020600020905b81548152906001019060200180831161289e57829003601f168201915b5050505050815260200160098201548152602001600a820160009054906101000a900460ff16151515158152505090508061014001511561290d57600081610140019015159081151581525050612920565b6001816101400190151590811515815250505b80600e600085815260200190815260200160002060008201518160000155602082015181600101908051906020019061295a929190614e42565b506040820151816002019080519060200190612977929190614e42565b5060608201518160030160006101000a81548173ffffffffffffffffffffffffffffffffffffffff021916908373ffffffffffffffffffffffffffffffffffffffff16021790555060808201518160040160006101000a81548173ffffffffffffffffffffffffffffffffffffffff021916908373ffffffffffffffffffffffffffffffffffffffff16021790555060a08201518160050160006101000a81548173ffffffffffffffffffffffffffffffffffffffff021916908373ffffffffffffffffffffffffffffffffffffffff16021790555060c0820151816006015560e08201518160070155610100820151816008019080519060200190612a7e929190614e42565b50610120820151816009015561014082015181600a0160006101000a81548160ff021916908315150217905550905050505050565b600f818051602081018201805184825260208301602085012081835280955050505050506000915054906101000a900460ff1681565b600080612af583612050565b905080915050919050565b612b11612b0b613b96565b83613eaf565b612b66576040517f08c379a0000000000000000000000000000000000000000000000000000000008152600401808060200182810382526031815260200180615a2b6031913960400191505060405180910390fd5b612b728484848461401d565b50505050565b600c5481565b6060612b8982613b79565b612bde576040517f08c379a000000000000000000000000000000000000000000000000000000000815260040180806020018281038252602f8152602001806159db602f913960400191505060405180910390fd5b6000600860008481526020019081526020016000208054600181600116156101000203166002900480601f016020809104026020016040519081016040528092919081815260200182805460018160011615610100020316600290048015612c875780601f10612c5c57610100808354040283529160200191612c87565b820191906000526020600020905b815481529060010190602001808311612c6a57829003601f168201915b505050505090506000612c9861209f565b9050600081511415612cae578192505050612e4a565b600082511115612d7f5780826040516020018083805190602001908083835b60208310612cf05780518252602082019150602081019050602083039250612ccd565b6001836020036101000a03801982511681845116808217855250505050505090500182805190602001908083835b60208310612d415780518252602082019150602081019050602083039250612d1e565b6001836020036101000a0380198251168184511680821785525050505050509050019250505060405160208183030381529060405292505050612e4a565b80612d898561408f565b6040516020018083805190602001908083835b60208310612dbf5780518252602082019150602081019050602083039250612d9c565b6001836020036101000a03801982511681845116808217855250505050505090500182805190602001908083835b60208310612e105780518252602082019150602081019050602083039250612ded565b6001836020036101000a03801982511681845116808217855250505050505090500192505050604051602081830303815290604052925050505b919050565b600080612e5a610cf4565b90508091505090565b600d60009054906101000a900473ffffffffffffffffffffffffffffffffffffffff1681565b600073ffffffffffffffffffffffffffffffffffffffff163373ffffffffffffffffffffffffffffffffffffffff161415612ec357600080fd5b612ecc82613b79565b612ed557600080fd5b6000612ee083612050565b90503373ffffffffffffffffffffffffffffffffffffffff168173ffffffffffffffffffffffffffffffffffffffff1614612f1a57600080fd5b6000600e60008581526020019081526020016000206040518061016001604052908160008201548152602001600182018054600181600116156101000203166002900480601f016020809104026020016040519081016040528092919081815260200182805460018160011615610100020316600290048015612fde5780601f10612fb357610100808354040283529160200191612fde565b820191906000526020600020905b815481529060010190602001808311612fc157829003601f168201915b50505050508152602001600282018054600181600116156101000203166002900480601f0160208091040260200160405190810160405280929190818152602001828054600181600116156101000203166002900480156130805780601f1061305557610100808354040283529160200191613080565b820191906000526020600020905b81548152906001019060200180831161306357829003601f168201915b505050505081526020016003820160009054906101000a900473ffffffffffffffffffffffffffffffffffffffff1673ffffffffffffffffffffffffffffffffffffffff1673ffffffffffffffffffffffffffffffffffffffff1681526020016004820160009054906101000a900473ffffffffffffffffffffffffffffffffffffffff1673ffffffffffffffffffffffffffffffffffffffff1673ffffffffffffffffffffffffffffffffffffffff1681526020016005820160009054906101000a900473ffffffffffffffffffffffffffffffffffffffff1673ffffffffffffffffffffffffffffffffffffffff1673ffffffffffffffffffffffffffffffffffffffff1681526020016006820154815260200160078201548152602001600882018054600181600116156101000203166002900480601f0160208091040260200160405190810160405280929190818152602001828054600181600116156101000203166002900480156132385780601f1061320d57610100808354040283529160200191613238565b820191906000526020600020905b81548152906001019060200180831161321b57829003601f168201915b5050505050815260200160098201548152602001600a820160009054906101000a900460ff1615151515815250509050828160e001818152505080600e60008681526020019081526020016000206000820151816000015560208201518160010190805190602001906132ac929190614e42565b5060408201518160020190805190602001906132c9929190614e42565b5060608201518160030160006101000a81548173ffffffffffffffffffffffffffffffffffffffff021916908373ffffffffffffffffffffffffffffffffffffffff16021790555060808201518160040160006101000a81548173ffffffffffffffffffffffffffffffffffffffff021916908373ffffffffffffffffffffffffffffffffffffffff16021790555060a08201518160050160006101000a81548173ffffffffffffffffffffffffffffffffffffffff021916908373ffffffffffffffffffffffffffffffffffffffff16021790555060c0820151816006015560e082015181600701556101008201518160080190805190602001906133d0929190614e42565b50610120820151816009015561014082015181600a0160006101000a81548160ff02191690831515021790555090505050505050565b600a8054600181600116156101000203166002900480601f01602080910402602001604051908101604052809291908181526020018280546001816001161561010002031660029004801561349c5780601f106134715761010080835404028352916020019161349c565b820191906000526020600020905b81548152906001019060200180831161347f57829003601f168201915b505050505081565b600073ffffffffffffffffffffffffffffffffffffffff163373ffffffffffffffffffffffffffffffffffffffff1614156134de57600080fd5b600c600081548092919060010191905055506134fb600c54613b79565b1561350557600080fd5b600f85604051613515919061544a565b908152602001604051809103902060009054906101000a900460ff161561353b57600080fd5b60108160405161354b919061544a565b908152602001604051809103902060009054906101000a900460ff161561357157600080fd5b601184604051613581919061544a565b908152602001604051809103902060009054906101000a900460ff16156135a757600080fd5b6135b333600c546141d6565b6135bf600c54856143ca565b60016011856040516135d1919061544a565b908152602001604051809103902060006101000a81548160ff0219169083151502179055506001600f86604051613608919061544a565b908152602001604051809103902060006101000a81548160ff021916908315150217905550600160108260405161363f919061544a565b908152602001604051809103902060006101000a81548160ff021916908315150217905550600160126000600c54815260200190815260200160002060006101000a81548160ff0219169083151502179055506000604051806101600160405280600c5481526020018781526020018681526020013373ffffffffffffffffffffffffffffffffffffffff1681526020013373ffffffffffffffffffffffffffffffffffffffff168152602001600073ffffffffffffffffffffffffffffffffffffffff1681526020018581526020018481526020018381526020016000815260200160011515815250905080600e6000600c548152602001908152602001600020600082015181600001556020820151816001019080519060200190613767929190614e42565b506040820151816002019080519060200190613784929190614e42565b5060608201518160030160006101000a81548173ffffffffffffffffffffffffffffffffffffffff021916908373ffffffffffffffffffffffffffffffffffffffff16021790555060808201518160040160006101000a81548173ffffffffffffffffffffffffffffffffffffffff021916908373ffffffffffffffffffffffffffffffffffffffff16021790555060a08201518160050160006101000a81548173ffffffffffffffffffffffffffffffffffffffff021916908373ffffffffffffffffffffffffffffffffffffffff16021790555060c0820151816006015560e0820151816007015561010082015181600801908051906020019061388b929190614e42565b50610120820151816009015561014082015181600a0160006101000a81548160ff021916908315150217905550905050806013876040516138cc919061544a565b9081526020016040518091039020600082015181600001556020820151816001019080519060200190613900929190614e42565b50604082015181600201908051906020019061391d929190614e42565b5060608201518160030160006101000a81548173ffffffffffffffffffffffffffffffffffffffff021916908373ffffffffffffffffffffffffffffffffffffffff16021790555060808201518160040160006101000a81548173ffffffffffffffffffffffffffffffffffffffff021916908373ffffffffffffffffffffffffffffffffffffffff16021790555060a08201518160050160006101000a81548173ffffffffffffffffffffffffffffffffffffffff021916908373ffffffffffffffffffffffffffffffffffffffff16021790555060c0820151816006015560e08201518160070155610100820151816008019080519060200190613a24929190614e42565b50610120820151816009015561014082015181600a0160006101000a81548160ff021916908315150217905550905050600c54601487604051613a67919061544a565b908152602001604051809103902081905550505050505050565b6000600560008473ffffffffffffffffffffffffffffffffffffffff1673ffffffffffffffffffffffffffffffffffffffff16815260200190815260200160002060008373ffffffffffffffffffffffffffffffffffffffff1673ffffffffffffffffffffffffffffffffffffffff16815260200190815260200160002060009054906101000a900460ff16905092915050565b6014818051602081018201805184825260208301602085012081835280955050505050506000915090505481565b6010818051602081018201805184825260208301602085012081835280955050505050506000915054906101000a900460ff1681565b6000613b8f82600261445490919063ffffffff16565b9050919050565b600033905090565b816004600083815260200190815260200160002060006101000a81548173ffffffffffffffffffffffffffffffffffffffff021916908373ffffffffffffffffffffffffffffffffffffffff160217905550808273ffffffffffffffffffffffffffffffffffffffff16613c1183612050565b73ffffffffffffffffffffffffffffffffffffffff167f8c5be1e5ebec7d5bd14f71427d1e84f3dd0314c0f7b2291e5b200ac8c7c3b92560405160405180910390a45050565b6000613c658260000161446e565b9050919050565b8273ffffffffffffffffffffffffffffffffffffffff16613c8c82612050565b73ffffffffffffffffffffffffffffffffffffffff1614613cf8576040517f08c379a00000000000000000000000000000000000000000000000000000000081526004018080602001828103825260298152602001806159b26029913960400191505060405180910390fd5b600073ffffffffffffffffffffffffffffffffffffffff168273ffffffffffffffffffffffffffffffffffffffff161415613d7e576040517f08c379a00000000000000000000000000000000000000000000000000000000081526004018080602001828103825260248152602001806158376024913960400191505060405180910390fd5b613d8983838361447f565b613d94600082613b9e565b613de581600160008673ffffffffffffffffffffffffffffffffffffffff1673ffffffffffffffffffffffffffffffffffffffff16815260200190815260200160002061448490919063ffffffff16565b50613e3781600160008573ffffffffffffffffffffffffffffffffffffffff1673ffffffffffffffffffffffffffffffffffffffff16815260200190815260200160002061449e90919063ffffffff16565b50613e4e818360026144b89092919063ffffffff16565b50808273ffffffffffffffffffffffffffffffffffffffff168473ffffffffffffffffffffffffffffffffffffffff167fddf252ad1be2c89b69c2b068fc378daa952ba7f163c4a11628f55a4df523b3ef60405160405180910390a4505050565b6000613eba82613b79565b613f0f576040517f08c379a000000000000000000000000000000000000000000000000000000000815260040180806020018281038252602c815260200180615881602c913960400191505060405180910390fd5b6000613f1a83612050565b90508073ffffffffffffffffffffffffffffffffffffffff168473ffffffffffffffffffffffffffffffffffffffff161480613f8957508373ffffffffffffffffffffffffffffffffffffffff16613f7184610ade565b73ffffffffffffffffffffffffffffffffffffffff16145b80613f9a5750613f998185613a81565b5b91505092915050565b6000613fb283600001836144ed565b60001c905092915050565b600080600080613fd08660000186614570565b915091508160001c8160001c9350935050509250929050565b6000613ffc846000018460001b84614609565b60001c90509392505050565b6000614016826000016146ff565b9050919050565b614028848484613c6c565b61403484848484614710565b614089576040517f08c379a00000000000000000000000000000000000000000000000000000000081526004018080602001828103825260328152602001806158056032913960400191505060405180910390fd5b50505050565b606060008214156140d7576040518060400160405280600181526020017f300000000000000000000000000000000000000000000000000000000000000081525090506141d1565b600082905060005b60008214614101578080600101915050600a82816140f957fe5b0491506140df565b60008167ffffffffffffffff8111801561411a57600080fd5b506040519080825280601f01601f19166020018201604052801561414d5781602001600182028036833780820191505090505b50905060006001830390508593505b600084146141c957600a848161416e57fe5b0660300160f81b8282806001900393508151811061418857fe5b60200101907effffffffffffffffffffffffffffffffffffffffffffffffffffffffffffff1916908160001a905350600a84816141c157fe5b04935061415c565b819450505050505b919050565b600073ffffffffffffffffffffffffffffffffffffffff168273ffffffffffffffffffffffffffffffffffffffff161415614279576040517f08c379a00000000000000000000000000000000000000000000000000000000081526004018080602001828103825260208152602001807f4552433732313a206d696e7420746f20746865207a65726f206164647265737381525060200191505060405180910390fd5b61428281613b79565b156142f5576040517f08c379a000000000000000000000000000000000000000000000000000000000815260040180806020018281038252601c8152602001807f4552433732313a20746f6b656e20616c7265616479206d696e7465640000000081525060200191505060405180910390fd5b6143016000838361447f565b61435281600160008573ffffffffffffffffffffffffffffffffffffffff1673ffffffffffffffffffffffffffffffffffffffff16815260200190815260200160002061449e90919063ffffffff16565b50614369818360026144b89092919063ffffffff16565b50808273ffffffffffffffffffffffffffffffffffffffff16600073ffffffffffffffffffffffffffffffffffffffff167fddf252ad1be2c89b69c2b068fc378daa952ba7f163c4a11628f55a4df523b3ef60405160405180910390a45050565b6143d382613b79565b614428576040517f08c379a000000000000000000000000000000000000000000000000000000000815260040180806020018281038252602c815260200180615986602c913960400191505060405180910390fd5b8060086000848152602001908152602001600020908051906020019061444f929190614e42565b505050565b6000614466836000018360001b614929565b905092915050565b600081600001805490509050919050565b505050565b6000614496836000018360001b61494c565b905092915050565b60006144b0836000018360001b614a34565b905092915050565b60006144e4846000018460001b8473ffffffffffffffffffffffffffffffffffffffff1660001b614aa4565b90509392505050565b60008183600001805490501161454e576040517f08c379a00000000000000000000000000000000000000000000000000000000081526004018080602001828103825260228152602001806157e36022913960400191505060405180910390fd5b82600001828154811061455d57fe5b9060005260206000200154905092915050565b600080828460000180549050116145d2576040517f08c379a00000000000000000000000000000000000000000000000000000000081526004018080602001828103825260228152602001806159386022913960400191505060405180910390fd5b60008460000184815481106145e357fe5b906000526020600020906002020190508060000154816001015492509250509250929050565b600080846001016000858152602001908152602001600020549050600081141583906146d0576040517f08c379a00000000000000000000000000000000000000000000000000000000081526004018080602001828103825283818151815260200191508051906020019080838360005b8381101561469557808201518184015260208101905061467a565b50505050905090810190601f1680156146c25780820380516001836020036101000a031916815260200191505b509250505060405180910390fd5b508460000160018203815481106146e357fe5b9060005260206000209060020201600101549150509392505050565b600081600001805490509050919050565b60006147318473ffffffffffffffffffffffffffffffffffffffff16614b80565b61473e5760019050614921565b60006148a863150b7a0260e01b614753613b96565b888787604051602401808573ffffffffffffffffffffffffffffffffffffffff1681526020018473ffffffffffffffffffffffffffffffffffffffff16815260200183815260200180602001828103825283818151815260200191508051906020019080838360005b838110156147d75780820151818401526020810190506147bc565b50505050905090810190601f1680156148045780820380516001836020036101000a031916815260200191505b5095505050505050604051602081830303815290604052907bffffffffffffffffffffffffffffffffffffffffffffffffffffffff19166020820180517bffffffffffffffffffffffffffffffffffffffffffffffffffffffff8381831617835250505050604051806060016040528060328152602001615805603291398773ffffffffffffffffffffffffffffffffffffffff16614b939092919063ffffffff16565b905060008180602001905160208110156148c157600080fd5b8101908080519060200190929190505050905063150b7a0260e01b7bffffffffffffffffffffffffffffffffffffffffffffffffffffffff1916817bffffffffffffffffffffffffffffffffffffffffffffffffffffffff191614925050505b949350505050565b600080836001016000848152602001908152602001600020541415905092915050565b60008083600101600084815260200190815260200160002054905060008114614a28576000600182039050600060018660000180549050039050600086600001828154811061499757fe5b90600052602060002001549050808760000184815481106149b457fe5b90600052602060002001819055506001830187600101600083815260200190815260200160002081905550866000018054806149ec57fe5b60019003818190600052602060002001600090559055866001016000878152602001908152602001600020600090556001945050505050614a2e565b60009150505b92915050565b6000614a408383614bab565b614a99578260000182908060018154018082558091505060019003906000526020600020016000909190919091505582600001805490508360010160008481526020019081526020016000208190555060019050614a9e565b600090505b92915050565b6000808460010160008581526020019081526020016000205490506000811415614b4b57846000016040518060400160405280868152602001858152509080600181540180825580915050600190039060005260206000209060020201600090919091909150600082015181600001556020820151816001015550508460000180549050856001016000868152602001908152602001600020819055506001915050614b79565b82856000016001830381548110614b5e57fe5b90600052602060002090600202016001018190555060009150505b9392505050565b600080823b905060008111915050919050565b6060614ba28484600085614bce565b90509392505050565b600080836001016000848152602001908152602001600020541415905092915050565b606082471015614c29576040517f08c379a000000000000000000000000000000000000000000000000000000000815260040180806020018281038252602681526020018061585b6026913960400191505060405180910390fd5b614c3285614b80565b614ca4576040517f08c379a000000000000000000000000000000000000000000000000000000000815260040180806020018281038252601d8152602001807f416464726573733a2063616c6c20746f206e6f6e2d636f6e747261637400000081525060200191505060405180910390fd5b6000808673ffffffffffffffffffffffffffffffffffffffff1685876040518082805190602001908083835b60208310614cf35780518252602082019150602081019050602083039250614cd0565b6001836020036101000a03801982511681845116808217855250505050505090500191505060006040518083038185875af1925050503d8060008114614d55576040519150601f19603f3d011682016040523d82523d6000602084013e614d5a565b606091505b5091509150614d6a828286614d76565b92505050949350505050565b60608315614d8657829050614e3b565b600083511115614d995782518084602001fd5b816040517f08c379a00000000000000000000000000000000000000000000000000000000081526004018080602001828103825283818151815260200191508051906020019080838360005b83811015614e00578082015181840152602081019050614de5565b50505050905090810190601f168015614e2d5780820380516001836020036101000a031916815260200191505b509250505060405180910390fd5b9392505050565b828054600181600116156101000203166002900490600052602060002090601f016020900481019282614e785760008555614ebf565b82601f10614e9157805160ff1916838001178555614ebf565b82800160010185558215614ebf579182015b82811115614ebe578251825591602001919060010190614ea3565b5b509050614ecc9190614ed0565b5090565b5b80821115614ee9576000816000905550600101614ed1565b5090565b6000614f00614efb846155ee565b6155bd565b905082815260208101848484011115614f1857600080fd5b614f23848285615731565b509392505050565b6000614f3e614f398461561e565b6155bd565b905082815260208101848484011115614f5657600080fd5b614f61848285615731565b509392505050565b600081359050614f7881615786565b92915050565b600081359050614f8d8161579d565b92915050565b600081359050614fa2816157b4565b92915050565b600082601f830112614fb957600080fd5b8135614fc9848260208601614eed565b91505092915050565b600082601f830112614fe357600080fd5b8135614ff3848260208601614f2b565b91505092915050565b60008135905061500b816157cb565b92915050565b60006020828403121561502357600080fd5b600061503184828501614f69565b91505092915050565b6000806040838503121561504d57600080fd5b600061505b85828601614f69565b925050602061506c85828601614f69565b9150509250929050565b60008060006060848603121561508b57600080fd5b600061509986828701614f69565b93505060206150aa86828701614f69565b92505060406150bb86828701614ffc565b9150509250925092565b600080600080608085870312156150db57600080fd5b60006150e987828801614f69565b94505060206150fa87828801614f69565b935050604061510b87828801614ffc565b925050606085013567ffffffffffffffff81111561512857600080fd5b61513487828801614fa8565b91505092959194509250565b6000806040838503121561515357600080fd5b600061516185828601614f69565b925050602061517285828601614f7e565b9150509250929050565b6000806040838503121561518f57600080fd5b600061519d85828601614f69565b92505060206151ae85828601614ffc565b9150509250929050565b6000602082840312156151ca57600080fd5b60006151d884828501614f93565b91505092915050565b6000602082840312156151f357600080fd5b600082013567ffffffffffffffff81111561520d57600080fd5b61521984828501614fd2565b91505092915050565b600080600080600060a0868803121561523a57600080fd5b600086013567ffffffffffffffff81111561525457600080fd5b61526088828901614fd2565b955050602086013567ffffffffffffffff81111561527d57600080fd5b61528988828901614fd2565b945050604061529a88828901614ffc565b93505060606152ab88828901614ffc565b925050608086013567ffffffffffffffff8111156152c857600080fd5b6152d488828901614fd2565b9150509295509295909350565b6000602082840312156152f357600080fd5b600061530184828501614ffc565b91505092915050565b6000806040838503121561531d57600080fd5b600061532b85828601614ffc565b925050602061533c85828601614ffc565b9150509250929050565b60008060006060848603121561535b57600080fd5b600061536986828701614ffc565b935050602061537a86828701614ffc565b925050604061538b86828701614f69565b9150509250925092565b61539e816156fb565b82525050565b6153ad81615687565b82525050565b6153bc81615675565b82525050565b6153cb81615699565b82525050565b60006153dc8261564e565b6153e68185615659565b93506153f6818560208601615740565b6153ff81615775565b840191505092915050565b60006154158261564e565b61541f818561566a565b935061542f818560208601615740565b80840191505092915050565b615444816156f1565b82525050565b6000615456828461540a565b915081905092915050565b600060208201905061547660008301846153b3565b92915050565b600060208201905061549160008301846153c2565b92915050565b600060208201905081810360008301526154b181846153d1565b905092915050565b60006020820190506154ce600083018461543b565b92915050565b60006040820190506154e9600083018561543b565b6154f66020830184615395565b9392505050565b600061016082019050615513600083018e61543b565b8181036020830152615525818d6153d1565b90508181036040830152615539818c6153d1565b9050615548606083018b6153a4565b615555608083018a6153a4565b61556260a08301896153a4565b61556f60c083018861543b565b61557c60e083018761543b565b81810361010083015261558f81866153d1565b905061559f61012083018561543b565b6155ad6101408301846153c2565b9c9b505050505050505050505050565b6000604051905081810181811067ffffffffffffffff821117156155e4576155e3615773565b5b8060405250919050565b600067ffffffffffffffff82111561560957615608615773565b5b601f19601f8301169050602081019050919050565b600067ffffffffffffffff82111561563957615638615773565b5b601f19601f8301169050602081019050919050565b600081519050919050565b600082825260208201905092915050565b600081905092915050565b6000615680826156d1565b9050919050565b6000615692826156d1565b9050919050565b60008115159050919050565b60007fffffffff0000000000000000000000000000000000000000000000000000000082169050919050565b600073ffffffffffffffffffffffffffffffffffffffff82169050919050565b6000819050919050565b60006157068261570d565b9050919050565b60006157188261571f565b9050919050565b600061572a826156d1565b9050919050565b82818337600083830152505050565b60005b8381101561575e578082015181840152602081019050615743565b8381111561576d576000848401525b50505050565bfe5b6000601f19601f8301169050919050565b61578f81615675565b811461579a57600080fd5b50565b6157a681615699565b81146157b157600080fd5b50565b6157bd816156a5565b81146157c857600080fd5b50565b6157d4816156f1565b81146157df57600080fd5b5056fe456e756d657261626c655365743a20696e646578206f7574206f6620626f756e64734552433732313a207472616e7366657220746f206e6f6e20455243373231526563656976657220696d706c656d656e7465724552433732313a207472616e7366657220746f20746865207a65726f2061646472657373416464726573733a20696e73756666696369656e742062616c616e636520666f722063616c6c4552433732313a206f70657261746f7220717565727920666f72206e6f6e6578697374656e7420746f6b656e4552433732313a20617070726f76652063616c6c6572206973206e6f74206f776e6572206e6f7220617070726f76656420666f7220616c6c4552433732313a2062616c616e636520717565727920666f7220746865207a65726f20616464726573734552433732313a206f776e657220717565727920666f72206e6f6e6578697374656e7420746f6b656e456e756d657261626c654d61703a20696e646578206f7574206f6620626f756e64734552433732313a20617070726f76656420717565727920666f72206e6f6e6578697374656e7420746f6b656e4552433732314d657461646174613a2055524920736574206f66206e6f6e6578697374656e7420746f6b656e4552433732313a207472616e73666572206f6620746f6b656e2074686174206973206e6f74206f776e4552433732314d657461646174613a2055524920717565727920666f72206e6f6e6578697374656e7420746f6b656e4552433732313a20617070726f76616c20746f2063757272656e74206f776e65724552433732313a207472616e736665722063616c6c6572206973206e6f74206f776e6572206e6f7220617070726f766564a26469706673582212200487da107ab93053bb52fa679b48ef638ac03c4b41045daa20ad22f3c9b1f77764736f6c63430007060033",
  "immutableReferences": {},
  "source": "// SPDX-License-Identifier: MIT\r\npragma solidity >=0.4.21 <0.8.0;\r\npragma abicoder v2;\r\nimport \"./EthSwap.sol\";\r\n\r\n// import ERC721 iterface\r\nimport \"./ERC721.sol\";\r\n\r\n// CryptoBoys smart contract inherits ERC721 interface\r\ncontract CryptoBoys is ERC721 {\r\n\r\n  // this contract's token collection name\r\n  string public collectionName;\r\n  // this contract's token symbol\r\n  string public collectionNameSymbol;\r\n  // total number of crypto boys minted\r\n  uint256 public cryptoBoyCounter;\r\n  \r\n  //EthSwap public ethSwap;\r\n\r\n  address public deployer;\r\n  // define crypto boy struct\r\n   struct CryptoBoy {\r\n    uint256 tokenId;\r\n    string tokenName;\r\n    string tokenURI;\r\n    address payable mintedBy;\r\n    address payable currentOwner;\r\n    address payable previousOwner;\r\n    uint256 price;\r\n    uint256 dressPrice;\r\n    string imageHash;\r\n    \r\n    uint256 numberOfTransfers;\r\n    bool forSale;\r\n  }\r\n//  struct Collection{\r\n//    uint256 collectionId;\r\n//    CryptoBoy design;\r\n//  }\r\n  \r\n\r\n  // map cryptoboy's token id to crypto boy\r\n  mapping(uint256 => CryptoBoy) public allCryptoBoys;\r\n  // check if token name exists\r\n  mapping(string => bool) public tokenNameExists;\r\n  // check if image exists\r\n  mapping(string => bool) public imageExists;\r\n  // check if token URI exists\r\n  mapping(string => bool) public tokenURIExists;\r\n  //check if tokenId exists\r\n  mapping(uint256=>bool)public tokenIdExists;\r\n  //map tokenName to token\r\n  mapping(string=>CryptoBoy)public nameToCryptoBoy;\r\n  //map name to Id\r\n   mapping(string=>uint256)public nameToId;\r\n\r\n// constructor(EthSwap _token) public {\r\n//     ethSwap = _token;\r\n//     deployer = msg.sender;\r\n//   }\r\n  // initialize contract while deployment with contract's collection name and token\r\n  constructor()public ERC721(\"Crypto Boys Collection\", \"CB\") {\r\n    \r\n    //ethSwap = _token;\r\n    deployer = msg.sender;\r\n    collectionName = name();\r\n    collectionNameSymbol = symbol();\r\n    \r\n  }\r\n  // function getEthSwapAddress(address ethswapadd){\r\n  //   EthSwap ethSwap=EthSwap(ethswapadd);\r\n  // }\r\n\r\n  \r\n\r\n  // mint a new crypto boy\r\n  function mintCryptoBoy(string memory _name, string memory _tokenURI, uint256 _price,uint256 _dressPrice,string memory _imageHash) external {\r\n    // check if thic fucntion caller is not an zero address account\r\n    require(msg.sender != address(0));\r\n    // increment counter\r\n    cryptoBoyCounter ++;\r\n    // check if a token exists with the above token id => incremented counter\r\n    require(!_exists(cryptoBoyCounter));\r\n\r\n    // check if the token name already exists or not\r\n    require(!tokenNameExists[_name]);\r\n    // check if the image already exists or not\r\n    require(!imageExists[_imageHash]);\r\n    // check if the token URI already exists or not\r\n    require(!tokenURIExists[_tokenURI]);\r\n    \r\n\r\n    // mint the token\r\n    _mint(msg.sender, cryptoBoyCounter);\r\n    // set token URI (bind token id with the passed in token URI)\r\n    _setTokenURI(cryptoBoyCounter, _tokenURI);\r\n\r\n    \r\n    // make passed token URI as exists\r\n    tokenURIExists[_tokenURI] = true;\r\n    // make token name passed as exists\r\n    tokenNameExists[_name] = true;\r\n    // make passed image as exists\r\n    imageExists[_imageHash]=true;\r\n    //make tokenId passed as exists\r\n    tokenIdExists[cryptoBoyCounter]=true;\r\n\r\n    // creat a new crypto boy (struct) and pass in new values\r\n    CryptoBoy memory newCryptoBoy = CryptoBoy(\r\n    cryptoBoyCounter,\r\n    _name,\r\n    _tokenURI,\r\n    msg.sender,\r\n    msg.sender,\r\n    address(0),\r\n    _price,\r\n    _dressPrice,\r\n    _imageHash,\r\n    0,\r\n    true);\r\n    // add the token id and it's crypto boy to all crypto boys mapping\r\n    allCryptoBoys[cryptoBoyCounter] = newCryptoBoy;\r\n\r\n    nameToCryptoBoy[_name]=newCryptoBoy;\r\n    nameToId[_name]=cryptoBoyCounter;\r\n  }\r\n\r\n  // get owner of the token\r\n  function getTokenOwner(uint256 _tokenId) public view returns(address) {\r\n    address _tokenOwner = ownerOf(_tokenId);\r\n    return _tokenOwner;\r\n  }\r\n\r\n  // get metadata of the token\r\n  function getTokenMetaData(uint _tokenId) public view returns(string memory) {\r\n    string memory tokenMetaData = tokenURI(_tokenId);\r\n    return tokenMetaData;\r\n  }\r\n\r\n  // get total number of tokens minted so far\r\n  function getNumberOfTokensMinted() public view returns(uint256) {\r\n    uint256 totalNumberOfTokensMinted = totalSupply();\r\n    return totalNumberOfTokensMinted;\r\n  }\r\n\r\n  // get total number of tokens owned by an address\r\n  function getTotalNumberOfTokensOwnedByAnAddress(address _owner) public view returns(uint256) {\r\n    uint256 totalNumberOfTokensOwned = balanceOf(_owner);\r\n    return totalNumberOfTokensOwned;\r\n  }\r\n\r\n  // check if the token already exists\r\n  function getTokenExists(uint256 _tokenId) public view returns(bool) {\r\n    bool tokenExists = _exists(_tokenId);\r\n    return tokenExists;\r\n  }\r\n\r\n  // by a token by passing in the token's id\r\n  function buyToken(uint256 _tokenId,uint256 _price,address _ethswapadd) public payable {\r\n    EthSwap ethSwap=EthSwap(_ethswapadd);\r\n    // check if the function caller is not an zero account address\r\n    require(msg.sender != address(0));\r\n    // check if the token id of the token being bought exists or not\r\n    require(_exists(_tokenId));\r\n    // get the token's owner\r\n    address tokenOwner = ownerOf(_tokenId);\r\n    // token's owner should not be an zero address account\r\n    require(tokenOwner != address(0));\r\n    // the one who wants to buy the token should not be the token's owner\r\n    require(tokenOwner != msg.sender);\r\n    // get that token from all crypto boys mapping and create a memory of it defined as (struct => CryptoBoy)\r\n    CryptoBoy memory cryptoboy = allCryptoBoys[_tokenId];\r\n    // price sent in to buy should be equal to or more than the token's price\r\n   // require(msg.value >= cryptoboy.price);\r\n    // token should be for sale\r\n    require(cryptoboy.forSale);\r\n    // transfer the token from owner to the caller of the function (buyer)\r\n    _transfer(tokenOwner, msg.sender, _tokenId);\r\n    // get owner of the token\r\n    address payable sendTo = cryptoboy.currentOwner;\r\n    // send token's worth of ethers to the owner from smart contract\r\n    //sendTo.transfer(msg.value);\r\n    ethSwap.transferTokensToContract(_price,msg.sender);\r\n    ethSwap.transferTokensToAccount(_price,sendTo);\r\n    // update the token's previous owner\r\n    cryptoboy.previousOwner = cryptoboy.currentOwner;\r\n    // update the token's current owner\r\n    cryptoboy.currentOwner = msg.sender;\r\n    // update the how many times this token was transfered\r\n    cryptoboy.numberOfTransfers += 1;\r\n    // set and update that token in the mapping\r\n    allCryptoBoys[_tokenId] = cryptoboy;\r\n  }\r\n\r\n  function changeTokenPrice(uint256 _tokenId, uint256 _newPrice) public {\r\n    // require caller of the function is not an empty address\r\n    require(msg.sender != address(0));\r\n    // require that token should exist\r\n    require(_exists(_tokenId));\r\n    // get the token's owner\r\n    address tokenOwner = ownerOf(_tokenId);\r\n    // check that token's owner should be equal to the caller of the function\r\n    require(tokenOwner == msg.sender);\r\n    // get that token from all crypto boys mapping and create a memory of it defined as (struct => CryptoBoy)\r\n    CryptoBoy memory cryptoboy = allCryptoBoys[_tokenId];\r\n    // update token's price with new price\r\n   cryptoboy.price = _newPrice;\r\n    // set and update that token in the mapping\r\n    allCryptoBoys[_tokenId] = cryptoboy;\r\n  }\r\n\r\n  function changeTokenDressPrice(uint256 _tokenId, uint256 _newPrice) public {\r\n    // require caller of the function is not an empty address\r\n    require(msg.sender != address(0));\r\n    // require that token should exist\r\n    require(_exists(_tokenId));\r\n    // get the token's owner\r\n    address tokenOwner = ownerOf(_tokenId);\r\n    // check that token's owner should be equal to the caller of the function\r\n    require(tokenOwner == msg.sender);\r\n    // get that token from all crypto boys mapping and create a memory of it defined as (struct => CryptoBoy)\r\n    CryptoBoy memory cryptoboy = allCryptoBoys[_tokenId];\r\n    // update token's price with new price\r\n   cryptoboy.dressPrice = _newPrice;\r\n    // set and update that token in the mapping\r\n    allCryptoBoys[_tokenId] = cryptoboy;\r\n  }\r\n\r\n  // switch between set for sale and set not for sale\r\n  function toggleForSale(uint256 _tokenId) public {\r\n    // require caller of the function is not an empty address\r\n    require(msg.sender != address(0));\r\n    // require that token should exist\r\n    require(_exists(_tokenId));\r\n    // get the token's owner\r\n    address tokenOwner = ownerOf(_tokenId);\r\n    // check that token's owner should be equal to the caller of the function\r\n    require(tokenOwner == msg.sender);\r\n    // get that token from all crypto boys mapping and create a memory of it defined as (struct => CryptoBoy)\r\n    CryptoBoy memory cryptoboy = allCryptoBoys[_tokenId];\r\n    // if token's forSale is false make it true and vice versa\r\n    if(cryptoboy.forSale) {\r\n      cryptoboy.forSale = false;\r\n    } else {\r\n      cryptoboy.forSale = true;\r\n    }\r\n    // set and update that token in the mapping\r\n    allCryptoBoys[_tokenId] = cryptoboy;\r\n  }\r\n}\r\n// contract EthSwap{\r\n//   function transferTokensToContract(uint , address )public;\r\n//   function transferTokensToAccount(uint , address )public;\r\n// }",
  "sourcePath": "C:\\Users\\mehta\\git\\fashion-nft\\src\\contracts\\CryptoBoys.sol",
  "compiler": {
    "name": "solc",
    "version": "0.7.6+commit.7338295f.Emscripten.clang"
  },
  "schemaVersion": "3.4.3",
  "updatedAt": "2021-09-08T09:14:30.022Z",
  "networkType": "ethereum",
  "devdoc": {
    "kind": "dev",
    "methods": {
      "approve(address,uint256)": {
        "details": "See {IERC721-approve}."
      },
      "balanceOf(address)": {
        "details": "See {IERC721-balanceOf}."
      },
      "baseURI()": {
        "details": "Returns the base URI set via {_setBaseURI}. This will be automatically added as a prefix in {tokenURI} to each token's URI, or to the token ID if no specific URI is set for that token ID."
      },
      "getApproved(uint256)": {
        "details": "See {IERC721-getApproved}."
      },
      "isApprovedForAll(address,address)": {
        "details": "See {IERC721-isApprovedForAll}."
      },
      "name()": {
        "details": "See {IERC721Metadata-name}."
      },
      "ownerOf(uint256)": {
        "details": "See {IERC721-ownerOf}."
      },
      "safeTransferFrom(address,address,uint256)": {
        "details": "See {IERC721-safeTransferFrom}."
      },
      "safeTransferFrom(address,address,uint256,bytes)": {
        "details": "See {IERC721-safeTransferFrom}."
      },
      "setApprovalForAll(address,bool)": {
        "details": "See {IERC721-setApprovalForAll}."
      },
      "supportsInterface(bytes4)": {
        "details": "See {IERC165-supportsInterface}. Time complexity O(1), guaranteed to always use less than 30 000 gas."
      },
      "symbol()": {
        "details": "See {IERC721Metadata-symbol}."
      },
      "tokenByIndex(uint256)": {
        "details": "See {IERC721Enumerable-tokenByIndex}."
      },
      "tokenOfOwnerByIndex(address,uint256)": {
        "details": "See {IERC721Enumerable-tokenOfOwnerByIndex}."
      },
      "tokenURI(uint256)": {
        "details": "See {IERC721Metadata-tokenURI}."
      },
      "totalSupply()": {
        "details": "See {IERC721Enumerable-totalSupply}."
      },
      "transferFrom(address,address,uint256)": {
        "details": "See {IERC721-transferFrom}."
      }
    },
    "version": 1
  },
  "userdoc": {
    "kind": "user",
    "methods": {},
    "version": 1
  }
}