{
  "contractName": "CryptoBoys",
  "abi": [
    {
      "inputs": [],
      "stateMutability": "nonpayable",
      "type": "constructor"
    },
    {
      "anonymous": false,
      "inputs": [
        {
          "indexed": true,
          "internalType": "address",
          "name": "owner",
          "type": "address"
        },
        {
          "indexed": true,
          "internalType": "address",
          "name": "approved",
          "type": "address"
        },
        {
          "indexed": true,
          "internalType": "uint256",
          "name": "tokenId",
          "type": "uint256"
        }
      ],
      "name": "Approval",
      "type": "event"
    },
    {
      "anonymous": false,
      "inputs": [
        {
          "indexed": true,
          "internalType": "address",
          "name": "owner",
          "type": "address"
        },
        {
          "indexed": true,
          "internalType": "address",
          "name": "operator",
          "type": "address"
        },
        {
          "indexed": false,
          "internalType": "bool",
          "name": "approved",
          "type": "bool"
        }
      ],
      "name": "ApprovalForAll",
      "type": "event"
    },
    {
      "anonymous": false,
      "inputs": [
        {
          "indexed": true,
          "internalType": "address",
          "name": "from",
          "type": "address"
        },
        {
          "indexed": true,
          "internalType": "address",
          "name": "to",
          "type": "address"
        },
        {
          "indexed": true,
          "internalType": "uint256",
          "name": "tokenId",
          "type": "uint256"
        }
      ],
      "name": "Transfer",
      "type": "event"
    },
    {
      "inputs": [
        {
          "internalType": "uint256",
          "name": "",
          "type": "uint256"
        }
      ],
      "name": "allCryptoBoys",
      "outputs": [
        {
          "internalType": "uint256",
          "name": "tokenId",
          "type": "uint256"
        },
        {
          "internalType": "string",
          "name": "tokenName",
          "type": "string"
        },
        {
          "internalType": "string",
          "name": "tokenURI",
          "type": "string"
        },
        {
          "internalType": "address payable",
          "name": "mintedBy",
          "type": "address"
        },
        {
          "internalType": "address payable",
          "name": "currentOwner",
          "type": "address"
        },
        {
          "internalType": "address payable",
          "name": "previousOwner",
          "type": "address"
        },
        {
          "internalType": "uint256",
          "name": "price",
          "type": "uint256"
        },
        {
          "internalType": "string",
          "name": "imageHash",
          "type": "string"
        },
        {
          "internalType": "uint256",
          "name": "numberOfTransfers",
          "type": "uint256"
        },
        {
          "internalType": "bool",
          "name": "forSale",
          "type": "bool"
        }
      ],
      "stateMutability": "view",
      "type": "function",
      "constant": true
    },
    {
      "inputs": [
        {
          "internalType": "address",
          "name": "to",
          "type": "address"
        },
        {
          "internalType": "uint256",
          "name": "tokenId",
          "type": "uint256"
        }
      ],
      "name": "approve",
      "outputs": [],
      "stateMutability": "nonpayable",
      "type": "function"
    },
    {
      "inputs": [
        {
          "internalType": "address",
          "name": "owner",
          "type": "address"
        }
      ],
      "name": "balanceOf",
      "outputs": [
        {
          "internalType": "uint256",
          "name": "",
          "type": "uint256"
        }
      ],
      "stateMutability": "view",
      "type": "function",
      "constant": true
    },
    {
      "inputs": [],
      "name": "baseURI",
      "outputs": [
        {
          "internalType": "string",
          "name": "",
          "type": "string"
        }
      ],
      "stateMutability": "view",
      "type": "function",
      "constant": true
    },
    {
      "inputs": [],
      "name": "collectionName",
      "outputs": [
        {
          "internalType": "string",
          "name": "",
          "type": "string"
        }
      ],
      "stateMutability": "view",
      "type": "function",
      "constant": true
    },
    {
      "inputs": [],
      "name": "collectionNameSymbol",
      "outputs": [
        {
          "internalType": "string",
          "name": "",
          "type": "string"
        }
      ],
      "stateMutability": "view",
      "type": "function",
      "constant": true
    },
    {
      "inputs": [],
      "name": "cryptoBoyCounter",
      "outputs": [
        {
          "internalType": "uint256",
          "name": "",
          "type": "uint256"
        }
      ],
      "stateMutability": "view",
      "type": "function",
      "constant": true
    },
    {
      "inputs": [
        {
          "internalType": "uint256",
          "name": "tokenId",
          "type": "uint256"
        }
      ],
      "name": "getApproved",
      "outputs": [
        {
          "internalType": "address",
          "name": "",
          "type": "address"
        }
      ],
      "stateMutability": "view",
      "type": "function",
      "constant": true
    },
    {
      "inputs": [
        {
          "internalType": "string",
          "name": "",
          "type": "string"
        }
      ],
      "name": "imageExists",
      "outputs": [
        {
          "internalType": "bool",
          "name": "",
          "type": "bool"
        }
      ],
      "stateMutability": "view",
      "type": "function",
      "constant": true
    },
    {
      "inputs": [
        {
          "internalType": "address",
          "name": "owner",
          "type": "address"
        },
        {
          "internalType": "address",
          "name": "operator",
          "type": "address"
        }
      ],
      "name": "isApprovedForAll",
      "outputs": [
        {
          "internalType": "bool",
          "name": "",
          "type": "bool"
        }
      ],
      "stateMutability": "view",
      "type": "function",
      "constant": true
    },
    {
      "inputs": [],
      "name": "name",
      "outputs": [
        {
          "internalType": "string",
          "name": "",
          "type": "string"
        }
      ],
      "stateMutability": "view",
      "type": "function",
      "constant": true
    },
    {
      "inputs": [
        {
          "internalType": "uint256",
          "name": "tokenId",
          "type": "uint256"
        }
      ],
      "name": "ownerOf",
      "outputs": [
        {
          "internalType": "address",
          "name": "",
          "type": "address"
        }
      ],
      "stateMutability": "view",
      "type": "function",
      "constant": true
    },
    {
      "inputs": [
        {
          "internalType": "address",
          "name": "from",
          "type": "address"
        },
        {
          "internalType": "address",
          "name": "to",
          "type": "address"
        },
        {
          "internalType": "uint256",
          "name": "tokenId",
          "type": "uint256"
        }
      ],
      "name": "safeTransferFrom",
      "outputs": [],
      "stateMutability": "nonpayable",
      "type": "function"
    },
    {
      "inputs": [
        {
          "internalType": "address",
          "name": "from",
          "type": "address"
        },
        {
          "internalType": "address",
          "name": "to",
          "type": "address"
        },
        {
          "internalType": "uint256",
          "name": "tokenId",
          "type": "uint256"
        },
        {
          "internalType": "bytes",
          "name": "_data",
          "type": "bytes"
        }
      ],
      "name": "safeTransferFrom",
      "outputs": [],
      "stateMutability": "nonpayable",
      "type": "function"
    },
    {
      "inputs": [
        {
          "internalType": "address",
          "name": "operator",
          "type": "address"
        },
        {
          "internalType": "bool",
          "name": "approved",
          "type": "bool"
        }
      ],
      "name": "setApprovalForAll",
      "outputs": [],
      "stateMutability": "nonpayable",
      "type": "function"
    },
    {
      "inputs": [
        {
          "internalType": "bytes4",
          "name": "interfaceId",
          "type": "bytes4"
        }
      ],
      "name": "supportsInterface",
      "outputs": [
        {
          "internalType": "bool",
          "name": "",
          "type": "bool"
        }
      ],
      "stateMutability": "view",
      "type": "function",
      "constant": true
    },
    {
      "inputs": [],
      "name": "symbol",
      "outputs": [
        {
          "internalType": "string",
          "name": "",
          "type": "string"
        }
      ],
      "stateMutability": "view",
      "type": "function",
      "constant": true
    },
    {
      "inputs": [
        {
          "internalType": "uint256",
          "name": "index",
          "type": "uint256"
        }
      ],
      "name": "tokenByIndex",
      "outputs": [
        {
          "internalType": "uint256",
          "name": "",
          "type": "uint256"
        }
      ],
      "stateMutability": "view",
      "type": "function",
      "constant": true
    },
    {
      "inputs": [
        {
          "internalType": "string",
          "name": "",
          "type": "string"
        }
      ],
      "name": "tokenNameExists",
      "outputs": [
        {
          "internalType": "bool",
          "name": "",
          "type": "bool"
        }
      ],
      "stateMutability": "view",
      "type": "function",
      "constant": true
    },
    {
      "inputs": [
        {
          "internalType": "address",
          "name": "owner",
          "type": "address"
        },
        {
          "internalType": "uint256",
          "name": "index",
          "type": "uint256"
        }
      ],
      "name": "tokenOfOwnerByIndex",
      "outputs": [
        {
          "internalType": "uint256",
          "name": "",
          "type": "uint256"
        }
      ],
      "stateMutability": "view",
      "type": "function",
      "constant": true
    },
    {
      "inputs": [
        {
          "internalType": "uint256",
          "name": "tokenId",
          "type": "uint256"
        }
      ],
      "name": "tokenURI",
      "outputs": [
        {
          "internalType": "string",
          "name": "",
          "type": "string"
        }
      ],
      "stateMutability": "view",
      "type": "function",
      "constant": true
    },
    {
      "inputs": [
        {
          "internalType": "string",
          "name": "",
          "type": "string"
        }
      ],
      "name": "tokenURIExists",
      "outputs": [
        {
          "internalType": "bool",
          "name": "",
          "type": "bool"
        }
      ],
      "stateMutability": "view",
      "type": "function",
      "constant": true
    },
    {
      "inputs": [],
      "name": "totalSupply",
      "outputs": [
        {
          "internalType": "uint256",
          "name": "",
          "type": "uint256"
        }
      ],
      "stateMutability": "view",
      "type": "function",
      "constant": true
    },
    {
      "inputs": [
        {
          "internalType": "address",
          "name": "from",
          "type": "address"
        },
        {
          "internalType": "address",
          "name": "to",
          "type": "address"
        },
        {
          "internalType": "uint256",
          "name": "tokenId",
          "type": "uint256"
        }
      ],
      "name": "transferFrom",
      "outputs": [],
      "stateMutability": "nonpayable",
      "type": "function"
    },
    {
      "inputs": [
        {
          "internalType": "string",
          "name": "_name",
          "type": "string"
        },
        {
          "internalType": "string",
          "name": "_tokenURI",
          "type": "string"
        },
        {
          "internalType": "uint256",
          "name": "_price",
          "type": "uint256"
        },
        {
          "internalType": "string",
          "name": "_imageHash",
          "type": "string"
        }
      ],
      "name": "mintCryptoBoy",
      "outputs": [],
      "stateMutability": "nonpayable",
      "type": "function"
    },
    {
      "inputs": [
        {
          "internalType": "uint256",
          "name": "_tokenId",
          "type": "uint256"
        }
      ],
      "name": "getTokenOwner",
      "outputs": [
        {
          "internalType": "address",
          "name": "",
          "type": "address"
        }
      ],
      "stateMutability": "view",
      "type": "function",
      "constant": true
    },
    {
      "inputs": [
        {
          "internalType": "uint256",
          "name": "_tokenId",
          "type": "uint256"
        }
      ],
      "name": "getTokenMetaData",
      "outputs": [
        {
          "internalType": "string",
          "name": "",
          "type": "string"
        }
      ],
      "stateMutability": "view",
      "type": "function",
      "constant": true
    },
    {
      "inputs": [],
      "name": "getNumberOfTokensMinted",
      "outputs": [
        {
          "internalType": "uint256",
          "name": "",
          "type": "uint256"
        }
      ],
      "stateMutability": "view",
      "type": "function",
      "constant": true
    },
    {
      "inputs": [
        {
          "internalType": "address",
          "name": "_owner",
          "type": "address"
        }
      ],
      "name": "getTotalNumberOfTokensOwnedByAnAddress",
      "outputs": [
        {
          "internalType": "uint256",
          "name": "",
          "type": "uint256"
        }
      ],
      "stateMutability": "view",
      "type": "function",
      "constant": true
    },
    {
      "inputs": [
        {
          "internalType": "uint256",
          "name": "_tokenId",
          "type": "uint256"
        }
      ],
      "name": "getTokenExists",
      "outputs": [
        {
          "internalType": "bool",
          "name": "",
          "type": "bool"
        }
      ],
      "stateMutability": "view",
      "type": "function",
      "constant": true
    },
    {
      "inputs": [
        {
          "internalType": "uint256",
          "name": "_tokenId",
          "type": "uint256"
        }
      ],
      "name": "buyToken",
      "outputs": [],
      "stateMutability": "payable",
      "type": "function",
      "payable": true
    },
    {
      "inputs": [
        {
          "internalType": "uint256",
          "name": "_tokenId",
          "type": "uint256"
        },
        {
          "internalType": "uint256",
          "name": "_newPrice",
          "type": "uint256"
        }
      ],
      "name": "changeTokenPrice",
      "outputs": [],
      "stateMutability": "nonpayable",
      "type": "function"
    },
    {
      "inputs": [
        {
          "internalType": "uint256",
          "name": "_tokenId",
          "type": "uint256"
        }
      ],
      "name": "toggleForSale",
      "outputs": [],
      "stateMutability": "nonpayable",
      "type": "function"
    }
  ],
  "bytecode": "0x60806040523480156200001157600080fd5b506040518060400160405280601681526020017f43727970746f20426f797320436f6c6c656374696f6e000000000000000000008152506040518060400160405280600281526020017f4342000000000000000000000000000000000000000000000000000000000000815250620000966301ffc9a760e01b6200016860201b60201c565b8160069080519060200190620000ae929190620003bd565b508060079080519060200190620000c7929190620003bd565b50620000e06380ac58cd60e01b6200016860201b60201c565b620000f8635b5e139f60e01b6200016860201b60201c565b6200011063780e9d6360e01b6200016860201b60201c565b5050620001226200027160201b60201c565b600a908051906020019062000139929190620003bd565b506200014a6200031760201b60201c565b600b908051906020019062000161929190620003bd565b5062000473565b63ffffffff60e01b817bffffffffffffffffffffffffffffffffffffffffffffffffffffffff1916141562000205576040517f08c379a000000000000000000000000000000000000000000000000000000000815260040180806020018281038252601c8152602001807f4552433136353a20696e76616c696420696e746572666163652069640000000081525060200191505060405180910390fd5b6001600080837bffffffffffffffffffffffffffffffffffffffffffffffffffffffff19167bffffffffffffffffffffffffffffffffffffffffffffffffffffffff1916815260200190815260200160002060006101000a81548160ff02191690831515021790555050565b606060068054600181600116156101000203166002900480601f0160208091040260200160405190810160405280929190818152602001828054600181600116156101000203166002900480156200030d5780601f10620002e1576101008083540402835291602001916200030d565b820191906000526020600020905b815481529060010190602001808311620002ef57829003601f168201915b5050505050905090565b606060078054600181600116156101000203166002900480601f016020809104026020016040519081016040528092919081815260200182805460018160011615610100020316600290048015620003b35780601f106200038757610100808354040283529160200191620003b3565b820191906000526020600020905b8154815290600101906020018083116200039557829003601f168201915b5050505050905090565b828054600181600116156101000203166002900490600052602060002090601f016020900481019282620003f5576000855562000441565b82601f106200041057805160ff191683800117855562000441565b8280016001018555821562000441579182015b828111156200044057825182559160200191906001019062000423565b5b50905062000450919062000454565b5090565b5b808211156200046f57600081600090555060010162000455565b5090565b614d0180620004836000396000f3fe6080604052600436106101ee5760003560e01c806367c623cf1161010d578063a46b1fac116100a0578063c87b56dd1161006f578063c87b56dd1461077b578063cc151f3a146107b8578063e5326ab1146107e3578063e985e9c51461080e578063ff6cef081461084b576101ee565b8063a46b1fac146106ad578063a5cd761f146106ea578063b88d4fde14610727578063bffec20214610750576101ee565b8063898678a2116100dc578063898678a21461060757806395d89b4114610630578063a22cb4651461065b578063a32018b914610684576101ee565b806367c623cf146105375780636c0360eb146105745780636f9507f91461059f57806370a08231146105ca576101ee565b80632f745c591161018557806344c0d7eb1161015457806344c0d7eb1461044e5780634f6ccce71461049457806362e8e8ac146104d15780636352211e146104fa576101ee565b80632f745c591461036e57806342842e0e146103ab57806343902850146103d457806343d32ae714610411576101ee565b8063142687f3116101c1578063142687f3146102c157806318160ddd146102fe57806323b872dd146103295780632d296bf114610352576101ee565b806301ffc9a7146101f357806306fdde0314610230578063081812fc1461025b578063095ea7b314610298575b600080fd5b3480156101ff57600080fd5b5061021a60048036038101906102159190614508565b610888565b604051610227919061475a565b60405180910390f35b34801561023c57600080fd5b506102456108ef565b6040516102529190614775565b60405180910390f35b34801561026757600080fd5b50610282600480360381019061027d919061461d565b610991565b60405161028f919061473f565b60405180910390f35b3480156102a457600080fd5b506102bf60048036038101906102ba91906144cc565b610a2c565b005b3480156102cd57600080fd5b506102e860048036038101906102e3919061461d565b610b70565b6040516102f5919061475a565b60405180910390f35b34801561030a57600080fd5b50610313610b87565b6040516103209190614797565b60405180910390f35b34801561033557600080fd5b50610350600480360381019061034b91906143c6565b610b98565b005b61036c6004803603810190610367919061461d565b610c0e565b005b34801561037a57600080fd5b50610395600480360381019061039091906144cc565b6112a8565b6040516103a29190614797565b60405180910390f35b3480156103b757600080fd5b506103d260048036038101906103cd91906143c6565b611303565b005b3480156103e057600080fd5b506103fb60048036038101906103f69190614361565b611323565b6040516104089190614797565b60405180910390f35b34801561041d57600080fd5b5061043860048036038101906104339190614531565b61133a565b604051610445919061475a565b60405180910390f35b34801561045a57600080fd5b506104756004803603810190610470919061461d565b611370565b60405161048b9a999897969594939291906147b2565b60405180910390f35b3480156104a057600080fd5b506104bb60048036038101906104b6919061461d565b6115f9565b6040516104c89190614797565b60405180910390f35b3480156104dd57600080fd5b506104f860048036038101906104f39190614646565b61161c565b005b34801561050657600080fd5b50610521600480360381019061051c919061461d565b611b84565b60405161052e919061473f565b60405180910390f35b34801561054357600080fd5b5061055e6004803603810190610559919061461d565b611bbb565b60405161056b9190614775565b60405180910390f35b34801561058057600080fd5b50610589611bd3565b6040516105969190614775565b60405180910390f35b3480156105ab57600080fd5b506105b4611c75565b6040516105c19190614775565b60405180910390f35b3480156105d657600080fd5b506105f160048036038101906105ec9190614361565b611d13565b6040516105fe9190614797565b60405180910390f35b34801561061357600080fd5b5061062e60048036038101906106299190614572565b611de8565b005b34801561063c57600080fd5b506106456121c7565b6040516106529190614775565b60405180910390f35b34801561066757600080fd5b50610682600480360381019061067d9190614490565b612269565b005b34801561069057600080fd5b506106ab60048036038101906106a6919061461d565b61241f565b005b3480156106b957600080fd5b506106d460048036038101906106cf9190614531565b6129b1565b6040516106e1919061475a565b60405180910390f35b3480156106f657600080fd5b50610711600480360381019061070c919061461d565b6129e7565b60405161071e919061473f565b60405180910390f35b34801561073357600080fd5b5061074e60048036038101906107499190614415565b6129fe565b005b34801561075c57600080fd5b50610765612a76565b6040516107729190614797565b60405180910390f35b34801561078757600080fd5b506107a2600480360381019061079d919061461d565b612a7c565b6040516107af9190614775565b60405180910390f35b3480156107c457600080fd5b506107cd612d4d565b6040516107da9190614797565b60405180910390f35b3480156107ef57600080fd5b506107f8612d61565b6040516108059190614775565b60405180910390f35b34801561081a57600080fd5b506108356004803603810190610830919061438a565b612dff565b604051610842919061475a565b60405180910390f35b34801561085757600080fd5b50610872600480360381019061086d9190614531565b612e93565b60405161087f919061475a565b60405180910390f35b6000806000837bffffffffffffffffffffffffffffffffffffffffffffffffffffffff19167bffffffffffffffffffffffffffffffffffffffffffffffffffffffff1916815260200190815260200160002060009054906101000a900460ff169050919050565b606060068054600181600116156101000203166002900480601f0160208091040260200160405190810160405280929190818152602001828054600181600116156101000203166002900480156109875780601f1061095c57610100808354040283529160200191610987565b820191906000526020600020905b81548152906001019060200180831161096a57829003601f168201915b5050505050905090565b600061099c82612ec9565b6109f1576040517f08c379a000000000000000000000000000000000000000000000000000000000815260040180806020018281038252602c815260200180614bca602c913960400191505060405180910390fd5b6004600083815260200190815260200160002060009054906101000a900473ffffffffffffffffffffffffffffffffffffffff169050919050565b6000610a3782611b84565b90508073ffffffffffffffffffffffffffffffffffffffff168373ffffffffffffffffffffffffffffffffffffffff161415610abe576040517f08c379a0000000000000000000000000000000000000000000000000000000008152600401808060200182810382526021815260200180614c7a6021913960400191505060405180910390fd5b8073ffffffffffffffffffffffffffffffffffffffff16610add612ee6565b73ffffffffffffffffffffffffffffffffffffffff161480610b0c5750610b0b81610b06612ee6565b612dff565b5b610b61576040517f08c379a0000000000000000000000000000000000000000000000000000000008152600401808060200182810382526038815260200180614b1d6038913960400191505060405180910390fd5b610b6b8383612eee565b505050565b600080610b7c83612ec9565b905080915050919050565b6000610b936002612fa7565b905090565b610ba9610ba3612ee6565b82612fbc565b610bfe576040517f08c379a0000000000000000000000000000000000000000000000000000000008152600401808060200182810382526031815260200180614c9b6031913960400191505060405180910390fd5b610c098383836130b0565b505050565b600073ffffffffffffffffffffffffffffffffffffffff163373ffffffffffffffffffffffffffffffffffffffff161415610c4857600080fd5b610c5181612ec9565b610c5a57600080fd5b6000610c6582611b84565b9050600073ffffffffffffffffffffffffffffffffffffffff168173ffffffffffffffffffffffffffffffffffffffff161415610ca157600080fd5b3373ffffffffffffffffffffffffffffffffffffffff168173ffffffffffffffffffffffffffffffffffffffff161415610cda57600080fd5b6000600d60008481526020019081526020016000206040518061014001604052908160008201548152602001600182018054600181600116156101000203166002900480601f016020809104026020016040519081016040528092919081815260200182805460018160011615610100020316600290048015610d9e5780601f10610d7357610100808354040283529160200191610d9e565b820191906000526020600020905b815481529060010190602001808311610d8157829003601f168201915b50505050508152602001600282018054600181600116156101000203166002900480601f016020809104026020016040519081016040528092919081815260200182805460018160011615610100020316600290048015610e405780601f10610e1557610100808354040283529160200191610e40565b820191906000526020600020905b815481529060010190602001808311610e2357829003601f168201915b505050505081526020016003820160009054906101000a900473ffffffffffffffffffffffffffffffffffffffff1673ffffffffffffffffffffffffffffffffffffffff1673ffffffffffffffffffffffffffffffffffffffff1681526020016004820160009054906101000a900473ffffffffffffffffffffffffffffffffffffffff1673ffffffffffffffffffffffffffffffffffffffff1673ffffffffffffffffffffffffffffffffffffffff1681526020016005820160009054906101000a900473ffffffffffffffffffffffffffffffffffffffff1673ffffffffffffffffffffffffffffffffffffffff1673ffffffffffffffffffffffffffffffffffffffff16815260200160068201548152602001600782018054600181600116156101000203166002900480601f016020809104026020016040519081016040528092919081815260200182805460018160011615610100020316600290048015610fee5780601f10610fc357610100808354040283529160200191610fee565b820191906000526020600020905b815481529060010190602001808311610fd157829003601f168201915b50505050508152602001600882015481526020016009820160009054906101000a900460ff16151515158152505090508060c0015134101561102f57600080fd5b80610120015161103e57600080fd5b6110498233856130b0565b6000816080015190508073ffffffffffffffffffffffffffffffffffffffff166108fc349081150290604051600060405180830381858888f19350505050158015611098573d6000803e3d6000fd5b5081608001518260a0019073ffffffffffffffffffffffffffffffffffffffff16908173ffffffffffffffffffffffffffffffffffffffff168152505033826080019073ffffffffffffffffffffffffffffffffffffffff16908173ffffffffffffffffffffffffffffffffffffffff168152505060018261010001818151019150818152505081600d6000868152602001908152602001600020600082015181600001556020820151816001019080519060200190611159929190614192565b506040820151816002019080519060200190611176929190614192565b5060608201518160030160006101000a81548173ffffffffffffffffffffffffffffffffffffffff021916908373ffffffffffffffffffffffffffffffffffffffff16021790555060808201518160040160006101000a81548173ffffffffffffffffffffffffffffffffffffffff021916908373ffffffffffffffffffffffffffffffffffffffff16021790555060a08201518160050160006101000a81548173ffffffffffffffffffffffffffffffffffffffff021916908373ffffffffffffffffffffffffffffffffffffffff16021790555060c0820151816006015560e0820151816007019080519060200190611272929190614192565b5061010082015181600801556101208201518160090160006101000a81548160ff02191690831515021790555090505050505050565b60006112fb82600160008673ffffffffffffffffffffffffffffffffffffffff1673ffffffffffffffffffffffffffffffffffffffff1681526020019081526020016000206132f390919063ffffffff16565b905092915050565b61131e838383604051806020016040528060008152506129fe565b505050565b60008061132f83611d13565b905080915050919050565b6010818051602081018201805184825260208301602085012081835280955050505050506000915054906101000a900460ff1681565b600d602052806000526040600020600091509050806000015490806001018054600181600116156101000203166002900480601f0160208091040260200160405190810160405280929190818152602001828054600181600116156101000203166002900480156114225780601f106113f757610100808354040283529160200191611422565b820191906000526020600020905b81548152906001019060200180831161140557829003601f168201915b505050505090806002018054600181600116156101000203166002900480601f0160208091040260200160405190810160405280929190818152602001828054600181600116156101000203166002900480156114c05780601f10611495576101008083540402835291602001916114c0565b820191906000526020600020905b8154815290600101906020018083116114a357829003601f168201915b5050505050908060030160009054906101000a900473ffffffffffffffffffffffffffffffffffffffff16908060040160009054906101000a900473ffffffffffffffffffffffffffffffffffffffff16908060050160009054906101000a900473ffffffffffffffffffffffffffffffffffffffff1690806006015490806007018054600181600116156101000203166002900480601f0160208091040260200160405190810160405280929190818152602001828054600181600116156101000203166002900480156115d65780601f106115ab576101008083540402835291602001916115d6565b820191906000526020600020905b8154815290600101906020018083116115b957829003601f168201915b5050505050908060080154908060090160009054906101000a900460ff1690508a565b60008061161083600261330d90919063ffffffff16565b50905080915050919050565b600073ffffffffffffffffffffffffffffffffffffffff163373ffffffffffffffffffffffffffffffffffffffff16141561165657600080fd5b61165f82612ec9565b61166857600080fd5b600061167383611b84565b90503373ffffffffffffffffffffffffffffffffffffffff168173ffffffffffffffffffffffffffffffffffffffff16146116ad57600080fd5b6000600d60008581526020019081526020016000206040518061014001604052908160008201548152602001600182018054600181600116156101000203166002900480601f0160208091040260200160405190810160405280929190818152602001828054600181600116156101000203166002900480156117715780601f1061174657610100808354040283529160200191611771565b820191906000526020600020905b81548152906001019060200180831161175457829003601f168201915b50505050508152602001600282018054600181600116156101000203166002900480601f0160208091040260200160405190810160405280929190818152602001828054600181600116156101000203166002900480156118135780601f106117e857610100808354040283529160200191611813565b820191906000526020600020905b8154815290600101906020018083116117f657829003601f168201915b505050505081526020016003820160009054906101000a900473ffffffffffffffffffffffffffffffffffffffff1673ffffffffffffffffffffffffffffffffffffffff1673ffffffffffffffffffffffffffffffffffffffff1681526020016004820160009054906101000a900473ffffffffffffffffffffffffffffffffffffffff1673ffffffffffffffffffffffffffffffffffffffff1673ffffffffffffffffffffffffffffffffffffffff1681526020016005820160009054906101000a900473ffffffffffffffffffffffffffffffffffffffff1673ffffffffffffffffffffffffffffffffffffffff1673ffffffffffffffffffffffffffffffffffffffff16815260200160068201548152602001600782018054600181600116156101000203166002900480601f0160208091040260200160405190810160405280929190818152602001828054600181600116156101000203166002900480156119c15780601f10611996576101008083540402835291602001916119c1565b820191906000526020600020905b8154815290600101906020018083116119a457829003601f168201915b50505050508152602001600882015481526020016009820160009054906101000a900460ff1615151515815250509050828160c001818152505080600d6000868152602001908152602001600020600082015181600001556020820151816001019080519060200190611a35929190614192565b506040820151816002019080519060200190611a52929190614192565b5060608201518160030160006101000a81548173ffffffffffffffffffffffffffffffffffffffff021916908373ffffffffffffffffffffffffffffffffffffffff16021790555060808201518160040160006101000a81548173ffffffffffffffffffffffffffffffffffffffff021916908373ffffffffffffffffffffffffffffffffffffffff16021790555060a08201518160050160006101000a81548173ffffffffffffffffffffffffffffffffffffffff021916908373ffffffffffffffffffffffffffffffffffffffff16021790555060c0820151816006015560e0820151816007019080519060200190611b4e929190614192565b5061010082015181600801556101208201518160090160006101000a81548160ff02191690831515021790555090505050505050565b6000611bb482604051806060016040528060298152602001614b7f6029913960026133399092919063ffffffff16565b9050919050565b60606000611bc883612a7c565b905080915050919050565b606060098054600181600116156101000203166002900480601f016020809104026020016040519081016040528092919081815260200182805460018160011615610100020316600290048015611c6b5780601f10611c4057610100808354040283529160200191611c6b565b820191906000526020600020905b815481529060010190602001808311611c4e57829003601f168201915b5050505050905090565b600b8054600181600116156101000203166002900480601f016020809104026020016040519081016040528092919081815260200182805460018160011615610100020316600290048015611d0b5780601f10611ce057610100808354040283529160200191611d0b565b820191906000526020600020905b815481529060010190602001808311611cee57829003601f168201915b505050505081565b60008073ffffffffffffffffffffffffffffffffffffffff168273ffffffffffffffffffffffffffffffffffffffff161415611d9a576040517f08c379a000000000000000000000000000000000000000000000000000000000815260040180806020018281038252602a815260200180614b55602a913960400191505060405180910390fd5b611de1600160008473ffffffffffffffffffffffffffffffffffffffff1673ffffffffffffffffffffffffffffffffffffffff168152602001908152602001600020613358565b9050919050565b600073ffffffffffffffffffffffffffffffffffffffff163373ffffffffffffffffffffffffffffffffffffffff161415611e2257600080fd5b600c60008154809291906001019190505550611e3f600c54612ec9565b15611e4957600080fd5b600f81604051611e599190614728565b908152602001604051809103902060009054906101000a900460ff1615611e7f57600080fd5b601083604051611e8f9190614728565b908152602001604051809103902060009054906101000a900460ff1615611eb557600080fd5b600e84604051611ec59190614728565b908152602001604051809103902060009054906101000a900460ff1615611eeb57600080fd5b611ef733600c5461336d565b611f03600c5484613561565b6001601084604051611f159190614728565b908152602001604051809103902060006101000a81548160ff0219169083151502179055506001600e85604051611f4c9190614728565b908152602001604051809103902060006101000a81548160ff0219169083151502179055506001600f82604051611f839190614728565b908152602001604051809103902060006101000a81548160ff0219169083151502179055506000604051806101400160405280600c5481526020018681526020018581526020013373ffffffffffffffffffffffffffffffffffffffff1681526020013373ffffffffffffffffffffffffffffffffffffffff168152602001600073ffffffffffffffffffffffffffffffffffffffff1681526020018481526020018381526020016000815260200160011515815250905080600d6000600c548152602001908152602001600020600082015181600001556020820151816001019080519060200190612077929190614192565b506040820151816002019080519060200190612094929190614192565b5060608201518160030160006101000a81548173ffffffffffffffffffffffffffffffffffffffff021916908373ffffffffffffffffffffffffffffffffffffffff16021790555060808201518160040160006101000a81548173ffffffffffffffffffffffffffffffffffffffff021916908373ffffffffffffffffffffffffffffffffffffffff16021790555060a08201518160050160006101000a81548173ffffffffffffffffffffffffffffffffffffffff021916908373ffffffffffffffffffffffffffffffffffffffff16021790555060c0820151816006015560e0820151816007019080519060200190612190929190614192565b5061010082015181600801556101208201518160090160006101000a81548160ff0219169083151502179055509050505050505050565b606060078054600181600116156101000203166002900480601f01602080910402602001604051908101604052809291908181526020018280546001816001161561010002031660029004801561225f5780601f106122345761010080835404028352916020019161225f565b820191906000526020600020905b81548152906001019060200180831161224257829003601f168201915b5050505050905090565b612271612ee6565b73ffffffffffffffffffffffffffffffffffffffff168273ffffffffffffffffffffffffffffffffffffffff161415612312576040517f08c379a00000000000000000000000000000000000000000000000000000000081526004018080602001828103825260198152602001807f4552433732313a20617070726f766520746f2063616c6c65720000000000000081525060200191505060405180910390fd5b806005600061231f612ee6565b73ffffffffffffffffffffffffffffffffffffffff1673ffffffffffffffffffffffffffffffffffffffff16815260200190815260200160002060008473ffffffffffffffffffffffffffffffffffffffff1673ffffffffffffffffffffffffffffffffffffffff16815260200190815260200160002060006101000a81548160ff0219169083151502179055508173ffffffffffffffffffffffffffffffffffffffff166123cc612ee6565b73ffffffffffffffffffffffffffffffffffffffff167f17307eab39ab6107e8899845ad3d59bd9653f200f220920489ca2b5937696c318360405180821515815260200191505060405180910390a35050565b600073ffffffffffffffffffffffffffffffffffffffff163373ffffffffffffffffffffffffffffffffffffffff16141561245957600080fd5b61246281612ec9565b61246b57600080fd5b600061247682611b84565b90503373ffffffffffffffffffffffffffffffffffffffff168173ffffffffffffffffffffffffffffffffffffffff16146124b057600080fd5b6000600d60008481526020019081526020016000206040518061014001604052908160008201548152602001600182018054600181600116156101000203166002900480601f0160208091040260200160405190810160405280929190818152602001828054600181600116156101000203166002900480156125745780601f1061254957610100808354040283529160200191612574565b820191906000526020600020905b81548152906001019060200180831161255757829003601f168201915b50505050508152602001600282018054600181600116156101000203166002900480601f0160208091040260200160405190810160405280929190818152602001828054600181600116156101000203166002900480156126165780601f106125eb57610100808354040283529160200191612616565b820191906000526020600020905b8154815290600101906020018083116125f957829003601f168201915b505050505081526020016003820160009054906101000a900473ffffffffffffffffffffffffffffffffffffffff1673ffffffffffffffffffffffffffffffffffffffff1673ffffffffffffffffffffffffffffffffffffffff1681526020016004820160009054906101000a900473ffffffffffffffffffffffffffffffffffffffff1673ffffffffffffffffffffffffffffffffffffffff1673ffffffffffffffffffffffffffffffffffffffff1681526020016005820160009054906101000a900473ffffffffffffffffffffffffffffffffffffffff1673ffffffffffffffffffffffffffffffffffffffff1673ffffffffffffffffffffffffffffffffffffffff16815260200160068201548152602001600782018054600181600116156101000203166002900480601f0160208091040260200160405190810160405280929190818152602001828054600181600116156101000203166002900480156127c45780601f10612799576101008083540402835291602001916127c4565b820191906000526020600020905b8154815290600101906020018083116127a757829003601f168201915b50505050508152602001600882015481526020016009820160009054906101000a900460ff16151515158152505090508061012001511561281657600081610120019015159081151581525050612829565b6001816101200190151590811515815250505b80600d6000858152602001908152602001600020600082015181600001556020820151816001019080519060200190612863929190614192565b506040820151816002019080519060200190612880929190614192565b5060608201518160030160006101000a81548173ffffffffffffffffffffffffffffffffffffffff021916908373ffffffffffffffffffffffffffffffffffffffff16021790555060808201518160040160006101000a81548173ffffffffffffffffffffffffffffffffffffffff021916908373ffffffffffffffffffffffffffffffffffffffff16021790555060a08201518160050160006101000a81548173ffffffffffffffffffffffffffffffffffffffff021916908373ffffffffffffffffffffffffffffffffffffffff16021790555060c0820151816006015560e082015181600701908051906020019061297c929190614192565b5061010082015181600801556101208201518160090160006101000a81548160ff021916908315150217905550905050505050565b600e818051602081018201805184825260208301602085012081835280955050505050506000915054906101000a900460ff1681565b6000806129f383611b84565b905080915050919050565b612a0f612a09612ee6565b83612fbc565b612a64576040517f08c379a0000000000000000000000000000000000000000000000000000000008152600401808060200182810382526031815260200180614c9b6031913960400191505060405180910390fd5b612a70848484846135eb565b50505050565b600c5481565b6060612a8782612ec9565b612adc576040517f08c379a000000000000000000000000000000000000000000000000000000000815260040180806020018281038252602f815260200180614c4b602f913960400191505060405180910390fd5b6000600860008481526020019081526020016000208054600181600116156101000203166002900480601f016020809104026020016040519081016040528092919081815260200182805460018160011615610100020316600290048015612b855780601f10612b5a57610100808354040283529160200191612b85565b820191906000526020600020905b815481529060010190602001808311612b6857829003601f168201915b505050505090506000612b96611bd3565b9050600081511415612bac578192505050612d48565b600082511115612c7d5780826040516020018083805190602001908083835b60208310612bee5780518252602082019150602081019050602083039250612bcb565b6001836020036101000a03801982511681845116808217855250505050505090500182805190602001908083835b60208310612c3f5780518252602082019150602081019050602083039250612c1c565b6001836020036101000a0380198251168184511680821785525050505050509050019250505060405160208183030381529060405292505050612d48565b80612c878561365d565b6040516020018083805190602001908083835b60208310612cbd5780518252602082019150602081019050602083039250612c9a565b6001836020036101000a03801982511681845116808217855250505050505090500182805190602001908083835b60208310612d0e5780518252602082019150602081019050602083039250612ceb565b6001836020036101000a03801982511681845116808217855250505050505090500192505050604051602081830303815290604052925050505b919050565b600080612d58610b87565b90508091505090565b600a8054600181600116156101000203166002900480601f016020809104026020016040519081016040528092919081815260200182805460018160011615610100020316600290048015612df75780601f10612dcc57610100808354040283529160200191612df7565b820191906000526020600020905b815481529060010190602001808311612dda57829003601f168201915b505050505081565b6000600560008473ffffffffffffffffffffffffffffffffffffffff1673ffffffffffffffffffffffffffffffffffffffff16815260200190815260200160002060008373ffffffffffffffffffffffffffffffffffffffff1673ffffffffffffffffffffffffffffffffffffffff16815260200190815260200160002060009054906101000a900460ff16905092915050565b600f818051602081018201805184825260208301602085012081835280955050505050506000915054906101000a900460ff1681565b6000612edf8260026137a490919063ffffffff16565b9050919050565b600033905090565b816004600083815260200190815260200160002060006101000a81548173ffffffffffffffffffffffffffffffffffffffff021916908373ffffffffffffffffffffffffffffffffffffffff160217905550808273ffffffffffffffffffffffffffffffffffffffff16612f6183611b84565b73ffffffffffffffffffffffffffffffffffffffff167f8c5be1e5ebec7d5bd14f71427d1e84f3dd0314c0f7b2291e5b200ac8c7c3b92560405160405180910390a45050565b6000612fb5826000016137be565b9050919050565b6000612fc782612ec9565b61301c576040517f08c379a000000000000000000000000000000000000000000000000000000000815260040180806020018281038252602c815260200180614af1602c913960400191505060405180910390fd5b600061302783611b84565b90508073ffffffffffffffffffffffffffffffffffffffff168473ffffffffffffffffffffffffffffffffffffffff16148061309657508373ffffffffffffffffffffffffffffffffffffffff1661307e84610991565b73ffffffffffffffffffffffffffffffffffffffff16145b806130a757506130a68185612dff565b5b91505092915050565b8273ffffffffffffffffffffffffffffffffffffffff166130d082611b84565b73ffffffffffffffffffffffffffffffffffffffff161461313c576040517f08c379a0000000000000000000000000000000000000000000000000000000008152600401808060200182810382526029815260200180614c226029913960400191505060405180910390fd5b600073ffffffffffffffffffffffffffffffffffffffff168273ffffffffffffffffffffffffffffffffffffffff1614156131c2576040517f08c379a0000000000000000000000000000000000000000000000000000000008152600401808060200182810382526024815260200180614aa76024913960400191505060405180910390fd5b6131cd8383836137cf565b6131d8600082612eee565b61322981600160008673ffffffffffffffffffffffffffffffffffffffff1673ffffffffffffffffffffffffffffffffffffffff1681526020019081526020016000206137d490919063ffffffff16565b5061327b81600160008573ffffffffffffffffffffffffffffffffffffffff1673ffffffffffffffffffffffffffffffffffffffff1681526020019081526020016000206137ee90919063ffffffff16565b50613292818360026138089092919063ffffffff16565b50808273ffffffffffffffffffffffffffffffffffffffff168473ffffffffffffffffffffffffffffffffffffffff167fddf252ad1be2c89b69c2b068fc378daa952ba7f163c4a11628f55a4df523b3ef60405160405180910390a4505050565b6000613302836000018361383d565b60001c905092915050565b60008060008061332086600001866138c0565b915091508160001c8160001c9350935050509250929050565b600061334c846000018460001b84613959565b60001c90509392505050565b600061336682600001613a4f565b9050919050565b600073ffffffffffffffffffffffffffffffffffffffff168273ffffffffffffffffffffffffffffffffffffffff161415613410576040517f08c379a00000000000000000000000000000000000000000000000000000000081526004018080602001828103825260208152602001807f4552433732313a206d696e7420746f20746865207a65726f206164647265737381525060200191505060405180910390fd5b61341981612ec9565b1561348c576040517f08c379a000000000000000000000000000000000000000000000000000000000815260040180806020018281038252601c8152602001807f4552433732313a20746f6b656e20616c7265616479206d696e7465640000000081525060200191505060405180910390fd5b613498600083836137cf565b6134e981600160008573ffffffffffffffffffffffffffffffffffffffff1673ffffffffffffffffffffffffffffffffffffffff1681526020019081526020016000206137ee90919063ffffffff16565b50613500818360026138089092919063ffffffff16565b50808273ffffffffffffffffffffffffffffffffffffffff16600073ffffffffffffffffffffffffffffffffffffffff167fddf252ad1be2c89b69c2b068fc378daa952ba7f163c4a11628f55a4df523b3ef60405160405180910390a45050565b61356a82612ec9565b6135bf576040517f08c379a000000000000000000000000000000000000000000000000000000000815260040180806020018281038252602c815260200180614bf6602c913960400191505060405180910390fd5b806008600084815260200190815260200160002090805190602001906135e6929190614192565b505050565b6135f68484846130b0565b61360284848484613a60565b613657576040517f08c379a0000000000000000000000000000000000000000000000000000000008152600401808060200182810382526032815260200180614a756032913960400191505060405180910390fd5b50505050565b606060008214156136a5576040518060400160405280600181526020017f3000000000000000000000000000000000000000000000000000000000000000815250905061379f565b600082905060005b600082146136cf578080600101915050600a82816136c757fe5b0491506136ad565b60008167ffffffffffffffff811180156136e857600080fd5b506040519080825280601f01601f19166020018201604052801561371b5781602001600182028036833780820191505090505b50905060006001830390508593505b6000841461379757600a848161373c57fe5b0660300160f81b8282806001900393508151811061375657fe5b60200101907effffffffffffffffffffffffffffffffffffffffffffffffffffffffffffff1916908160001a905350600a848161378f57fe5b04935061372a565b819450505050505b919050565b60006137b6836000018360001b613c79565b905092915050565b600081600001805490509050919050565b505050565b60006137e6836000018360001b613c9c565b905092915050565b6000613800836000018360001b613d84565b905092915050565b6000613834846000018460001b8473ffffffffffffffffffffffffffffffffffffffff1660001b613df4565b90509392505050565b60008183600001805490501161389e576040517f08c379a0000000000000000000000000000000000000000000000000000000008152600401808060200182810382526022815260200180614a536022913960400191505060405180910390fd5b8260000182815481106138ad57fe5b9060005260206000200154905092915050565b60008082846000018054905011613922576040517f08c379a0000000000000000000000000000000000000000000000000000000008152600401808060200182810382526022815260200180614ba86022913960400191505060405180910390fd5b600084600001848154811061393357fe5b906000526020600020906002020190508060000154816001015492509250509250929050565b60008084600101600085815260200190815260200160002054905060008114158390613a20576040517f08c379a00000000000000000000000000000000000000000000000000000000081526004018080602001828103825283818151815260200191508051906020019080838360005b838110156139e55780820151818401526020810190506139ca565b50505050905090810190601f168015613a125780820380516001836020036101000a031916815260200191505b509250505060405180910390fd5b50846000016001820381548110613a3357fe5b9060005260206000209060020201600101549150509392505050565b600081600001805490509050919050565b6000613a818473ffffffffffffffffffffffffffffffffffffffff16613ed0565b613a8e5760019050613c71565b6000613bf863150b7a0260e01b613aa3612ee6565b888787604051602401808573ffffffffffffffffffffffffffffffffffffffff1681526020018473ffffffffffffffffffffffffffffffffffffffff16815260200183815260200180602001828103825283818151815260200191508051906020019080838360005b83811015613b27578082015181840152602081019050613b0c565b50505050905090810190601f168015613b545780820380516001836020036101000a031916815260200191505b5095505050505050604051602081830303815290604052907bffffffffffffffffffffffffffffffffffffffffffffffffffffffff19166020820180517bffffffffffffffffffffffffffffffffffffffffffffffffffffffff8381831617835250505050604051806060016040528060328152602001614a75603291398773ffffffffffffffffffffffffffffffffffffffff16613ee39092919063ffffffff16565b90506000818060200190516020811015613c1157600080fd5b8101908080519060200190929190505050905063150b7a0260e01b7bffffffffffffffffffffffffffffffffffffffffffffffffffffffff1916817bffffffffffffffffffffffffffffffffffffffffffffffffffffffff191614925050505b949350505050565b600080836001016000848152602001908152602001600020541415905092915050565b60008083600101600084815260200190815260200160002054905060008114613d785760006001820390506000600186600001805490500390506000866000018281548110613ce757fe5b9060005260206000200154905080876000018481548110613d0457fe5b9060005260206000200181905550600183018760010160008381526020019081526020016000208190555086600001805480613d3c57fe5b60019003818190600052602060002001600090559055866001016000878152602001908152602001600020600090556001945050505050613d7e565b60009150505b92915050565b6000613d908383613efb565b613de9578260000182908060018154018082558091505060019003906000526020600020016000909190919091505582600001805490508360010160008481526020019081526020016000208190555060019050613dee565b600090505b92915050565b6000808460010160008581526020019081526020016000205490506000811415613e9b57846000016040518060400160405280868152602001858152509080600181540180825580915050600190039060005260206000209060020201600090919091909150600082015181600001556020820151816001015550508460000180549050856001016000868152602001908152602001600020819055506001915050613ec9565b82856000016001830381548110613eae57fe5b90600052602060002090600202016001018190555060009150505b9392505050565b600080823b905060008111915050919050565b6060613ef28484600085613f1e565b90509392505050565b600080836001016000848152602001908152602001600020541415905092915050565b606082471015613f79576040517f08c379a0000000000000000000000000000000000000000000000000000000008152600401808060200182810382526026815260200180614acb6026913960400191505060405180910390fd5b613f8285613ed0565b613ff4576040517f08c379a000000000000000000000000000000000000000000000000000000000815260040180806020018281038252601d8152602001807f416464726573733a2063616c6c20746f206e6f6e2d636f6e747261637400000081525060200191505060405180910390fd5b6000808673ffffffffffffffffffffffffffffffffffffffff1685876040518082805190602001908083835b602083106140435780518252602082019150602081019050602083039250614020565b6001836020036101000a03801982511681845116808217855250505050505090500191505060006040518083038185875af1925050503d80600081146140a5576040519150601f19603f3d011682016040523d82523d6000602084013e6140aa565b606091505b50915091506140ba8282866140c6565b92505050949350505050565b606083156140d65782905061418b565b6000835111156140e95782518084602001fd5b816040517f08c379a00000000000000000000000000000000000000000000000000000000081526004018080602001828103825283818151815260200191508051906020019080838360005b83811015614150578082015181840152602081019050614135565b50505050905090810190601f16801561417d5780820380516001836020036101000a031916815260200191505b509250505060405180910390fd5b9392505050565b828054600181600116156101000203166002900490600052602060002090601f0160209004810192826141c8576000855561420f565b82601f106141e157805160ff191683800117855561420f565b8280016001018555821561420f579182015b8281111561420e5782518255916020019190600101906141f3565b5b50905061421c9190614220565b5090565b5b80821115614239576000816000905550600101614221565b5090565b600061425061424b84614894565b614863565b90508281526020810184848401111561426857600080fd5b6142738482856149a1565b509392505050565b600061428e614289846148c4565b614863565b9050828152602081018484840111156142a657600080fd5b6142b18482856149a1565b509392505050565b6000813590506142c8816149f6565b92915050565b6000813590506142dd81614a0d565b92915050565b6000813590506142f281614a24565b92915050565b600082601f83011261430957600080fd5b813561431984826020860161423d565b91505092915050565b600082601f83011261433357600080fd5b813561434384826020860161427b565b91505092915050565b60008135905061435b81614a3b565b92915050565b60006020828403121561437357600080fd5b6000614381848285016142b9565b91505092915050565b6000806040838503121561439d57600080fd5b60006143ab858286016142b9565b92505060206143bc858286016142b9565b9150509250929050565b6000806000606084860312156143db57600080fd5b60006143e9868287016142b9565b93505060206143fa868287016142b9565b925050604061440b8682870161434c565b9150509250925092565b6000806000806080858703121561442b57600080fd5b6000614439878288016142b9565b945050602061444a878288016142b9565b935050604061445b8782880161434c565b925050606085013567ffffffffffffffff81111561447857600080fd5b614484878288016142f8565b91505092959194509250565b600080604083850312156144a357600080fd5b60006144b1858286016142b9565b92505060206144c2858286016142ce565b9150509250929050565b600080604083850312156144df57600080fd5b60006144ed858286016142b9565b92505060206144fe8582860161434c565b9150509250929050565b60006020828403121561451a57600080fd5b6000614528848285016142e3565b91505092915050565b60006020828403121561454357600080fd5b600082013567ffffffffffffffff81111561455d57600080fd5b61456984828501614322565b91505092915050565b6000806000806080858703121561458857600080fd5b600085013567ffffffffffffffff8111156145a257600080fd5b6145ae87828801614322565b945050602085013567ffffffffffffffff8111156145cb57600080fd5b6145d787828801614322565b93505060406145e88782880161434c565b925050606085013567ffffffffffffffff81111561460557600080fd5b61461187828801614322565b91505092959194509250565b60006020828403121561462f57600080fd5b600061463d8482850161434c565b91505092915050565b6000806040838503121561465957600080fd5b60006146678582860161434c565b92505060206146788582860161434c565b9150509250929050565b61468b8161492d565b82525050565b61469a8161491b565b82525050565b6146a98161493f565b82525050565b60006146ba826148f4565b6146c481856148ff565b93506146d48185602086016149b0565b6146dd816149e5565b840191505092915050565b60006146f3826148f4565b6146fd8185614910565b935061470d8185602086016149b0565b80840191505092915050565b61472281614997565b82525050565b600061473482846146e8565b915081905092915050565b60006020820190506147546000830184614691565b92915050565b600060208201905061476f60008301846146a0565b92915050565b6000602082019050818103600083015261478f81846146af565b905092915050565b60006020820190506147ac6000830184614719565b92915050565b6000610140820190506147c8600083018d614719565b81810360208301526147da818c6146af565b905081810360408301526147ee818b6146af565b90506147fd606083018a614682565b61480a6080830189614682565b61481760a0830188614682565b61482460c0830187614719565b81810360e083015261483681866146af565b9050614846610100830185614719565b6148546101208301846146a0565b9b9a5050505050505050505050565b6000604051905081810181811067ffffffffffffffff8211171561488a576148896149e3565b5b8060405250919050565b600067ffffffffffffffff8211156148af576148ae6149e3565b5b601f19601f8301169050602081019050919050565b600067ffffffffffffffff8211156148df576148de6149e3565b5b601f19601f8301169050602081019050919050565b600081519050919050565b600082825260208201905092915050565b600081905092915050565b600061492682614977565b9050919050565b600061493882614977565b9050919050565b60008115159050919050565b60007fffffffff0000000000000000000000000000000000000000000000000000000082169050919050565b600073ffffffffffffffffffffffffffffffffffffffff82169050919050565b6000819050919050565b82818337600083830152505050565b60005b838110156149ce5780820151818401526020810190506149b3565b838111156149dd576000848401525b50505050565bfe5b6000601f19601f8301169050919050565b6149ff8161491b565b8114614a0a57600080fd5b50565b614a168161493f565b8114614a2157600080fd5b50565b614a2d8161494b565b8114614a3857600080fd5b50565b614a4481614997565b8114614a4f57600080fd5b5056fe456e756d657261626c655365743a20696e646578206f7574206f6620626f756e64734552433732313a207472616e7366657220746f206e6f6e20455243373231526563656976657220696d706c656d656e7465724552433732313a207472616e7366657220746f20746865207a65726f2061646472657373416464726573733a20696e73756666696369656e742062616c616e636520666f722063616c6c4552433732313a206f70657261746f7220717565727920666f72206e6f6e6578697374656e7420746f6b656e4552433732313a20617070726f76652063616c6c6572206973206e6f74206f776e6572206e6f7220617070726f76656420666f7220616c6c4552433732313a2062616c616e636520717565727920666f7220746865207a65726f20616464726573734552433732313a206f776e657220717565727920666f72206e6f6e6578697374656e7420746f6b656e456e756d657261626c654d61703a20696e646578206f7574206f6620626f756e64734552433732313a20617070726f76656420717565727920666f72206e6f6e6578697374656e7420746f6b656e4552433732314d657461646174613a2055524920736574206f66206e6f6e6578697374656e7420746f6b656e4552433732313a207472616e73666572206f6620746f6b656e2074686174206973206e6f74206f776e4552433732314d657461646174613a2055524920717565727920666f72206e6f6e6578697374656e7420746f6b656e4552433732313a20617070726f76616c20746f2063757272656e74206f776e65724552433732313a207472616e736665722063616c6c6572206973206e6f74206f776e6572206e6f7220617070726f766564a2646970667358221220b4ba47c9e518405dbd809c3a07fa990576ac500f1e38beb87445fdd35adb638c64736f6c63430007060033",
  "immutableReferences": {},
  "source": "// SPDX-License-Identifier: MIT\r\npragma solidity >=0.4.21 <0.8.0;\r\npragma abicoder v2;\r\n\r\n// import ERC721 iterface\r\nimport \"./ERC721.sol\";\r\n\r\n// CryptoBoys smart contract inherits ERC721 interface\r\ncontract CryptoBoys is ERC721 {\r\n\r\n  // this contract's token collection name\r\n  string public collectionName;\r\n  // this contract's token symbol\r\n  string public collectionNameSymbol;\r\n  // total number of crypto boys minted\r\n  uint256 public cryptoBoyCounter;\r\n\r\n  // define crypto boy struct\r\n   struct CryptoBoy {\r\n    uint256 tokenId;\r\n    string tokenName;\r\n    string tokenURI;\r\n    address payable mintedBy;\r\n    address payable currentOwner;\r\n    address payable previousOwner;\r\n    uint256 price;\r\n    string imageHash;\r\n    uint256 numberOfTransfers;\r\n    bool forSale;\r\n  }\r\n\r\n  // map cryptoboy's token id to crypto boy\r\n  mapping(uint256 => CryptoBoy) public allCryptoBoys;\r\n  // check if token name exists\r\n  mapping(string => bool) public tokenNameExists;\r\n  // check if image exists\r\n  mapping(string => bool) public imageExists;\r\n  // check if token URI exists\r\n  mapping(string => bool) public tokenURIExists;\r\n\r\n  // initialize contract while deployment with contract's collection name and token\r\n  constructor() ERC721(\"Crypto Boys Collection\", \"CB\") {\r\n    collectionName = name();\r\n    collectionNameSymbol = symbol();\r\n  }\r\n\r\n  // mint a new crypto boy\r\n  function mintCryptoBoy(string memory _name, string memory _tokenURI, uint256 _price,string memory _imageHash) external {\r\n    // check if thic fucntion caller is not an zero address account\r\n    require(msg.sender != address(0));\r\n    // increment counter\r\n    cryptoBoyCounter ++;\r\n    // check if a token exists with the above token id => incremented counter\r\n    require(!_exists(cryptoBoyCounter));\r\n\r\n    // loop through the colors passed and check if each colors already exists or not\r\n    // for(uint i=0; i<_colors.length; i++) {\r\n    //   require(!colorExists[_colors[i]]);\r\n    // }\r\n    // check if the image already exists or not\r\n    require(!imageExists[_imageHash]);\r\n    // check if the token URI already exists or not\r\n    require(!tokenURIExists[_tokenURI]);\r\n    // check if the token name already exists or not\r\n    require(!tokenNameExists[_name]);\r\n\r\n    // mint the token\r\n    _mint(msg.sender, cryptoBoyCounter);\r\n    // set token URI (bind token id with the passed in token URI)\r\n    _setTokenURI(cryptoBoyCounter, _tokenURI);\r\n\r\n    // loop through the colors passed and make each of the colors as exists since the token is already minted\r\n    // for (uint i=0; i<_colors.length; i++) {\r\n    //   colorExists[_colors[i]] = true;\r\n    // }\r\n    // make passed token URI as exists\r\n    tokenURIExists[_tokenURI] = true;\r\n    // make token name passed as exists\r\n    tokenNameExists[_name] = true;\r\n    // make passed image as exists\r\n    imageExists[_imageHash]=true;\r\n\r\n    // creat a new crypto boy (struct) and pass in new values\r\n    CryptoBoy memory newCryptoBoy = CryptoBoy(\r\n    cryptoBoyCounter,\r\n    _name,\r\n    _tokenURI,\r\n    msg.sender,\r\n    msg.sender,\r\n    address(0),\r\n    _price,\r\n    _imageHash,\r\n    0,\r\n    true);\r\n    // add the token id and it's crypto boy to all crypto boys mapping\r\n    allCryptoBoys[cryptoBoyCounter] = newCryptoBoy;\r\n  }\r\n\r\n  // get owner of the token\r\n  function getTokenOwner(uint256 _tokenId) public view returns(address) {\r\n    address _tokenOwner = ownerOf(_tokenId);\r\n    return _tokenOwner;\r\n  }\r\n\r\n  // get metadata of the token\r\n  function getTokenMetaData(uint _tokenId) public view returns(string memory) {\r\n    string memory tokenMetaData = tokenURI(_tokenId);\r\n    return tokenMetaData;\r\n  }\r\n\r\n  // get total number of tokens minted so far\r\n  function getNumberOfTokensMinted() public view returns(uint256) {\r\n    uint256 totalNumberOfTokensMinted = totalSupply();\r\n    return totalNumberOfTokensMinted;\r\n  }\r\n\r\n  // get total number of tokens owned by an address\r\n  function getTotalNumberOfTokensOwnedByAnAddress(address _owner) public view returns(uint256) {\r\n    uint256 totalNumberOfTokensOwned = balanceOf(_owner);\r\n    return totalNumberOfTokensOwned;\r\n  }\r\n\r\n  // check if the token already exists\r\n  function getTokenExists(uint256 _tokenId) public view returns(bool) {\r\n    bool tokenExists = _exists(_tokenId);\r\n    return tokenExists;\r\n  }\r\n\r\n  // by a token by passing in the token's id\r\n  function buyToken(uint256 _tokenId) public payable {\r\n    // check if the function caller is not an zero account address\r\n    require(msg.sender != address(0));\r\n    // check if the token id of the token being bought exists or not\r\n    require(_exists(_tokenId));\r\n    // get the token's owner\r\n    address tokenOwner = ownerOf(_tokenId);\r\n    // token's owner should not be an zero address account\r\n    require(tokenOwner != address(0));\r\n    // the one who wants to buy the token should not be the token's owner\r\n    require(tokenOwner != msg.sender);\r\n    // get that token from all crypto boys mapping and create a memory of it defined as (struct => CryptoBoy)\r\n    CryptoBoy memory cryptoboy = allCryptoBoys[_tokenId];\r\n    // price sent in to buy should be equal to or more than the token's price\r\n    require(msg.value >= cryptoboy.price);\r\n    // token should be for sale\r\n    require(cryptoboy.forSale);\r\n    // transfer the token from owner to the caller of the function (buyer)\r\n    _transfer(tokenOwner, msg.sender, _tokenId);\r\n    // get owner of the token\r\n    address payable sendTo = cryptoboy.currentOwner;\r\n    // send token's worth of ethers to the owner\r\n    sendTo.transfer(msg.value);\r\n    // update the token's previous owner\r\n    cryptoboy.previousOwner = cryptoboy.currentOwner;\r\n    // update the token's current owner\r\n    cryptoboy.currentOwner = msg.sender;\r\n    // update the how many times this token was transfered\r\n    cryptoboy.numberOfTransfers += 1;\r\n    // set and update that token in the mapping\r\n    allCryptoBoys[_tokenId] = cryptoboy;\r\n  }\r\n\r\n  function changeTokenPrice(uint256 _tokenId, uint256 _newPrice) public {\r\n    // require caller of the function is not an empty address\r\n    require(msg.sender != address(0));\r\n    // require that token should exist\r\n    require(_exists(_tokenId));\r\n    // get the token's owner\r\n    address tokenOwner = ownerOf(_tokenId);\r\n    // check that token's owner should be equal to the caller of the function\r\n    require(tokenOwner == msg.sender);\r\n    // get that token from all crypto boys mapping and create a memory of it defined as (struct => CryptoBoy)\r\n    CryptoBoy memory cryptoboy = allCryptoBoys[_tokenId];\r\n    // update token's price with new price\r\n   cryptoboy.price = _newPrice;\r\n    // set and update that token in the mapping\r\n    allCryptoBoys[_tokenId] = cryptoboy;\r\n  }\r\n\r\n  // switch between set for sale and set not for sale\r\n  function toggleForSale(uint256 _tokenId) public {\r\n    // require caller of the function is not an empty address\r\n    require(msg.sender != address(0));\r\n    // require that token should exist\r\n    require(_exists(_tokenId));\r\n    // get the token's owner\r\n    address tokenOwner = ownerOf(_tokenId);\r\n    // check that token's owner should be equal to the caller of the function\r\n    require(tokenOwner == msg.sender);\r\n    // get that token from all crypto boys mapping and create a memory of it defined as (struct => CryptoBoy)\r\n    CryptoBoy memory cryptoboy = allCryptoBoys[_tokenId];\r\n    // if token's forSale is false make it true and vice versa\r\n    if(cryptoboy.forSale) {\r\n      cryptoboy.forSale = false;\r\n    } else {\r\n      cryptoboy.forSale = true;\r\n    }\r\n    // set and update that token in the mapping\r\n    allCryptoBoys[_tokenId] = cryptoboy;\r\n  }\r\n}",
  "sourcePath": "C:/Users/mehta/git/fashion-nft/src/contracts/CryptoBoys.sol",
  "compiler": {
    "name": "solc",
    "version": "0.7.6+commit.7338295f.Emscripten.clang"
  },
  "schemaVersion": "3.4.1",
  "updatedAt": "2021-07-01T08:50:35.677Z",
  "networkType": "ethereum",
  "devdoc": {
    "kind": "dev",
    "methods": {
      "approve(address,uint256)": {
        "details": "See {IERC721-approve}."
      },
      "balanceOf(address)": {
        "details": "See {IERC721-balanceOf}."
      },
      "baseURI()": {
        "details": "Returns the base URI set via {_setBaseURI}. This will be automatically added as a prefix in {tokenURI} to each token's URI, or to the token ID if no specific URI is set for that token ID."
      },
      "getApproved(uint256)": {
        "details": "See {IERC721-getApproved}."
      },
      "isApprovedForAll(address,address)": {
        "details": "See {IERC721-isApprovedForAll}."
      },
      "name()": {
        "details": "See {IERC721Metadata-name}."
      },
      "ownerOf(uint256)": {
        "details": "See {IERC721-ownerOf}."
      },
      "safeTransferFrom(address,address,uint256)": {
        "details": "See {IERC721-safeTransferFrom}."
      },
      "safeTransferFrom(address,address,uint256,bytes)": {
        "details": "See {IERC721-safeTransferFrom}."
      },
      "setApprovalForAll(address,bool)": {
        "details": "See {IERC721-setApprovalForAll}."
      },
      "supportsInterface(bytes4)": {
        "details": "See {IERC165-supportsInterface}. Time complexity O(1), guaranteed to always use less than 30 000 gas."
      },
      "symbol()": {
        "details": "See {IERC721Metadata-symbol}."
      },
      "tokenByIndex(uint256)": {
        "details": "See {IERC721Enumerable-tokenByIndex}."
      },
      "tokenOfOwnerByIndex(address,uint256)": {
        "details": "See {IERC721Enumerable-tokenOfOwnerByIndex}."
      },
      "tokenURI(uint256)": {
        "details": "See {IERC721Metadata-tokenURI}."
      },
      "totalSupply()": {
        "details": "See {IERC721Enumerable-totalSupply}."
      },
      "transferFrom(address,address,uint256)": {
        "details": "See {IERC721-transferFrom}."
      }
    },
    "version": 1
  },
  "userdoc": {
    "kind": "user",
    "methods": {},
    "version": 1
  }
}