{
  "contractName": "DigiFashionERC1155",
  "abi": [
    {
      "inputs": [],
      "stateMutability": "nonpayable",
      "type": "constructor"
    },
    {
      "anonymous": false,
      "inputs": [
        {
          "indexed": true,
          "internalType": "address",
          "name": "account",
          "type": "address"
        },
        {
          "indexed": true,
          "internalType": "address",
          "name": "operator",
          "type": "address"
        },
        {
          "indexed": false,
          "internalType": "bool",
          "name": "approved",
          "type": "bool"
        }
      ],
      "name": "ApprovalForAll",
      "type": "event"
    },
    {
      "anonymous": false,
      "inputs": [
        {
          "indexed": true,
          "internalType": "address",
          "name": "previousOwner",
          "type": "address"
        },
        {
          "indexed": true,
          "internalType": "address",
          "name": "newOwner",
          "type": "address"
        }
      ],
      "name": "OwnershipTransferred",
      "type": "event"
    },
    {
      "anonymous": false,
      "inputs": [
        {
          "indexed": true,
          "internalType": "address",
          "name": "operator",
          "type": "address"
        },
        {
          "indexed": true,
          "internalType": "address",
          "name": "from",
          "type": "address"
        },
        {
          "indexed": true,
          "internalType": "address",
          "name": "to",
          "type": "address"
        },
        {
          "indexed": false,
          "internalType": "uint256[]",
          "name": "ids",
          "type": "uint256[]"
        },
        {
          "indexed": false,
          "internalType": "uint256[]",
          "name": "values",
          "type": "uint256[]"
        }
      ],
      "name": "TransferBatch",
      "type": "event"
    },
    {
      "anonymous": false,
      "inputs": [
        {
          "indexed": true,
          "internalType": "address",
          "name": "operator",
          "type": "address"
        },
        {
          "indexed": true,
          "internalType": "address",
          "name": "from",
          "type": "address"
        },
        {
          "indexed": true,
          "internalType": "address",
          "name": "to",
          "type": "address"
        },
        {
          "indexed": false,
          "internalType": "uint256",
          "name": "id",
          "type": "uint256"
        },
        {
          "indexed": false,
          "internalType": "uint256",
          "name": "value",
          "type": "uint256"
        }
      ],
      "name": "TransferSingle",
      "type": "event"
    },
    {
      "anonymous": false,
      "inputs": [
        {
          "indexed": false,
          "internalType": "string",
          "name": "value",
          "type": "string"
        },
        {
          "indexed": true,
          "internalType": "uint256",
          "name": "id",
          "type": "uint256"
        }
      ],
      "name": "URI",
      "type": "event"
    },
    {
      "inputs": [],
      "name": "_tokensForSaleCount",
      "outputs": [
        {
          "internalType": "uint256",
          "name": "",
          "type": "uint256"
        }
      ],
      "stateMutability": "view",
      "type": "function",
      "constant": true
    },
    {
      "inputs": [],
      "name": "_tokensMintedCount",
      "outputs": [
        {
          "internalType": "uint256",
          "name": "",
          "type": "uint256"
        }
      ],
      "stateMutability": "view",
      "type": "function",
      "constant": true
    },
    {
      "inputs": [],
      "name": "_tokensUniqueForSaleCount",
      "outputs": [
        {
          "internalType": "uint256",
          "name": "",
          "type": "uint256"
        }
      ],
      "stateMutability": "view",
      "type": "function",
      "constant": true
    },
    {
      "inputs": [],
      "name": "_tokensUniqueMintedCount",
      "outputs": [
        {
          "internalType": "uint256",
          "name": "",
          "type": "uint256"
        }
      ],
      "stateMutability": "view",
      "type": "function",
      "constant": true
    },
    {
      "inputs": [
        {
          "internalType": "address",
          "name": "account",
          "type": "address"
        },
        {
          "internalType": "uint256",
          "name": "id",
          "type": "uint256"
        }
      ],
      "name": "balanceOf",
      "outputs": [
        {
          "internalType": "uint256",
          "name": "",
          "type": "uint256"
        }
      ],
      "stateMutability": "view",
      "type": "function",
      "constant": true
    },
    {
      "inputs": [
        {
          "internalType": "address[]",
          "name": "accounts",
          "type": "address[]"
        },
        {
          "internalType": "uint256[]",
          "name": "ids",
          "type": "uint256[]"
        }
      ],
      "name": "balanceOfBatch",
      "outputs": [
        {
          "internalType": "uint256[]",
          "name": "",
          "type": "uint256[]"
        }
      ],
      "stateMutability": "view",
      "type": "function",
      "constant": true
    },
    {
      "inputs": [
        {
          "internalType": "address",
          "name": "account",
          "type": "address"
        },
        {
          "internalType": "address",
          "name": "operator",
          "type": "address"
        }
      ],
      "name": "isApprovedForAll",
      "outputs": [
        {
          "internalType": "bool",
          "name": "",
          "type": "bool"
        }
      ],
      "stateMutability": "view",
      "type": "function",
      "constant": true
    },
    {
      "inputs": [
        {
          "internalType": "address",
          "name": "",
          "type": "address"
        },
        {
          "internalType": "address",
          "name": "",
          "type": "address"
        },
        {
          "internalType": "uint256[]",
          "name": "",
          "type": "uint256[]"
        },
        {
          "internalType": "uint256[]",
          "name": "",
          "type": "uint256[]"
        },
        {
          "internalType": "bytes",
          "name": "",
          "type": "bytes"
        }
      ],
      "name": "onERC1155BatchReceived",
      "outputs": [
        {
          "internalType": "bytes4",
          "name": "",
          "type": "bytes4"
        }
      ],
      "stateMutability": "nonpayable",
      "type": "function"
    },
    {
      "inputs": [
        {
          "internalType": "address",
          "name": "",
          "type": "address"
        },
        {
          "internalType": "address",
          "name": "",
          "type": "address"
        },
        {
          "internalType": "uint256",
          "name": "",
          "type": "uint256"
        },
        {
          "internalType": "uint256",
          "name": "",
          "type": "uint256"
        },
        {
          "internalType": "bytes",
          "name": "",
          "type": "bytes"
        }
      ],
      "name": "onERC1155Received",
      "outputs": [
        {
          "internalType": "bytes4",
          "name": "",
          "type": "bytes4"
        }
      ],
      "stateMutability": "nonpayable",
      "type": "function"
    },
    {
      "inputs": [],
      "name": "owner",
      "outputs": [
        {
          "internalType": "address",
          "name": "",
          "type": "address"
        }
      ],
      "stateMutability": "view",
      "type": "function",
      "constant": true
    },
    {
      "inputs": [],
      "name": "renounceOwnership",
      "outputs": [],
      "stateMutability": "nonpayable",
      "type": "function"
    },
    {
      "inputs": [
        {
          "internalType": "address",
          "name": "from",
          "type": "address"
        },
        {
          "internalType": "address",
          "name": "to",
          "type": "address"
        },
        {
          "internalType": "uint256[]",
          "name": "ids",
          "type": "uint256[]"
        },
        {
          "internalType": "uint256[]",
          "name": "amounts",
          "type": "uint256[]"
        },
        {
          "internalType": "bytes",
          "name": "data",
          "type": "bytes"
        }
      ],
      "name": "safeBatchTransferFrom",
      "outputs": [],
      "stateMutability": "nonpayable",
      "type": "function"
    },
    {
      "inputs": [
        {
          "internalType": "address",
          "name": "from",
          "type": "address"
        },
        {
          "internalType": "address",
          "name": "to",
          "type": "address"
        },
        {
          "internalType": "uint256",
          "name": "id",
          "type": "uint256"
        },
        {
          "internalType": "uint256",
          "name": "amount",
          "type": "uint256"
        },
        {
          "internalType": "bytes",
          "name": "data",
          "type": "bytes"
        }
      ],
      "name": "safeTransferFrom",
      "outputs": [],
      "stateMutability": "nonpayable",
      "type": "function"
    },
    {
      "inputs": [
        {
          "internalType": "address",
          "name": "operator",
          "type": "address"
        },
        {
          "internalType": "bool",
          "name": "approved",
          "type": "bool"
        }
      ],
      "name": "setApprovalForAll",
      "outputs": [],
      "stateMutability": "nonpayable",
      "type": "function"
    },
    {
      "inputs": [
        {
          "internalType": "bytes4",
          "name": "interfaceId",
          "type": "bytes4"
        }
      ],
      "name": "supportsInterface",
      "outputs": [
        {
          "internalType": "bool",
          "name": "",
          "type": "bool"
        }
      ],
      "stateMutability": "view",
      "type": "function",
      "constant": true
    },
    {
      "inputs": [
        {
          "internalType": "uint256",
          "name": "",
          "type": "uint256"
        }
      ],
      "name": "tokenPrice",
      "outputs": [
        {
          "internalType": "uint256",
          "name": "",
          "type": "uint256"
        }
      ],
      "stateMutability": "view",
      "type": "function",
      "constant": true
    },
    {
      "inputs": [
        {
          "internalType": "uint256",
          "name": "",
          "type": "uint256"
        }
      ],
      "name": "tokensBalances",
      "outputs": [
        {
          "internalType": "uint256",
          "name": "",
          "type": "uint256"
        }
      ],
      "stateMutability": "view",
      "type": "function",
      "constant": true
    },
    {
      "inputs": [
        {
          "internalType": "uint256",
          "name": "",
          "type": "uint256"
        }
      ],
      "name": "tokensUri",
      "outputs": [
        {
          "internalType": "string",
          "name": "",
          "type": "string"
        }
      ],
      "stateMutability": "view",
      "type": "function",
      "constant": true
    },
    {
      "inputs": [
        {
          "internalType": "address",
          "name": "newOwner",
          "type": "address"
        }
      ],
      "name": "transferOwnership",
      "outputs": [],
      "stateMutability": "nonpayable",
      "type": "function"
    },
    {
      "inputs": [
        {
          "internalType": "uint256",
          "name": "",
          "type": "uint256"
        }
      ],
      "name": "uri",
      "outputs": [
        {
          "internalType": "string",
          "name": "",
          "type": "string"
        }
      ],
      "stateMutability": "view",
      "type": "function",
      "constant": true
    },
    {
      "inputs": [
        {
          "internalType": "uint256",
          "name": "_tokenId",
          "type": "uint256"
        },
        {
          "internalType": "string",
          "name": "_urihash",
          "type": "string"
        }
      ],
      "name": "updateTokenMetaData",
      "outputs": [],
      "stateMutability": "nonpayable",
      "type": "function"
    },
    {
      "inputs": [
        {
          "internalType": "uint256",
          "name": "_tokenId",
          "type": "uint256"
        }
      ],
      "name": "getTokenMetaData",
      "outputs": [
        {
          "internalType": "string",
          "name": "",
          "type": "string"
        }
      ],
      "stateMutability": "view",
      "type": "function",
      "constant": true
    },
    {
      "inputs": [
        {
          "internalType": "uint256",
          "name": "id",
          "type": "uint256"
        },
        {
          "internalType": "uint256",
          "name": "amount",
          "type": "uint256"
        }
      ],
      "name": "mintTokens",
      "outputs": [],
      "stateMutability": "nonpayable",
      "type": "function"
    },
    {
      "inputs": [
        {
          "internalType": "uint256",
          "name": "_amount",
          "type": "uint256"
        },
        {
          "internalType": "string",
          "name": "uriHash",
          "type": "string"
        },
        {
          "internalType": "uint256",
          "name": "_price",
          "type": "uint256"
        }
      ],
      "name": "mintMultipleTokens",
      "outputs": [],
      "stateMutability": "nonpayable",
      "type": "function"
    },
    {
      "inputs": [
        {
          "internalType": "uint256",
          "name": "_tokenId",
          "type": "uint256"
        }
      ],
      "name": "buySingleToken",
      "outputs": [],
      "stateMutability": "payable",
      "type": "function",
      "payable": true
    },
    {
      "inputs": [
        {
          "internalType": "uint256[]",
          "name": "_tokenIds",
          "type": "uint256[]"
        }
      ],
      "name": "buyMultipleTokens",
      "outputs": [],
      "stateMutability": "payable",
      "type": "function",
      "payable": true
    },
    {
      "inputs": [],
      "name": "buyRandomPack",
      "outputs": [],
      "stateMutability": "payable",
      "type": "function",
      "payable": true
    },
    {
      "inputs": [],
      "name": "withdraw",
      "outputs": [],
      "stateMutability": "nonpayable",
      "type": "function"
    }
  ],
  "bytecode": "0x6080604052662386f26fc1000060055560006006556000600755600060085560006009553480156200003057600080fd5b50604051806060016040528060258152602001620047ce60259139620000636301ffc9a760e01b6200017d60201b60201c565b62000074816200028660201b60201c565b6200008c63d9b67a2660e01b6200017d60201b60201c565b620000a4630e89341c60e01b6200017d60201b60201c565b50620000c663bc197c8160e01b63f23a6e6160e01b186200017d60201b60201c565b6000620000d8620002a260201b60201c565b905080600460006101000a81548173ffffffffffffffffffffffffffffffffffffffff021916908373ffffffffffffffffffffffffffffffffffffffff1602179055508073ffffffffffffffffffffffffffffffffffffffff16600073ffffffffffffffffffffffffffffffffffffffff167f8be0079c531659141344cd1fd0a4f28419497f9722a3daafe3b4186f6b6457e060405160405180910390a35062000350565b63ffffffff60e01b817bffffffffffffffffffffffffffffffffffffffffffffffffffffffff191614156200021a576040517f08c379a000000000000000000000000000000000000000000000000000000000815260040180806020018281038252601c8152602001807f4552433136353a20696e76616c696420696e746572666163652069640000000081525060200191505060405180910390fd5b6001600080837bffffffffffffffffffffffffffffffffffffffffffffffffffffffff19167bffffffffffffffffffffffffffffffffffffffffffffffffffffffff1916815260200190815260200160002060006101000a81548160ff02191690831515021790555050565b80600390805190602001906200029e929190620002aa565b5050565b600033905090565b828054600181600116156101000203166002900490600052602060002090601f016020900481019282601f10620002ed57805160ff19168380011785556200031e565b828001600101855582156200031e579182015b828111156200031d57825182559160200191906001019062000300565b5b5090506200032d919062000331565b5090565b5b808211156200034c57600081600090555060010162000332565b5090565b61446e80620003606000396000f3fe6080604052600436106101b65760003560e01c80637fc8db1e116100ec578063ba17060b1161008a578063e985e9c511610064578063e985e9c514610ff0578063f23a6e6114611077578063f242432a146111c6578063f2fde38b146112e2576101b6565b8063ba17060b14610d34578063bc197c8114610d3e578063d4ddce8a14610fa1576101b6565b806396eb038b116100c657806396eb038b14610afe5780639b1941db14610bd0578063a22cb46514610bfb578063b595d96014610c58576101b6565b80637fc8db1e14610a405780638da5cb5b14610a6e57806391e63def14610aaf576101b6565b80633b9c953e116101595780636153288c116101335780636153288c1461089657806367c623cf1461094a5780636a2b5bc8146109fe578063715018a614610a29576101b6565b80633b9c953e146106a65780633ccfd60b146106d15780634e1273f4146106e8576101b6565b80630e89341c116101955780630e89341c146102c55780632eb2c2d61461037957806334a7c2e7146105a957806337a19828146105ee576101b6565b8062fdd58e146101bb57806301ffc9a71461022a57806305bdc8c91461029a575b600080fd5b3480156101c757600080fd5b50610214600480360360408110156101de57600080fd5b81019080803573ffffffffffffffffffffffffffffffffffffffff16906020019092919080359060200190929190505050611333565b6040518082815260200191505060405180910390f35b34801561023657600080fd5b506102826004803603602081101561024d57600080fd5b8101908080357bffffffffffffffffffffffffffffffffffffffffffffffffffffffff19169060200190929190505050611413565b60405180821515815260200191505060405180910390f35b3480156102a657600080fd5b506102af61147a565b6040518082815260200191505060405180910390f35b3480156102d157600080fd5b506102fe600480360360208110156102e857600080fd5b8101908080359060200190929190505050611480565b6040518080602001828103825283818151815260200191508051906020019080838360005b8381101561033e578082015181840152602081019050610323565b50505050905090810190601f16801561036b5780820380516001836020036101000a031916815260200191505b509250505060405180910390f35b34801561038557600080fd5b506105a7600480360360a081101561039c57600080fd5b81019080803573ffffffffffffffffffffffffffffffffffffffff169060200190929190803573ffffffffffffffffffffffffffffffffffffffff169060200190929190803590602001906401000000008111156103f957600080fd5b82018360208201111561040b57600080fd5b8035906020019184602083028401116401000000008311171561042d57600080fd5b919080806020026020016040519081016040528093929190818152602001838360200280828437600081840152601f19601f8201169050808301925050505050505091929192908035906020019064010000000081111561048d57600080fd5b82018360208201111561049f57600080fd5b803590602001918460208302840111640100000000831117156104c157600080fd5b919080806020026020016040519081016040528093929190818152602001838360200280828437600081840152601f19601f8201169050808301925050505050505091929192908035906020019064010000000081111561052157600080fd5b82018360208201111561053357600080fd5b8035906020019184600183028401116401000000008311171561055557600080fd5b91908080601f016020809104026020016040519081016040528093929190818152602001838380828437600081840152601f19601f820116905080830192505050505050509192919290505050611524565b005b3480156105b557600080fd5b506105ec600480360360408110156105cc57600080fd5b8101908080359060200190929190803590602001909291905050506119af565b005b6106a46004803603602081101561060457600080fd5b810190808035906020019064010000000081111561062157600080fd5b82018360208201111561063357600080fd5b8035906020019184602083028401116401000000008311171561065557600080fd5b919080806020026020016040519081016040528093929190818152602001838360200280828437600081840152601f19601f820116905080830192505050505050509192919290505050611b00565b005b3480156106b257600080fd5b506106bb611da2565b6040518082815260200191505060405180910390f35b3480156106dd57600080fd5b506106e6611da8565b005b3480156106f457600080fd5b5061083f6004803603604081101561070b57600080fd5b810190808035906020019064010000000081111561072857600080fd5b82018360208201111561073a57600080fd5b8035906020019184602083028401116401000000008311171561075c57600080fd5b919080806020026020016040519081016040528093929190818152602001838360200280828437600081840152601f19601f820116905080830192505050505050509192919290803590602001906401000000008111156107bc57600080fd5b8201836020820111156107ce57600080fd5b803590602001918460208302840111640100000000831117156107f057600080fd5b919080806020026020016040519081016040528093929190818152602001838360200280828437600081840152601f19601f820116905080830192505050505050509192919290505050611e9b565b6040518080602001828103825283818151815260200191508051906020019060200280838360005b83811015610882578082015181840152602081019050610867565b505050509050019250505060405180910390f35b3480156108a257600080fd5b506108cf600480360360208110156108b957600080fd5b8101908080359060200190929190505050611fad565b6040518080602001828103825283818151815260200191508051906020019080838360005b8381101561090f5780820151818401526020810190506108f4565b50505050905090810190601f16801561093c5780820380516001836020036101000a031916815260200191505b509250505060405180910390f35b34801561095657600080fd5b506109836004803603602081101561096d57600080fd5b810190808035906020019092919050505061205d565b6040518080602001828103825283818151815260200191508051906020019080838360005b838110156109c35780820151818401526020810190506109a8565b50505050905090810190601f1680156109f05780820380516001836020036101000a031916815260200191505b509250505060405180910390f35b348015610a0a57600080fd5b50610a13612117565b6040518082815260200191505060405180910390f35b348015610a3557600080fd5b50610a3e61211d565b005b610a6c60048036036020811015610a5657600080fd5b810190808035906020019092919050505061228d565b005b348015610a7a57600080fd5b50610a8361245a565b604051808273ffffffffffffffffffffffffffffffffffffffff16815260200191505060405180910390f35b348015610abb57600080fd5b50610ae860048036036020811015610ad257600080fd5b8101908080359060200190929190505050612484565b6040518082815260200191505060405180910390f35b348015610b0a57600080fd5b50610bce60048036036040811015610b2157600080fd5b810190808035906020019092919080359060200190640100000000811115610b4857600080fd5b820183602082011115610b5a57600080fd5b80359060200191846001830284011164010000000083111715610b7c57600080fd5b91908080601f016020809104026020016040519081016040528093929190818152602001838380828437600081840152601f19601f82011690508083019250505050505050919291929050505061249c565b005b348015610bdc57600080fd5b50610be56124c8565b6040518082815260200191505060405180910390f35b348015610c0757600080fd5b50610c5660048036036040811015610c1e57600080fd5b81019080803573ffffffffffffffffffffffffffffffffffffffff1690602001909291908035151590602001909291905050506124ce565b005b348015610c6457600080fd5b50610d3260048036036060811015610c7b57600080fd5b810190808035906020019092919080359060200190640100000000811115610ca257600080fd5b820183602082011115610cb457600080fd5b80359060200191846001830284011164010000000083111715610cd657600080fd5b91908080601f016020809104026020016040519081016040528093929190818152602001838380828437600081840152601f19601f82011690508083019250505050505050919291929080359060200190929190505050612667565b005b610d3c6129bb565b005b348015610d4a57600080fd5b50610f6c600480360360a0811015610d6157600080fd5b81019080803573ffffffffffffffffffffffffffffffffffffffff169060200190929190803573ffffffffffffffffffffffffffffffffffffffff16906020019092919080359060200190640100000000811115610dbe57600080fd5b820183602082011115610dd057600080fd5b80359060200191846020830284011164010000000083111715610df257600080fd5b919080806020026020016040519081016040528093929190818152602001838360200280828437600081840152601f19601f82011690508083019250505050505050919291929080359060200190640100000000811115610e5257600080fd5b820183602082011115610e6457600080fd5b80359060200191846020830284011164010000000083111715610e8657600080fd5b919080806020026020016040519081016040528093929190818152602001838360200280828437600081840152601f19601f82011690508083019250505050505050919291929080359060200190640100000000811115610ee657600080fd5b820183602082011115610ef857600080fd5b80359060200191846001830284011164010000000083111715610f1a57600080fd5b91908080601f016020809104026020016040519081016040528093929190818152602001838380828437600081840152601f19601f820116905080830192505050505050509192919290505050612cbb565b60405180827bffffffffffffffffffffffffffffffffffffffffffffffffffffffff1916815260200191505060405180910390f35b348015610fad57600080fd5b50610fda60048036036020811015610fc457600080fd5b8101908080359060200190929190505050612cd0565b6040518082815260200191505060405180910390f35b348015610ffc57600080fd5b5061105f6004803603604081101561101357600080fd5b81019080803573ffffffffffffffffffffffffffffffffffffffff169060200190929190803573ffffffffffffffffffffffffffffffffffffffff169060200190929190505050612ce8565b60405180821515815260200191505060405180910390f35b34801561108357600080fd5b50611191600480360360a081101561109a57600080fd5b81019080803573ffffffffffffffffffffffffffffffffffffffff169060200190929190803573ffffffffffffffffffffffffffffffffffffffff16906020019092919080359060200190929190803590602001909291908035906020019064010000000081111561110b57600080fd5b82018360208201111561111d57600080fd5b8035906020019184600183028401116401000000008311171561113f57600080fd5b91908080601f016020809104026020016040519081016040528093929190818152602001838380828437600081840152601f19601f820116905080830192505050505050509192919290505050612d7c565b60405180827bffffffffffffffffffffffffffffffffffffffffffffffffffffffff1916815260200191505060405180910390f35b3480156111d257600080fd5b506112e0600480360360a08110156111e957600080fd5b81019080803573ffffffffffffffffffffffffffffffffffffffff169060200190929190803573ffffffffffffffffffffffffffffffffffffffff16906020019092919080359060200190929190803590602001909291908035906020019064010000000081111561125a57600080fd5b82018360208201111561126c57600080fd5b8035906020019184600183028401116401000000008311171561128e57600080fd5b91908080601f016020809104026020016040519081016040528093929190818152602001838380828437600081840152601f19601f820116905080830192505050505050509192919290505050612d91565b005b3480156112ee57600080fd5b506113316004803603602081101561130557600080fd5b81019080803573ffffffffffffffffffffffffffffffffffffffff169060200190929190505050613106565b005b60008073ffffffffffffffffffffffffffffffffffffffff168373ffffffffffffffffffffffffffffffffffffffff1614156113ba576040517f08c379a000000000000000000000000000000000000000000000000000000000815260040180806020018281038252602b815260200180614282602b913960400191505060405180910390fd5b6001600083815260200190815260200160002060008473ffffffffffffffffffffffffffffffffffffffff1673ffffffffffffffffffffffffffffffffffffffff16815260200190815260200160002054905092915050565b6000806000837bffffffffffffffffffffffffffffffffffffffffffffffffffffffff19167bffffffffffffffffffffffffffffffffffffffffffffffffffffffff1916815260200190815260200160002060009054906101000a900460ff169050919050565b60065481565b606060038054600181600116156101000203166002900480601f0160208091040260200160405190810160405280929190818152602001828054600181600116156101000203166002900480156115185780601f106114ed57610100808354040283529160200191611518565b820191906000526020600020905b8154815290600101906020018083116114fb57829003601f168201915b50505050509050919050565b815183511461157e576040517f08c379a00000000000000000000000000000000000000000000000000000000081526004018080602001828103825260288152602001806143f06028913960400191505060405180910390fd5b600073ffffffffffffffffffffffffffffffffffffffff168473ffffffffffffffffffffffffffffffffffffffff161415611604576040517f08c379a000000000000000000000000000000000000000000000000000000000815260040180806020018281038252602581526020018061431d6025913960400191505060405180910390fd5b61160c6132fb565b73ffffffffffffffffffffffffffffffffffffffff168573ffffffffffffffffffffffffffffffffffffffff16148061165257506116518561164c6132fb565b612ce8565b5b6116a7576040517f08c379a00000000000000000000000000000000000000000000000000000000081526004018080602001828103825260328152602001806143426032913960400191505060405180910390fd5b60006116b16132fb565b90506116c1818787878787613303565b60005b84518110156118925760008582815181106116db57fe5b6020026020010151905060008583815181106116f357fe5b6020026020010151905061177a816040518060600160405280602a8152602001614374602a91396001600086815260200190815260200160002060008d73ffffffffffffffffffffffffffffffffffffffff1673ffffffffffffffffffffffffffffffffffffffff1681526020019081526020016000205461330b9092919063ffffffff16565b6001600084815260200190815260200160002060008b73ffffffffffffffffffffffffffffffffffffffff1673ffffffffffffffffffffffffffffffffffffffff16815260200190815260200160002081905550611831816001600085815260200190815260200160002060008b73ffffffffffffffffffffffffffffffffffffffff1673ffffffffffffffffffffffffffffffffffffffff168152602001908152602001600020546133c590919063ffffffff16565b6001600084815260200190815260200160002060008a73ffffffffffffffffffffffffffffffffffffffff1673ffffffffffffffffffffffffffffffffffffffff1681526020019081526020016000208190555050508060010190506116c4565b508473ffffffffffffffffffffffffffffffffffffffff168673ffffffffffffffffffffffffffffffffffffffff168273ffffffffffffffffffffffffffffffffffffffff167f4a39dc06d4c0dbc64b70af90fd698a233a518aa5d07e595d983b8c0526c8f7fb8787604051808060200180602001838103835285818151815260200191508051906020019060200280838360005b83811015611942578082015181840152602081019050611927565b50505050905001838103825284818151815260200191508051906020019060200280838360005b83811015611984578082015181840152602081019050611969565b5050505090500194505050505060405180910390a46119a781878787878761344d565b505050505050565b600073ffffffffffffffffffffffffffffffffffffffff163373ffffffffffffffffffffffffffffffffffffffff1614156119e957600080fd5b60008111611a5f576040517f08c379a000000000000000000000000000000000000000000000000000000000815260040180806020018281038252601f8152602001807f416d6f756e742073686f756c642062652067726561746572207468656e20300081525060200191505060405180910390fd5b611a7a338383604051806020016040528060008152506137dc565b80600660008282540192505081905550806008600082825401925050819055506000600b6000848152602001908152602001600020541415611adb576007600081548092919060010191905055506009600081548092919060010191905055505b80600b6000848152602001908152602001600020600082825401925050819055505050565b60006005548251029050803414611b62576040517f08c379a00000000000000000000000000000000000000000000000000000000081526004018080602001828103825260238152602001806142376023913960400191505060405180910390fd5b6060825167ffffffffffffffff81118015611b7c57600080fd5b50604051908082528060200260200182016040528015611bab5781602001602082028036833780820191505090505b50905060005b8351811015611d80576000611bd930868481518110611bcc57fe5b6020026020010151611333565b90506001811015611c35576040517f08c379a00000000000000000000000000000000000000000000000000000000081526004018080602001828103825260218152602001806142fc6021913960400191505060405180910390fd5b6000600b6000878581518110611c4757fe5b602002602001015181526020019081526020016000205411611cd1576040517f08c379a000000000000000000000000000000000000000000000000000000000815260040180806020018281038252600b8152602001807f4e6f74206f6e2073616c6500000000000000000000000000000000000000000081525060200191505060405180910390fd5b6001600b6000878581518110611ce357fe5b602002602001015181526020019081526020016000206000828254039250508190555060016008600082825403925050819055506000600b6000878581518110611d2957fe5b60200260200101518152602001908152602001600020541415611d585760016009600082825403925050819055505b6001838381518110611d6657fe5b602002602001018181525050508080600101915050611bb1565b50611d9d3033858460405180602001604052806000815250611524565b505050565b60075481565b60004711611e1e576040517f08c379a00000000000000000000000000000000000000000000000000000000081526004018080602001828103825260188152602001807f42616c616e6365206d75737420626520706f736974697665000000000000000081525060200191505060405180910390fd5b60003373ffffffffffffffffffffffffffffffffffffffff164760405180600001905060006040518083038185875af1925050503d8060008114611e7e576040519150601f19603f3d011682016040523d82523d6000602084013e611e83565b606091505b505090506001151581151514611e9857600080fd5b50565b60608151835114611ef7576040517f08c379a00000000000000000000000000000000000000000000000000000000081526004018080602001828103825260298152602001806143c76029913960400191505060405180910390fd5b6060835167ffffffffffffffff81118015611f1157600080fd5b50604051908082528060200260200182016040528015611f405781602001602082028036833780820191505090505b50905060005b8451811015611fa257611f7f858281518110611f5e57fe5b6020026020010151858381518110611f7257fe5b6020026020010151611333565b828281518110611f8b57fe5b602002602001018181525050806001019050611f46565b508091505092915050565b600a6020528060005260406000206000915090508054600181600116156101000203166002900480601f0160208091040260200160405190810160405280929190818152602001828054600181600116156101000203166002900480156120555780601f1061202a57610100808354040283529160200191612055565b820191906000526020600020905b81548152906001019060200180831161203857829003601f168201915b505050505081565b606080600a60008481526020019081526020016000208054600181600116156101000203166002900480601f0160208091040260200160405190810160405280929190818152602001828054600181600116156101000203166002900480156121075780601f106120dc57610100808354040283529160200191612107565b820191906000526020600020905b8154815290600101906020018083116120ea57829003601f168201915b5050505050905080915050919050565b60095481565b6121256132fb565b73ffffffffffffffffffffffffffffffffffffffff1661214361245a565b73ffffffffffffffffffffffffffffffffffffffff16146121cc576040517f08c379a00000000000000000000000000000000000000000000000000000000081526004018080602001828103825260208152602001807f4f776e61626c653a2063616c6c6572206973206e6f7420746865206f776e657281525060200191505060405180910390fd5b600073ffffffffffffffffffffffffffffffffffffffff16600460009054906101000a900473ffffffffffffffffffffffffffffffffffffffff1673ffffffffffffffffffffffffffffffffffffffff167f8be0079c531659141344cd1fd0a4f28419497f9722a3daafe3b4186f6b6457e060405160405180910390a36000600460006101000a81548173ffffffffffffffffffffffffffffffffffffffff021916908373ffffffffffffffffffffffffffffffffffffffff160217905550565b60006122993383611333565b905060018110156122f5576040517f08c379a00000000000000000000000000000000000000000000000000000000081526004018080602001828103825260218152602001806142fc6021913960400191505060405180910390fd5b6000600b6000848152602001908152602001600020541161237e576040517f08c379a000000000000000000000000000000000000000000000000000000000815260040180806020018281038252600b8152602001807f4e6f74206f6e2073616c6500000000000000000000000000000000000000000081525060200191505060405180910390fd5b60055434146123d8576040517f08c379a00000000000000000000000000000000000000000000000000000000081526004018080602001828103825260238152602001806142376023913960400191505060405180910390fd5b6001600b60008481526020019081526020016000206000828254039250508190555060016008600082825403925050819055506000600b60008481526020019081526020016000205414156124395760016009600082825403925050819055505b612456303384600160405180602001604052806000815250612d91565b5050565b6000600460009054906101000a900473ffffffffffffffffffffffffffffffffffffffff16905090565b600b6020528060005260406000206000915090505481565b80600a600084815260200190815260200160002090805190602001906124c3929190614091565b505050565b60085481565b8173ffffffffffffffffffffffffffffffffffffffff166124ed6132fb565b73ffffffffffffffffffffffffffffffffffffffff16141561255a576040517f08c379a000000000000000000000000000000000000000000000000000000000815260040180806020018281038252602981526020018061439e6029913960400191505060405180910390fd5b80600260006125676132fb565b73ffffffffffffffffffffffffffffffffffffffff1673ffffffffffffffffffffffffffffffffffffffff16815260200190815260200160002060008473ffffffffffffffffffffffffffffffffffffffff1673ffffffffffffffffffffffffffffffffffffffff16815260200190815260200160002060006101000a81548160ff0219169083151502179055508173ffffffffffffffffffffffffffffffffffffffff166126146132fb565b73ffffffffffffffffffffffffffffffffffffffff167f17307eab39ab6107e8899845ad3d59bd9653f200f220920489ca2b5937696c318360405180821515815260200191505060405180910390a35050565b600073ffffffffffffffffffffffffffffffffffffffff163373ffffffffffffffffffffffffffffffffffffffff1614156126a157600080fd5b60008311612717576040517f08c379a000000000000000000000000000000000000000000000000000000000815260040180806020018281038252601f8152602001807f416d6f756e742073686f756c642062652067726561746572207468656e20300081525060200191505060405180910390fd5b60066000815480929190600101919050555060005b8381101561277e578060065401600d828154811061274657fe5b90600052602060002001819055506001600e828154811061276357fe5b9060005260206000200181905550808060010191505061272c565b5061283a33600d8054806020026020016040519081016040528092919081815260200182805480156127cf57602002820191906000526020600020905b8154815260200190600101908083116127bb575b5050505050600e80548060200260200160405190810160405280929190818152602001828054801561282057602002820191906000526020600020905b81548152602001906001019080831161280c575b5050505050604051806020016040528060008152506139df565b60005b838110156129b557600e818154811061285257fe5b9060005260206000200154600660008282540192505081905550600e818154811061287957fe5b906000526020600020015460086000828254019250508190555081600c6000600d84815481106128a557fe5b906000526020600020015481526020019081526020016000208190555082600a6000600d84815481106128d457fe5b906000526020600020015481526020019081526020016000209080519060200190612900929190614091565b506000600b6000600d848154811061291457fe5b90600052602060002001548152602001908152602001600020541415612959576007600081548092919060010191905055506009600081548092919060010191905055505b600e818154811061296657fe5b9060005260206000200154600b6000600d848154811061298257fe5b9060005260206000200154815260200190815260200160002060008282540192505081905550808060010191505061283d565b50505050565b600060085490506005546003023414612a1f576040517f08c379a00000000000000000000000000000000000000000000000000000000081526004018080602001828103825260238152602001806142376023913960400191505060405180910390fd5b6004811015612a79576040517f08c379a00000000000000000000000000000000000000000000000000000000081526004018080602001828103825260218152602001806142fc6021913960400191505060405180910390fd5b60004244430281612a8657fe5b0490506060600467ffffffffffffffff81118015612aa357600080fd5b50604051908082528060200260200182016040528015612ad25781602001602082028036833780820191505090505b5090506000806060600467ffffffffffffffff81118015612af257600080fd5b50604051908082528060200260200182016040528015612b215781602001602082028036833780820191505090505b5090505b60048214612c97576000600954848701604051602001808281526020019150506040516020818303038152906040528051906020012060001c81612b6557fe5b0690506000600b60008381526020019081526020016000205414612c89576001600b6000838152602001908152602001600020600082825403925050819055506000612bb13083611333565b90506001811015612c0d576040517f08c379a00000000000000000000000000000000000000000000000000000000081526004018080602001828103825260218152602001806142fc6021913960400191505060405180910390fd5b60016008600082825403925050819055506000600b6000848152602001908152602001600020541415612c4c5760016009600082825403925050819055505b81868581518110612c5957fe5b6020026020010181815250506001838581518110612c7357fe5b6020026020010181815250508380600101945050505b838060010194505050612b25565b612cb33033868460405180602001604052806000815250611524565b505050505050565b600063bc197c8160e01b905095945050505050565b600c6020528060005260406000206000915090505481565b6000600260008473ffffffffffffffffffffffffffffffffffffffff1673ffffffffffffffffffffffffffffffffffffffff16815260200190815260200160002060008373ffffffffffffffffffffffffffffffffffffffff1673ffffffffffffffffffffffffffffffffffffffff16815260200190815260200160002060009054906101000a900460ff16905092915050565b600063f23a6e6160e01b905095945050505050565b600073ffffffffffffffffffffffffffffffffffffffff168473ffffffffffffffffffffffffffffffffffffffff161415612e17576040517f08c379a000000000000000000000000000000000000000000000000000000000815260040180806020018281038252602581526020018061431d6025913960400191505060405180910390fd5b612e1f6132fb565b73ffffffffffffffffffffffffffffffffffffffff168573ffffffffffffffffffffffffffffffffffffffff161480612e655750612e6485612e5f6132fb565b612ce8565b5b612eba576040517f08c379a00000000000000000000000000000000000000000000000000000000081526004018080602001828103825260298152602001806142d36029913960400191505060405180910390fd5b6000612ec46132fb565b9050612ee4818787612ed588613d01565b612ede88613d01565b87613303565b612f61836040518060600160405280602a8152602001614374602a91396001600088815260200190815260200160002060008a73ffffffffffffffffffffffffffffffffffffffff1673ffffffffffffffffffffffffffffffffffffffff1681526020019081526020016000205461330b9092919063ffffffff16565b6001600086815260200190815260200160002060008873ffffffffffffffffffffffffffffffffffffffff1673ffffffffffffffffffffffffffffffffffffffff16815260200190815260200160002081905550613018836001600087815260200190815260200160002060008873ffffffffffffffffffffffffffffffffffffffff1673ffffffffffffffffffffffffffffffffffffffff168152602001908152602001600020546133c590919063ffffffff16565b6001600086815260200190815260200160002060008773ffffffffffffffffffffffffffffffffffffffff1673ffffffffffffffffffffffffffffffffffffffff168152602001908152602001600020819055508473ffffffffffffffffffffffffffffffffffffffff168673ffffffffffffffffffffffffffffffffffffffff168273ffffffffffffffffffffffffffffffffffffffff167fc3d58168c5ae7397731d063d5bbf3d657854427343f4c083240f7aacaa2d0f628787604051808381526020018281526020019250505060405180910390a46130fe818787878787613d71565b505050505050565b61310e6132fb565b73ffffffffffffffffffffffffffffffffffffffff1661312c61245a565b73ffffffffffffffffffffffffffffffffffffffff16146131b5576040517f08c379a00000000000000000000000000000000000000000000000000000000081526004018080602001828103825260208152602001807f4f776e61626c653a2063616c6c6572206973206e6f7420746865206f776e657281525060200191505060405180910390fd5b600073ffffffffffffffffffffffffffffffffffffffff168173ffffffffffffffffffffffffffffffffffffffff16141561323b576040517f08c379a00000000000000000000000000000000000000000000000000000000081526004018080602001828103825260268152602001806142ad6026913960400191505060405180910390fd5b8073ffffffffffffffffffffffffffffffffffffffff16600460009054906101000a900473ffffffffffffffffffffffffffffffffffffffff1673ffffffffffffffffffffffffffffffffffffffff167f8be0079c531659141344cd1fd0a4f28419497f9722a3daafe3b4186f6b6457e060405160405180910390a380600460006101000a81548173ffffffffffffffffffffffffffffffffffffffff021916908373ffffffffffffffffffffffffffffffffffffffff16021790555050565b600033905090565b505050505050565b60008383111582906133b8576040517f08c379a00000000000000000000000000000000000000000000000000000000081526004018080602001828103825283818151815260200191508051906020019080838360005b8381101561337d578082015181840152602081019050613362565b50505050905090810190601f1680156133aa5780820380516001836020036101000a031916815260200191505b509250505060405180910390fd5b5082840390509392505050565b600080828401905083811015613443576040517f08c379a000000000000000000000000000000000000000000000000000000000815260040180806020018281038252601b8152602001807f536166654d6174683a206164646974696f6e206f766572666c6f77000000000081525060200191505060405180910390fd5b8091505092915050565b61346c8473ffffffffffffffffffffffffffffffffffffffff1661407e565b156137d4578373ffffffffffffffffffffffffffffffffffffffff1663bc197c8187878686866040518663ffffffff1660e01b8152600401808673ffffffffffffffffffffffffffffffffffffffff1681526020018573ffffffffffffffffffffffffffffffffffffffff168152602001806020018060200180602001848103845287818151815260200191508051906020019060200280838360005b83811015613524578082015181840152602081019050613509565b50505050905001848103835286818151815260200191508051906020019060200280838360005b8381101561356657808201518184015260208101905061354b565b50505050905001848103825285818151815260200191508051906020019080838360005b838110156135a557808201518184015260208101905061358a565b50505050905090810190601f1680156135d25780820380516001836020036101000a031916815260200191505b5098505050505050505050602060405180830381600087803b1580156135f757600080fd5b505af192505050801561362b57506040513d602081101561361757600080fd5b810190808051906020019092919050505060015b6137355761363761414c565b8061364257506136e4565b806040517f08c379a00000000000000000000000000000000000000000000000000000000081526004018080602001828103825283818151815260200191508051906020019080838360005b838110156136a957808201518184015260208101905061368e565b50505050905090810190601f1680156136d65780820380516001836020036101000a031916815260200191505b509250505060405180910390fd5b6040517f08c379a00000000000000000000000000000000000000000000000000000000081526004018080602001828103825260348152602001806142036034913960400191505060405180910390fd5b63bc197c8160e01b7bffffffffffffffffffffffffffffffffffffffffffffffffffffffff1916817bffffffffffffffffffffffffffffffffffffffffffffffffffffffff1916146137d2576040517f08c379a000000000000000000000000000000000000000000000000000000000815260040180806020018281038252602881526020018061425a6028913960400191505060405180910390fd5b505b505050505050565b600073ffffffffffffffffffffffffffffffffffffffff168473ffffffffffffffffffffffffffffffffffffffff161415613862576040517f08c379a00000000000000000000000000000000000000000000000000000000081526004018080602001828103825260218152602001806144186021913960400191505060405180910390fd5b600061386c6132fb565b905061388d8160008761387e88613d01565b61388788613d01565b87613303565b6138f0836001600087815260200190815260200160002060008873ffffffffffffffffffffffffffffffffffffffff1673ffffffffffffffffffffffffffffffffffffffff168152602001908152602001600020546133c590919063ffffffff16565b6001600086815260200190815260200160002060008773ffffffffffffffffffffffffffffffffffffffff1673ffffffffffffffffffffffffffffffffffffffff168152602001908152602001600020819055508473ffffffffffffffffffffffffffffffffffffffff16600073ffffffffffffffffffffffffffffffffffffffff168273ffffffffffffffffffffffffffffffffffffffff167fc3d58168c5ae7397731d063d5bbf3d657854427343f4c083240f7aacaa2d0f628787604051808381526020018281526020019250505060405180910390a46139d881600087878787613d71565b5050505050565b600073ffffffffffffffffffffffffffffffffffffffff168473ffffffffffffffffffffffffffffffffffffffff161415613a65576040517f08c379a00000000000000000000000000000000000000000000000000000000081526004018080602001828103825260218152602001806144186021913960400191505060405180910390fd5b8151835114613abf576040517f08c379a00000000000000000000000000000000000000000000000000000000081526004018080602001828103825260288152602001806143f06028913960400191505060405180910390fd5b6000613ac96132fb565b9050613ada81600087878787613303565b60005b8451811015613be357613b6f60016000878481518110613af957fe5b6020026020010151815260200190815260200160002060008873ffffffffffffffffffffffffffffffffffffffff1673ffffffffffffffffffffffffffffffffffffffff16815260200190815260200160002054858381518110613b5957fe5b60200260200101516133c590919063ffffffff16565b60016000878481518110613b7f57fe5b6020026020010151815260200190815260200160002060008873ffffffffffffffffffffffffffffffffffffffff1673ffffffffffffffffffffffffffffffffffffffff168152602001908152602001600020819055508080600101915050613add565b508473ffffffffffffffffffffffffffffffffffffffff16600073ffffffffffffffffffffffffffffffffffffffff168273ffffffffffffffffffffffffffffffffffffffff167f4a39dc06d4c0dbc64b70af90fd698a233a518aa5d07e595d983b8c0526c8f7fb8787604051808060200180602001838103835285818151815260200191508051906020019060200280838360005b83811015613c94578082015181840152602081019050613c79565b50505050905001838103825284818151815260200191508051906020019060200280838360005b83811015613cd6578082015181840152602081019050613cbb565b5050505090500194505050505060405180910390a4613cfa8160008787878761344d565b5050505050565b606080600167ffffffffffffffff81118015613d1c57600080fd5b50604051908082528060200260200182016040528015613d4b5781602001602082028036833780820191505090505b5090508281600081518110613d5c57fe5b60200260200101818152505080915050919050565b613d908473ffffffffffffffffffffffffffffffffffffffff1661407e565b15614076578373ffffffffffffffffffffffffffffffffffffffff1663f23a6e6187878686866040518663ffffffff1660e01b8152600401808673ffffffffffffffffffffffffffffffffffffffff1681526020018573ffffffffffffffffffffffffffffffffffffffff16815260200184815260200183815260200180602001828103825283818151815260200191508051906020019080838360005b83811015613e49578082015181840152602081019050613e2e565b50505050905090810190601f168015613e765780820380516001836020036101000a031916815260200191505b509650505050505050602060405180830381600087803b158015613e9957600080fd5b505af1925050508015613ecd57506040513d6020811015613eb957600080fd5b810190808051906020019092919050505060015b613fd757613ed961414c565b80613ee45750613f86565b806040517f08c379a00000000000000000000000000000000000000000000000000000000081526004018080602001828103825283818151815260200191508051906020019080838360005b83811015613f4b578082015181840152602081019050613f30565b50505050905090810190601f168015613f785780820380516001836020036101000a031916815260200191505b509250505060405180910390fd5b6040517f08c379a00000000000000000000000000000000000000000000000000000000081526004018080602001828103825260348152602001806142036034913960400191505060405180910390fd5b63f23a6e6160e01b7bffffffffffffffffffffffffffffffffffffffffffffffffffffffff1916817bffffffffffffffffffffffffffffffffffffffffffffffffffffffff191614614074576040517f08c379a000000000000000000000000000000000000000000000000000000000815260040180806020018281038252602881526020018061425a6028913960400191505060405180910390fd5b505b505050505050565b600080823b905060008111915050919050565b828054600181600116156101000203166002900490600052602060002090601f016020900481019282601f106140d257805160ff1916838001178555614100565b82800160010185558215614100579182015b828111156140ff5782518255916020019190600101906140e4565b5b50905061410d9190614111565b5090565b5b8082111561412a576000816000905550600101614112565b5090565b6000601f19601f8301169050919050565b60008160e01c9050919050565b600060443d101561415c576141ff565b60046000803e61416d60005161413f565b6308c379a0811461417e57506141ff565b60405160043d036004823e80513d602482011167ffffffffffffffff821117156141aa575050506141ff565b808201805167ffffffffffffffff8111156141c95750505050506141ff565b8060208301013d85018111156141e4575050505050506141ff565b6141ed8261412e565b60208401016040528296505050505050505b9056fe455243313135353a207472616e7366657220746f206e6f6e2045524331313535526563656976657220696d706c656d656e74657245746865722073656e7420646f6573206e6f74206d6174636820746865207072696365455243313135353a204552433131353552656365697665722072656a656374656420746f6b656e73455243313135353a2062616c616e636520717565727920666f7220746865207a65726f20616464726573734f776e61626c653a206e6577206f776e657220697320746865207a65726f2061646472657373455243313135353a2063616c6c6572206973206e6f74206f776e6572206e6f7220617070726f766564496e73756666696369656e742062616c616e636520666f72207472616e73666572455243313135353a207472616e7366657220746f20746865207a65726f2061646472657373455243313135353a207472616e736665722063616c6c6572206973206e6f74206f776e6572206e6f7220617070726f766564455243313135353a20696e73756666696369656e742062616c616e636520666f72207472616e73666572455243313135353a2073657474696e6720617070726f76616c2073746174757320666f722073656c66455243313135353a206163636f756e747320616e6420696473206c656e677468206d69736d61746368455243313135353a2069647320616e6420616d6f756e7473206c656e677468206d69736d61746368455243313135353a206d696e7420746f20746865207a65726f2061646472657373a26469706673582212201ca9e4feb4cfb8e2864ed550391baff2e5edebbb89cebc1a29906ce92479944e64736f6c634300060c003368747470733a2f2f697066732e696e667572612e696f2f697066732f7b69647d2e6a736f6e",
  "immutableReferences": {},
  "source": "// SPDX-License-Identifier: MIT\n\npragma solidity >=0.6.0 <0.8.0;\n\n//import \"@openzeppelin/contracts/utils/Context.sol\";\nimport \"@openzeppelin/contracts/token/ERC1155/ERC1155.sol\";\n//import \"@openzeppelin/contracts/token/ERC1155/IERC1155.sol\";\nimport \"@openzeppelin/contracts/token/ERC1155/ERC1155Holder.sol\";\n//import \"@openzeppelin/contracts/token/ERC1155/IERC1155MetadataURI.sol\";\n//import \"@openzeppelin/contracts/token/ERC1155/IERC1155Receiver.sol\";\n//import \"@openzeppelin/contracts/introspection/ERC165.sol\";\nimport \"@openzeppelin/contracts/access/Ownable.sol\";\n//import \"github.com/Arachnid/solidity-stringutils/strings.sol\";\n\ncontract DigiFashionERC1155 is ERC1155, ERC1155Holder, Ownable {\n\n  // 1 Ether = 100 tokens (1 Token = 0.01 Ether)\n  uint256 private rate = 10**16;\n  // Total number of Tokens minted\n  uint256 public _tokensMintedCount = 0;\n  // Total number of unique Tokens minted\n  uint256 public _tokensUniqueMintedCount = 0;\n  // Total number of Tokens for Sale (on platform)\n  uint256 public _tokensForSaleCount = 0;\n  // Total number of unique Tokens for Sale (on platform)\n  uint256 public _tokensUniqueForSaleCount = 0;\n\n  // id => tokenUri\n  mapping(uint256 => string) public tokensUri;\n  // id => balance (For Sale, on platform)\n  mapping(uint256 => uint256) public tokensBalances;\n  //id => price\n  mapping(uint256 => uint256) public tokenPrice;\n\n\n  uint[] ids;\n  uint[] amounts;\n\n  constructor()public ERC1155(\"https://ipfs.infura.io/ipfs/{id}.json\") {}\n \n//   function supportsInterface(bytes4 interfaceId)\n//     public\n//     view\n//     virtual\n//     override(ERC1155, ERC1155Receiver)\n//     returns (bool) {\n//     return super.supportsInterface(interfaceId);\n//   }\n\n  // Update Token metadata\n  function updateTokenMetaData(uint _tokenId, string memory _urihash) external {\n    tokensUri[_tokenId] = _urihash;\n  }\n\n  // Get metadata of the token\n  function getTokenMetaData(uint _tokenId) public view returns(string memory) {\n    string memory tokenMetaData = tokensUri[_tokenId];\n    return tokenMetaData;\n  }\n\n  // Mint multiple tokens of the same id\n  function mintTokens(uint256 id,uint256 amount) external {\n    // check if thic fucntion caller is not an zero address account\n    require(msg.sender != address(0));\n    require(amount > 0, \"Amount should be greater then 0\");\n    _mint(msg.sender, id, amount, \"\");\n    _tokensMintedCount += amount;  \n    _tokensForSaleCount += amount;  \n    \n    if (tokensBalances[id] == 0) {\n      // If new token\n      _tokensUniqueMintedCount ++;\n      _tokensUniqueForSaleCount ++;\n    }\n    tokensBalances[id] += amount;\n  }\n\n  // Can mint multiple tokens (even with the same id).\n  function mintMultipleTokens(uint256 _amount,string memory uriHash,uint256 _price) external {\n    // check if this function caller is not an zero address account\n    require(msg.sender != address(0));\n    require(_amount > 0, \"Amount should be greater then 0\");\n    //require(ids.length > 0, \"Amount should be greater then 0\");\n    \n    _tokensMintedCount++;\n    for(uint256 i = 0; i < _amount; i++){\n        ids[i]=_tokensMintedCount+i;\n        //ids.push((_tokensMintedCount+i));\n        amounts[i]=1;\n       // amounts.push(1);\n        \n    } \n\n    _mintBatch(msg.sender, ids, amounts, \"\");\n    \n    for(uint256 j = 0; j < _amount; j++) {\n      //require(amounts[i] > 0, \"Amount should be greater then 0\");\n\n      _tokensMintedCount += amounts[j];  \n      _tokensForSaleCount += amounts[j];  \n      tokenPrice[ids[j]]=_price;\n      tokensUri[ids[j]]=uriHash;\n      if (tokensBalances[ids[j]] == 0) {\n        // If new token\n        _tokensUniqueMintedCount ++;\n        _tokensUniqueForSaleCount ++;\n      }\n      tokensBalances[ids[j]] += amounts[j];\n    }\n  }\n\n  // Buy Single Token\n  function buySingleToken(uint256 _tokenId) public payable {\n    uint256 fromBalance = balanceOf(msg.sender, _tokenId);\n\n    require(fromBalance >= 1, \"Insufficient balance for transfer\");\n    require(tokensBalances[_tokenId] > 0, \"Not on sale\");\n    \n    require(msg.value == rate, \"Ether sent does not match the price\");\n\n    // Removing from tokenBalances\n    tokensBalances[_tokenId] -= 1;\n    _tokensForSaleCount -= 1;\n    if(tokensBalances[_tokenId] == 0) {\n      _tokensUniqueForSaleCount -= 1;\n    }\n\n    // Transfer\n    safeTransferFrom(address(this), msg.sender, _tokenId, 1, \"\");\n  }\n\n  // Buy Multiple Tokens\n  function buyMultipleTokens(uint256[] memory _tokenIds) public payable {\n    uint256 totalPrice = _tokenIds.length * rate;\n    require(msg.value  == totalPrice, \"Ether sent does not match the price\");\n    \n    uint256[] memory counts = new uint256[](_tokenIds.length);\n\n    for(uint256 i = 0; i < _tokenIds.length; i++) {\n      uint256 fromBalance = balanceOf(address(this), _tokenIds[i]);\n\n      require(fromBalance >= 1, \"Insufficient balance for transfer\");\n      require(tokensBalances[_tokenIds[i]] > 0, \"Not on sale\");\n\n      // Removing from tokenBalances\n      tokensBalances[_tokenIds[i]] -= 1;\n      _tokensForSaleCount -= 1;\n      if(tokensBalances[_tokenIds[i]] == 0) {\n        _tokensUniqueForSaleCount -= 1;\n      }\n\n      counts[i] = 1;\n    }\n\n    safeBatchTransferFrom(address(this), msg.sender, _tokenIds, counts, \"\");\n  }\n\n  // Buy Pack (Gives Random 4 tokens)\n  function buyRandomPack() public payable {\n    uint256 totalTokensAvailable = _tokensForSaleCount; \n    \n    require(msg.value == 3 * rate, \"Ether sent does not match the price\");\n    require(totalTokensAvailable >= 4, \"Insufficient balance for transfer\");\n    \n    uint256 preHash = (block.number * block.difficulty) / block.timestamp;\n    uint256[] memory selectedIds = new uint256[](4);\n    \n    uint256 i = 0;\n    uint256 count = 0;\n    uint256[] memory counts = new uint256[](4);\n    while(count != 4) {\n      // Equal chance of unique tokens, can be duplicate\n      uint256 selectedId =\n            uint256(keccak256(abi.encode(preHash + i))) %\n                _tokensUniqueForSaleCount;\n\n      if(tokensBalances[selectedId] != 0) {\n        tokensBalances[selectedId] -= 1;\n        uint256 fromBalance = balanceOf(address(this), selectedId);\n\n        require(fromBalance >= 1, \"Insufficient balance for transfer\");\n      \n        _tokensForSaleCount -= 1;\n        if(tokensBalances[selectedId] == 0) {\n          _tokensUniqueForSaleCount -= 1;\n        } \n        \n        selectedIds[count] = selectedId;\n        counts[count] = 1;\n        count ++;\n      }\n\n      i ++;      \n    }\n\n    safeBatchTransferFrom(address(this), msg.sender, selectedIds, counts, \"\");\n  }\n\n  // Withdraw ether from contract.\n  function withdraw() external {\n    require(address(this).balance > 0, \"Balance must be positive\");\n    \n    (bool success, ) = msg.sender.call{value: address(this).balance}(\"\");\n    \n    require(success == true);\n  }\n\n}\n",
  "sourcePath": "C:\\Users\\mehta\\git\\fashion-nft\\src\\contracts\\DigiFashionERC1155.sol",
  "compiler": {
    "name": "solc",
    "version": "0.6.12+commit.27d51765.Emscripten.clang"
  },
  "schemaVersion": "3.4.3",
  "updatedAt": "2021-11-10T03:28:04.655Z",
  "networkType": "ethereum",
  "devdoc": {
    "kind": "dev",
    "methods": {
      "balanceOf(address,uint256)": {
        "details": "See {IERC1155-balanceOf}. Requirements: - `account` cannot be the zero address."
      },
      "balanceOfBatch(address[],uint256[])": {
        "details": "See {IERC1155-balanceOfBatch}. Requirements: - `accounts` and `ids` must have the same length."
      },
      "isApprovedForAll(address,address)": {
        "details": "See {IERC1155-isApprovedForAll}."
      },
      "owner()": {
        "details": "Returns the address of the current owner."
      },
      "renounceOwnership()": {
        "details": "Leaves the contract without owner. It will not be possible to call `onlyOwner` functions anymore. Can only be called by the current owner. NOTE: Renouncing ownership will leave the contract without an owner, thereby removing any functionality that is only available to the owner."
      },
      "safeBatchTransferFrom(address,address,uint256[],uint256[],bytes)": {
        "details": "See {IERC1155-safeBatchTransferFrom}."
      },
      "safeTransferFrom(address,address,uint256,uint256,bytes)": {
        "details": "See {IERC1155-safeTransferFrom}."
      },
      "setApprovalForAll(address,bool)": {
        "details": "See {IERC1155-setApprovalForAll}."
      },
      "supportsInterface(bytes4)": {
        "details": "See {IERC165-supportsInterface}. Time complexity O(1), guaranteed to always use less than 30 000 gas."
      },
      "transferOwnership(address)": {
        "details": "Transfers ownership of the contract to a new account (`newOwner`). Can only be called by the current owner."
      },
      "uri(uint256)": {
        "details": "See {IERC1155MetadataURI-uri}. This implementation returns the same URI for *all* token types. It relies on the token type ID substitution mechanism https://eips.ethereum.org/EIPS/eip-1155#metadata[defined in the EIP]. Clients calling this function must replace the `\\{id\\}` substring with the actual token type ID."
      }
    },
    "version": 1
  },
  "userdoc": {
    "kind": "user",
    "methods": {},
    "version": 1
  }
}