{
  "contractName": "DigiFashion",
  "abi": [
    {
      "inputs": [],
      "stateMutability": "nonpayable",
      "type": "constructor"
    },
    {
      "anonymous": false,
      "inputs": [
        {
          "indexed": true,
          "internalType": "address",
          "name": "owner",
          "type": "address"
        },
        {
          "indexed": true,
          "internalType": "address",
          "name": "approved",
          "type": "address"
        },
        {
          "indexed": true,
          "internalType": "uint256",
          "name": "tokenId",
          "type": "uint256"
        }
      ],
      "name": "Approval",
      "type": "event"
    },
    {
      "anonymous": false,
      "inputs": [
        {
          "indexed": true,
          "internalType": "address",
          "name": "owner",
          "type": "address"
        },
        {
          "indexed": true,
          "internalType": "address",
          "name": "operator",
          "type": "address"
        },
        {
          "indexed": false,
          "internalType": "bool",
          "name": "approved",
          "type": "bool"
        }
      ],
      "name": "ApprovalForAll",
      "type": "event"
    },
    {
      "anonymous": false,
      "inputs": [
        {
          "indexed": true,
          "internalType": "address",
          "name": "from",
          "type": "address"
        },
        {
          "indexed": true,
          "internalType": "address",
          "name": "to",
          "type": "address"
        },
        {
          "indexed": true,
          "internalType": "uint256",
          "name": "tokenId",
          "type": "uint256"
        }
      ],
      "name": "Transfer",
      "type": "event"
    },
    {
      "inputs": [
        {
          "internalType": "uint256",
          "name": "",
          "type": "uint256"
        }
      ],
      "name": "allCryptoBoys",
      "outputs": [
        {
          "internalType": "uint256",
          "name": "tokenId",
          "type": "uint256"
        },
        {
          "internalType": "string",
          "name": "tokenName",
          "type": "string"
        },
        {
          "internalType": "string",
          "name": "tokenURI",
          "type": "string"
        },
        {
          "internalType": "address payable",
          "name": "mintedBy",
          "type": "address"
        },
        {
          "internalType": "address payable",
          "name": "currentOwner",
          "type": "address"
        },
        {
          "internalType": "address payable",
          "name": "previousOwner",
          "type": "address"
        },
        {
          "internalType": "uint256",
          "name": "price",
          "type": "uint256"
        },
        {
          "internalType": "uint256",
          "name": "dressPrice",
          "type": "uint256"
        },
        {
          "internalType": "string",
          "name": "imageHash",
          "type": "string"
        },
        {
          "internalType": "uint256",
          "name": "numberOfTransfers",
          "type": "uint256"
        },
        {
          "internalType": "bool",
          "name": "forSale",
          "type": "bool"
        }
      ],
      "stateMutability": "view",
      "type": "function",
      "constant": true
    },
    {
      "inputs": [
        {
          "internalType": "address",
          "name": "to",
          "type": "address"
        },
        {
          "internalType": "uint256",
          "name": "tokenId",
          "type": "uint256"
        }
      ],
      "name": "approve",
      "outputs": [],
      "stateMutability": "nonpayable",
      "type": "function"
    },
    {
      "inputs": [
        {
          "internalType": "address",
          "name": "owner",
          "type": "address"
        }
      ],
      "name": "balanceOf",
      "outputs": [
        {
          "internalType": "uint256",
          "name": "",
          "type": "uint256"
        }
      ],
      "stateMutability": "view",
      "type": "function",
      "constant": true
    },
    {
      "inputs": [],
      "name": "baseURI",
      "outputs": [
        {
          "internalType": "string",
          "name": "",
          "type": "string"
        }
      ],
      "stateMutability": "view",
      "type": "function",
      "constant": true
    },
    {
      "inputs": [],
      "name": "collectionName",
      "outputs": [
        {
          "internalType": "string",
          "name": "",
          "type": "string"
        }
      ],
      "stateMutability": "view",
      "type": "function",
      "constant": true
    },
    {
      "inputs": [],
      "name": "collectionNameSymbol",
      "outputs": [
        {
          "internalType": "string",
          "name": "",
          "type": "string"
        }
      ],
      "stateMutability": "view",
      "type": "function",
      "constant": true
    },
    {
      "inputs": [],
      "name": "cryptoBoyCounter",
      "outputs": [
        {
          "internalType": "uint256",
          "name": "",
          "type": "uint256"
        }
      ],
      "stateMutability": "view",
      "type": "function",
      "constant": true
    },
    {
      "inputs": [],
      "name": "deployer",
      "outputs": [
        {
          "internalType": "address",
          "name": "",
          "type": "address"
        }
      ],
      "stateMutability": "view",
      "type": "function",
      "constant": true
    },
    {
      "inputs": [
        {
          "internalType": "uint256",
          "name": "tokenId",
          "type": "uint256"
        }
      ],
      "name": "getApproved",
      "outputs": [
        {
          "internalType": "address",
          "name": "",
          "type": "address"
        }
      ],
      "stateMutability": "view",
      "type": "function",
      "constant": true
    },
    {
      "inputs": [
        {
          "internalType": "string",
          "name": "",
          "type": "string"
        }
      ],
      "name": "imageExists",
      "outputs": [
        {
          "internalType": "bool",
          "name": "",
          "type": "bool"
        }
      ],
      "stateMutability": "view",
      "type": "function",
      "constant": true
    },
    {
      "inputs": [
        {
          "internalType": "address",
          "name": "owner",
          "type": "address"
        },
        {
          "internalType": "address",
          "name": "operator",
          "type": "address"
        }
      ],
      "name": "isApprovedForAll",
      "outputs": [
        {
          "internalType": "bool",
          "name": "",
          "type": "bool"
        }
      ],
      "stateMutability": "view",
      "type": "function",
      "constant": true
    },
    {
      "inputs": [],
      "name": "name",
      "outputs": [
        {
          "internalType": "string",
          "name": "",
          "type": "string"
        }
      ],
      "stateMutability": "view",
      "type": "function",
      "constant": true
    },
    {
      "inputs": [
        {
          "internalType": "string",
          "name": "",
          "type": "string"
        }
      ],
      "name": "nameToCryptoBoy",
      "outputs": [
        {
          "internalType": "uint256",
          "name": "tokenId",
          "type": "uint256"
        },
        {
          "internalType": "string",
          "name": "tokenName",
          "type": "string"
        },
        {
          "internalType": "string",
          "name": "tokenURI",
          "type": "string"
        },
        {
          "internalType": "address payable",
          "name": "mintedBy",
          "type": "address"
        },
        {
          "internalType": "address payable",
          "name": "currentOwner",
          "type": "address"
        },
        {
          "internalType": "address payable",
          "name": "previousOwner",
          "type": "address"
        },
        {
          "internalType": "uint256",
          "name": "price",
          "type": "uint256"
        },
        {
          "internalType": "uint256",
          "name": "dressPrice",
          "type": "uint256"
        },
        {
          "internalType": "string",
          "name": "imageHash",
          "type": "string"
        },
        {
          "internalType": "uint256",
          "name": "numberOfTransfers",
          "type": "uint256"
        },
        {
          "internalType": "bool",
          "name": "forSale",
          "type": "bool"
        }
      ],
      "stateMutability": "view",
      "type": "function",
      "constant": true
    },
    {
      "inputs": [
        {
          "internalType": "string",
          "name": "",
          "type": "string"
        }
      ],
      "name": "nameToId",
      "outputs": [
        {
          "internalType": "uint256",
          "name": "",
          "type": "uint256"
        }
      ],
      "stateMutability": "view",
      "type": "function",
      "constant": true
    },
    {
      "inputs": [
        {
          "internalType": "uint256",
          "name": "tokenId",
          "type": "uint256"
        }
      ],
      "name": "ownerOf",
      "outputs": [
        {
          "internalType": "address",
          "name": "",
          "type": "address"
        }
      ],
      "stateMutability": "view",
      "type": "function",
      "constant": true
    },
    {
      "inputs": [
        {
          "internalType": "address",
          "name": "from",
          "type": "address"
        },
        {
          "internalType": "address",
          "name": "to",
          "type": "address"
        },
        {
          "internalType": "uint256",
          "name": "tokenId",
          "type": "uint256"
        }
      ],
      "name": "safeTransferFrom",
      "outputs": [],
      "stateMutability": "nonpayable",
      "type": "function"
    },
    {
      "inputs": [
        {
          "internalType": "address",
          "name": "from",
          "type": "address"
        },
        {
          "internalType": "address",
          "name": "to",
          "type": "address"
        },
        {
          "internalType": "uint256",
          "name": "tokenId",
          "type": "uint256"
        },
        {
          "internalType": "bytes",
          "name": "_data",
          "type": "bytes"
        }
      ],
      "name": "safeTransferFrom",
      "outputs": [],
      "stateMutability": "nonpayable",
      "type": "function"
    },
    {
      "inputs": [
        {
          "internalType": "address",
          "name": "operator",
          "type": "address"
        },
        {
          "internalType": "bool",
          "name": "approved",
          "type": "bool"
        }
      ],
      "name": "setApprovalForAll",
      "outputs": [],
      "stateMutability": "nonpayable",
      "type": "function"
    },
    {
      "inputs": [
        {
          "internalType": "bytes4",
          "name": "interfaceId",
          "type": "bytes4"
        }
      ],
      "name": "supportsInterface",
      "outputs": [
        {
          "internalType": "bool",
          "name": "",
          "type": "bool"
        }
      ],
      "stateMutability": "view",
      "type": "function",
      "constant": true
    },
    {
      "inputs": [],
      "name": "symbol",
      "outputs": [
        {
          "internalType": "string",
          "name": "",
          "type": "string"
        }
      ],
      "stateMutability": "view",
      "type": "function",
      "constant": true
    },
    {
      "inputs": [
        {
          "internalType": "uint256",
          "name": "index",
          "type": "uint256"
        }
      ],
      "name": "tokenByIndex",
      "outputs": [
        {
          "internalType": "uint256",
          "name": "",
          "type": "uint256"
        }
      ],
      "stateMutability": "view",
      "type": "function",
      "constant": true
    },
    {
      "inputs": [
        {
          "internalType": "uint256",
          "name": "",
          "type": "uint256"
        }
      ],
      "name": "tokenIdExists",
      "outputs": [
        {
          "internalType": "bool",
          "name": "",
          "type": "bool"
        }
      ],
      "stateMutability": "view",
      "type": "function",
      "constant": true
    },
    {
      "inputs": [
        {
          "internalType": "string",
          "name": "",
          "type": "string"
        }
      ],
      "name": "tokenNameExists",
      "outputs": [
        {
          "internalType": "bool",
          "name": "",
          "type": "bool"
        }
      ],
      "stateMutability": "view",
      "type": "function",
      "constant": true
    },
    {
      "inputs": [
        {
          "internalType": "address",
          "name": "owner",
          "type": "address"
        },
        {
          "internalType": "uint256",
          "name": "index",
          "type": "uint256"
        }
      ],
      "name": "tokenOfOwnerByIndex",
      "outputs": [
        {
          "internalType": "uint256",
          "name": "",
          "type": "uint256"
        }
      ],
      "stateMutability": "view",
      "type": "function",
      "constant": true
    },
    {
      "inputs": [
        {
          "internalType": "uint256",
          "name": "tokenId",
          "type": "uint256"
        }
      ],
      "name": "tokenURI",
      "outputs": [
        {
          "internalType": "string",
          "name": "",
          "type": "string"
        }
      ],
      "stateMutability": "view",
      "type": "function",
      "constant": true
    },
    {
      "inputs": [
        {
          "internalType": "string",
          "name": "",
          "type": "string"
        }
      ],
      "name": "tokenURIExists",
      "outputs": [
        {
          "internalType": "bool",
          "name": "",
          "type": "bool"
        }
      ],
      "stateMutability": "view",
      "type": "function",
      "constant": true
    },
    {
      "inputs": [],
      "name": "totalSupply",
      "outputs": [
        {
          "internalType": "uint256",
          "name": "",
          "type": "uint256"
        }
      ],
      "stateMutability": "view",
      "type": "function",
      "constant": true
    },
    {
      "inputs": [
        {
          "internalType": "address",
          "name": "from",
          "type": "address"
        },
        {
          "internalType": "address",
          "name": "to",
          "type": "address"
        },
        {
          "internalType": "uint256",
          "name": "tokenId",
          "type": "uint256"
        }
      ],
      "name": "transferFrom",
      "outputs": [],
      "stateMutability": "nonpayable",
      "type": "function"
    },
    {
      "inputs": [
        {
          "internalType": "string",
          "name": "_name",
          "type": "string"
        },
        {
          "internalType": "string",
          "name": "_tokenURI",
          "type": "string"
        },
        {
          "internalType": "uint256",
          "name": "_price",
          "type": "uint256"
        },
        {
          "internalType": "uint256",
          "name": "_dressPrice",
          "type": "uint256"
        },
        {
          "internalType": "string",
          "name": "_imageHash",
          "type": "string"
        }
      ],
      "name": "mintCryptoBoy",
      "outputs": [],
      "stateMutability": "nonpayable",
      "type": "function"
    },
    {
      "inputs": [
        {
          "internalType": "uint256",
          "name": "_tokenId",
          "type": "uint256"
        }
      ],
      "name": "getTokenOwner",
      "outputs": [
        {
          "internalType": "address",
          "name": "",
          "type": "address"
        }
      ],
      "stateMutability": "view",
      "type": "function",
      "constant": true
    },
    {
      "inputs": [
        {
          "internalType": "uint256",
          "name": "_tokenId",
          "type": "uint256"
        }
      ],
      "name": "getTokenMetaData",
      "outputs": [
        {
          "internalType": "string",
          "name": "",
          "type": "string"
        }
      ],
      "stateMutability": "view",
      "type": "function",
      "constant": true
    },
    {
      "inputs": [],
      "name": "getNumberOfTokensMinted",
      "outputs": [
        {
          "internalType": "uint256",
          "name": "",
          "type": "uint256"
        }
      ],
      "stateMutability": "view",
      "type": "function",
      "constant": true
    },
    {
      "inputs": [
        {
          "internalType": "address",
          "name": "_owner",
          "type": "address"
        }
      ],
      "name": "getTotalNumberOfTokensOwnedByAnAddress",
      "outputs": [
        {
          "internalType": "uint256",
          "name": "",
          "type": "uint256"
        }
      ],
      "stateMutability": "view",
      "type": "function",
      "constant": true
    },
    {
      "inputs": [
        {
          "internalType": "uint256",
          "name": "_tokenId",
          "type": "uint256"
        }
      ],
      "name": "getTokenExists",
      "outputs": [
        {
          "internalType": "bool",
          "name": "",
          "type": "bool"
        }
      ],
      "stateMutability": "view",
      "type": "function",
      "constant": true
    },
    {
      "inputs": [
        {
          "internalType": "uint256",
          "name": "_tokenId",
          "type": "uint256"
        },
        {
          "internalType": "uint256",
          "name": "_price",
          "type": "uint256"
        },
        {
          "internalType": "address",
          "name": "_tokenadd",
          "type": "address"
        }
      ],
      "name": "buyToken",
      "outputs": [],
      "stateMutability": "payable",
      "type": "function",
      "payable": true
    },
    {
      "inputs": [
        {
          "internalType": "uint256",
          "name": "_tokenId",
          "type": "uint256"
        },
        {
          "internalType": "uint256",
          "name": "_newPrice",
          "type": "uint256"
        }
      ],
      "name": "changeTokenPrice",
      "outputs": [],
      "stateMutability": "nonpayable",
      "type": "function"
    },
    {
      "inputs": [
        {
          "internalType": "uint256",
          "name": "_tokenId",
          "type": "uint256"
        },
        {
          "internalType": "uint256",
          "name": "_newPrice",
          "type": "uint256"
        }
      ],
      "name": "changeTokenDressPrice",
      "outputs": [],
      "stateMutability": "nonpayable",
      "type": "function"
    },
    {
      "inputs": [
        {
          "internalType": "uint256",
          "name": "_tokenId",
          "type": "uint256"
        }
      ],
      "name": "toggleForSale",
      "outputs": [],
      "stateMutability": "nonpayable",
      "type": "function"
    },
    {
      "inputs": [
        {
          "internalType": "uint256",
          "name": "_amount",
          "type": "uint256"
        },
        {
          "internalType": "address",
          "name": "_sender",
          "type": "address"
        },
        {
          "internalType": "address",
          "name": "_tokenadd",
          "type": "address"
        }
      ],
      "name": "transferTokensToContract",
      "outputs": [],
      "stateMutability": "nonpayable",
      "type": "function"
    },
    {
      "inputs": [
        {
          "internalType": "uint256",
          "name": "_amount",
          "type": "uint256"
        },
        {
          "internalType": "address",
          "name": "receiver",
          "type": "address"
        },
        {
          "internalType": "address",
          "name": "_tokenadd",
          "type": "address"
        }
      ],
      "name": "transferTokensToAccount",
      "outputs": [],
      "stateMutability": "payable",
      "type": "function",
      "payable": true
    }
  ],
  "bytecode": "0x60806040523480156200001157600080fd5b506040518060400160405280601681526020017f43727970746f20426f797320436f6c6c656374696f6e000000000000000000008152506040518060400160405280600281526020017f4342000000000000000000000000000000000000000000000000000000000000815250620000966301ffc9a760e01b620001a960201b60201c565b8160069080519060200190620000ae929190620003fe565b508060079080519060200190620000c7929190620003fe565b50620000e06380ac58cd60e01b620001a960201b60201c565b620000f8635b5e139f60e01b620001a960201b60201c565b6200011063780e9d6360e01b620001a960201b60201c565b505033600d60006101000a81548173ffffffffffffffffffffffffffffffffffffffff021916908373ffffffffffffffffffffffffffffffffffffffff16021790555062000163620002b260201b60201c565b600a90805190602001906200017a929190620003fe565b506200018b6200035860201b60201c565b600b9080519060200190620001a2929190620003fe565b50620004b4565b63ffffffff60e01b817bffffffffffffffffffffffffffffffffffffffffffffffffffffffff1916141562000246576040517f08c379a000000000000000000000000000000000000000000000000000000000815260040180806020018281038252601c8152602001807f4552433136353a20696e76616c696420696e746572666163652069640000000081525060200191505060405180910390fd5b6001600080837bffffffffffffffffffffffffffffffffffffffffffffffffffffffff19167bffffffffffffffffffffffffffffffffffffffffffffffffffffffff1916815260200190815260200160002060006101000a81548160ff02191690831515021790555050565b606060068054600181600116156101000203166002900480601f0160208091040260200160405190810160405280929190818152602001828054600181600116156101000203166002900480156200034e5780601f1062000322576101008083540402835291602001916200034e565b820191906000526020600020905b8154815290600101906020018083116200033057829003601f168201915b5050505050905090565b606060078054600181600116156101000203166002900480601f016020809104026020016040519081016040528092919081815260200182805460018160011615610100020316600290048015620003f45780601f10620003c857610100808354040283529160200191620003f4565b820191906000526020600020905b815481529060010190602001808311620003d657829003601f168201915b5050505050905090565b828054600181600116156101000203166002900490600052602060002090601f01602090048101928262000436576000855562000482565b82601f106200045157805160ff191683800117855562000482565b8280016001018555821562000482579182015b828111156200048157825182559160200191906001019062000464565b5b50905062000491919062000495565b5090565b5b80821115620004b057600081600090555060010162000496565b5090565b615d3d80620004c46000396000f3fe60806040526004361061023b5760003560e01c80636c0360eb1161012e578063bffec202116100ab578063e5326ab11161006f578063e5326ab114610925578063e8006f9514610950578063e985e9c514610979578063f6d8f2cb146109b6578063ff6cef08146109f35761023b565b8063bffec2021461083e578063c87b56dd14610869578063cc151f3a146108a6578063d5f39488146108d1578063d73bf33d146108fc5761023b565b8063a32018b9116100f2578063a32018b914610749578063a3edfd7b14610772578063a46b1fac1461079b578063a5cd761f146107d8578063b88d4fde146108155761023b565b80636c0360eb146106625780636f9507f91461068d57806370a08231146106b857806395d89b41146106f5578063a22cb465146107205761023b565b8063419e76ba116101bc5780634f6ccce7116101805780634f6ccce71461056657806362e8e8ac146105a35780636352211e146105cc57806364facf6b1461060957806367c623cf146106255761023b565b8063419e76ba1461043557806342842e0e1461047c57806343902850146104a557806343d32ae7146104e257806344c0d7eb1461051f5761023b565b8063142687f311610203578063142687f31461034b57806318160ddd1461038857806321466eb5146103b357806323b872dd146103cf5780632f745c59146103f85761023b565b806301ffc9a71461024057806306fdde031461027d578063081812fc146102a8578063095ea7b3146102e55780630d1306241461030e575b600080fd5b34801561024c57600080fd5b50610267600480360381019061026291906153fa565b610a30565b6040516102749190615787565b60405180910390f35b34801561028957600080fd5b50610292610a97565b60405161029f91906157a2565b60405180910390f35b3480156102b457600080fd5b506102cf60048036038101906102ca9190615523565b610b39565b6040516102dc919061570c565b60405180910390f35b3480156102f157600080fd5b5061030c60048036038101906103079190615395565b610bd4565b005b34801561031a57600080fd5b5061033560048036038101906103309190615523565b610d18565b6040516103429190615787565b60405180910390f35b34801561035757600080fd5b50610372600480360381019061036d9190615523565b610d38565b60405161037f9190615787565b60405180910390f35b34801561039457600080fd5b5061039d610d4f565b6040516103aa91906157c4565b60405180910390f35b6103cd60048036038101906103c89190615600565b610d60565b005b3480156103db57600080fd5b506103f660048036038101906103f1919061528f565b6113cf565b005b34801561040457600080fd5b5061041f600480360381019061041a9190615395565b611445565b60405161042c91906157c4565b60405180910390f35b34801561044157600080fd5b5061045c60048036038101906104579190615423565b6114a0565b6040516104739b9a999897969594939291906157df565b60405180910390f35b34801561048857600080fd5b506104a3600480360381019061049e919061528f565b611745565b005b3480156104b157600080fd5b506104cc60048036038101906104c7919061522a565b611765565b6040516104d991906157c4565b60405180910390f35b3480156104ee57600080fd5b5061050960048036038101906105049190615423565b61177c565b6040516105169190615787565b60405180910390f35b34801561052b57600080fd5b5061054660048036038101906105419190615523565b6117b2565b60405161055d9b9a999897969594939291906157df565b60405180910390f35b34801561057257600080fd5b5061058d60048036038101906105889190615523565b611a41565b60405161059a91906157c4565b60405180910390f35b3480156105af57600080fd5b506105ca60048036038101906105c591906155c4565b611a64565b005b3480156105d857600080fd5b506105f360048036038101906105ee9190615523565b611fe1565b604051610600919061570c565b60405180910390f35b610623600480360381019061061e9190615575565b612018565b005b34801561063157600080fd5b5061064c60048036038101906106479190615523565b612146565b60405161065991906157a2565b60405180910390f35b34801561066e57600080fd5b5061067761215e565b60405161068491906157a2565b60405180910390f35b34801561069957600080fd5b506106a2612200565b6040516106af91906157a2565b60405180910390f35b3480156106c457600080fd5b506106df60048036038101906106da919061522a565b61229e565b6040516106ec91906157c4565b60405180910390f35b34801561070157600080fd5b5061070a612373565b60405161071791906157a2565b60405180910390f35b34801561072c57600080fd5b5061074760048036038101906107429190615359565b612415565b005b34801561075557600080fd5b50610770600480360381019061076b9190615523565b6125cb565b005b34801561077e57600080fd5b5061079960048036038101906107949190615575565b612b72565b005b3480156107a757600080fd5b506107c260048036038101906107bd9190615423565b612ca2565b6040516107cf9190615787565b60405180910390f35b3480156107e457600080fd5b506107ff60048036038101906107fa9190615523565b612cd8565b60405161080c919061570c565b60405180910390f35b34801561082157600080fd5b5061083c600480360381019061083791906152de565b612cef565b005b34801561084a57600080fd5b50610853612d67565b60405161086091906157c4565b60405180910390f35b34801561087557600080fd5b50610890600480360381019061088b9190615523565b612d6d565b60405161089d91906157a2565b60405180910390f35b3480156108b257600080fd5b506108bb61303e565b6040516108c891906157c4565b60405180910390f35b3480156108dd57600080fd5b506108e6613052565b6040516108f3919061570c565b60405180910390f35b34801561090857600080fd5b50610923600480360381019061091e91906155c4565b613078565b005b34801561093157600080fd5b5061093a6135f5565b60405161094791906157a2565b60405180910390f35b34801561095c57600080fd5b5061097760048036038101906109729190615464565b613693565b005b34801561098557600080fd5b506109a0600480360381019061099b9190615253565b613c70565b6040516109ad9190615787565b60405180910390f35b3480156109c257600080fd5b506109dd60048036038101906109d89190615423565b613d04565b6040516109ea91906157c4565b60405180910390f35b3480156109ff57600080fd5b50610a1a6004803603810190610a159190615423565b613d32565b604051610a279190615787565b60405180910390f35b6000806000837bffffffffffffffffffffffffffffffffffffffffffffffffffffffff19167bffffffffffffffffffffffffffffffffffffffffffffffffffffffff1916815260200190815260200160002060009054906101000a900460ff169050919050565b606060068054600181600116156101000203166002900480601f016020809104026020016040519081016040528092919081815260200182805460018160011615610100020316600290048015610b2f5780601f10610b0457610100808354040283529160200191610b2f565b820191906000526020600020905b815481529060010190602001808311610b1257829003601f168201915b5050505050905090565b6000610b4482613d68565b610b99576040517f08c379a000000000000000000000000000000000000000000000000000000000815260040180806020018281038252602c815260200180615c06602c913960400191505060405180910390fd5b6004600083815260200190815260200160002060009054906101000a900473ffffffffffffffffffffffffffffffffffffffff169050919050565b6000610bdf82611fe1565b90508073ffffffffffffffffffffffffffffffffffffffff168373ffffffffffffffffffffffffffffffffffffffff161415610c66576040517f08c379a0000000000000000000000000000000000000000000000000000000008152600401808060200182810382526021815260200180615cb66021913960400191505060405180910390fd5b8073ffffffffffffffffffffffffffffffffffffffff16610c85613d85565b73ffffffffffffffffffffffffffffffffffffffff161480610cb45750610cb381610cae613d85565b613c70565b5b610d09576040517f08c379a0000000000000000000000000000000000000000000000000000000008152600401808060200182810382526038815260200180615b596038913960400191505060405180910390fd5b610d138383613d8d565b505050565b60126020528060005260406000206000915054906101000a900460ff1681565b600080610d4483613d68565b905080915050919050565b6000610d5b6002613e46565b905090565b600073ffffffffffffffffffffffffffffffffffffffff163373ffffffffffffffffffffffffffffffffffffffff161415610d9a57600080fd5b610da383613d68565b610dac57600080fd5b6000610db784611fe1565b9050600073ffffffffffffffffffffffffffffffffffffffff168173ffffffffffffffffffffffffffffffffffffffff161415610df357600080fd5b3373ffffffffffffffffffffffffffffffffffffffff168173ffffffffffffffffffffffffffffffffffffffff161415610e2c57600080fd5b6000600e60008681526020019081526020016000206040518061016001604052908160008201548152602001600182018054600181600116156101000203166002900480601f016020809104026020016040519081016040528092919081815260200182805460018160011615610100020316600290048015610ef05780601f10610ec557610100808354040283529160200191610ef0565b820191906000526020600020905b815481529060010190602001808311610ed357829003601f168201915b50505050508152602001600282018054600181600116156101000203166002900480601f016020809104026020016040519081016040528092919081815260200182805460018160011615610100020316600290048015610f925780601f10610f6757610100808354040283529160200191610f92565b820191906000526020600020905b815481529060010190602001808311610f7557829003601f168201915b505050505081526020016003820160009054906101000a900473ffffffffffffffffffffffffffffffffffffffff1673ffffffffffffffffffffffffffffffffffffffff1673ffffffffffffffffffffffffffffffffffffffff1681526020016004820160009054906101000a900473ffffffffffffffffffffffffffffffffffffffff1673ffffffffffffffffffffffffffffffffffffffff1673ffffffffffffffffffffffffffffffffffffffff1681526020016005820160009054906101000a900473ffffffffffffffffffffffffffffffffffffffff1673ffffffffffffffffffffffffffffffffffffffff1673ffffffffffffffffffffffffffffffffffffffff1681526020016006820154815260200160078201548152602001600882018054600181600116156101000203166002900480601f01602080910402602001604051908101604052809291908181526020018280546001816001161561010002031660029004801561114a5780601f1061111f5761010080835404028352916020019161114a565b820191906000526020600020905b81548152906001019060200180831161112d57829003601f168201915b5050505050815260200160098201548152602001600a820160009054906101000a900460ff161515151581525050905080610140015161118957600080fd5b611194823387613e5b565b6000816080015190506111a8853386612b72565b6111b3858286612018565b81608001518260a0019073ffffffffffffffffffffffffffffffffffffffff16908173ffffffffffffffffffffffffffffffffffffffff168152505033826080019073ffffffffffffffffffffffffffffffffffffffff16908173ffffffffffffffffffffffffffffffffffffffff168152505060018261012001818151019150818152505081600e6000888152602001908152602001600020600082015181600001556020820151816001019080519060200190611273929190615031565b506040820151816002019080519060200190611290929190615031565b5060608201518160030160006101000a81548173ffffffffffffffffffffffffffffffffffffffff021916908373ffffffffffffffffffffffffffffffffffffffff16021790555060808201518160040160006101000a81548173ffffffffffffffffffffffffffffffffffffffff021916908373ffffffffffffffffffffffffffffffffffffffff16021790555060a08201518160050160006101000a81548173ffffffffffffffffffffffffffffffffffffffff021916908373ffffffffffffffffffffffffffffffffffffffff16021790555060c0820151816006015560e08201518160070155610100820151816008019080519060200190611397929190615031565b50610120820151816009015561014082015181600a0160006101000a81548160ff021916908315150217905550905050505050505050565b6113e06113da613d85565b8261409e565b611435576040517f08c379a0000000000000000000000000000000000000000000000000000000008152600401808060200182810382526031815260200180615cd76031913960400191505060405180910390fd5b611440838383613e5b565b505050565b600061149882600160008673ffffffffffffffffffffffffffffffffffffffff1673ffffffffffffffffffffffffffffffffffffffff16815260200190815260200160002061419290919063ffffffff16565b905092915050565b601381805160208101820180518482526020830160208501208183528095505050505050600091509050806000015490806001018054600181600116156101000203166002900480601f0160208091040260200160405190810160405280929190818152602001828054600181600116156101000203166002900480156115685780601f1061153d57610100808354040283529160200191611568565b820191906000526020600020905b81548152906001019060200180831161154b57829003601f168201915b505050505090806002018054600181600116156101000203166002900480601f0160208091040260200160405190810160405280929190818152602001828054600181600116156101000203166002900480156116065780601f106115db57610100808354040283529160200191611606565b820191906000526020600020905b8154815290600101906020018083116115e957829003601f168201915b5050505050908060030160009054906101000a900473ffffffffffffffffffffffffffffffffffffffff16908060040160009054906101000a900473ffffffffffffffffffffffffffffffffffffffff16908060050160009054906101000a900473ffffffffffffffffffffffffffffffffffffffff1690806006015490806007015490806008018054600181600116156101000203166002900480601f0160208091040260200160405190810160405280929190818152602001828054600181600116156101000203166002900480156117225780601f106116f757610100808354040283529160200191611722565b820191906000526020600020905b81548152906001019060200180831161170557829003601f168201915b50505050509080600901549080600a0160009054906101000a900460ff1690508b565b61176083838360405180602001604052806000815250612cef565b505050565b6000806117718361229e565b905080915050919050565b6011818051602081018201805184825260208301602085012081835280955050505050506000915054906101000a900460ff1681565b600e602052806000526040600020600091509050806000015490806001018054600181600116156101000203166002900480601f0160208091040260200160405190810160405280929190818152602001828054600181600116156101000203166002900480156118645780601f1061183957610100808354040283529160200191611864565b820191906000526020600020905b81548152906001019060200180831161184757829003601f168201915b505050505090806002018054600181600116156101000203166002900480601f0160208091040260200160405190810160405280929190818152602001828054600181600116156101000203166002900480156119025780601f106118d757610100808354040283529160200191611902565b820191906000526020600020905b8154815290600101906020018083116118e557829003601f168201915b5050505050908060030160009054906101000a900473ffffffffffffffffffffffffffffffffffffffff16908060040160009054906101000a900473ffffffffffffffffffffffffffffffffffffffff16908060050160009054906101000a900473ffffffffffffffffffffffffffffffffffffffff1690806006015490806007015490806008018054600181600116156101000203166002900480601f016020809104026020016040519081016040528092919081815260200182805460018160011615610100020316600290048015611a1e5780601f106119f357610100808354040283529160200191611a1e565b820191906000526020600020905b815481529060010190602001808311611a0157829003601f168201915b50505050509080600901549080600a0160009054906101000a900460ff1690508b565b600080611a588360026141ac90919063ffffffff16565b50905080915050919050565b600073ffffffffffffffffffffffffffffffffffffffff163373ffffffffffffffffffffffffffffffffffffffff161415611a9e57600080fd5b611aa782613d68565b611ab057600080fd5b6000611abb83611fe1565b90503373ffffffffffffffffffffffffffffffffffffffff168173ffffffffffffffffffffffffffffffffffffffff1614611af557600080fd5b6000600e60008581526020019081526020016000206040518061016001604052908160008201548152602001600182018054600181600116156101000203166002900480601f016020809104026020016040519081016040528092919081815260200182805460018160011615610100020316600290048015611bb95780601f10611b8e57610100808354040283529160200191611bb9565b820191906000526020600020905b815481529060010190602001808311611b9c57829003601f168201915b50505050508152602001600282018054600181600116156101000203166002900480601f016020809104026020016040519081016040528092919081815260200182805460018160011615610100020316600290048015611c5b5780601f10611c3057610100808354040283529160200191611c5b565b820191906000526020600020905b815481529060010190602001808311611c3e57829003601f168201915b505050505081526020016003820160009054906101000a900473ffffffffffffffffffffffffffffffffffffffff1673ffffffffffffffffffffffffffffffffffffffff1673ffffffffffffffffffffffffffffffffffffffff1681526020016004820160009054906101000a900473ffffffffffffffffffffffffffffffffffffffff1673ffffffffffffffffffffffffffffffffffffffff1673ffffffffffffffffffffffffffffffffffffffff1681526020016005820160009054906101000a900473ffffffffffffffffffffffffffffffffffffffff1673ffffffffffffffffffffffffffffffffffffffff1673ffffffffffffffffffffffffffffffffffffffff1681526020016006820154815260200160078201548152602001600882018054600181600116156101000203166002900480601f016020809104026020016040519081016040528092919081815260200182805460018160011615610100020316600290048015611e135780601f10611de857610100808354040283529160200191611e13565b820191906000526020600020905b815481529060010190602001808311611df657829003601f168201915b5050505050815260200160098201548152602001600a820160009054906101000a900460ff1615151515815250509050828160c001818152505080600e6000868152602001908152602001600020600082015181600001556020820151816001019080519060200190611e87929190615031565b506040820151816002019080519060200190611ea4929190615031565b5060608201518160030160006101000a81548173ffffffffffffffffffffffffffffffffffffffff021916908373ffffffffffffffffffffffffffffffffffffffff16021790555060808201518160040160006101000a81548173ffffffffffffffffffffffffffffffffffffffff021916908373ffffffffffffffffffffffffffffffffffffffff16021790555060a08201518160050160006101000a81548173ffffffffffffffffffffffffffffffffffffffff021916908373ffffffffffffffffffffffffffffffffffffffff16021790555060c0820151816006015560e08201518160070155610100820151816008019080519060200190611fab929190615031565b50610120820151816009015561014082015181600a0160006101000a81548160ff02191690831515021790555090505050505050565b600061201182604051806060016040528060298152602001615bbb6029913960026141d89092919063ffffffff16565b9050919050565b6000819050838173ffffffffffffffffffffffffffffffffffffffff166370a08231306040518263ffffffff1660e01b8152600401612057919061570c565b60206040518083038186803b15801561206f57600080fd5b505afa158015612083573d6000803e3d6000fd5b505050506040513d601f19601f820116820180604052508101906120a7919061554c565b10156120b257600080fd5b8073ffffffffffffffffffffffffffffffffffffffff1663f7448a3184866040518363ffffffff1660e01b81526004016120ed92919061575e565b602060405180830381600087803b15801561210757600080fd5b505af115801561211b573d6000803e3d6000fd5b505050506040513d601f19601f8201168201806040525081019061213f91906153d1565b5050505050565b6060600061215383612d6d565b905080915050919050565b606060098054600181600116156101000203166002900480601f0160208091040260200160405190810160405280929190818152602001828054600181600116156101000203166002900480156121f65780601f106121cb576101008083540402835291602001916121f6565b820191906000526020600020905b8154815290600101906020018083116121d957829003601f168201915b5050505050905090565b600b8054600181600116156101000203166002900480601f0160208091040260200160405190810160405280929190818152602001828054600181600116156101000203166002900480156122965780601f1061226b57610100808354040283529160200191612296565b820191906000526020600020905b81548152906001019060200180831161227957829003601f168201915b505050505081565b60008073ffffffffffffffffffffffffffffffffffffffff168273ffffffffffffffffffffffffffffffffffffffff161415612325576040517f08c379a000000000000000000000000000000000000000000000000000000000815260040180806020018281038252602a815260200180615b91602a913960400191505060405180910390fd5b61236c600160008473ffffffffffffffffffffffffffffffffffffffff1673ffffffffffffffffffffffffffffffffffffffff1681526020019081526020016000206141f7565b9050919050565b606060078054600181600116156101000203166002900480601f01602080910402602001604051908101604052809291908181526020018280546001816001161561010002031660029004801561240b5780601f106123e05761010080835404028352916020019161240b565b820191906000526020600020905b8154815290600101906020018083116123ee57829003601f168201915b5050505050905090565b61241d613d85565b73ffffffffffffffffffffffffffffffffffffffff168273ffffffffffffffffffffffffffffffffffffffff1614156124be576040517f08c379a00000000000000000000000000000000000000000000000000000000081526004018080602001828103825260198152602001807f4552433732313a20617070726f766520746f2063616c6c65720000000000000081525060200191505060405180910390fd5b80600560006124cb613d85565b73ffffffffffffffffffffffffffffffffffffffff1673ffffffffffffffffffffffffffffffffffffffff16815260200190815260200160002060008473ffffffffffffffffffffffffffffffffffffffff1673ffffffffffffffffffffffffffffffffffffffff16815260200190815260200160002060006101000a81548160ff0219169083151502179055508173ffffffffffffffffffffffffffffffffffffffff16612578613d85565b73ffffffffffffffffffffffffffffffffffffffff167f17307eab39ab6107e8899845ad3d59bd9653f200f220920489ca2b5937696c318360405180821515815260200191505060405180910390a35050565b600073ffffffffffffffffffffffffffffffffffffffff163373ffffffffffffffffffffffffffffffffffffffff16141561260557600080fd5b61260e81613d68565b61261757600080fd5b600061262282611fe1565b90503373ffffffffffffffffffffffffffffffffffffffff168173ffffffffffffffffffffffffffffffffffffffff161461265c57600080fd5b6000600e60008481526020019081526020016000206040518061016001604052908160008201548152602001600182018054600181600116156101000203166002900480601f0160208091040260200160405190810160405280929190818152602001828054600181600116156101000203166002900480156127205780601f106126f557610100808354040283529160200191612720565b820191906000526020600020905b81548152906001019060200180831161270357829003601f168201915b50505050508152602001600282018054600181600116156101000203166002900480601f0160208091040260200160405190810160405280929190818152602001828054600181600116156101000203166002900480156127c25780601f10612797576101008083540402835291602001916127c2565b820191906000526020600020905b8154815290600101906020018083116127a557829003601f168201915b505050505081526020016003820160009054906101000a900473ffffffffffffffffffffffffffffffffffffffff1673ffffffffffffffffffffffffffffffffffffffff1673ffffffffffffffffffffffffffffffffffffffff1681526020016004820160009054906101000a900473ffffffffffffffffffffffffffffffffffffffff1673ffffffffffffffffffffffffffffffffffffffff1673ffffffffffffffffffffffffffffffffffffffff1681526020016005820160009054906101000a900473ffffffffffffffffffffffffffffffffffffffff1673ffffffffffffffffffffffffffffffffffffffff1673ffffffffffffffffffffffffffffffffffffffff1681526020016006820154815260200160078201548152602001600882018054600181600116156101000203166002900480601f01602080910402602001604051908101604052809291908181526020018280546001816001161561010002031660029004801561297a5780601f1061294f5761010080835404028352916020019161297a565b820191906000526020600020905b81548152906001019060200180831161295d57829003601f168201915b5050505050815260200160098201548152602001600a820160009054906101000a900460ff1615151515815250509050806101400151156129cc576000816101400190151590811515815250506129df565b6001816101400190151590811515815250505b80600e6000858152602001908152602001600020600082015181600001556020820151816001019080519060200190612a19929190615031565b506040820151816002019080519060200190612a36929190615031565b5060608201518160030160006101000a81548173ffffffffffffffffffffffffffffffffffffffff021916908373ffffffffffffffffffffffffffffffffffffffff16021790555060808201518160040160006101000a81548173ffffffffffffffffffffffffffffffffffffffff021916908373ffffffffffffffffffffffffffffffffffffffff16021790555060a08201518160050160006101000a81548173ffffffffffffffffffffffffffffffffffffffff021916908373ffffffffffffffffffffffffffffffffffffffff16021790555060c0820151816006015560e08201518160070155610100820151816008019080519060200190612b3d929190615031565b50610120820151816009015561014082015181600a0160006101000a81548160ff021916908315150217905550905050505050565b6000819050838173ffffffffffffffffffffffffffffffffffffffff166370a08231856040518263ffffffff1660e01b8152600401612bb1919061570c565b60206040518083038186803b158015612bc957600080fd5b505afa158015612bdd573d6000803e3d6000fd5b505050506040513d601f19601f82011682018060405250810190612c01919061554c565b1015612c0c57600080fd5b8073ffffffffffffffffffffffffffffffffffffffff1663778042e28430876040518463ffffffff1660e01b8152600401612c4993929190615727565b602060405180830381600087803b158015612c6357600080fd5b505af1158015612c77573d6000803e3d6000fd5b505050506040513d601f19601f82011682018060405250810190612c9b91906153d1565b5050505050565b600f818051602081018201805184825260208301602085012081835280955050505050506000915054906101000a900460ff1681565b600080612ce483611fe1565b905080915050919050565b612d00612cfa613d85565b8361409e565b612d55576040517f08c379a0000000000000000000000000000000000000000000000000000000008152600401808060200182810382526031815260200180615cd76031913960400191505060405180910390fd5b612d618484848461420c565b50505050565b600c5481565b6060612d7882613d68565b612dcd576040517f08c379a000000000000000000000000000000000000000000000000000000000815260040180806020018281038252602f815260200180615c87602f913960400191505060405180910390fd5b6000600860008481526020019081526020016000208054600181600116156101000203166002900480601f016020809104026020016040519081016040528092919081815260200182805460018160011615610100020316600290048015612e765780601f10612e4b57610100808354040283529160200191612e76565b820191906000526020600020905b815481529060010190602001808311612e5957829003601f168201915b505050505090506000612e8761215e565b9050600081511415612e9d578192505050613039565b600082511115612f6e5780826040516020018083805190602001908083835b60208310612edf5780518252602082019150602081019050602083039250612ebc565b6001836020036101000a03801982511681845116808217855250505050505090500182805190602001908083835b60208310612f305780518252602082019150602081019050602083039250612f0d565b6001836020036101000a0380198251168184511680821785525050505050509050019250505060405160208183030381529060405292505050613039565b80612f788561427e565b6040516020018083805190602001908083835b60208310612fae5780518252602082019150602081019050602083039250612f8b565b6001836020036101000a03801982511681845116808217855250505050505090500182805190602001908083835b60208310612fff5780518252602082019150602081019050602083039250612fdc565b6001836020036101000a03801982511681845116808217855250505050505090500192505050604051602081830303815290604052925050505b919050565b600080613049610d4f565b90508091505090565b600d60009054906101000a900473ffffffffffffffffffffffffffffffffffffffff1681565b600073ffffffffffffffffffffffffffffffffffffffff163373ffffffffffffffffffffffffffffffffffffffff1614156130b257600080fd5b6130bb82613d68565b6130c457600080fd5b60006130cf83611fe1565b90503373ffffffffffffffffffffffffffffffffffffffff168173ffffffffffffffffffffffffffffffffffffffff161461310957600080fd5b6000600e60008581526020019081526020016000206040518061016001604052908160008201548152602001600182018054600181600116156101000203166002900480601f0160208091040260200160405190810160405280929190818152602001828054600181600116156101000203166002900480156131cd5780601f106131a2576101008083540402835291602001916131cd565b820191906000526020600020905b8154815290600101906020018083116131b057829003601f168201915b50505050508152602001600282018054600181600116156101000203166002900480601f01602080910402602001604051908101604052809291908181526020018280546001816001161561010002031660029004801561326f5780601f106132445761010080835404028352916020019161326f565b820191906000526020600020905b81548152906001019060200180831161325257829003601f168201915b505050505081526020016003820160009054906101000a900473ffffffffffffffffffffffffffffffffffffffff1673ffffffffffffffffffffffffffffffffffffffff1673ffffffffffffffffffffffffffffffffffffffff1681526020016004820160009054906101000a900473ffffffffffffffffffffffffffffffffffffffff1673ffffffffffffffffffffffffffffffffffffffff1673ffffffffffffffffffffffffffffffffffffffff1681526020016005820160009054906101000a900473ffffffffffffffffffffffffffffffffffffffff1673ffffffffffffffffffffffffffffffffffffffff1673ffffffffffffffffffffffffffffffffffffffff1681526020016006820154815260200160078201548152602001600882018054600181600116156101000203166002900480601f0160208091040260200160405190810160405280929190818152602001828054600181600116156101000203166002900480156134275780601f106133fc57610100808354040283529160200191613427565b820191906000526020600020905b81548152906001019060200180831161340a57829003601f168201915b5050505050815260200160098201548152602001600a820160009054906101000a900460ff1615151515815250509050828160e001818152505080600e600086815260200190815260200160002060008201518160000155602082015181600101908051906020019061349b929190615031565b5060408201518160020190805190602001906134b8929190615031565b5060608201518160030160006101000a81548173ffffffffffffffffffffffffffffffffffffffff021916908373ffffffffffffffffffffffffffffffffffffffff16021790555060808201518160040160006101000a81548173ffffffffffffffffffffffffffffffffffffffff021916908373ffffffffffffffffffffffffffffffffffffffff16021790555060a08201518160050160006101000a81548173ffffffffffffffffffffffffffffffffffffffff021916908373ffffffffffffffffffffffffffffffffffffffff16021790555060c0820151816006015560e082015181600701556101008201518160080190805190602001906135bf929190615031565b50610120820151816009015561014082015181600a0160006101000a81548160ff02191690831515021790555090505050505050565b600a8054600181600116156101000203166002900480601f01602080910402602001604051908101604052809291908181526020018280546001816001161561010002031660029004801561368b5780601f106136605761010080835404028352916020019161368b565b820191906000526020600020905b81548152906001019060200180831161366e57829003601f168201915b505050505081565b600073ffffffffffffffffffffffffffffffffffffffff163373ffffffffffffffffffffffffffffffffffffffff1614156136cd57600080fd5b600c600081548092919060010191905055506136ea600c54613d68565b156136f457600080fd5b600f8560405161370491906156f5565b908152602001604051809103902060009054906101000a900460ff161561372a57600080fd5b60108160405161373a91906156f5565b908152602001604051809103902060009054906101000a900460ff161561376057600080fd5b60118460405161377091906156f5565b908152602001604051809103902060009054906101000a900460ff161561379657600080fd5b6137a233600c546143c5565b6137ae600c54856145b9565b60016011856040516137c091906156f5565b908152602001604051809103902060006101000a81548160ff0219169083151502179055506001600f866040516137f791906156f5565b908152602001604051809103902060006101000a81548160ff021916908315150217905550600160108260405161382e91906156f5565b908152602001604051809103902060006101000a81548160ff021916908315150217905550600160126000600c54815260200190815260200160002060006101000a81548160ff0219169083151502179055506000604051806101600160405280600c5481526020018781526020018681526020013373ffffffffffffffffffffffffffffffffffffffff1681526020013373ffffffffffffffffffffffffffffffffffffffff168152602001600073ffffffffffffffffffffffffffffffffffffffff1681526020018581526020018481526020018381526020016000815260200160011515815250905080600e6000600c548152602001908152602001600020600082015181600001556020820151816001019080519060200190613956929190615031565b506040820151816002019080519060200190613973929190615031565b5060608201518160030160006101000a81548173ffffffffffffffffffffffffffffffffffffffff021916908373ffffffffffffffffffffffffffffffffffffffff16021790555060808201518160040160006101000a81548173ffffffffffffffffffffffffffffffffffffffff021916908373ffffffffffffffffffffffffffffffffffffffff16021790555060a08201518160050160006101000a81548173ffffffffffffffffffffffffffffffffffffffff021916908373ffffffffffffffffffffffffffffffffffffffff16021790555060c0820151816006015560e08201518160070155610100820151816008019080519060200190613a7a929190615031565b50610120820151816009015561014082015181600a0160006101000a81548160ff02191690831515021790555090505080601387604051613abb91906156f5565b9081526020016040518091039020600082015181600001556020820151816001019080519060200190613aef929190615031565b506040820151816002019080519060200190613b0c929190615031565b5060608201518160030160006101000a81548173ffffffffffffffffffffffffffffffffffffffff021916908373ffffffffffffffffffffffffffffffffffffffff16021790555060808201518160040160006101000a81548173ffffffffffffffffffffffffffffffffffffffff021916908373ffffffffffffffffffffffffffffffffffffffff16021790555060a08201518160050160006101000a81548173ffffffffffffffffffffffffffffffffffffffff021916908373ffffffffffffffffffffffffffffffffffffffff16021790555060c0820151816006015560e08201518160070155610100820151816008019080519060200190613c13929190615031565b50610120820151816009015561014082015181600a0160006101000a81548160ff021916908315150217905550905050600c54601487604051613c5691906156f5565b908152602001604051809103902081905550505050505050565b6000600560008473ffffffffffffffffffffffffffffffffffffffff1673ffffffffffffffffffffffffffffffffffffffff16815260200190815260200160002060008373ffffffffffffffffffffffffffffffffffffffff1673ffffffffffffffffffffffffffffffffffffffff16815260200190815260200160002060009054906101000a900460ff16905092915050565b6014818051602081018201805184825260208301602085012081835280955050505050506000915090505481565b6010818051602081018201805184825260208301602085012081835280955050505050506000915054906101000a900460ff1681565b6000613d7e82600261464390919063ffffffff16565b9050919050565b600033905090565b816004600083815260200190815260200160002060006101000a81548173ffffffffffffffffffffffffffffffffffffffff021916908373ffffffffffffffffffffffffffffffffffffffff160217905550808273ffffffffffffffffffffffffffffffffffffffff16613e0083611fe1565b73ffffffffffffffffffffffffffffffffffffffff167f8c5be1e5ebec7d5bd14f71427d1e84f3dd0314c0f7b2291e5b200ac8c7c3b92560405160405180910390a45050565b6000613e548260000161465d565b9050919050565b8273ffffffffffffffffffffffffffffffffffffffff16613e7b82611fe1565b73ffffffffffffffffffffffffffffffffffffffff1614613ee7576040517f08c379a0000000000000000000000000000000000000000000000000000000008152600401808060200182810382526029815260200180615c5e6029913960400191505060405180910390fd5b600073ffffffffffffffffffffffffffffffffffffffff168273ffffffffffffffffffffffffffffffffffffffff161415613f6d576040517f08c379a0000000000000000000000000000000000000000000000000000000008152600401808060200182810382526024815260200180615ae36024913960400191505060405180910390fd5b613f7883838361466e565b613f83600082613d8d565b613fd481600160008673ffffffffffffffffffffffffffffffffffffffff1673ffffffffffffffffffffffffffffffffffffffff16815260200190815260200160002061467390919063ffffffff16565b5061402681600160008573ffffffffffffffffffffffffffffffffffffffff1673ffffffffffffffffffffffffffffffffffffffff16815260200190815260200160002061468d90919063ffffffff16565b5061403d818360026146a79092919063ffffffff16565b50808273ffffffffffffffffffffffffffffffffffffffff168473ffffffffffffffffffffffffffffffffffffffff167fddf252ad1be2c89b69c2b068fc378daa952ba7f163c4a11628f55a4df523b3ef60405160405180910390a4505050565b60006140a982613d68565b6140fe576040517f08c379a000000000000000000000000000000000000000000000000000000000815260040180806020018281038252602c815260200180615b2d602c913960400191505060405180910390fd5b600061410983611fe1565b90508073ffffffffffffffffffffffffffffffffffffffff168473ffffffffffffffffffffffffffffffffffffffff16148061417857508373ffffffffffffffffffffffffffffffffffffffff1661416084610b39565b73ffffffffffffffffffffffffffffffffffffffff16145b8061418957506141888185613c70565b5b91505092915050565b60006141a183600001836146dc565b60001c905092915050565b6000806000806141bf866000018661475f565b915091508160001c8160001c9350935050509250929050565b60006141eb846000018460001b846147f8565b60001c90509392505050565b6000614205826000016148ee565b9050919050565b614217848484613e5b565b614223848484846148ff565b614278576040517f08c379a0000000000000000000000000000000000000000000000000000000008152600401808060200182810382526032815260200180615ab16032913960400191505060405180910390fd5b50505050565b606060008214156142c6576040518060400160405280600181526020017f300000000000000000000000000000000000000000000000000000000000000081525090506143c0565b600082905060005b600082146142f0578080600101915050600a82816142e857fe5b0491506142ce565b60008167ffffffffffffffff8111801561430957600080fd5b506040519080825280601f01601f19166020018201604052801561433c5781602001600182028036833780820191505090505b50905060006001830390508593505b600084146143b857600a848161435d57fe5b0660300160f81b8282806001900393508151811061437757fe5b60200101907effffffffffffffffffffffffffffffffffffffffffffffffffffffffffffff1916908160001a905350600a84816143b057fe5b04935061434b565b819450505050505b919050565b600073ffffffffffffffffffffffffffffffffffffffff168273ffffffffffffffffffffffffffffffffffffffff161415614468576040517f08c379a00000000000000000000000000000000000000000000000000000000081526004018080602001828103825260208152602001807f4552433732313a206d696e7420746f20746865207a65726f206164647265737381525060200191505060405180910390fd5b61447181613d68565b156144e4576040517f08c379a000000000000000000000000000000000000000000000000000000000815260040180806020018281038252601c8152602001807f4552433732313a20746f6b656e20616c7265616479206d696e7465640000000081525060200191505060405180910390fd5b6144f06000838361466e565b61454181600160008573ffffffffffffffffffffffffffffffffffffffff1673ffffffffffffffffffffffffffffffffffffffff16815260200190815260200160002061468d90919063ffffffff16565b50614558818360026146a79092919063ffffffff16565b50808273ffffffffffffffffffffffffffffffffffffffff16600073ffffffffffffffffffffffffffffffffffffffff167fddf252ad1be2c89b69c2b068fc378daa952ba7f163c4a11628f55a4df523b3ef60405160405180910390a45050565b6145c282613d68565b614617576040517f08c379a000000000000000000000000000000000000000000000000000000000815260040180806020018281038252602c815260200180615c32602c913960400191505060405180910390fd5b8060086000848152602001908152602001600020908051906020019061463e929190615031565b505050565b6000614655836000018360001b614b18565b905092915050565b600081600001805490509050919050565b505050565b6000614685836000018360001b614b3b565b905092915050565b600061469f836000018360001b614c23565b905092915050565b60006146d3846000018460001b8473ffffffffffffffffffffffffffffffffffffffff1660001b614c93565b90509392505050565b60008183600001805490501161473d576040517f08c379a0000000000000000000000000000000000000000000000000000000008152600401808060200182810382526022815260200180615a8f6022913960400191505060405180910390fd5b82600001828154811061474c57fe5b9060005260206000200154905092915050565b600080828460000180549050116147c1576040517f08c379a0000000000000000000000000000000000000000000000000000000008152600401808060200182810382526022815260200180615be46022913960400191505060405180910390fd5b60008460000184815481106147d257fe5b906000526020600020906002020190508060000154816001015492509250509250929050565b600080846001016000858152602001908152602001600020549050600081141583906148bf576040517f08c379a00000000000000000000000000000000000000000000000000000000081526004018080602001828103825283818151815260200191508051906020019080838360005b83811015614884578082015181840152602081019050614869565b50505050905090810190601f1680156148b15780820380516001836020036101000a031916815260200191505b509250505060405180910390fd5b508460000160018203815481106148d257fe5b9060005260206000209060020201600101549150509392505050565b600081600001805490509050919050565b60006149208473ffffffffffffffffffffffffffffffffffffffff16614d6f565b61492d5760019050614b10565b6000614a9763150b7a0260e01b614942613d85565b888787604051602401808573ffffffffffffffffffffffffffffffffffffffff1681526020018473ffffffffffffffffffffffffffffffffffffffff16815260200183815260200180602001828103825283818151815260200191508051906020019080838360005b838110156149c65780820151818401526020810190506149ab565b50505050905090810190601f1680156149f35780820380516001836020036101000a031916815260200191505b5095505050505050604051602081830303815290604052907bffffffffffffffffffffffffffffffffffffffffffffffffffffffff19166020820180517bffffffffffffffffffffffffffffffffffffffffffffffffffffffff8381831617835250505050604051806060016040528060328152602001615ab1603291398773ffffffffffffffffffffffffffffffffffffffff16614d829092919063ffffffff16565b90506000818060200190516020811015614ab057600080fd5b8101908080519060200190929190505050905063150b7a0260e01b7bffffffffffffffffffffffffffffffffffffffffffffffffffffffff1916817bffffffffffffffffffffffffffffffffffffffffffffffffffffffff191614925050505b949350505050565b600080836001016000848152602001908152602001600020541415905092915050565b60008083600101600084815260200190815260200160002054905060008114614c175760006001820390506000600186600001805490500390506000866000018281548110614b8657fe5b9060005260206000200154905080876000018481548110614ba357fe5b9060005260206000200181905550600183018760010160008381526020019081526020016000208190555086600001805480614bdb57fe5b60019003818190600052602060002001600090559055866001016000878152602001908152602001600020600090556001945050505050614c1d565b60009150505b92915050565b6000614c2f8383614d9a565b614c88578260000182908060018154018082558091505060019003906000526020600020016000909190919091505582600001805490508360010160008481526020019081526020016000208190555060019050614c8d565b600090505b92915050565b6000808460010160008581526020019081526020016000205490506000811415614d3a57846000016040518060400160405280868152602001858152509080600181540180825580915050600190039060005260206000209060020201600090919091909150600082015181600001556020820151816001015550508460000180549050856001016000868152602001908152602001600020819055506001915050614d68565b82856000016001830381548110614d4d57fe5b90600052602060002090600202016001018190555060009150505b9392505050565b600080823b905060008111915050919050565b6060614d918484600085614dbd565b90509392505050565b600080836001016000848152602001908152602001600020541415905092915050565b606082471015614e18576040517f08c379a0000000000000000000000000000000000000000000000000000000008152600401808060200182810382526026815260200180615b076026913960400191505060405180910390fd5b614e2185614d6f565b614e93576040517f08c379a000000000000000000000000000000000000000000000000000000000815260040180806020018281038252601d8152602001807f416464726573733a2063616c6c20746f206e6f6e2d636f6e747261637400000081525060200191505060405180910390fd5b6000808673ffffffffffffffffffffffffffffffffffffffff1685876040518082805190602001908083835b60208310614ee25780518252602082019150602081019050602083039250614ebf565b6001836020036101000a03801982511681845116808217855250505050505090500191505060006040518083038185875af1925050503d8060008114614f44576040519150601f19603f3d011682016040523d82523d6000602084013e614f49565b606091505b5091509150614f59828286614f65565b92505050949350505050565b60608315614f755782905061502a565b600083511115614f885782518084602001fd5b816040517f08c379a00000000000000000000000000000000000000000000000000000000081526004018080602001828103825283818151815260200191508051906020019080838360005b83811015614fef578082015181840152602081019050614fd4565b50505050905090810190601f16801561501c5780820380516001836020036101000a031916815260200191505b509250505060405180910390fd5b9392505050565b828054600181600116156101000203166002900490600052602060002090601f01602090048101928261506757600085556150ae565b82601f1061508057805160ff19168380011785556150ae565b828001600101855582156150ae579182015b828111156150ad578251825591602001919060010190615092565b5b5090506150bb91906150bf565b5090565b5b808211156150d85760008160009055506001016150c0565b5090565b60006150ef6150ea846158d0565b61589f565b90508281526020810184848401111561510757600080fd5b6151128482856159dd565b509392505050565b600061512d61512884615900565b61589f565b90508281526020810184848401111561514557600080fd5b6151508482856159dd565b509392505050565b60008135905061516781615a32565b92915050565b60008135905061517c81615a49565b92915050565b60008151905061519181615a49565b92915050565b6000813590506151a681615a60565b92915050565b600082601f8301126151bd57600080fd5b81356151cd8482602086016150dc565b91505092915050565b600082601f8301126151e757600080fd5b81356151f784826020860161511a565b91505092915050565b60008135905061520f81615a77565b92915050565b60008151905061522481615a77565b92915050565b60006020828403121561523c57600080fd5b600061524a84828501615158565b91505092915050565b6000806040838503121561526657600080fd5b600061527485828601615158565b925050602061528585828601615158565b9150509250929050565b6000806000606084860312156152a457600080fd5b60006152b286828701615158565b93505060206152c386828701615158565b92505060406152d486828701615200565b9150509250925092565b600080600080608085870312156152f457600080fd5b600061530287828801615158565b945050602061531387828801615158565b935050604061532487828801615200565b925050606085013567ffffffffffffffff81111561534157600080fd5b61534d878288016151ac565b91505092959194509250565b6000806040838503121561536c57600080fd5b600061537a85828601615158565b925050602061538b8582860161516d565b9150509250929050565b600080604083850312156153a857600080fd5b60006153b685828601615158565b92505060206153c785828601615200565b9150509250929050565b6000602082840312156153e357600080fd5b60006153f184828501615182565b91505092915050565b60006020828403121561540c57600080fd5b600061541a84828501615197565b91505092915050565b60006020828403121561543557600080fd5b600082013567ffffffffffffffff81111561544f57600080fd5b61545b848285016151d6565b91505092915050565b600080600080600060a0868803121561547c57600080fd5b600086013567ffffffffffffffff81111561549657600080fd5b6154a2888289016151d6565b955050602086013567ffffffffffffffff8111156154bf57600080fd5b6154cb888289016151d6565b94505060406154dc88828901615200565b93505060606154ed88828901615200565b925050608086013567ffffffffffffffff81111561550a57600080fd5b615516888289016151d6565b9150509295509295909350565b60006020828403121561553557600080fd5b600061554384828501615200565b91505092915050565b60006020828403121561555e57600080fd5b600061556c84828501615215565b91505092915050565b60008060006060848603121561558a57600080fd5b600061559886828701615200565b93505060206155a986828701615158565b92505060406155ba86828701615158565b9150509250925092565b600080604083850312156155d757600080fd5b60006155e585828601615200565b92505060206155f685828601615200565b9150509250929050565b60008060006060848603121561561557600080fd5b600061562386828701615200565b935050602061563486828701615200565b925050604061564586828701615158565b9150509250925092565b61565881615969565b82525050565b61566781615957565b82525050565b6156768161597b565b82525050565b600061568782615930565b615691818561593b565b93506156a18185602086016159ec565b6156aa81615a21565b840191505092915050565b60006156c082615930565b6156ca818561594c565b93506156da8185602086016159ec565b80840191505092915050565b6156ef816159d3565b82525050565b600061570182846156b5565b915081905092915050565b6000602082019050615721600083018461565e565b92915050565b600060608201905061573c600083018661565e565b615749602083018561565e565b61575660408301846156e6565b949350505050565b6000604082019050615773600083018561565e565b61578060208301846156e6565b9392505050565b600060208201905061579c600083018461566d565b92915050565b600060208201905081810360008301526157bc818461567c565b905092915050565b60006020820190506157d960008301846156e6565b92915050565b6000610160820190506157f5600083018e6156e6565b8181036020830152615807818d61567c565b9050818103604083015261581b818c61567c565b905061582a606083018b61564f565b615837608083018a61564f565b61584460a083018961564f565b61585160c08301886156e6565b61585e60e08301876156e6565b818103610100830152615871818661567c565b90506158816101208301856156e6565b61588f61014083018461566d565b9c9b505050505050505050505050565b6000604051905081810181811067ffffffffffffffff821117156158c6576158c5615a1f565b5b8060405250919050565b600067ffffffffffffffff8211156158eb576158ea615a1f565b5b601f19601f8301169050602081019050919050565b600067ffffffffffffffff82111561591b5761591a615a1f565b5b601f19601f8301169050602081019050919050565b600081519050919050565b600082825260208201905092915050565b600081905092915050565b6000615962826159b3565b9050919050565b6000615974826159b3565b9050919050565b60008115159050919050565b60007fffffffff0000000000000000000000000000000000000000000000000000000082169050919050565b600073ffffffffffffffffffffffffffffffffffffffff82169050919050565b6000819050919050565b82818337600083830152505050565b60005b83811015615a0a5780820151818401526020810190506159ef565b83811115615a19576000848401525b50505050565bfe5b6000601f19601f8301169050919050565b615a3b81615957565b8114615a4657600080fd5b50565b615a528161597b565b8114615a5d57600080fd5b50565b615a6981615987565b8114615a7457600080fd5b50565b615a80816159d3565b8114615a8b57600080fd5b5056fe456e756d657261626c655365743a20696e646578206f7574206f6620626f756e64734552433732313a207472616e7366657220746f206e6f6e20455243373231526563656976657220696d706c656d656e7465724552433732313a207472616e7366657220746f20746865207a65726f2061646472657373416464726573733a20696e73756666696369656e742062616c616e636520666f722063616c6c4552433732313a206f70657261746f7220717565727920666f72206e6f6e6578697374656e7420746f6b656e4552433732313a20617070726f76652063616c6c6572206973206e6f74206f776e6572206e6f7220617070726f76656420666f7220616c6c4552433732313a2062616c616e636520717565727920666f7220746865207a65726f20616464726573734552433732313a206f776e657220717565727920666f72206e6f6e6578697374656e7420746f6b656e456e756d657261626c654d61703a20696e646578206f7574206f6620626f756e64734552433732313a20617070726f76656420717565727920666f72206e6f6e6578697374656e7420746f6b656e4552433732314d657461646174613a2055524920736574206f66206e6f6e6578697374656e7420746f6b656e4552433732313a207472616e73666572206f6620746f6b656e2074686174206973206e6f74206f776e4552433732314d657461646174613a2055524920717565727920666f72206e6f6e6578697374656e7420746f6b656e4552433732313a20617070726f76616c20746f2063757272656e74206f776e65724552433732313a207472616e736665722063616c6c6572206973206e6f74206f776e6572206e6f7220617070726f766564a2646970667358221220d7c12e8b06655854bf1909dad7132b982f150278bcbe0253fa04c58f0f94180364736f6c63430007060033",
  "immutableReferences": {},
  "source": "// File: src\\contracts\\DigiFashion.sol\r\n// SPDX-License-Identifier: MIT\r\n\r\npragma solidity >=0.6.0 <0.8.0;\r\npragma abicoder v2;\r\nimport './Token.sol';\r\nimport \"@openzeppelin/contracts/utils/Context.sol\";\r\nimport \"@openzeppelin/contracts/introspection/IERC165.sol\";\r\nimport \"@openzeppelin/contracts/token/ERC721/IERC721.sol\";\r\nimport \"@openzeppelin/contracts/token/ERC721/IERC721Metadata.sol\";\r\nimport \"@openzeppelin/contracts/token/ERC721/IERC721Enumerable.sol\";\r\nimport \"@openzeppelin/contracts/token/ERC721/IERC721Receiver.sol\";\r\nimport \"@openzeppelin/contracts/introspection/ERC165.sol\";\r\nimport \"@openzeppelin/contracts/math/SafeMath.sol\";\r\nimport \"@openzeppelin/contracts/utils/Address.sol\";\r\nimport \"@openzeppelin/contracts/utils/EnumerableSet.sol\";\r\nimport \"@openzeppelin/contracts/utils/Strings.sol\";\r\nimport \"@openzeppelin/contracts/token/ERC721/ERC721.sol\";\r\n\r\n// CryptoBoys smart contract inherits ERC721 interface\r\ncontract DigiFashion is ERC721 {\r\n\r\n  // this contract's token collection name\r\n  string public collectionName;\r\n  // this contract's token symbol\r\n  string public collectionNameSymbol;\r\n  // total number of crypto boys minted\r\n  uint256 public cryptoBoyCounter;\r\n  \r\n  //EthSwap public ethSwap;\r\n\r\n  address public deployer;\r\n  // define crypto boy struct\r\n   struct CryptoBoy {\r\n    uint256 tokenId;\r\n    string tokenName;\r\n    string tokenURI;\r\n    address payable mintedBy;\r\n    address payable currentOwner;\r\n    address payable previousOwner;\r\n    uint256 price;\r\n    uint256 dressPrice;\r\n    string imageHash;\r\n    uint256 numberOfTransfers;\r\n    bool forSale;\r\n  }\r\n//  struct Collection{\r\n//    uint256 collectionId;\r\n//    CryptoBoy design;\r\n//  }\r\n \r\n\r\n  // map cryptoboy's token id to crypto boy\r\n  mapping(uint256 => CryptoBoy) public allCryptoBoys;\r\n  // check if token name exists\r\n  mapping(string => bool) public tokenNameExists;\r\n  // check if image exists\r\n  mapping(string => bool) public imageExists;\r\n  // check if token URI exists\r\n  mapping(string => bool) public tokenURIExists;\r\n  //check if tokenId exists\r\n  mapping(uint256=>bool)public tokenIdExists;\r\n  //map tokenName to token\r\n  mapping(string=>CryptoBoy)public nameToCryptoBoy;\r\n  //map name to Id\r\n   mapping(string=>uint256)public nameToId;\r\n\r\n// constructor(EthSwap _token) public {\r\n//     ethSwap = _token;\r\n//     deployer = msg.sender;\r\n//   }\r\n  // initialize contract while deployment with contract's collection name and token\r\n  constructor()public ERC721(\"Crypto Boys Collection\", \"CB\") {\r\n    \r\n    //ethSwap = _token;\r\n    deployer = msg.sender;\r\n    collectionName = name();\r\n    collectionNameSymbol = symbol();\r\n    \r\n    \r\n  }\r\n  // mint a new crypto boy\r\n  function mintCryptoBoy(string memory _name, string memory _tokenURI, uint256 _price,uint256 _dressPrice,string memory _imageHash) external {\r\n    // check if thic fucntion caller is not an zero address account\r\n    require(msg.sender != address(0));\r\n    // increment counter\r\n    cryptoBoyCounter ++;\r\n    // check if a token exists with the above token id => incremented counter\r\n    require(!_exists(cryptoBoyCounter));\r\n\r\n    // check if the token name already exists or not\r\n    require(!tokenNameExists[_name]);\r\n    // check if the image already exists or not\r\n    require(!imageExists[_imageHash]);\r\n    // check if the token URI already exists or not\r\n    require(!tokenURIExists[_tokenURI]);\r\n    \r\n    // mint the token\r\n    _mint(msg.sender, cryptoBoyCounter);\r\n    // set token URI (bind token id with the passed in token URI)\r\n    _setTokenURI(cryptoBoyCounter, _tokenURI);\r\n\r\n    \r\n    // make passed token URI as exists\r\n    tokenURIExists[_tokenURI] = true;\r\n    // make token name passed as exists\r\n    tokenNameExists[_name] = true;\r\n    // make passed image as exists\r\n    imageExists[_imageHash]=true;\r\n    //make tokenId passed as exists\r\n    tokenIdExists[cryptoBoyCounter]=true;\r\n\r\n    // creat a new crypto boy (struct) and pass in new values\r\n    CryptoBoy memory newCryptoBoy = CryptoBoy(\r\n    cryptoBoyCounter,\r\n    _name,\r\n    _tokenURI,\r\n    msg.sender,\r\n    msg.sender,\r\n    address(0),\r\n    _price,\r\n    _dressPrice,\r\n    _imageHash,\r\n    0,\r\n    true);\r\n    // add the token id and it's crypto boy to all crypto boys mapping\r\n    allCryptoBoys[cryptoBoyCounter] = newCryptoBoy;\r\n\r\n    nameToCryptoBoy[_name]=newCryptoBoy;\r\n    nameToId[_name]=cryptoBoyCounter;\r\n  }\r\n\r\n  // get owner of the token\r\n  function getTokenOwner(uint256 _tokenId) public view returns(address) {\r\n    address _tokenOwner = ownerOf(_tokenId);\r\n    return _tokenOwner;\r\n  }\r\n\r\n  // get metadata of the token\r\n  function getTokenMetaData(uint _tokenId) public view returns(string memory) {\r\n    string memory tokenMetaData = tokenURI(_tokenId);\r\n    return tokenMetaData;\r\n  }\r\n\r\n  // get total number of tokens minted so far\r\n  function getNumberOfTokensMinted() public view returns(uint256) {\r\n    uint256 totalNumberOfTokensMinted = totalSupply();\r\n    return totalNumberOfTokensMinted;\r\n  }\r\n\r\n  // get total number of tokens owned by an address\r\n  function getTotalNumberOfTokensOwnedByAnAddress(address _owner) public view returns(uint256) {\r\n    uint256 totalNumberOfTokensOwned = balanceOf(_owner);\r\n    return totalNumberOfTokensOwned;\r\n  }\r\n\r\n  // check if the token already exists\r\n  function getTokenExists(uint256 _tokenId) public view returns(bool) {\r\n    bool tokenExists = _exists(_tokenId);\r\n    return tokenExists;\r\n  }\r\n\r\n  // by a token by passing in the token's id\r\n  function buyToken(uint256 _tokenId,uint256 _price,address _tokenadd) public payable {\r\n    \r\n    // check if the function caller is not an zero account address\r\n    require(msg.sender != address(0));\r\n    // check if the token id of the token being bought exists or not\r\n    require(_exists(_tokenId));\r\n    // get the token's owner\r\n    address tokenOwner = ownerOf(_tokenId);\r\n    // token's owner should not be an zero address account\r\n    require(tokenOwner != address(0));\r\n    // the one who wants to buy the token should not be the token's owner\r\n    require(tokenOwner != msg.sender);\r\n    // get that token from all crypto boys mapping and create a memory of it defined as (struct => CryptoBoy)\r\n    CryptoBoy memory cryptoboy = allCryptoBoys[_tokenId];\r\n    // price sent in to buy should be equal to or more than the token's price\r\n   // require(msg.value >= cryptoboy.price);\r\n    // token should be for sale\r\n    require(cryptoboy.forSale);\r\n    // transfer the token from owner to the caller of the function (buyer)\r\n    _transfer(tokenOwner, msg.sender, _tokenId);\r\n    // get owner of the token\r\n    address payable sendTo = cryptoboy.currentOwner;\r\n    // send token's worth of ethers to the owner from smart contract\r\n    //sendTo.transfer(msg.value);\r\n    transferTokensToContract(_price,msg.sender, _tokenadd);\r\n    transferTokensToAccount(_price,sendTo,_tokenadd);\r\n    // update the token's previous owner\r\n    cryptoboy.previousOwner = cryptoboy.currentOwner;\r\n    // update the token's current owner\r\n    cryptoboy.currentOwner = msg.sender;\r\n    // update the how many times this token was transfered\r\n    cryptoboy.numberOfTransfers += 1;\r\n    // set and update that token in the mapping\r\n    allCryptoBoys[_tokenId] = cryptoboy;\r\n  }\r\n\r\n  function changeTokenPrice(uint256 _tokenId, uint256 _newPrice) public {\r\n    // require caller of the function is not an empty address\r\n    require(msg.sender != address(0));\r\n    // require that token should exist\r\n    require(_exists(_tokenId));\r\n    // get the token's owner\r\n    address tokenOwner = ownerOf(_tokenId);\r\n    // check that token's owner should be equal to the caller of the function\r\n    require(tokenOwner == msg.sender);\r\n    // get that token from all crypto boys mapping and create a memory of it defined as (struct => CryptoBoy)\r\n    CryptoBoy memory cryptoboy = allCryptoBoys[_tokenId];\r\n    // update token's price with new price\r\n   cryptoboy.price = _newPrice;\r\n    // set and update that token in the mapping\r\n    allCryptoBoys[_tokenId] = cryptoboy;\r\n  }\r\n\r\n  function changeTokenDressPrice(uint256 _tokenId, uint256 _newPrice) public {\r\n    // require caller of the function is not an empty address\r\n    require(msg.sender != address(0));\r\n    // require that token should exist\r\n    require(_exists(_tokenId));\r\n    // get the token's owner\r\n    address tokenOwner = ownerOf(_tokenId);\r\n    // check that token's owner should be equal to the caller of the function\r\n    require(tokenOwner == msg.sender);\r\n    // get that token from all crypto boys mapping and create a memory of it defined as (struct => CryptoBoy)\r\n    CryptoBoy memory cryptoboy = allCryptoBoys[_tokenId];\r\n    // update token's price with new price\r\n   cryptoboy.dressPrice = _newPrice;\r\n    // set and update that token in the mapping\r\n    allCryptoBoys[_tokenId] = cryptoboy;\r\n  }\r\n\r\n  // switch between set for sale and set not for sale\r\n  function toggleForSale(uint256 _tokenId) public {\r\n    // require caller of the function is not an empty address\r\n    require(msg.sender != address(0));\r\n    // require that token should exist\r\n    require(_exists(_tokenId));\r\n    // get the token's owner\r\n    address tokenOwner = ownerOf(_tokenId);\r\n    // check that token's owner should be equal to the caller of the function\r\n    require(tokenOwner == msg.sender);\r\n    // get that token from all crypto boys mapping and create a memory of it defined as (struct => CryptoBoy)\r\n    CryptoBoy memory cryptoboy = allCryptoBoys[_tokenId];\r\n    // if token's forSale is false make it true and vice versa\r\n    if(cryptoboy.forSale) {\r\n      cryptoboy.forSale = false;\r\n    } else {\r\n      cryptoboy.forSale = true;\r\n    }\r\n    // set and update that token in the mapping\r\n    allCryptoBoys[_tokenId] = cryptoboy;\r\n  }\r\n\r\n  // To Transfer VID tokens to smart contract\r\n  function transferTokensToContract(uint _amount, address _sender,address _tokenadd) public {\r\n    // User can't sell more tokens than they have\r\n    Token ethswap=Token(_tokenadd);\r\n    require(ethswap.balanceOf(_sender) >= _amount);\r\n\r\n    // Perform sale\r\n    ethswap.transferERC20From(_sender, address(this), _amount);  \r\n  } \r\n\r\n  // To Transfer VID tokens from smart contract to desired address\r\n  function transferTokensToAccount(uint _amount, address receiver,address _tokenadd) public payable {\r\n    // User can't sell more tokens than they have\r\n    Token ethswap=Token(_tokenadd);\r\n    require(ethswap.balanceOf(address(this)) >= _amount);\r\n\r\n    // Transfer tokens to the receiver\r\n    ethswap.transferERC20(receiver, _amount);  \r\n  }\r\n}\r\n\r\n",
  "sourcePath": "C:\\Users\\mehta\\git\\fashion-nft\\src\\contracts\\DigiFashion.sol",
  "compiler": {
    "name": "solc",
    "version": "0.7.6+commit.7338295f.Emscripten.clang"
  },
  "schemaVersion": "3.4.3",
  "updatedAt": "2021-10-18T06:33:08.803Z",
  "networkType": "ethereum",
  "devdoc": {
    "kind": "dev",
    "methods": {
      "approve(address,uint256)": {
        "details": "See {IERC721-approve}."
      },
      "balanceOf(address)": {
        "details": "See {IERC721-balanceOf}."
      },
      "baseURI()": {
        "details": "Returns the base URI set via {_setBaseURI}. This will be automatically added as a prefix in {tokenURI} to each token's URI, or to the token ID if no specific URI is set for that token ID."
      },
      "getApproved(uint256)": {
        "details": "See {IERC721-getApproved}."
      },
      "isApprovedForAll(address,address)": {
        "details": "See {IERC721-isApprovedForAll}."
      },
      "name()": {
        "details": "See {IERC721Metadata-name}."
      },
      "ownerOf(uint256)": {
        "details": "See {IERC721-ownerOf}."
      },
      "safeTransferFrom(address,address,uint256)": {
        "details": "See {IERC721-safeTransferFrom}."
      },
      "safeTransferFrom(address,address,uint256,bytes)": {
        "details": "See {IERC721-safeTransferFrom}."
      },
      "setApprovalForAll(address,bool)": {
        "details": "See {IERC721-setApprovalForAll}."
      },
      "supportsInterface(bytes4)": {
        "details": "See {IERC165-supportsInterface}. Time complexity O(1), guaranteed to always use less than 30 000 gas."
      },
      "symbol()": {
        "details": "See {IERC721Metadata-symbol}."
      },
      "tokenByIndex(uint256)": {
        "details": "See {IERC721Enumerable-tokenByIndex}."
      },
      "tokenOfOwnerByIndex(address,uint256)": {
        "details": "See {IERC721Enumerable-tokenOfOwnerByIndex}."
      },
      "tokenURI(uint256)": {
        "details": "See {IERC721Metadata-tokenURI}."
      },
      "totalSupply()": {
        "details": "See {IERC721Enumerable-totalSupply}."
      },
      "transferFrom(address,address,uint256)": {
        "details": "See {IERC721-transferFrom}."
      }
    },
    "version": 1
  },
  "userdoc": {
    "kind": "user",
    "methods": {},
    "version": 1
  }
}