{
  "contractName": "DigiArtERC1155",
  "abi": [
    {
      "inputs": [],
      "stateMutability": "nonpayable",
      "type": "constructor"
    },
    {
      "anonymous": false,
      "inputs": [
        {
          "indexed": true,
          "internalType": "address",
          "name": "account",
          "type": "address"
        },
        {
          "indexed": true,
          "internalType": "address",
          "name": "operator",
          "type": "address"
        },
        {
          "indexed": false,
          "internalType": "bool",
          "name": "approved",
          "type": "bool"
        }
      ],
      "name": "ApprovalForAll",
      "type": "event"
    },
    {
      "anonymous": false,
      "inputs": [
        {
          "indexed": true,
          "internalType": "address",
          "name": "previousOwner",
          "type": "address"
        },
        {
          "indexed": true,
          "internalType": "address",
          "name": "newOwner",
          "type": "address"
        }
      ],
      "name": "OwnershipTransferred",
      "type": "event"
    },
    {
      "anonymous": false,
      "inputs": [
        {
          "indexed": true,
          "internalType": "address",
          "name": "operator",
          "type": "address"
        },
        {
          "indexed": true,
          "internalType": "address",
          "name": "from",
          "type": "address"
        },
        {
          "indexed": true,
          "internalType": "address",
          "name": "to",
          "type": "address"
        },
        {
          "indexed": false,
          "internalType": "uint256[]",
          "name": "ids",
          "type": "uint256[]"
        },
        {
          "indexed": false,
          "internalType": "uint256[]",
          "name": "values",
          "type": "uint256[]"
        }
      ],
      "name": "TransferBatch",
      "type": "event"
    },
    {
      "anonymous": false,
      "inputs": [
        {
          "indexed": true,
          "internalType": "address",
          "name": "operator",
          "type": "address"
        },
        {
          "indexed": true,
          "internalType": "address",
          "name": "from",
          "type": "address"
        },
        {
          "indexed": true,
          "internalType": "address",
          "name": "to",
          "type": "address"
        },
        {
          "indexed": false,
          "internalType": "uint256",
          "name": "id",
          "type": "uint256"
        },
        {
          "indexed": false,
          "internalType": "uint256",
          "name": "value",
          "type": "uint256"
        }
      ],
      "name": "TransferSingle",
      "type": "event"
    },
    {
      "anonymous": false,
      "inputs": [
        {
          "indexed": false,
          "internalType": "string",
          "name": "value",
          "type": "string"
        },
        {
          "indexed": true,
          "internalType": "uint256",
          "name": "id",
          "type": "uint256"
        }
      ],
      "name": "URI",
      "type": "event"
    },
    {
      "inputs": [],
      "name": "_tokensForSaleCount",
      "outputs": [
        {
          "internalType": "uint256",
          "name": "",
          "type": "uint256"
        }
      ],
      "stateMutability": "view",
      "type": "function"
    },
    {
      "inputs": [],
      "name": "_tokensMintedCount",
      "outputs": [
        {
          "internalType": "uint256",
          "name": "",
          "type": "uint256"
        }
      ],
      "stateMutability": "view",
      "type": "function"
    },
    {
      "inputs": [],
      "name": "_tokensUniqueForSaleCount",
      "outputs": [
        {
          "internalType": "uint256",
          "name": "",
          "type": "uint256"
        }
      ],
      "stateMutability": "view",
      "type": "function"
    },
    {
      "inputs": [],
      "name": "_tokensUniqueMintedCount",
      "outputs": [
        {
          "internalType": "uint256",
          "name": "",
          "type": "uint256"
        }
      ],
      "stateMutability": "view",
      "type": "function"
    },
    {
      "inputs": [
        {
          "internalType": "address",
          "name": "account",
          "type": "address"
        },
        {
          "internalType": "uint256",
          "name": "id",
          "type": "uint256"
        }
      ],
      "name": "balanceOf",
      "outputs": [
        {
          "internalType": "uint256",
          "name": "",
          "type": "uint256"
        }
      ],
      "stateMutability": "view",
      "type": "function"
    },
    {
      "inputs": [
        {
          "internalType": "address[]",
          "name": "accounts",
          "type": "address[]"
        },
        {
          "internalType": "uint256[]",
          "name": "ids",
          "type": "uint256[]"
        }
      ],
      "name": "balanceOfBatch",
      "outputs": [
        {
          "internalType": "uint256[]",
          "name": "",
          "type": "uint256[]"
        }
      ],
      "stateMutability": "view",
      "type": "function"
    },
    {
      "inputs": [
        {
          "internalType": "address",
          "name": "account",
          "type": "address"
        },
        {
          "internalType": "address",
          "name": "operator",
          "type": "address"
        }
      ],
      "name": "isApprovedForAll",
      "outputs": [
        {
          "internalType": "bool",
          "name": "",
          "type": "bool"
        }
      ],
      "stateMutability": "view",
      "type": "function"
    },
    {
      "inputs": [
        {
          "internalType": "address",
          "name": "",
          "type": "address"
        },
        {
          "internalType": "address",
          "name": "",
          "type": "address"
        },
        {
          "internalType": "uint256[]",
          "name": "",
          "type": "uint256[]"
        },
        {
          "internalType": "uint256[]",
          "name": "",
          "type": "uint256[]"
        },
        {
          "internalType": "bytes",
          "name": "",
          "type": "bytes"
        }
      ],
      "name": "onERC1155BatchReceived",
      "outputs": [
        {
          "internalType": "bytes4",
          "name": "",
          "type": "bytes4"
        }
      ],
      "stateMutability": "nonpayable",
      "type": "function"
    },
    {
      "inputs": [
        {
          "internalType": "address",
          "name": "",
          "type": "address"
        },
        {
          "internalType": "address",
          "name": "",
          "type": "address"
        },
        {
          "internalType": "uint256",
          "name": "",
          "type": "uint256"
        },
        {
          "internalType": "uint256",
          "name": "",
          "type": "uint256"
        },
        {
          "internalType": "bytes",
          "name": "",
          "type": "bytes"
        }
      ],
      "name": "onERC1155Received",
      "outputs": [
        {
          "internalType": "bytes4",
          "name": "",
          "type": "bytes4"
        }
      ],
      "stateMutability": "nonpayable",
      "type": "function"
    },
    {
      "inputs": [],
      "name": "owner",
      "outputs": [
        {
          "internalType": "address",
          "name": "",
          "type": "address"
        }
      ],
      "stateMutability": "view",
      "type": "function"
    },
    {
      "inputs": [],
      "name": "renounceOwnership",
      "outputs": [],
      "stateMutability": "nonpayable",
      "type": "function"
    },
    {
      "inputs": [
        {
          "internalType": "address",
          "name": "from",
          "type": "address"
        },
        {
          "internalType": "address",
          "name": "to",
          "type": "address"
        },
        {
          "internalType": "uint256[]",
          "name": "ids",
          "type": "uint256[]"
        },
        {
          "internalType": "uint256[]",
          "name": "amounts",
          "type": "uint256[]"
        },
        {
          "internalType": "bytes",
          "name": "data",
          "type": "bytes"
        }
      ],
      "name": "safeBatchTransferFrom",
      "outputs": [],
      "stateMutability": "nonpayable",
      "type": "function"
    },
    {
      "inputs": [
        {
          "internalType": "address",
          "name": "from",
          "type": "address"
        },
        {
          "internalType": "address",
          "name": "to",
          "type": "address"
        },
        {
          "internalType": "uint256",
          "name": "id",
          "type": "uint256"
        },
        {
          "internalType": "uint256",
          "name": "amount",
          "type": "uint256"
        },
        {
          "internalType": "bytes",
          "name": "data",
          "type": "bytes"
        }
      ],
      "name": "safeTransferFrom",
      "outputs": [],
      "stateMutability": "nonpayable",
      "type": "function"
    },
    {
      "inputs": [
        {
          "internalType": "address",
          "name": "operator",
          "type": "address"
        },
        {
          "internalType": "bool",
          "name": "approved",
          "type": "bool"
        }
      ],
      "name": "setApprovalForAll",
      "outputs": [],
      "stateMutability": "nonpayable",
      "type": "function"
    },
    {
      "inputs": [
        {
          "internalType": "uint256",
          "name": "",
          "type": "uint256"
        }
      ],
      "name": "tokenIdToAdd",
      "outputs": [
        {
          "internalType": "address",
          "name": "",
          "type": "address"
        }
      ],
      "stateMutability": "view",
      "type": "function"
    },
    {
      "inputs": [
        {
          "internalType": "uint256",
          "name": "",
          "type": "uint256"
        }
      ],
      "name": "tokenPrice",
      "outputs": [
        {
          "internalType": "uint256",
          "name": "",
          "type": "uint256"
        }
      ],
      "stateMutability": "view",
      "type": "function"
    },
    {
      "inputs": [
        {
          "internalType": "uint256",
          "name": "",
          "type": "uint256"
        }
      ],
      "name": "tokensBalances",
      "outputs": [
        {
          "internalType": "uint256",
          "name": "",
          "type": "uint256"
        }
      ],
      "stateMutability": "view",
      "type": "function"
    },
    {
      "inputs": [
        {
          "internalType": "uint256",
          "name": "",
          "type": "uint256"
        }
      ],
      "name": "tokensUri",
      "outputs": [
        {
          "internalType": "string",
          "name": "",
          "type": "string"
        }
      ],
      "stateMutability": "view",
      "type": "function"
    },
    {
      "inputs": [
        {
          "internalType": "address",
          "name": "newOwner",
          "type": "address"
        }
      ],
      "name": "transferOwnership",
      "outputs": [],
      "stateMutability": "nonpayable",
      "type": "function"
    },
    {
      "inputs": [
        {
          "internalType": "uint256",
          "name": "",
          "type": "uint256"
        }
      ],
      "name": "uri",
      "outputs": [
        {
          "internalType": "string",
          "name": "",
          "type": "string"
        }
      ],
      "stateMutability": "view",
      "type": "function"
    },
    {
      "inputs": [
        {
          "internalType": "bytes4",
          "name": "interfaceId",
          "type": "bytes4"
        }
      ],
      "name": "supportsInterface",
      "outputs": [
        {
          "internalType": "bool",
          "name": "",
          "type": "bool"
        }
      ],
      "stateMutability": "view",
      "type": "function"
    },
    {
      "inputs": [
        {
          "internalType": "uint256",
          "name": "_tokenId",
          "type": "uint256"
        },
        {
          "internalType": "string",
          "name": "_urihash",
          "type": "string"
        }
      ],
      "name": "updateTokenMetaData",
      "outputs": [],
      "stateMutability": "nonpayable",
      "type": "function"
    },
    {
      "inputs": [
        {
          "internalType": "uint256",
          "name": "_tokenId",
          "type": "uint256"
        }
      ],
      "name": "getTokenMetaData",
      "outputs": [
        {
          "internalType": "string",
          "name": "",
          "type": "string"
        }
      ],
      "stateMutability": "view",
      "type": "function"
    },
    {
      "inputs": [
        {
          "internalType": "uint256",
          "name": "id",
          "type": "uint256"
        },
        {
          "internalType": "uint256",
          "name": "amount",
          "type": "uint256"
        }
      ],
      "name": "mintTokens",
      "outputs": [],
      "stateMutability": "nonpayable",
      "type": "function"
    },
    {
      "inputs": [
        {
          "internalType": "uint256",
          "name": "_amount",
          "type": "uint256"
        },
        {
          "internalType": "string",
          "name": "uriHash",
          "type": "string"
        },
        {
          "internalType": "uint256",
          "name": "_price",
          "type": "uint256"
        }
      ],
      "name": "mintMultipleTokens",
      "outputs": [],
      "stateMutability": "nonpayable",
      "type": "function"
    },
    {
      "inputs": [
        {
          "internalType": "uint256",
          "name": "_tokenId",
          "type": "uint256"
        }
      ],
      "name": "buySingleToken",
      "outputs": [],
      "stateMutability": "payable",
      "type": "function"
    }
  ],
  "bytecode": "0x6080604052662386f26fc1000060045560006005556000600655600060075560006008553480156200003057600080fd5b50604051806060016040528060258152602001620042bb602591396200005c816200008360201b60201c565b506200007d620000716200009f60201b60201c565b620000a760201b60201c565b62000282565b80600290805190602001906200009b9291906200016d565b5050565b600033905090565b6000600360009054906101000a900473ffffffffffffffffffffffffffffffffffffffff16905081600360006101000a81548173ffffffffffffffffffffffffffffffffffffffff021916908373ffffffffffffffffffffffffffffffffffffffff1602179055508173ffffffffffffffffffffffffffffffffffffffff168173ffffffffffffffffffffffffffffffffffffffff167f8be0079c531659141344cd1fd0a4f28419497f9722a3daafe3b4186f6b6457e060405160405180910390a35050565b8280546200017b906200024c565b90600052602060002090601f0160209004810192826200019f5760008555620001eb565b82601f10620001ba57805160ff1916838001178555620001eb565b82800160010185558215620001eb579182015b82811115620001ea578251825591602001919060010190620001cd565b5b509050620001fa9190620001fe565b5090565b5b8082111562000219576000816000905550600101620001ff565b5090565b7f4e487b7100000000000000000000000000000000000000000000000000000000600052602260045260246000fd5b600060028204905060018216806200026557607f821691505b602082108114156200027c576200027b6200021d565b5b50919050565b61402980620002926000396000f3fe6080604052600436106101805760003560e01c80638da5cb5b116100d1578063bc197c811161008a578063e985e9c511610064578063e985e9c5146105be578063f23a6e61146105fb578063f242432a14610638578063f2fde38b1461066157610180565b8063bc197c8114610507578063ca44bf7e14610544578063d4ddce8a1461058157610180565b80638da5cb5b146103f957806391e63def1461042457806396eb038b146104615780639b1941db1461048a578063a22cb465146104b5578063b595d960146104de57610180565b80633b9c953e1161013e57806367c623cf1161011857806367c623cf1461035e5780636a2b5bc81461039b578063715018a6146103c65780637fc8db1e146103dd57610180565b80633b9c953e146102b95780634e1273f4146102e45780636153288c1461032157610180565b8062fdd58e1461018557806301ffc9a7146101c257806305bdc8c9146101ff5780630e89341c1461022a5780632eb2c2d61461026757806334a7c2e714610290575b600080fd5b34801561019157600080fd5b506101ac60048036038101906101a7919061283f565b61068a565b6040516101b9919061288e565b60405180910390f35b3480156101ce57600080fd5b506101e960048036038101906101e49190612901565b610753565b6040516101f69190612949565b60405180910390f35b34801561020b57600080fd5b50610214610765565b604051610221919061288e565b60405180910390f35b34801561023657600080fd5b50610251600480360381019061024c9190612964565b61076b565b60405161025e9190612a2a565b60405180910390f35b34801561027357600080fd5b5061028e60048036038101906102899190612c49565b6107ff565b005b34801561029c57600080fd5b506102b760048036038101906102b29190612d18565b6108a0565b005b3480156102c557600080fd5b506102ce6109e5565b6040516102db919061288e565b60405180910390f35b3480156102f057600080fd5b5061030b60048036038101906103069190612e1b565b6109eb565b6040516103189190612f51565b60405180910390f35b34801561032d57600080fd5b5061034860048036038101906103439190612964565b610b04565b6040516103559190612a2a565b60405180910390f35b34801561036a57600080fd5b5061038560048036038101906103809190612964565b610ba4565b6040516103929190612a2a565b60405180910390f35b3480156103a757600080fd5b506103b0610c4f565b6040516103bd919061288e565b60405180910390f35b3480156103d257600080fd5b506103db610c55565b005b6103f760048036038101906103f29190612964565b610cdd565b005b34801561040557600080fd5b5061040e610f5d565b60405161041b9190612f82565b60405180910390f35b34801561043057600080fd5b5061044b60048036038101906104469190612964565b610f87565b604051610458919061288e565b60405180910390f35b34801561046d57600080fd5b506104886004803603810190610483919061303e565b610f9f565b005b34801561049657600080fd5b5061049f610fcb565b6040516104ac919061288e565b60405180910390f35b3480156104c157600080fd5b506104dc60048036038101906104d791906130c6565b610fd1565b005b3480156104ea57600080fd5b5061050560048036038101906105009190613106565b611152565b005b34801561051357600080fd5b5061052e60048036038101906105299190612c49565b61142f565b60405161053b9190613184565b60405180910390f35b34801561055057600080fd5b5061056b60048036038101906105669190612964565b611444565b6040516105789190612f82565b60405180910390f35b34801561058d57600080fd5b506105a860048036038101906105a39190612964565b611477565b6040516105b5919061288e565b60405180910390f35b3480156105ca57600080fd5b506105e560048036038101906105e0919061319f565b61148f565b6040516105f29190612949565b60405180910390f35b34801561060757600080fd5b50610622600480360381019061061d91906131df565b611523565b60405161062f9190613184565b60405180910390f35b34801561064457600080fd5b5061065f600480360381019061065a91906131df565b611538565b005b34801561066d57600080fd5b5061068860048036038101906106839190613276565b6115d9565b005b60008073ffffffffffffffffffffffffffffffffffffffff168373ffffffffffffffffffffffffffffffffffffffff1614156106fb576040517f08c379a00000000000000000000000000000000000000000000000000000000081526004016106f290613315565b60405180910390fd5b60008083815260200190815260200160002060008473ffffffffffffffffffffffffffffffffffffffff1673ffffffffffffffffffffffffffffffffffffffff16815260200190815260200160002054905092915050565b600061075e826116d1565b9050919050565b60055481565b60606002805461077a90613364565b80601f01602080910402602001604051908101604052809291908181526020018280546107a690613364565b80156107f35780601f106107c8576101008083540402835291602001916107f3565b820191906000526020600020905b8154815290600101906020018083116107d657829003601f168201915b50505050509050919050565b61080761174b565b73ffffffffffffffffffffffffffffffffffffffff168573ffffffffffffffffffffffffffffffffffffffff16148061084d575061084c8561084761174b565b61148f565b5b61088c576040517f08c379a000000000000000000000000000000000000000000000000000000000815260040161088390613408565b60405180910390fd5b6108998585858585611753565b5050505050565b600073ffffffffffffffffffffffffffffffffffffffff163373ffffffffffffffffffffffffffffffffffffffff1614156108da57600080fd5b6000811161091d576040517f08c379a000000000000000000000000000000000000000000000000000000000815260040161091490613474565b60405180910390fd5b61093833838360405180602001604052806000815250611a67565b806005600082825461094a91906134c3565b92505081905550806007600082825461096391906134c3565b925050819055506000600a60008481526020019081526020016000205414156109b7576006600081548092919061099990613519565b9190505550600860008154809291906109b190613519565b91905055505b80600a600084815260200190815260200160002060008282546109da91906134c3565b925050819055505050565b60065481565b60608151835114610a31576040517f08c379a0000000000000000000000000000000000000000000000000000000008152600401610a28906135d4565b60405180910390fd5b6000835167ffffffffffffffff811115610a4e57610a4d612a51565b5b604051908082528060200260200182016040528015610a7c5781602001602082028036833780820191505090505b50905060005b8451811015610af957610ac9858281518110610aa157610aa06135f4565b5b6020026020010151858381518110610abc57610abb6135f4565b5b602002602001015161068a565b828281518110610adc57610adb6135f4565b5b60200260200101818152505080610af290613519565b9050610a82565b508091505092915050565b60096020528060005260406000206000915090508054610b2390613364565b80601f0160208091040260200160405190810160405280929190818152602001828054610b4f90613364565b8015610b9c5780601f10610b7157610100808354040283529160200191610b9c565b820191906000526020600020905b815481529060010190602001808311610b7f57829003601f168201915b505050505081565b60606000600960008481526020019081526020016000208054610bc690613364565b80601f0160208091040260200160405190810160405280929190818152602001828054610bf290613364565b8015610c3f5780601f10610c1457610100808354040283529160200191610c3f565b820191906000526020600020905b815481529060010190602001808311610c2257829003601f168201915b5050505050905080915050919050565b60085481565b610c5d61174b565b73ffffffffffffffffffffffffffffffffffffffff16610c7b610f5d565b73ffffffffffffffffffffffffffffffffffffffff1614610cd1576040517f08c379a0000000000000000000000000000000000000000000000000000000008152600401610cc89061366f565b60405180910390fd5b610cdb6000611bfd565b565b6000610d1c600c600084815260200190815260200160002060009054906101000a900473ffffffffffffffffffffffffffffffffffffffff168361068a565b90506001811015610d62576040517f08c379a0000000000000000000000000000000000000000000000000000000008152600401610d5990613701565b60405180910390fd5b6000600a60008481526020019081526020016000205411610db8576040517f08c379a0000000000000000000000000000000000000000000000000000000008152600401610daf9061376d565b60405180910390fd5b600b6000838152602001908152602001600020543414610e0d576040517f08c379a0000000000000000000000000000000000000000000000000000000008152600401610e04906137ff565b60405180910390fd5b6001600a60008481526020019081526020016000206000828254610e31919061381f565b92505081905550600160076000828254610e4b919061381f565b925050819055506000600a6000848152602001908152602001600020541415610e8957600160086000828254610e81919061381f565b925050819055505b610ed9600c600084815260200190815260200160002060009054906101000a900473ffffffffffffffffffffffffffffffffffffffff163384600160405180602001604052806000815250611cc3565b6000600c600084815260200190815260200160002060009054906101000a900473ffffffffffffffffffffffffffffffffffffffff1690508073ffffffffffffffffffffffffffffffffffffffff166108fc349081150290604051600060405180830381858888f19350505050158015610f57573d6000803e3d6000fd5b50505050565b6000600360009054906101000a900473ffffffffffffffffffffffffffffffffffffffff16905090565b600a6020528060005260406000206000915090505481565b80600960008481526020019081526020016000209080519060200190610fc69291906126f4565b505050565b60075481565b8173ffffffffffffffffffffffffffffffffffffffff16610ff061174b565b73ffffffffffffffffffffffffffffffffffffffff161415611047576040517f08c379a000000000000000000000000000000000000000000000000000000000815260040161103e906138c5565b60405180910390fd5b806001600061105461174b565b73ffffffffffffffffffffffffffffffffffffffff1673ffffffffffffffffffffffffffffffffffffffff16815260200190815260200160002060008473ffffffffffffffffffffffffffffffffffffffff1673ffffffffffffffffffffffffffffffffffffffff16815260200190815260200160002060006101000a81548160ff0219169083151502179055508173ffffffffffffffffffffffffffffffffffffffff1661110161174b565b73ffffffffffffffffffffffffffffffffffffffff167f17307eab39ab6107e8899845ad3d59bd9653f200f220920489ca2b5937696c31836040516111469190612949565b60405180910390a35050565b600073ffffffffffffffffffffffffffffffffffffffff163373ffffffffffffffffffffffffffffffffffffffff16141561118c57600080fd5b600083116111cf576040517f08c379a00000000000000000000000000000000000000000000000000000000081526004016111c690613474565b60405180910390fd5b60008367ffffffffffffffff8111156111eb576111ea612a51565b5b6040519080825280602002602001820160405280156112195781602001602082028036833780820191505090505b50905060008467ffffffffffffffff81111561123857611237612a51565b5b6040519080825280602002602001820160405280156112665781602001602082028036833780820191505090505b50905060005b8581101561140c576005600081548092919061128790613519565b91905055506007600081548092919061129f90613519565b91905055506005548382815181106112ba576112b96135f4565b5b60200260200101818152505083600b60006005548152602001908152602001600020819055508460096000600554815260200190815260200160002090805190602001906113099291906126f4565b5033600c6000600554815260200190815260200160002060006101000a81548173ffffffffffffffffffffffffffffffffffffffff021916908373ffffffffffffffffffffffffffffffffffffffff1602179055506000600a600060055481526020019081526020016000205414156113ad576006600081548092919061138f90613519565b9190505550600860008154809291906113a790613519565b91905055505b60018282815181106113c2576113c16135f4565b5b602002602001018181525050600a6000600554815260200190815260200160002060008154809291906113f490613519565b9190505550808061140490613519565b91505061126c565b5061142833838360405180602001604052806000815250611f45565b5050505050565b600063bc197c8160e01b905095945050505050565b600c6020528060005260406000206000915054906101000a900473ffffffffffffffffffffffffffffffffffffffff1681565b600b6020528060005260406000206000915090505481565b6000600160008473ffffffffffffffffffffffffffffffffffffffff1673ffffffffffffffffffffffffffffffffffffffff16815260200190815260200160002060008373ffffffffffffffffffffffffffffffffffffffff1673ffffffffffffffffffffffffffffffffffffffff16815260200190815260200160002060009054906101000a900460ff16905092915050565b600063f23a6e6160e01b905095945050505050565b61154061174b565b73ffffffffffffffffffffffffffffffffffffffff168573ffffffffffffffffffffffffffffffffffffffff16148061158657506115858561158061174b565b61148f565b5b6115c5576040517f08c379a00000000000000000000000000000000000000000000000000000000081526004016115bc90613957565b60405180910390fd5b6115d28585858585611cc3565b5050505050565b6115e161174b565b73ffffffffffffffffffffffffffffffffffffffff166115ff610f5d565b73ffffffffffffffffffffffffffffffffffffffff1614611655576040517f08c379a000000000000000000000000000000000000000000000000000000000815260040161164c9061366f565b60405180910390fd5b600073ffffffffffffffffffffffffffffffffffffffff168173ffffffffffffffffffffffffffffffffffffffff1614156116c5576040517f08c379a00000000000000000000000000000000000000000000000000000000081526004016116bc906139e9565b60405180910390fd5b6116ce81611bfd565b50565b60007f4e2312e0000000000000000000000000000000000000000000000000000000007bffffffffffffffffffffffffffffffffffffffffffffffffffffffff1916827bffffffffffffffffffffffffffffffffffffffffffffffffffffffff19161480611744575061174382612163565b5b9050919050565b600033905090565b8151835114611797576040517f08c379a000000000000000000000000000000000000000000000000000000000815260040161178e90613a7b565b60405180910390fd5b600073ffffffffffffffffffffffffffffffffffffffff168473ffffffffffffffffffffffffffffffffffffffff161415611807576040517f08c379a00000000000000000000000000000000000000000000000000000000081526004016117fe90613b0d565b60405180910390fd5b600061181161174b565b9050611821818787878787612245565b60005b84518110156119d2576000858281518110611842576118416135f4565b5b602002602001015190506000858381518110611861576118606135f4565b5b60200260200101519050600080600084815260200190815260200160002060008b73ffffffffffffffffffffffffffffffffffffffff1673ffffffffffffffffffffffffffffffffffffffff16815260200190815260200160002054905081811015611902576040517f08c379a00000000000000000000000000000000000000000000000000000000081526004016118f990613b9f565b60405180910390fd5b81810360008085815260200190815260200160002060008c73ffffffffffffffffffffffffffffffffffffffff1673ffffffffffffffffffffffffffffffffffffffff168152602001908152602001600020819055508160008085815260200190815260200160002060008b73ffffffffffffffffffffffffffffffffffffffff1673ffffffffffffffffffffffffffffffffffffffff16815260200190815260200160002060008282546119b791906134c3565b92505081905550505050806119cb90613519565b9050611824565b508473ffffffffffffffffffffffffffffffffffffffff168673ffffffffffffffffffffffffffffffffffffffff168273ffffffffffffffffffffffffffffffffffffffff167f4a39dc06d4c0dbc64b70af90fd698a233a518aa5d07e595d983b8c0526c8f7fb8787604051611a49929190613bbf565b60405180910390a4611a5f81878787878761224d565b505050505050565b600073ffffffffffffffffffffffffffffffffffffffff168473ffffffffffffffffffffffffffffffffffffffff161415611ad7576040517f08c379a0000000000000000000000000000000000000000000000000000000008152600401611ace90613c68565b60405180910390fd5b6000611ae161174b565b9050611b0281600087611af388612425565b611afc88612425565b87612245565b8260008086815260200190815260200160002060008773ffffffffffffffffffffffffffffffffffffffff1673ffffffffffffffffffffffffffffffffffffffff1681526020019081526020016000206000828254611b6191906134c3565b925050819055508473ffffffffffffffffffffffffffffffffffffffff16600073ffffffffffffffffffffffffffffffffffffffff168273ffffffffffffffffffffffffffffffffffffffff167fc3d58168c5ae7397731d063d5bbf3d657854427343f4c083240f7aacaa2d0f628787604051611bdf929190613c88565b60405180910390a4611bf68160008787878761249f565b5050505050565b6000600360009054906101000a900473ffffffffffffffffffffffffffffffffffffffff16905081600360006101000a81548173ffffffffffffffffffffffffffffffffffffffff021916908373ffffffffffffffffffffffffffffffffffffffff1602179055508173ffffffffffffffffffffffffffffffffffffffff168173ffffffffffffffffffffffffffffffffffffffff167f8be0079c531659141344cd1fd0a4f28419497f9722a3daafe3b4186f6b6457e060405160405180910390a35050565b600073ffffffffffffffffffffffffffffffffffffffff168473ffffffffffffffffffffffffffffffffffffffff161415611d33576040517f08c379a0000000000000000000000000000000000000000000000000000000008152600401611d2a90613b0d565b60405180910390fd5b6000611d3d61174b565b9050611d5d818787611d4e88612425565b611d5788612425565b87612245565b600080600086815260200190815260200160002060008873ffffffffffffffffffffffffffffffffffffffff1673ffffffffffffffffffffffffffffffffffffffff16815260200190815260200160002054905083811015611df4576040517f08c379a0000000000000000000000000000000000000000000000000000000008152600401611deb90613b9f565b60405180910390fd5b83810360008087815260200190815260200160002060008973ffffffffffffffffffffffffffffffffffffffff1673ffffffffffffffffffffffffffffffffffffffff168152602001908152602001600020819055508360008087815260200190815260200160002060008873ffffffffffffffffffffffffffffffffffffffff1673ffffffffffffffffffffffffffffffffffffffff1681526020019081526020016000206000828254611ea991906134c3565b925050819055508573ffffffffffffffffffffffffffffffffffffffff168773ffffffffffffffffffffffffffffffffffffffff168373ffffffffffffffffffffffffffffffffffffffff167fc3d58168c5ae7397731d063d5bbf3d657854427343f4c083240f7aacaa2d0f628888604051611f26929190613c88565b60405180910390a4611f3c82888888888861249f565b50505050505050565b600073ffffffffffffffffffffffffffffffffffffffff168473ffffffffffffffffffffffffffffffffffffffff161415611fb5576040517f08c379a0000000000000000000000000000000000000000000000000000000008152600401611fac90613c68565b60405180910390fd5b8151835114611ff9576040517f08c379a0000000000000000000000000000000000000000000000000000000008152600401611ff090613a7b565b60405180910390fd5b600061200361174b565b905061201481600087878787612245565b60005b84518110156120cd57838181518110612033576120326135f4565b5b6020026020010151600080878481518110612051576120506135f4565b5b6020026020010151815260200190815260200160002060008873ffffffffffffffffffffffffffffffffffffffff1673ffffffffffffffffffffffffffffffffffffffff16815260200190815260200160002060008282546120b391906134c3565b9250508190555080806120c590613519565b915050612017565b508473ffffffffffffffffffffffffffffffffffffffff16600073ffffffffffffffffffffffffffffffffffffffff168273ffffffffffffffffffffffffffffffffffffffff167f4a39dc06d4c0dbc64b70af90fd698a233a518aa5d07e595d983b8c0526c8f7fb8787604051612145929190613bbf565b60405180910390a461215c8160008787878761224d565b5050505050565b60007fd9b67a26000000000000000000000000000000000000000000000000000000007bffffffffffffffffffffffffffffffffffffffffffffffffffffffff1916827bffffffffffffffffffffffffffffffffffffffffffffffffffffffff1916148061222e57507f0e89341c000000000000000000000000000000000000000000000000000000007bffffffffffffffffffffffffffffffffffffffffffffffffffffffff1916827bffffffffffffffffffffffffffffffffffffffffffffffffffffffff1916145b8061223e575061223d82612677565b5b9050919050565b505050505050565b61226c8473ffffffffffffffffffffffffffffffffffffffff166126e1565b1561241d578373ffffffffffffffffffffffffffffffffffffffff1663bc197c8187878686866040518663ffffffff1660e01b81526004016122b2959493929190613d06565b6020604051808303816000875af19250505080156122ee57506040513d601f19601f820116820180604052508101906122eb9190613d83565b60015b612394576122fa613dbd565b806308c379a01415612357575061230f613ddf565b8061231a5750612359565b806040517f08c379a000000000000000000000000000000000000000000000000000000000815260040161234e9190612a2a565b60405180910390fd5b505b6040517f08c379a000000000000000000000000000000000000000000000000000000000815260040161238b90613ee7565b60405180910390fd5b63bc197c8160e01b7bffffffffffffffffffffffffffffffffffffffffffffffffffffffff1916817bffffffffffffffffffffffffffffffffffffffffffffffffffffffff19161461241b576040517f08c379a000000000000000000000000000000000000000000000000000000000815260040161241290613f79565b60405180910390fd5b505b505050505050565b60606000600167ffffffffffffffff81111561244457612443612a51565b5b6040519080825280602002602001820160405280156124725781602001602082028036833780820191505090505b509050828160008151811061248a576124896135f4565b5b60200260200101818152505080915050919050565b6124be8473ffffffffffffffffffffffffffffffffffffffff166126e1565b1561266f578373ffffffffffffffffffffffffffffffffffffffff1663f23a6e6187878686866040518663ffffffff1660e01b8152600401612504959493929190613f99565b6020604051808303816000875af192505050801561254057506040513d601f19601f8201168201806040525081019061253d9190613d83565b60015b6125e65761254c613dbd565b806308c379a014156125a95750612561613ddf565b8061256c57506125ab565b806040517f08c379a00000000000000000000000000000000000000000000000000000000081526004016125a09190612a2a565b60405180910390fd5b505b6040517f08c379a00000000000000000000000000000000000000000000000000000000081526004016125dd90613ee7565b60405180910390fd5b63f23a6e6160e01b7bffffffffffffffffffffffffffffffffffffffffffffffffffffffff1916817bffffffffffffffffffffffffffffffffffffffffffffffffffffffff19161461266d576040517f08c379a000000000000000000000000000000000000000000000000000000000815260040161266490613f79565b60405180910390fd5b505b505050505050565b60007f01ffc9a7000000000000000000000000000000000000000000000000000000007bffffffffffffffffffffffffffffffffffffffffffffffffffffffff1916827bffffffffffffffffffffffffffffffffffffffffffffffffffffffff1916149050919050565b600080823b905060008111915050919050565b82805461270090613364565b90600052602060002090601f0160209004810192826127225760008555612769565b82601f1061273b57805160ff1916838001178555612769565b82800160010185558215612769579182015b8281111561276857825182559160200191906001019061274d565b5b509050612776919061277a565b5090565b5b8082111561279357600081600090555060010161277b565b5090565b6000604051905090565b600080fd5b600080fd5b600073ffffffffffffffffffffffffffffffffffffffff82169050919050565b60006127d6826127ab565b9050919050565b6127e6816127cb565b81146127f157600080fd5b50565b600081359050612803816127dd565b92915050565b6000819050919050565b61281c81612809565b811461282757600080fd5b50565b60008135905061283981612813565b92915050565b60008060408385031215612856576128556127a1565b5b6000612864858286016127f4565b92505060206128758582860161282a565b9150509250929050565b61288881612809565b82525050565b60006020820190506128a3600083018461287f565b92915050565b60007fffffffff0000000000000000000000000000000000000000000000000000000082169050919050565b6128de816128a9565b81146128e957600080fd5b50565b6000813590506128fb816128d5565b92915050565b600060208284031215612917576129166127a1565b5b6000612925848285016128ec565b91505092915050565b60008115159050919050565b6129438161292e565b82525050565b600060208201905061295e600083018461293a565b92915050565b60006020828403121561297a576129796127a1565b5b60006129888482850161282a565b91505092915050565b600081519050919050565b600082825260208201905092915050565b60005b838110156129cb5780820151818401526020810190506129b0565b838111156129da576000848401525b50505050565b6000601f19601f8301169050919050565b60006129fc82612991565b612a06818561299c565b9350612a168185602086016129ad565b612a1f816129e0565b840191505092915050565b60006020820190508181036000830152612a4481846129f1565b905092915050565b600080fd5b7f4e487b7100000000000000000000000000000000000000000000000000000000600052604160045260246000fd5b612a89826129e0565b810181811067ffffffffffffffff82111715612aa857612aa7612a51565b5b80604052505050565b6000612abb612797565b9050612ac78282612a80565b919050565b600067ffffffffffffffff821115612ae757612ae6612a51565b5b602082029050602081019050919050565b600080fd5b6000612b10612b0b84612acc565b612ab1565b90508083825260208201905060208402830185811115612b3357612b32612af8565b5b835b81811015612b5c5780612b48888261282a565b845260208401935050602081019050612b35565b5050509392505050565b600082601f830112612b7b57612b7a612a4c565b5b8135612b8b848260208601612afd565b91505092915050565b600080fd5b600067ffffffffffffffff821115612bb457612bb3612a51565b5b612bbd826129e0565b9050602081019050919050565b82818337600083830152505050565b6000612bec612be784612b99565b612ab1565b905082815260208101848484011115612c0857612c07612b94565b5b612c13848285612bca565b509392505050565b600082601f830112612c3057612c2f612a4c565b5b8135612c40848260208601612bd9565b91505092915050565b600080600080600060a08688031215612c6557612c646127a1565b5b6000612c73888289016127f4565b9550506020612c84888289016127f4565b945050604086013567ffffffffffffffff811115612ca557612ca46127a6565b5b612cb188828901612b66565b935050606086013567ffffffffffffffff811115612cd257612cd16127a6565b5b612cde88828901612b66565b925050608086013567ffffffffffffffff811115612cff57612cfe6127a6565b5b612d0b88828901612c1b565b9150509295509295909350565b60008060408385031215612d2f57612d2e6127a1565b5b6000612d3d8582860161282a565b9250506020612d4e8582860161282a565b9150509250929050565b600067ffffffffffffffff821115612d7357612d72612a51565b5b602082029050602081019050919050565b6000612d97612d9284612d58565b612ab1565b90508083825260208201905060208402830185811115612dba57612db9612af8565b5b835b81811015612de35780612dcf88826127f4565b845260208401935050602081019050612dbc565b5050509392505050565b600082601f830112612e0257612e01612a4c565b5b8135612e12848260208601612d84565b91505092915050565b60008060408385031215612e3257612e316127a1565b5b600083013567ffffffffffffffff811115612e5057612e4f6127a6565b5b612e5c85828601612ded565b925050602083013567ffffffffffffffff811115612e7d57612e7c6127a6565b5b612e8985828601612b66565b9150509250929050565b600081519050919050565b600082825260208201905092915050565b6000819050602082019050919050565b612ec881612809565b82525050565b6000612eda8383612ebf565b60208301905092915050565b6000602082019050919050565b6000612efe82612e93565b612f088185612e9e565b9350612f1383612eaf565b8060005b83811015612f44578151612f2b8882612ece565b9750612f3683612ee6565b925050600181019050612f17565b5085935050505092915050565b60006020820190508181036000830152612f6b8184612ef3565b905092915050565b612f7c816127cb565b82525050565b6000602082019050612f976000830184612f73565b92915050565b600067ffffffffffffffff821115612fb857612fb7612a51565b5b612fc1826129e0565b9050602081019050919050565b6000612fe1612fdc84612f9d565b612ab1565b905082815260208101848484011115612ffd57612ffc612b94565b5b613008848285612bca565b509392505050565b600082601f83011261302557613024612a4c565b5b8135613035848260208601612fce565b91505092915050565b60008060408385031215613055576130546127a1565b5b60006130638582860161282a565b925050602083013567ffffffffffffffff811115613084576130836127a6565b5b61309085828601613010565b9150509250929050565b6130a38161292e565b81146130ae57600080fd5b50565b6000813590506130c08161309a565b92915050565b600080604083850312156130dd576130dc6127a1565b5b60006130eb858286016127f4565b92505060206130fc858286016130b1565b9150509250929050565b60008060006060848603121561311f5761311e6127a1565b5b600061312d8682870161282a565b935050602084013567ffffffffffffffff81111561314e5761314d6127a6565b5b61315a86828701613010565b925050604061316b8682870161282a565b9150509250925092565b61317e816128a9565b82525050565b60006020820190506131996000830184613175565b92915050565b600080604083850312156131b6576131b56127a1565b5b60006131c4858286016127f4565b92505060206131d5858286016127f4565b9150509250929050565b600080600080600060a086880312156131fb576131fa6127a1565b5b6000613209888289016127f4565b955050602061321a888289016127f4565b945050604061322b8882890161282a565b935050606061323c8882890161282a565b925050608086013567ffffffffffffffff81111561325d5761325c6127a6565b5b61326988828901612c1b565b9150509295509295909350565b60006020828403121561328c5761328b6127a1565b5b600061329a848285016127f4565b91505092915050565b7f455243313135353a2062616c616e636520717565727920666f7220746865207a60008201527f65726f2061646472657373000000000000000000000000000000000000000000602082015250565b60006132ff602b8361299c565b915061330a826132a3565b604082019050919050565b6000602082019050818103600083015261332e816132f2565b9050919050565b7f4e487b7100000000000000000000000000000000000000000000000000000000600052602260045260246000fd5b6000600282049050600182168061337c57607f821691505b602082108114156133905761338f613335565b5b50919050565b7f455243313135353a207472616e736665722063616c6c6572206973206e6f742060008201527f6f776e6572206e6f7220617070726f7665640000000000000000000000000000602082015250565b60006133f260328361299c565b91506133fd82613396565b604082019050919050565b60006020820190508181036000830152613421816133e5565b9050919050565b7f416d6f756e742073686f756c642062652067726561746572207468656e203000600082015250565b600061345e601f8361299c565b915061346982613428565b602082019050919050565b6000602082019050818103600083015261348d81613451565b9050919050565b7f4e487b7100000000000000000000000000000000000000000000000000000000600052601160045260246000fd5b60006134ce82612809565b91506134d983612809565b9250827fffffffffffffffffffffffffffffffffffffffffffffffffffffffffffffffff0382111561350e5761350d613494565b5b828201905092915050565b600061352482612809565b91507fffffffffffffffffffffffffffffffffffffffffffffffffffffffffffffffff82141561355757613556613494565b5b600182019050919050565b7f455243313135353a206163636f756e747320616e6420696473206c656e67746860008201527f206d69736d617463680000000000000000000000000000000000000000000000602082015250565b60006135be60298361299c565b91506135c982613562565b604082019050919050565b600060208201905081810360008301526135ed816135b1565b9050919050565b7f4e487b7100000000000000000000000000000000000000000000000000000000600052603260045260246000fd5b7f4f776e61626c653a2063616c6c6572206973206e6f7420746865206f776e6572600082015250565b600061365960208361299c565b915061366482613623565b602082019050919050565b600060208201905081810360008301526136888161364c565b9050919050565b7f496e73756666696369656e742062616c616e636520666f72207472616e73666560008201527f7200000000000000000000000000000000000000000000000000000000000000602082015250565b60006136eb60218361299c565b91506136f68261368f565b604082019050919050565b6000602082019050818103600083015261371a816136de565b9050919050565b7f4e6f74206f6e2073616c65000000000000000000000000000000000000000000600082015250565b6000613757600b8361299c565b915061376282613721565b602082019050919050565b600060208201905081810360008301526137868161374a565b9050919050565b7f45746865722073656e7420646f6573206e6f74206d617463682074686520707260008201527f6963650000000000000000000000000000000000000000000000000000000000602082015250565b60006137e960238361299c565b91506137f48261378d565b604082019050919050565b60006020820190508181036000830152613818816137dc565b9050919050565b600061382a82612809565b915061383583612809565b92508282101561384857613847613494565b5b828203905092915050565b7f455243313135353a2073657474696e6720617070726f76616c2073746174757360008201527f20666f722073656c660000000000000000000000000000000000000000000000602082015250565b60006138af60298361299c565b91506138ba82613853565b604082019050919050565b600060208201905081810360008301526138de816138a2565b9050919050565b7f455243313135353a2063616c6c6572206973206e6f74206f776e6572206e6f7260008201527f20617070726f7665640000000000000000000000000000000000000000000000602082015250565b600061394160298361299c565b915061394c826138e5565b604082019050919050565b6000602082019050818103600083015261397081613934565b9050919050565b7f4f776e61626c653a206e6577206f776e657220697320746865207a65726f206160008201527f6464726573730000000000000000000000000000000000000000000000000000602082015250565b60006139d360268361299c565b91506139de82613977565b604082019050919050565b60006020820190508181036000830152613a02816139c6565b9050919050565b7f455243313135353a2069647320616e6420616d6f756e7473206c656e6774682060008201527f6d69736d61746368000000000000000000000000000000000000000000000000602082015250565b6000613a6560288361299c565b9150613a7082613a09565b604082019050919050565b60006020820190508181036000830152613a9481613a58565b9050919050565b7f455243313135353a207472616e7366657220746f20746865207a65726f20616460008201527f6472657373000000000000000000000000000000000000000000000000000000602082015250565b6000613af760258361299c565b9150613b0282613a9b565b604082019050919050565b60006020820190508181036000830152613b2681613aea565b9050919050565b7f455243313135353a20696e73756666696369656e742062616c616e636520666f60008201527f72207472616e7366657200000000000000000000000000000000000000000000602082015250565b6000613b89602a8361299c565b9150613b9482613b2d565b604082019050919050565b60006020820190508181036000830152613bb881613b7c565b9050919050565b60006040820190508181036000830152613bd98185612ef3565b90508181036020830152613bed8184612ef3565b90509392505050565b7f455243313135353a206d696e7420746f20746865207a65726f2061646472657360008201527f7300000000000000000000000000000000000000000000000000000000000000602082015250565b6000613c5260218361299c565b9150613c5d82613bf6565b604082019050919050565b60006020820190508181036000830152613c8181613c45565b9050919050565b6000604082019050613c9d600083018561287f565b613caa602083018461287f565b9392505050565b600081519050919050565b600082825260208201905092915050565b6000613cd882613cb1565b613ce28185613cbc565b9350613cf28185602086016129ad565b613cfb816129e0565b840191505092915050565b600060a082019050613d1b6000830188612f73565b613d286020830187612f73565b8181036040830152613d3a8186612ef3565b90508181036060830152613d4e8185612ef3565b90508181036080830152613d628184613ccd565b90509695505050505050565b600081519050613d7d816128d5565b92915050565b600060208284031215613d9957613d986127a1565b5b6000613da784828501613d6e565b91505092915050565b60008160e01c9050919050565b600060033d1115613ddc5760046000803e613dd9600051613db0565b90505b90565b600060443d1015613def57613e72565b613df7612797565b60043d036004823e80513d602482011167ffffffffffffffff82111715613e1f575050613e72565b808201805167ffffffffffffffff811115613e3d5750505050613e72565b80602083010160043d038501811115613e5a575050505050613e72565b613e6982602001850186612a80565b82955050505050505b90565b7f455243313135353a207472616e7366657220746f206e6f6e204552433131353560008201527f526563656976657220696d706c656d656e746572000000000000000000000000602082015250565b6000613ed160348361299c565b9150613edc82613e75565b604082019050919050565b60006020820190508181036000830152613f0081613ec4565b9050919050565b7f455243313135353a204552433131353552656365697665722072656a6563746560008201527f6420746f6b656e73000000000000000000000000000000000000000000000000602082015250565b6000613f6360288361299c565b9150613f6e82613f07565b604082019050919050565b60006020820190508181036000830152613f9281613f56565b9050919050565b600060a082019050613fae6000830188612f73565b613fbb6020830187612f73565b613fc8604083018661287f565b613fd5606083018561287f565b8181036080830152613fe78184613ccd565b9050969550505050505056fea264697066735822122047fa8bbad1ab0d2fca3d8a4ad8dccd96acaa61964f6a4ff213e508cfd202eccf64736f6c634300080a003368747470733a2f2f697066732e696e667572612e696f2f697066732f7b69647d2e6a736f6e",
  "immutableReferences": {},
  "source": "// SPDX-License-Identifier: MIT\n\npragma solidity >=0.6.0 <=0.8.10;\n\n//import \"@openzeppelin/contracts/utils/Context.sol\";\nimport \"@openzeppelin/contracts/token/ERC1155/ERC1155.sol\";\n//import \"@openzeppelin/contracts/token/ERC1155/IERC1155.sol\";\nimport \"@openzeppelin/contracts/token/ERC1155/utils/ERC1155Holder.sol\";\n//import \"@openzeppelin/contracts/token/ERC1155/IERC1155MetadataURI.sol\";\n//import \"@openzeppelin/contracts/token/ERC1155/IERC1155Receiver.sol\";\n//import \"@openzeppelin/contracts/introspection/ERC165.sol\";\nimport \"@openzeppelin/contracts/access/Ownable.sol\";\n//import \"github.com/Arachnid/solidity-stringutils/strings.sol\";\n\ncontract DigiArtERC1155 is ERC1155, ERC1155Holder, Ownable {\n\n  // 1 Ether = 100 tokens (1 Token = 0.01 Ether)\n  uint256 private rate = 10**16;\n  // Total number of Tokens minted\n  uint256 public _tokensMintedCount = 0;\n  // Total number of unique Tokens minted\n  uint256 public _tokensUniqueMintedCount = 0;\n  // Total number of Tokens for Sale (on platform)\n  uint256 public _tokensForSaleCount = 0;\n  // Total number of unique Tokens for Sale (on platform)\n  uint256 public _tokensUniqueForSaleCount = 0;\n\n  // id => tokenUri\n  mapping(uint256 => string) public tokensUri;\n  // id => balance (For Sale, on platform)\n  mapping(uint256 => uint256) public tokensBalances;\n  //id => price\n  mapping(uint256 => uint256) public tokenPrice;\n  //id => address\n  mapping(uint256 =>address) public tokenIdToAdd;\n\n\n\n\n  constructor()public ERC1155(\"https://ipfs.infura.io/ipfs/{id}.json\") {}\n \n  function supportsInterface(bytes4 interfaceId)\n    public\n    view\n    virtual\n    override(ERC1155, ERC1155Receiver)\n    returns (bool) {\n    return super.supportsInterface(interfaceId);\n  }\n\n  // Update Token metadata\n  function updateTokenMetaData(uint _tokenId, string memory _urihash) external {\n    tokensUri[_tokenId] = _urihash;\n  }\n\n  // Get metadata of the token\n  function getTokenMetaData(uint _tokenId) public view returns(string memory) {\n    string memory tokenMetaData = tokensUri[_tokenId];\n    return tokenMetaData;\n  }\n\n  // Mint multiple tokens of the same id\n  function mintTokens(uint256 id,uint256 amount) external {\n    // check if thic fucntion caller is not an zero address account\n    require(msg.sender != address(0));\n    require(amount > 0, \"Amount should be greater then 0\");\n    _mint(msg.sender, id, amount, \"\");\n    _tokensMintedCount += amount;  \n    _tokensForSaleCount += amount;  \n    \n    if (tokensBalances[id] == 0) {\n      // If new token\n      _tokensUniqueMintedCount ++;\n      _tokensUniqueForSaleCount ++;\n    }\n    tokensBalances[id] += amount;\n  }\n\n  // Can mint multiple tokens (even with the same id).\n  function mintMultipleTokens(uint256 _amount,string memory uriHash,uint256 _price) external {\n    // check if this function caller is not an zero address account\n    require(msg.sender != address(0));\n    require(_amount > 0, \"Amount should be greater then 0\");\n    //require(ids.length > 0, \"Amount should be greater then 0\");\n    \n      uint256[] memory  ids=new uint256[](_amount);\n      uint256[] memory amounts=new uint256[](_amount);\n   \n    for(uint256 i = 0; i < _amount; i++){\n        _tokensMintedCount++;\n        _tokensForSaleCount++;\n        ids[i]=_tokensMintedCount;\n        tokenPrice[_tokensMintedCount]=_price;\n        tokensUri[_tokensMintedCount]=uriHash;\n        tokenIdToAdd[_tokensMintedCount]=msg.sender;\n        if (tokensBalances[_tokensMintedCount] == 0) {\n        // If new token\n        _tokensUniqueMintedCount ++;\n        _tokensUniqueForSaleCount ++;\n        }\n        //ids.push((_tokensMintedCount+i));\n        amounts[i]=1;\n        tokensBalances[_tokensMintedCount]++;\n       // amounts.push(1);\n       \n        \n    } \n\n    _mintBatch(msg.sender, ids, amounts, \"\");\n    //_mintBatch(msg.sender, [1,2,3,4,5], [1,1,1,1,1], \"\");\n    \n    // for(uint256 j = 0; j < _amount; j++) {\n    //   //require(amounts[i] > 0, \"Amount should be greater then 0\");\n\n    //   //_tokensMintedCount += amounts[j];  \n    //   _tokensForSaleCount += amounts[j];  \n    //   tokenPrice[ids[j]]=_price;\n    //   tokensUri[ids[j]]=uriHash;\n    //   if (tokensBalances[ids[j]] == 0) {\n    //     // If new token\n    //     _tokensUniqueMintedCount ++;\n    //     _tokensUniqueForSaleCount ++;\n    //   }\n    //   tokensBalances[ids[j]] += amounts[j];\n    // }\n  }\n\n  // Buy Single Token\n  function buySingleToken(uint256 _tokenId) public payable {\n    uint256 fromBalance = balanceOf(tokenIdToAdd[_tokenId], _tokenId);\n\n    require(fromBalance >= 1, \"Insufficient balance for transfer\");\n    require(tokensBalances[_tokenId] > 0, \"Not on sale\");\n    \n    require(msg.value == tokenPrice[_tokenId], \"Ether sent does not match the price\");\n\n    // Removing from tokenBalances\n    tokensBalances[_tokenId] -= 1;\n    _tokensForSaleCount -= 1;\n    if(tokensBalances[_tokenId] == 0) {\n      _tokensUniqueForSaleCount -= 1;\n    }\n\n    // Transfer\n    _safeTransferFrom(tokenIdToAdd[_tokenId], msg.sender, _tokenId, 1, \"\");\n    address payable sendTo = payable(tokenIdToAdd[_tokenId]);\n    // send token's worth of ethers to the owner from smart contract\n    sendTo.transfer(msg.value);\n  }\n\n\n\n \n\n  // Withdraw ether from contract.\n//   function withdraw() external {\n//     require(address(this).balance > 0, \"Balance must be positive\");\n    \n//     (bool success, ) = msg.sender.call{value: address(this).balance}(\"\");\n    \n//     require(success == true);\n//   }\n\n}\n",
  "sourcePath": "C:\\Users\\mehta\\git\\fashion-nft\\src\\contracts\\DigiFashionERC1155.sol",
  "compiler": {
    "name": "solc",
    "version": "0.8.10+commit.fc410830.Emscripten.clang"
  },
  "schemaVersion": "3.4.3",
  "updatedAt": "2021-11-10T03:27:16.262Z",
  "devdoc": {
    "kind": "dev",
    "methods": {
      "balanceOf(address,uint256)": {
        "details": "See {IERC1155-balanceOf}. Requirements: - `account` cannot be the zero address."
      },
      "balanceOfBatch(address[],uint256[])": {
        "details": "See {IERC1155-balanceOfBatch}. Requirements: - `accounts` and `ids` must have the same length."
      },
      "isApprovedForAll(address,address)": {
        "details": "See {IERC1155-isApprovedForAll}."
      },
      "owner()": {
        "details": "Returns the address of the current owner."
      },
      "renounceOwnership()": {
        "details": "Leaves the contract without owner. It will not be possible to call `onlyOwner` functions anymore. Can only be called by the current owner. NOTE: Renouncing ownership will leave the contract without an owner, thereby removing any functionality that is only available to the owner."
      },
      "safeBatchTransferFrom(address,address,uint256[],uint256[],bytes)": {
        "details": "See {IERC1155-safeBatchTransferFrom}."
      },
      "safeTransferFrom(address,address,uint256,uint256,bytes)": {
        "details": "See {IERC1155-safeTransferFrom}."
      },
      "setApprovalForAll(address,bool)": {
        "details": "See {IERC1155-setApprovalForAll}."
      },
      "transferOwnership(address)": {
        "details": "Transfers ownership of the contract to a new account (`newOwner`). Can only be called by the current owner."
      },
      "uri(uint256)": {
        "details": "See {IERC1155MetadataURI-uri}. This implementation returns the same URI for *all* token types. It relies on the token type ID substitution mechanism https://eips.ethereum.org/EIPS/eip-1155#metadata[defined in the EIP]. Clients calling this function must replace the `\\{id\\}` substring with the actual token type ID."
      }
    },
    "version": 1
  },
  "userdoc": {
    "kind": "user",
    "methods": {},
    "version": 1
  }
}