{
  "contractName": "EthSwap",
  "abi": [
    {
      "inputs": [
        {
          "internalType": "contract Token",
          "name": "_token",
          "type": "address"
        }
      ],
      "stateMutability": "nonpayable",
      "type": "constructor"
    },
    {
      "inputs": [],
      "name": "name",
      "outputs": [
        {
          "internalType": "string",
          "name": "",
          "type": "string"
        }
      ],
      "stateMutability": "view",
      "type": "function",
      "constant": true
    },
    {
      "inputs": [],
      "name": "token",
      "outputs": [
        {
          "internalType": "contract Token",
          "name": "",
          "type": "address"
        }
      ],
      "stateMutability": "view",
      "type": "function",
      "constant": true
    },
    {
      "inputs": [
        {
          "internalType": "uint256",
          "name": "_amount",
          "type": "uint256"
        },
        {
          "internalType": "address",
          "name": "_sender",
          "type": "address"
        }
      ],
      "name": "transferTokensToContract",
      "outputs": [],
      "stateMutability": "nonpayable",
      "type": "function"
    },
    {
      "inputs": [
        {
          "internalType": "uint256",
          "name": "_amount",
          "type": "uint256"
        },
        {
          "internalType": "address",
          "name": "receiver",
          "type": "address"
        }
      ],
      "name": "transferTokensToAccount",
      "outputs": [],
      "stateMutability": "payable",
      "type": "function",
      "payable": true
    }
  ],
  "bytecode": "0x60806040526040518060400160405280601881526020017f4574685377617020496e7374616e742045786368616e676500000000000000008152506000908051906020019061004f9291906100d7565b5034801561005c57600080fd5b506040516107ad3803806107ad8339818101604052602081101561007f57600080fd5b810190808051906020019092919050505080600160006101000a81548173ffffffffffffffffffffffffffffffffffffffff021916908373ffffffffffffffffffffffffffffffffffffffff16021790555050610182565b828054600181600116156101000203166002900490600052602060002090601f01602090048101928261010d5760008555610154565b82601f1061012657805160ff1916838001178555610154565b82800160010185558215610154579182015b82811115610153578251825591602001919060010190610138565b5b5090506101619190610165565b5090565b5b8082111561017e576000816000905550600101610166565b5090565b61061c806101916000396000f3fe60806040526004361061003f5760003560e01c806306fdde0314610044578063c548bce8146100d4578063fc0c546a14610122578063fe715e6514610163575b600080fd5b34801561005057600080fd5b506100596101be565b6040518080602001828103825283818151815260200191508051906020019080838360005b8381101561009957808201518184015260208101905061007e565b50505050905090810190601f1680156100c65780820380516001836020036101000a031916815260200191505b509250505060405180910390f35b610120600480360360408110156100ea57600080fd5b8101908080359060200190929190803573ffffffffffffffffffffffffffffffffffffffff16906020019092919050505061025c565b005b34801561012e57600080fd5b506101376103ff565b604051808273ffffffffffffffffffffffffffffffffffffffff16815260200191505060405180910390f35b34801561016f57600080fd5b506101bc6004803603604081101561018657600080fd5b8101908080359060200190929190803573ffffffffffffffffffffffffffffffffffffffff169060200190929190505050610425565b005b60008054600181600116156101000203166002900480601f0160208091040260200160405190810160405280929190818152602001828054600181600116156101000203166002900480156102545780601f1061022957610100808354040283529160200191610254565b820191906000526020600020905b81548152906001019060200180831161023757829003601f168201915b505050505081565b81600160009054906101000a900473ffffffffffffffffffffffffffffffffffffffff1673ffffffffffffffffffffffffffffffffffffffff166370a08231306040518263ffffffff1660e01b8152600401808273ffffffffffffffffffffffffffffffffffffffff16815260200191505060206040518083038186803b1580156102e657600080fd5b505afa1580156102fa573d6000803e3d6000fd5b505050506040513d602081101561031057600080fd5b8101908080519060200190929190505050101561032c57600080fd5b600160009054906101000a900473ffffffffffffffffffffffffffffffffffffffff1673ffffffffffffffffffffffffffffffffffffffff1663f7448a3182846040518363ffffffff1660e01b8152600401808373ffffffffffffffffffffffffffffffffffffffff16815260200182815260200192505050602060405180830381600087803b1580156103bf57600080fd5b505af11580156103d3573d6000803e3d6000fd5b505050506040513d60208110156103e957600080fd5b8101908080519060200190929190505050505050565b600160009054906101000a900473ffffffffffffffffffffffffffffffffffffffff1681565b81600160009054906101000a900473ffffffffffffffffffffffffffffffffffffffff1673ffffffffffffffffffffffffffffffffffffffff166370a08231836040518263ffffffff1660e01b8152600401808273ffffffffffffffffffffffffffffffffffffffff16815260200191505060206040518083038186803b1580156104af57600080fd5b505afa1580156104c3573d6000803e3d6000fd5b505050506040513d60208110156104d957600080fd5b810190808051906020019092919050505010156104f557600080fd5b600160009054906101000a900473ffffffffffffffffffffffffffffffffffffffff1673ffffffffffffffffffffffffffffffffffffffff1663778042e28230856040518463ffffffff1660e01b8152600401808473ffffffffffffffffffffffffffffffffffffffff1681526020018373ffffffffffffffffffffffffffffffffffffffff1681526020018281526020019350505050602060405180830381600087803b1580156105a657600080fd5b505af11580156105ba573d6000803e3d6000fd5b505050506040513d60208110156105d057600080fd5b810190808051906020019092919050505050505056fea2646970667358221220854901c3d80142440578a6f46aa6973b75d820d297689f64c7842c7f0101e95264736f6c63430007060033",
  "immutableReferences": {},
  "source": "// SPDX-License-Identifier: MIT\r\npragma solidity >=0.4.21 <0.8.0;\r\n\r\nimport \"./Token.sol\";\r\n\r\ncontract EthSwap {\r\n  string public name = \"EthSwap Instant Exchange\";\r\n  Token public token;\r\n  // uint public rate = 100;\r\n\r\n  // event TokensPurchased(\r\n  //   address account,\r\n  //   address token,\r\n  //   uint amount,\r\n  //   uint rate\r\n  // );\r\n\r\n  // event TokensSold(\r\n  //   address account,\r\n  //   address token,\r\n  //   uint amount,\r\n  //   uint rate\r\n  // );\r\n\r\n  constructor(Token _token) public {\r\n    token = _token;\r\n  }\r\n\r\n  // function buyTokens() public payable {\r\n  //   // Calculate the number of tokens to buy\r\n  //   uint tokenAmount = msg.value * rate;\r\n\r\n  //   // Require that EthSwap has enough tokens\r\n  //   require(token.balanceOf(address(this)) >= tokenAmount);\r\n\r\n  //   // Transfer tokens to the user\r\n  //   token.transfer(msg.sender, tokenAmount);\r\n\r\n  //   // Emit an event\r\n  //   emit TokensPurchased(msg.sender, address(token), tokenAmount, rate);\r\n  // }\r\n\r\n  // function sellTokens(uint _amount) public {\r\n  //   // User can't sell more tokens than they have\r\n  //   require(token.balanceOf(msg.sender) >= _amount);\r\n\r\n  //   // Calculate the amount of Ether to redeem\r\n  //   uint etherAmount = _amount / rate;\r\n\r\n  //   // Require that EthSwap has enough Ether\r\n  //   require(address(this).balance >= etherAmount);\r\n\r\n  //   // Perform sale\r\n  //   token.transferFrom(msg.sender, address(this), _amount);\r\n  //   msg.sender.transfer(etherAmount);\r\n\r\n  //   // Emit an event\r\n  //   emit TokensSold(msg.sender, address(token), _amount, rate);\r\n  // }\r\n\r\n  // To Transfer VID tokens to smart contract\r\n  function transferTokensToContract(uint _amount, address _sender) public {\r\n    // User can't sell more tokens than they have\r\n    require(token.balanceOf(_sender) >= _amount);\r\n\r\n    // Perform sale\r\n    token.transferERC20From(_sender, address(this), _amount);  \r\n  } \r\n\r\n  // To Transfer VID tokens from smart contract to desired address\r\n  function transferTokensToAccount(uint _amount, address receiver) public payable {\r\n    // User can't sell more tokens than they have\r\n    require(token.balanceOf(address(this)) >= _amount);\r\n\r\n    // Transfer tokens to the receiver\r\n    token.transferERC20(receiver, _amount);  \r\n  } \r\n\r\n}",
  "sourcePath": "C:\\Users\\mehta\\git\\fashion-nft\\src\\contracts\\EthSwap.sol",
  "compiler": {
    "name": "solc",
    "version": "0.7.6+commit.7338295f.Emscripten.clang"
  },
  "schemaVersion": "3.4.3",
  "updatedAt": "2021-10-18T06:09:20.168Z",
  "networkType": "ethereum",
  "devdoc": {
    "kind": "dev",
    "methods": {},
    "version": 1
  },
  "userdoc": {
    "kind": "user",
    "methods": {},
    "version": 1
  }
}