{
  "contractName": "Proxy",
  "abi": [
    {
      "inputs": [],
      "stateMutability": "nonpayable",
      "type": "constructor"
    },
    {
      "stateMutability": "payable",
      "type": "fallback"
    },
    {
      "inputs": [],
      "name": "admin",
      "outputs": [
        {
          "internalType": "address",
          "name": "adm",
          "type": "address"
        }
      ],
      "stateMutability": "view",
      "type": "function"
    },
    {
      "inputs": [],
      "name": "implementation",
      "outputs": [
        {
          "internalType": "address",
          "name": "impl",
          "type": "address"
        }
      ],
      "stateMutability": "view",
      "type": "function"
    },
    {
      "inputs": [
        {
          "internalType": "address",
          "name": "newImplementation",
          "type": "address"
        }
      ],
      "name": "upgrade",
      "outputs": [],
      "stateMutability": "nonpayable",
      "type": "function"
    }
  ],
  "bytecode": "0x608060405234801561001057600080fd5b5060007fb53127684a568b3173ae13b9f8a6016e243e63b6e8ee1178d6a717850b5d610360001b9050600033905080825550506102c3806100526000396000f3fe6080604052600436106100385760003560e01c80630900f010146100815780635c60da1b146100d2578063f851a4401461011357610039565b5b7f360894a13ba1a3210667c828492db98dca3e2076cc3735a920a3ca505d382bbc543660008037600080366000845af43d6000803e806000811461007c573d6000f35b600080fd5b34801561008d57600080fd5b506100d0600480360360208110156100a457600080fd5b81019080803573ffffffffffffffffffffffffffffffffffffffff169060200190929190505050610154565b005b3480156100de57600080fd5b506100e761022b565b604051808273ffffffffffffffffffffffffffffffffffffffff16815260200191505060405180910390f35b34801561011f57600080fd5b5061012861025c565b604051808273ffffffffffffffffffffffffffffffffffffffff16815260200191505060405180910390f35b61015c61025c565b73ffffffffffffffffffffffffffffffffffffffff163373ffffffffffffffffffffffffffffffffffffffff16146101fc576040517f08c379a000000000000000000000000000000000000000000000000000000000815260040180806020018281038252600a8152602001807f61646d696e206f6e6c790000000000000000000000000000000000000000000081525060200191505060405180910390fd5b60007f360894a13ba1a3210667c828492db98dca3e2076cc3735a920a3ca505d382bbc60001b90508181555050565b6000807f360894a13ba1a3210667c828492db98dca3e2076cc3735a920a3ca505d382bbc60001b9050805491505090565b6000807fb53127684a568b3173ae13b9f8a6016e243e63b6e8ee1178d6a717850b5d610360001b905080549150509056fea264697066735822122030b77b9feb288b9e2a09ac4f1a33c54f12b2daa6ced453e9097df868f9984a1c64736f6c634300060c0033",
  "immutableReferences": {},
  "source": "// SPDX-License-Identifier: MIT\r\npragma solidity >=0.6.0 <0.8.0;\r\n\r\ncontract Proxy {\r\n  bytes32 private constant _ADMIN_SLOT = 0xb53127684a568b3173ae13b9f8a6016e243e63b6e8ee1178d6a717850b5d6103;\r\n  bytes32 private constant _IMPLEMENTATION_SLOT = 0x360894a13ba1a3210667c828492db98dca3e2076cc3735a920a3ca505d382bbc;\r\n\r\n  constructor() public{\r\n    bytes32 slot = _ADMIN_SLOT;\r\n    address _admin = msg.sender;\r\n    assembly {\r\n      sstore(slot, _admin)\r\n    }\r\n  }\r\n\r\n  function admin() public view returns (address adm) {\r\n    bytes32 slot = _ADMIN_SLOT;\r\n    assembly {\r\n      adm := sload(slot)\r\n    }\r\n  }\r\n\r\n  function implementation() public view returns (address impl) {\r\n    bytes32 slot = _IMPLEMENTATION_SLOT;\r\n    assembly {\r\n      impl := sload(slot)\r\n    }\r\n  }\r\n\r\n  function upgrade(address newImplementation) external {\r\n    require(msg.sender == admin(), 'admin only');\r\n    bytes32 slot = _IMPLEMENTATION_SLOT;\r\n    assembly {\r\n      sstore(slot, newImplementation)\r\n    }\r\n  }\r\n//user wants to interact with our implementation it is goin to call a function that does not exist on the proxy\r\n// so this function is going to be called\r\n  fallback() external payable {\r\n    assembly {\r\n      let _target := sload(_IMPLEMENTATION_SLOT)\r\n      calldatacopy(0x0, 0x0, calldatasize())\r\n      let result := delegatecall(gas(), _target, 0x0, calldatasize(), 0x0, 0)\r\n      returndatacopy(0x0, 0x0, returndatasize())\r\n      switch result case 0 {revert(0, 0)} default {return (0, returndatasize())}\r\n    }\r\n  }\r\n}",
  "sourcePath": "C:\\Users\\mehta\\git\\fashion-nft\\src\\contracts\\Proxy.sol",
  "compiler": {
    "name": "solc",
    "version": "0.6.12+commit.27d51765.Emscripten.clang"
  },
  "schemaVersion": "3.4.3",
  "updatedAt": "2021-11-02T10:05:38.516Z",
  "devdoc": {
    "kind": "dev",
    "methods": {},
    "version": 1
  },
  "userdoc": {
    "kind": "user",
    "methods": {},
    "version": 1
  }
}