{
  "contractName": "Users",
  "abi": [
    {
      "inputs": [],
      "stateMutability": "nonpayable",
      "type": "constructor"
    },
    {
      "inputs": [
        {
          "internalType": "address",
          "name": "",
          "type": "address"
        }
      ],
      "name": "addressToId",
      "outputs": [
        {
          "internalType": "uint256",
          "name": "",
          "type": "uint256"
        }
      ],
      "stateMutability": "view",
      "type": "function",
      "constant": true
    },
    {
      "inputs": [
        {
          "internalType": "address",
          "name": "",
          "type": "address"
        }
      ],
      "name": "addressToName",
      "outputs": [
        {
          "internalType": "string",
          "name": "",
          "type": "string"
        }
      ],
      "stateMutability": "view",
      "type": "function",
      "constant": true
    },
    {
      "inputs": [
        {
          "internalType": "address",
          "name": "",
          "type": "address"
        }
      ],
      "name": "allUsers",
      "outputs": [
        {
          "internalType": "uint256",
          "name": "userId",
          "type": "uint256"
        },
        {
          "internalType": "string",
          "name": "userName",
          "type": "string"
        },
        {
          "internalType": "string",
          "name": "email",
          "type": "string"
        },
        {
          "internalType": "string",
          "name": "social",
          "type": "string"
        },
        {
          "internalType": "string",
          "name": "repo",
          "type": "string"
        },
        {
          "internalType": "string",
          "name": "bio",
          "type": "string"
        },
        {
          "internalType": "string",
          "name": "avatarhash",
          "type": "string"
        },
        {
          "internalType": "address",
          "name": "userAddress",
          "type": "address"
        }
      ],
      "stateMutability": "view",
      "type": "function",
      "constant": true
    },
    {
      "inputs": [
        {
          "internalType": "uint256",
          "name": "",
          "type": "uint256"
        }
      ],
      "name": "allUsersById",
      "outputs": [
        {
          "internalType": "uint256",
          "name": "userId",
          "type": "uint256"
        },
        {
          "internalType": "string",
          "name": "userName",
          "type": "string"
        },
        {
          "internalType": "string",
          "name": "email",
          "type": "string"
        },
        {
          "internalType": "string",
          "name": "social",
          "type": "string"
        },
        {
          "internalType": "string",
          "name": "repo",
          "type": "string"
        },
        {
          "internalType": "string",
          "name": "bio",
          "type": "string"
        },
        {
          "internalType": "string",
          "name": "avatarhash",
          "type": "string"
        },
        {
          "internalType": "address",
          "name": "userAddress",
          "type": "address"
        }
      ],
      "stateMutability": "view",
      "type": "function",
      "constant": true
    },
    {
      "inputs": [
        {
          "internalType": "string",
          "name": "",
          "type": "string"
        }
      ],
      "name": "nameToAddress",
      "outputs": [
        {
          "internalType": "address",
          "name": "",
          "type": "address"
        }
      ],
      "stateMutability": "view",
      "type": "function",
      "constant": true
    },
    {
      "inputs": [
        {
          "internalType": "address",
          "name": "",
          "type": "address"
        }
      ],
      "name": "userAddressExists",
      "outputs": [
        {
          "internalType": "bool",
          "name": "",
          "type": "bool"
        }
      ],
      "stateMutability": "view",
      "type": "function",
      "constant": true
    },
    {
      "inputs": [],
      "name": "userCounter",
      "outputs": [
        {
          "internalType": "uint256",
          "name": "",
          "type": "uint256"
        }
      ],
      "stateMutability": "view",
      "type": "function",
      "constant": true
    },
    {
      "inputs": [
        {
          "internalType": "string",
          "name": "",
          "type": "string"
        }
      ],
      "name": "userEmailExists",
      "outputs": [
        {
          "internalType": "bool",
          "name": "",
          "type": "bool"
        }
      ],
      "stateMutability": "view",
      "type": "function",
      "constant": true
    },
    {
      "inputs": [
        {
          "internalType": "string",
          "name": "",
          "type": "string"
        }
      ],
      "name": "userNameExists",
      "outputs": [
        {
          "internalType": "bool",
          "name": "",
          "type": "bool"
        }
      ],
      "stateMutability": "view",
      "type": "function",
      "constant": true
    },
    {
      "inputs": [
        {
          "internalType": "string",
          "name": "_userName",
          "type": "string"
        },
        {
          "internalType": "string",
          "name": "_email",
          "type": "string"
        },
        {
          "internalType": "string",
          "name": "_social",
          "type": "string"
        },
        {
          "internalType": "string",
          "name": "_repo",
          "type": "string"
        },
        {
          "internalType": "string",
          "name": "_bio",
          "type": "string"
        },
        {
          "internalType": "string",
          "name": "_avatar",
          "type": "string"
        }
      ],
      "name": "createUser",
      "outputs": [],
      "stateMutability": "nonpayable",
      "type": "function"
    },
    {
      "inputs": [
        {
          "internalType": "string",
          "name": "_userName",
          "type": "string"
        },
        {
          "internalType": "string",
          "name": "_oldemail",
          "type": "string"
        },
        {
          "internalType": "string",
          "name": "_email",
          "type": "string"
        },
        {
          "internalType": "string",
          "name": "_social",
          "type": "string"
        },
        {
          "internalType": "string",
          "name": "_repo",
          "type": "string"
        },
        {
          "internalType": "string",
          "name": "_bio",
          "type": "string"
        },
        {
          "internalType": "string",
          "name": "_avatar",
          "type": "string"
        }
      ],
      "name": "updateUser",
      "outputs": [],
      "stateMutability": "nonpayable",
      "type": "function"
    }
  ],
  "bytecode": "0x608060405234801561001057600080fd5b506128b7806100206000396000f3fe608060405234801561001057600080fd5b50600436106100a95760003560e01c8063ad44e42c11610071578063ad44e42c14610953578063cb0e0d7d14610d98578063e04b6f0414610df0578063e2a04b6214610ec1578063edbece3714610f7e578063f0c37a591461127b576100a9565b806301dadb2b146100ae57806302c905841461045c57806308d88aad146104b65780634ef8ba101461059b57806355d8a91414610882575b600080fd5b61045a600480360360c08110156100c457600080fd5b81019080803590602001906401000000008111156100e157600080fd5b8201836020820111156100f357600080fd5b8035906020019184600183028401116401000000008311171561011557600080fd5b91908080601f016020809104026020016040519081016040528093929190818152602001838380828437600081840152601f19601f8201169050808301925050505050505091929192908035906020019064010000000081111561017857600080fd5b82018360208201111561018a57600080fd5b803590602001918460018302840111640100000000831117156101ac57600080fd5b91908080601f016020809104026020016040519081016040528093929190818152602001838380828437600081840152601f19601f8201169050808301925050505050505091929192908035906020019064010000000081111561020f57600080fd5b82018360208201111561022157600080fd5b8035906020019184600183028401116401000000008311171561024357600080fd5b91908080601f016020809104026020016040519081016040528093929190818152602001838380828437600081840152601f19601f820116905080830192505050505050509192919290803590602001906401000000008111156102a657600080fd5b8201836020820111156102b857600080fd5b803590602001918460018302840111640100000000831117156102da57600080fd5b91908080601f016020809104026020016040519081016040528093929190818152602001838380828437600081840152601f19601f8201169050808301925050505050505091929192908035906020019064010000000081111561033d57600080fd5b82018360208201111561034f57600080fd5b8035906020019184600183028401116401000000008311171561037157600080fd5b91908080601f016020809104026020016040519081016040528093929190818152602001838380828437600081840152601f19601f820116905080830192505050505050509192919290803590602001906401000000008111156103d457600080fd5b8201836020820111156103e657600080fd5b8035906020019184600183028401116401000000008311171561040857600080fd5b91908080601f016020809104026020016040519081016040528093929190818152602001838380828437600081840152601f19601f820116905080830192505050505050509192919290505050611299565b005b61049e6004803603602081101561047257600080fd5b81019080803573ffffffffffffffffffffffffffffffffffffffff1690602001909291905050506118f9565b60405180821515815260200191505060405180910390f35b61056f600480360360208110156104cc57600080fd5b81019080803590602001906401000000008111156104e957600080fd5b8201836020820111156104fb57600080fd5b8035906020019184600183028401116401000000008311171561051d57600080fd5b91908080601f016020809104026020016040519081016040528093929190818152602001838380828437600081840152601f19601f820116905080830192505050505050509192919290505050611919565b604051808273ffffffffffffffffffffffffffffffffffffffff16815260200191505060405180910390f35b6105c7600480360360208110156105b157600080fd5b8101908080359060200190929190505050611962565b604051808981526020018060200180602001806020018060200180602001806020018873ffffffffffffffffffffffffffffffffffffffff16815260200187810387528e818151815260200191508051906020019080838360005b8381101561063d578082015181840152602081019050610622565b50505050905090810190601f16801561066a5780820380516001836020036101000a031916815260200191505b5087810386528d818151815260200191508051906020019080838360005b838110156106a3578082015181840152602081019050610688565b50505050905090810190601f1680156106d05780820380516001836020036101000a031916815260200191505b5087810385528c818151815260200191508051906020019080838360005b838110156107095780820151818401526020810190506106ee565b50505050905090810190601f1680156107365780820380516001836020036101000a031916815260200191505b5087810384528b818151815260200191508051906020019080838360005b8381101561076f578082015181840152602081019050610754565b50505050905090810190601f16801561079c5780820380516001836020036101000a031916815260200191505b5087810383528a818151815260200191508051906020019080838360005b838110156107d55780820151818401526020810190506107ba565b50505050905090810190601f1680156108025780820380516001836020036101000a031916815260200191505b50878103825289818151815260200191508051906020019080838360005b8381101561083b578082015181840152602081019050610820565b50505050905090810190601f1680156108685780820380516001836020036101000a031916815260200191505b509e50505050505050505050505050505060405180910390f35b61093b6004803603602081101561089857600080fd5b81019080803590602001906401000000008111156108b557600080fd5b8201836020820111156108c757600080fd5b803590602001918460018302840111640100000000831117156108e957600080fd5b91908080601f016020809104026020016040519081016040528093929190818152602001838380828437600081840152601f19601f820116905080830192505050505050509192919290505050611d5a565b60405180821515815260200191505060405180910390f35b610d96600480360360e081101561096957600080fd5b810190808035906020019064010000000081111561098657600080fd5b82018360208201111561099857600080fd5b803590602001918460018302840111640100000000831117156109ba57600080fd5b91908080601f016020809104026020016040519081016040528093929190818152602001838380828437600081840152601f19601f82011690508083019250505050505050919291929080359060200190640100000000811115610a1d57600080fd5b820183602082011115610a2f57600080fd5b80359060200191846001830284011164010000000083111715610a5157600080fd5b91908080601f016020809104026020016040519081016040528093929190818152602001838380828437600081840152601f19601f82011690508083019250505050505050919291929080359060200190640100000000811115610ab457600080fd5b820183602082011115610ac657600080fd5b80359060200191846001830284011164010000000083111715610ae857600080fd5b91908080601f016020809104026020016040519081016040528093929190818152602001838380828437600081840152601f19601f82011690508083019250505050505050919291929080359060200190640100000000811115610b4b57600080fd5b820183602082011115610b5d57600080fd5b80359060200191846001830284011164010000000083111715610b7f57600080fd5b91908080601f016020809104026020016040519081016040528093929190818152602001838380828437600081840152601f19601f82011690508083019250505050505050919291929080359060200190640100000000811115610be257600080fd5b820183602082011115610bf457600080fd5b80359060200191846001830284011164010000000083111715610c1657600080fd5b91908080601f016020809104026020016040519081016040528093929190818152602001838380828437600081840152601f19601f82011690508083019250505050505050919291929080359060200190640100000000811115610c7957600080fd5b820183602082011115610c8b57600080fd5b80359060200191846001830284011164010000000083111715610cad57600080fd5b91908080601f016020809104026020016040519081016040528093929190818152602001838380828437600081840152601f19601f82011690508083019250505050505050919291929080359060200190640100000000811115610d1057600080fd5b820183602082011115610d2257600080fd5b80359060200191846001830284011164010000000083111715610d4457600080fd5b91908080601f016020809104026020016040519081016040528093929190818152602001838380828437600081840152601f19601f820116905080830192505050505050509192919290505050611d90565b005b610dda60048036036020811015610dae57600080fd5b81019080803573ffffffffffffffffffffffffffffffffffffffff1690602001909291905050506122da565b6040518082815260200191505060405180910390f35b610ea960048036036020811015610e0657600080fd5b8101908080359060200190640100000000811115610e2357600080fd5b820183602082011115610e3557600080fd5b80359060200191846001830284011164010000000083111715610e5757600080fd5b91908080601f016020809104026020016040519081016040528093929190818152602001838380828437600081840152601f19601f8201169050808301925050505050505091929192905050506122f2565b60405180821515815260200191505060405180910390f35b610f0360048036036020811015610ed757600080fd5b81019080803573ffffffffffffffffffffffffffffffffffffffff169060200190929190505050612328565b6040518080602001828103825283818151815260200191508051906020019080838360005b83811015610f43578082015181840152602081019050610f28565b50505050905090810190601f168015610f705780820380516001836020036101000a031916815260200191505b509250505060405180910390f35b610fc060048036036020811015610f9457600080fd5b81019080803573ffffffffffffffffffffffffffffffffffffffff1690602001909291905050506123d8565b604051808981526020018060200180602001806020018060200180602001806020018873ffffffffffffffffffffffffffffffffffffffff16815260200187810387528e818151815260200191508051906020019080838360005b8381101561103657808201518184015260208101905061101b565b50505050905090810190601f1680156110635780820380516001836020036101000a031916815260200191505b5087810386528d818151815260200191508051906020019080838360005b8381101561109c578082015181840152602081019050611081565b50505050905090810190601f1680156110c95780820380516001836020036101000a031916815260200191505b5087810385528c818151815260200191508051906020019080838360005b838110156111025780820151818401526020810190506110e7565b50505050905090810190601f16801561112f5780820380516001836020036101000a031916815260200191505b5087810384528b818151815260200191508051906020019080838360005b8381101561116857808201518184015260208101905061114d565b50505050905090810190601f1680156111955780820380516001836020036101000a031916815260200191505b5087810383528a818151815260200191508051906020019080838360005b838110156111ce5780820151818401526020810190506111b3565b50505050905090810190601f1680156111fb5780820380516001836020036101000a031916815260200191505b50878103825289818151815260200191508051906020019080838360005b83811015611234578082015181840152602081019050611219565b50505050905090810190601f1680156112615780820380516001836020036101000a031916815260200191505b509e50505050505050505050505050505060405180910390f35b6112836127d0565b6040518082815260200191505060405180910390f35b600073ffffffffffffffffffffffffffffffffffffffff163373ffffffffffffffffffffffffffffffffffffffff1614156112d357600080fd5b6000808154809291906001019190505550600560003373ffffffffffffffffffffffffffffffffffffffff1673ffffffffffffffffffffffffffffffffffffffff16815260200190815260200160002060009054906101000a900460ff161561133b57600080fd5b6003866040518082805190602001908083835b60208310611371578051825260208201915060208101905060208303925061134e565b6001836020036101000a038019825116818451168082178552505050505050905001915050908152602001604051809103902060009054906101000a900460ff16156113bc57600080fd5b6004856040518082805190602001908083835b602083106113f257805182526020820191506020810190506020830392506113cf565b6001836020036101000a038019825116818451168082178552505050505050905001915050908152602001604051809103902060009054906101000a900460ff161561143d57600080fd5b60016003876040518082805190602001908083835b602083106114755780518252602082019150602081019050602083039250611452565b6001836020036101000a038019825116818451168082178552505050505050905001915050908152602001604051809103902060006101000a81548160ff0219169083151502179055506001600560003373ffffffffffffffffffffffffffffffffffffffff1673ffffffffffffffffffffffffffffffffffffffff16815260200190815260200160002060006101000a81548160ff02191690831515021790555060016004866040518082805190602001908083835b6020831061154f578051825260208201915060208101905060208303925061152c565b6001836020036101000a038019825116818451168082178552505050505050905001915050908152602001604051809103902060006101000a81548160ff021916908315150217905550600060405180610100016040528060005481526020018881526020018781526020018681526020018581526020018481526020018381526020013373ffffffffffffffffffffffffffffffffffffffff16815250905080600160003373ffffffffffffffffffffffffffffffffffffffff1673ffffffffffffffffffffffffffffffffffffffff1681526020019081526020016000206000820151816000015560208201518160010190805190602001906116559291906127d6565b5060408201518160020190805190602001906116729291906127d6565b50606082015181600301908051906020019061168f9291906127d6565b5060808201518160040190805190602001906116ac9291906127d6565b5060a08201518160050190805190602001906116c99291906127d6565b5060c08201518160060190805190602001906116e69291906127d6565b5060e08201518160070160006101000a81548173ffffffffffffffffffffffffffffffffffffffff021916908373ffffffffffffffffffffffffffffffffffffffff16021790555090505080600260008054815260200190815260200160002060008201518160000155602082015181600101908051906020019061176c9291906127d6565b5060408201518160020190805190602001906117899291906127d6565b5060608201518160030190805190602001906117a69291906127d6565b5060808201518160040190805190602001906117c39291906127d6565b5060a08201518160050190805190602001906117e09291906127d6565b5060c08201518160060190805190602001906117fd9291906127d6565b5060e08201518160070160006101000a81548173ffffffffffffffffffffffffffffffffffffffff021916908373ffffffffffffffffffffffffffffffffffffffff160217905550905050336008886040518082805190602001908083835b6020831061187f578051825260208201915060208101905060208303925061185c565b6001836020036101000a038019825116818451168082178552505050505050905001915050908152602001604051809103902060006101000a81548173ffffffffffffffffffffffffffffffffffffffff021916908373ffffffffffffffffffffffffffffffffffffffff16021790555050505050505050565b60056020528060005260406000206000915054906101000a900460ff1681565b6008818051602081018201805184825260208301602085012081835280955050505050506000915054906101000a900473ffffffffffffffffffffffffffffffffffffffff1681565b6002602052806000526040600020600091509050806000015490806001018054600181600116156101000203166002900480601f016020809104026020016040519081016040528092919081815260200182805460018160011615610100020316600290048015611a145780601f106119e957610100808354040283529160200191611a14565b820191906000526020600020905b8154815290600101906020018083116119f757829003601f168201915b505050505090806002018054600181600116156101000203166002900480601f016020809104026020016040519081016040528092919081815260200182805460018160011615610100020316600290048015611ab25780601f10611a8757610100808354040283529160200191611ab2565b820191906000526020600020905b815481529060010190602001808311611a9557829003601f168201915b505050505090806003018054600181600116156101000203166002900480601f016020809104026020016040519081016040528092919081815260200182805460018160011615610100020316600290048015611b505780601f10611b2557610100808354040283529160200191611b50565b820191906000526020600020905b815481529060010190602001808311611b3357829003601f168201915b505050505090806004018054600181600116156101000203166002900480601f016020809104026020016040519081016040528092919081815260200182805460018160011615610100020316600290048015611bee5780601f10611bc357610100808354040283529160200191611bee565b820191906000526020600020905b815481529060010190602001808311611bd157829003601f168201915b505050505090806005018054600181600116156101000203166002900480601f016020809104026020016040519081016040528092919081815260200182805460018160011615610100020316600290048015611c8c5780601f10611c6157610100808354040283529160200191611c8c565b820191906000526020600020905b815481529060010190602001808311611c6f57829003601f168201915b505050505090806006018054600181600116156101000203166002900480601f016020809104026020016040519081016040528092919081815260200182805460018160011615610100020316600290048015611d2a5780601f10611cff57610100808354040283529160200191611d2a565b820191906000526020600020905b815481529060010190602001808311611d0d57829003601f168201915b5050505050908060070160009054906101000a900473ffffffffffffffffffffffffffffffffffffffff16905088565b6004818051602081018201805184825260208301602085012081835280955050505050506000915054906101000a900460ff1681565b600073ffffffffffffffffffffffffffffffffffffffff163373ffffffffffffffffffffffffffffffffffffffff161415611dca57600080fd5b600560003373ffffffffffffffffffffffffffffffffffffffff1673ffffffffffffffffffffffffffffffffffffffff16815260200190815260200160002060009054906101000a900460ff16611e2057600080fd5b60006004876040518082805190602001908083835b60208310611e585780518252602082019150602081019050602083039250611e35565b6001836020036101000a038019825116818451168082178552505050505050905001915050908152602001604051809103902060006101000a81548160ff02191690831515021790555060016003886040518082805190602001908083835b60208310611eda5780518252602082019150602081019050602083039250611eb7565b6001836020036101000a038019825116818451168082178552505050505050905001915050908152602001604051809103902060006101000a81548160ff02191690831515021790555060016004866040518082805190602001908083835b60208310611f5c5780518252602082019150602081019050602083039250611f39565b6001836020036101000a038019825116818451168082178552505050505050905001915050908152602001604051809103902060006101000a81548160ff0219169083151502179055506000604051806101000160405280600760003373ffffffffffffffffffffffffffffffffffffffff1673ffffffffffffffffffffffffffffffffffffffff1681526020019081526020016000205481526020018981526020018781526020018681526020018581526020018481526020018381526020013373ffffffffffffffffffffffffffffffffffffffff16815250905080600160003373ffffffffffffffffffffffffffffffffffffffff1673ffffffffffffffffffffffffffffffffffffffff16815260200190815260200160002060008201518160000155602082015181600101908051906020019061209f9291906127d6565b5060408201518160020190805190602001906120bc9291906127d6565b5060608201518160030190805190602001906120d99291906127d6565b5060808201518160040190805190602001906120f69291906127d6565b5060a08201518160050190805190602001906121139291906127d6565b5060c08201518160060190805190602001906121309291906127d6565b5060e08201518160070160006101000a81548173ffffffffffffffffffffffffffffffffffffffff021916908373ffffffffffffffffffffffffffffffffffffffff1602179055509050508060026000600760003373ffffffffffffffffffffffffffffffffffffffff1673ffffffffffffffffffffffffffffffffffffffff1681526020019081526020016000205481526020019081526020016000206000820151816000015560208201518160010190805190602001906121f49291906127d6565b5060408201518160020190805190602001906122119291906127d6565b50606082015181600301908051906020019061222e9291906127d6565b50608082015181600401908051906020019061224b9291906127d6565b5060a08201518160050190805190602001906122689291906127d6565b5060c08201518160060190805190602001906122859291906127d6565b5060e08201518160070160006101000a81548173ffffffffffffffffffffffffffffffffffffffff021916908373ffffffffffffffffffffffffffffffffffffffff1602179055509050505050505050505050565b60076020528060005260406000206000915090505481565b6003818051602081018201805184825260208301602085012081835280955050505050506000915054906101000a900460ff1681565b60066020528060005260406000206000915090508054600181600116156101000203166002900480601f0160208091040260200160405190810160405280929190818152602001828054600181600116156101000203166002900480156123d05780601f106123a5576101008083540402835291602001916123d0565b820191906000526020600020905b8154815290600101906020018083116123b357829003601f168201915b505050505081565b6001602052806000526040600020600091509050806000015490806001018054600181600116156101000203166002900480601f01602080910402602001604051908101604052809291908181526020018280546001816001161561010002031660029004801561248a5780601f1061245f5761010080835404028352916020019161248a565b820191906000526020600020905b81548152906001019060200180831161246d57829003601f168201915b505050505090806002018054600181600116156101000203166002900480601f0160208091040260200160405190810160405280929190818152602001828054600181600116156101000203166002900480156125285780601f106124fd57610100808354040283529160200191612528565b820191906000526020600020905b81548152906001019060200180831161250b57829003601f168201915b505050505090806003018054600181600116156101000203166002900480601f0160208091040260200160405190810160405280929190818152602001828054600181600116156101000203166002900480156125c65780601f1061259b576101008083540402835291602001916125c6565b820191906000526020600020905b8154815290600101906020018083116125a957829003601f168201915b505050505090806004018054600181600116156101000203166002900480601f0160208091040260200160405190810160405280929190818152602001828054600181600116156101000203166002900480156126645780601f1061263957610100808354040283529160200191612664565b820191906000526020600020905b81548152906001019060200180831161264757829003601f168201915b505050505090806005018054600181600116156101000203166002900480601f0160208091040260200160405190810160405280929190818152602001828054600181600116156101000203166002900480156127025780601f106126d757610100808354040283529160200191612702565b820191906000526020600020905b8154815290600101906020018083116126e557829003601f168201915b505050505090806006018054600181600116156101000203166002900480601f0160208091040260200160405190810160405280929190818152602001828054600181600116156101000203166002900480156127a05780601f10612775576101008083540402835291602001916127a0565b820191906000526020600020905b81548152906001019060200180831161278357829003601f168201915b5050505050908060070160009054906101000a900473ffffffffffffffffffffffffffffffffffffffff16905088565b60005481565b828054600181600116156101000203166002900490600052602060002090601f01602090048101928261280c5760008555612853565b82601f1061282557805160ff1916838001178555612853565b82800160010185558215612853579182015b82811115612852578251825591602001919060010190612837565b5b5090506128609190612864565b5090565b5b8082111561287d576000816000905550600101612865565b509056fea2646970667358221220b4a0ff6acfa8e1500cf3f6374d9eb6ab6b7ca0fba5d85e2fe12aaf69d4801f3864736f6c63430007060033",
  "immutableReferences": {},
  "source": "// SPDX-License-Identifier: MIT\r\npragma solidity >=0.4.21 <0.8.0;\r\n\r\n\r\ncontract Users{\r\n\r\n  // total number of users\r\n  uint256 public userCounter;\r\n  \r\n  //define user struct\r\n  struct User{\r\n    uint userId;\r\n    string userName;\r\n    string email;\r\n    string social;\r\n    string repo;\r\n    string bio;\r\n    string avatarhash;\r\n    address userAddress;\r\n  }\r\n  \r\n  // map cryptoboy's token id to crypto boy\r\n  mapping(address => User) public allUsers;\r\n  mapping(uint => User) public allUsersById;\r\n  // check if token name exists\r\n  mapping(string => bool) public userNameExists;\r\n  // check if image exists\r\n  mapping(string => bool) public userEmailExists;\r\n  // check if user Address exists\r\n  mapping(address => bool) public userAddressExists;\r\n  //map address to username\r\n  mapping(address=>string)public addressToName;\r\n  //map address to userId\r\n  mapping(address=>uint)public addressToId;\r\n  //map name to address\r\n  mapping(string=>address)public nameToAddress;\r\n  \r\n  constructor(){\r\n   // userAddressExists[msg.sender]=true;\r\n  }\r\n\r\n \r\n  //create a user\r\n  function createUser(string memory _userName,string memory _email,string memory _social,string memory _repo,string memory _bio,string memory _avatar)external{\r\n    // check if thic fucntion caller is not an zero address account\r\n    require(msg.sender != address(0));\r\n    \r\n    // increment counter\r\n    userCounter ++;\r\n    // check if user already exists\r\n    require(!userAddressExists[msg.sender]); \r\n    // check if the userName already exists or not\r\n    require(!userNameExists[_userName]);\r\n\r\n    // check if the email already exists or not\r\n    require(!userEmailExists[_email]);\r\n    // make passed userName as exists\r\n    userNameExists[_userName]=true;\r\n    // make passed userAddress as exists\r\n    userAddressExists[msg.sender]=true;\r\n    // make passed email as exists\r\n    userEmailExists[_email]=true;\r\n    // creat a new user (struct) and pass in new values\r\n    User memory newUser=User(\r\n     userCounter,\r\n     _userName,\r\n     _email,\r\n     _social,\r\n     _repo,\r\n     _bio,\r\n     _avatar,\r\n     msg.sender\r\n    );\r\n    // add the address and it's user to all users mapping\r\n    allUsers[msg.sender] = newUser;\r\n    allUsersById[userCounter] =newUser;\r\n    nameToAddress[_userName]=msg.sender;\r\n\r\n  }\r\n\r\n  //update User\r\n  function updateUser(string memory _userName,string memory _oldemail,string memory _email,string memory _social,string memory _repo,string memory _bio,string memory _avatar)external{\r\n   // check if thic fucntion caller is not an zero address account\r\n    require(msg.sender != address(0));\r\n    // user already exists\r\n    require(userAddressExists[msg.sender]); \r\n    // check if the userName already exists or not\r\n    // if(keccak256(abi.encodePacked((addressToName[msg.sender])))==keccak256(abi.encodePacked((_userName)))){\r\n      \r\n    //   emit SameUserName(_userName);\r\n    //   userNameExists[_userName]=true;\r\n    // // make passed email as exists\r\n    // userEmailExists[_email]=true;\r\n    // User memory newUser=User(\r\n    //  addressToId[msg.sender],\r\n    //  _userName,\r\n    //  _email,\r\n    //  _social,\r\n    //  _repo,\r\n    //  _bio,\r\n    //  _avatar,\r\n    //  msg.sender\r\n    // );\r\n    //  // add the address and it's user to all users mapping\r\n    // allUsers[msg.sender] = newUser;\r\n    // }\r\n    // else{\r\n        \r\n    //require(!userNameExists[_userName]);\r\n    // check if the email already exists or not\r\n    //require(!userEmailExists[_email]);\r\n    // // make passed userName as exists\r\n    userEmailExists[_oldemail]=false;\r\n    userNameExists[_userName]=true;\r\n    // make passed email as exists\r\n    userEmailExists[_email]=true;\r\n    // creat a new user (struct) and pass in new values\r\n    User memory newUser=User(\r\n     addressToId[msg.sender],\r\n     _userName,\r\n     _email,\r\n     _social,\r\n     _repo,\r\n     _bio,\r\n     _avatar,\r\n     msg.sender\r\n    );\r\n     // add the address and it's user to all users mapping\r\n    allUsers[msg.sender] = newUser;\r\n    allUsersById[addressToId[msg.sender]] =newUser;\r\n    }\r\n   \r\n}\r\n\r\n\r\n",
  "sourcePath": "C:/Users/mehta/git/fashion-nft/src/contracts/Users.sol",
  "compiler": {
    "name": "solc",
    "version": "0.7.6+commit.7338295f.Emscripten.clang"
  },
  "schemaVersion": "3.4.1",
  "updatedAt": "2021-07-14T18:09:03.162Z",
  "networkType": "ethereum",
  "devdoc": {
    "kind": "dev",
    "methods": {},
    "version": 1
  },
  "userdoc": {
    "kind": "user",
    "methods": {},
    "version": 1
  }
}