{
  "contractName": "User",
  "abi": [
    {
      "inputs": [],
      "stateMutability": "nonpayable",
      "type": "constructor"
    },
    {
      "inputs": [
        {
          "internalType": "address",
          "name": "userAddress",
          "type": "address"
        }
      ],
      "name": "hasUser",
      "outputs": [
        {
          "internalType": "bool",
          "name": "hasIndeed",
          "type": "bool"
        }
      ],
      "stateMutability": "view",
      "type": "function",
      "constant": true
    },
    {
      "inputs": [
        {
          "internalType": "string",
          "name": "username",
          "type": "string"
        }
      ],
      "name": "usernameTaken",
      "outputs": [
        {
          "internalType": "bool",
          "name": "takenIndeed",
          "type": "bool"
        }
      ],
      "stateMutability": "view",
      "type": "function",
      "constant": true
    },
    {
      "inputs": [
        {
          "internalType": "string",
          "name": "username",
          "type": "string"
        },
        {
          "internalType": "string",
          "name": "ipfsHash",
          "type": "string"
        }
      ],
      "name": "createUser",
      "outputs": [
        {
          "internalType": "bool",
          "name": "success",
          "type": "bool"
        }
      ],
      "stateMutability": "nonpayable",
      "type": "function"
    },
    {
      "inputs": [
        {
          "internalType": "string",
          "name": "ipfsHash",
          "type": "string"
        }
      ],
      "name": "updateUser",
      "outputs": [
        {
          "internalType": "bool",
          "name": "success",
          "type": "bool"
        }
      ],
      "stateMutability": "nonpayable",
      "type": "function"
    },
    {
      "inputs": [],
      "name": "getUserCount",
      "outputs": [
        {
          "internalType": "uint256",
          "name": "count",
          "type": "uint256"
        }
      ],
      "stateMutability": "view",
      "type": "function",
      "constant": true
    },
    {
      "inputs": [
        {
          "internalType": "uint256",
          "name": "index",
          "type": "uint256"
        }
      ],
      "name": "getUserByIndex",
      "outputs": [
        {
          "internalType": "address",
          "name": "userAddress",
          "type": "address"
        },
        {
          "internalType": "string",
          "name": "username",
          "type": "string"
        },
        {
          "internalType": "string",
          "name": "ipfsHash",
          "type": "string"
        }
      ],
      "stateMutability": "view",
      "type": "function",
      "constant": true
    },
    {
      "inputs": [
        {
          "internalType": "uint256",
          "name": "index",
          "type": "uint256"
        }
      ],
      "name": "getAddressByIndex",
      "outputs": [
        {
          "internalType": "address",
          "name": "userAddress",
          "type": "address"
        }
      ],
      "stateMutability": "view",
      "type": "function",
      "constant": true
    },
    {
      "inputs": [
        {
          "internalType": "uint256",
          "name": "index",
          "type": "uint256"
        }
      ],
      "name": "getUsernameByIndex",
      "outputs": [
        {
          "internalType": "string",
          "name": "username",
          "type": "string"
        }
      ],
      "stateMutability": "view",
      "type": "function",
      "constant": true
    },
    {
      "inputs": [
        {
          "internalType": "uint256",
          "name": "index",
          "type": "uint256"
        }
      ],
      "name": "getIpfsHashByIndex",
      "outputs": [
        {
          "internalType": "string",
          "name": "ipfsHash",
          "type": "string"
        }
      ],
      "stateMutability": "view",
      "type": "function",
      "constant": true
    },
    {
      "inputs": [
        {
          "internalType": "address",
          "name": "userAddress",
          "type": "address"
        }
      ],
      "name": "getUserByAddress",
      "outputs": [
        {
          "internalType": "uint256",
          "name": "index",
          "type": "uint256"
        },
        {
          "internalType": "string",
          "name": "username",
          "type": "string"
        },
        {
          "internalType": "string",
          "name": "ipfsHash",
          "type": "string"
        }
      ],
      "stateMutability": "view",
      "type": "function",
      "constant": true
    },
    {
      "inputs": [
        {
          "internalType": "address",
          "name": "userAddress",
          "type": "address"
        }
      ],
      "name": "getIndexByAddress",
      "outputs": [
        {
          "internalType": "uint256",
          "name": "index",
          "type": "uint256"
        }
      ],
      "stateMutability": "view",
      "type": "function",
      "constant": true
    },
    {
      "inputs": [
        {
          "internalType": "address",
          "name": "userAddress",
          "type": "address"
        }
      ],
      "name": "getUsernameByAddress",
      "outputs": [
        {
          "internalType": "string",
          "name": "username",
          "type": "string"
        }
      ],
      "stateMutability": "view",
      "type": "function",
      "constant": true
    },
    {
      "inputs": [
        {
          "internalType": "address",
          "name": "userAddress",
          "type": "address"
        }
      ],
      "name": "getIpfsHashByAddress",
      "outputs": [
        {
          "internalType": "string",
          "name": "ipfsHash",
          "type": "string"
        }
      ],
      "stateMutability": "view",
      "type": "function",
      "constant": true
    },
    {
      "inputs": [
        {
          "internalType": "string",
          "name": "username",
          "type": "string"
        }
      ],
      "name": "getUserByUsername",
      "outputs": [
        {
          "internalType": "uint256",
          "name": "index",
          "type": "uint256"
        },
        {
          "internalType": "address",
          "name": "userAddress",
          "type": "address"
        },
        {
          "internalType": "string",
          "name": "ipfsHash",
          "type": "string"
        }
      ],
      "stateMutability": "view",
      "type": "function",
      "constant": true
    },
    {
      "inputs": [
        {
          "internalType": "string",
          "name": "username",
          "type": "string"
        }
      ],
      "name": "getIndexByUsername",
      "outputs": [
        {
          "internalType": "uint256",
          "name": "index",
          "type": "uint256"
        }
      ],
      "stateMutability": "view",
      "type": "function",
      "constant": true
    },
    {
      "inputs": [
        {
          "internalType": "string",
          "name": "username",
          "type": "string"
        }
      ],
      "name": "getAddressByUsername",
      "outputs": [
        {
          "internalType": "address",
          "name": "userAddress",
          "type": "address"
        }
      ],
      "stateMutability": "view",
      "type": "function",
      "constant": true
    },
    {
      "inputs": [
        {
          "internalType": "string",
          "name": "username",
          "type": "string"
        }
      ],
      "name": "getIpfsHashByUsername",
      "outputs": [
        {
          "internalType": "string",
          "name": "ipfsHash",
          "type": "string"
        }
      ],
      "stateMutability": "view",
      "type": "function",
      "constant": true
    }
  ],
  "bytecode": "0x60806040523480156200001157600080fd5b506002339080600181540180825580915050600190039060005260206000200160009091909190916101000a81548173ffffffffffffffffffffffffffffffffffffffff021916908373ffffffffffffffffffffffffffffffffffffffff160217905550600380600181540180825580915050600190039060005260206000200160006040518060400160405280600481526020017f73656c660000000000000000000000000000000000000000000000000000000081525090919091509080519060200190620000e49291906200015b565b50600480600181540180825580915050600190039060005260206000200160006040518060400160405280600d81526020017f6e6f742d617661696c61626c650000000000000000000000000000000000000081525090919091509080519060200190620001549291906200015b565b5062000211565b828054600181600116156101000203166002900490600052602060002090601f016020900481019282620001935760008555620001df565b82601f10620001ae57805160ff1916838001178555620001df565b82800160010185558215620001df579182015b82811115620001de578251825591602001919060010190620001c1565b5b509050620001ee9190620001f2565b5090565b5b808211156200020d576000816000905550600101620001f3565b5090565b61207380620002216000396000f3fe608060405234801561001057600080fd5b506004361061010b5760003560e01c8063a6c4ec0e116100a2578063ce10cf8811610071578063ce10cf8814610ac5578063ebb23e0a14610b1d578063ed1a998d14610bec578063f26e818a14610ca9578063ff5d32fe14610d7a5761010b565b8063a6c4ec0e1461085c578063a74380a6146108b6578063b5cb15f714610973578063bf4790e4146109915761010b565b80636322961d116100de5780636322961d1461038757806369c212f61461046c57806387b162b51461059c5780639f42af63146107045761010b565b80630b4f12f6146101105780630bac9fe7146101e15780631973ef911461028857806329f78d88146102e0575b600080fd5b6101c96004803603602081101561012657600080fd5b810190808035906020019064010000000081111561014357600080fd5b82018360208201111561015557600080fd5b8035906020019184600183028401116401000000008311171561017757600080fd5b91908080601f016020809104026020016040519081016040528093929190818152602001838380828437600081840152601f19601f820116905080830192505050505050509192919290505050610eaa565b60405180821515815260200191505060405180910390f35b61020d600480360360208110156101f757600080fd5b8101908080359060200190929190505050610f31565b6040518080602001828103825283818151815260200191508051906020019080838360005b8381101561024d578082015181840152602081019050610232565b50505050905090810190601f16801561027a5780820380516001836020036101000a031916815260200191505b509250505060405180910390f35b6102ca6004803603602081101561029e57600080fd5b81019080803573ffffffffffffffffffffffffffffffffffffffff169060200190929190505050610ffb565b6040518082815260200191505060405180910390f35b61030c600480360360208110156102f657600080fd5b8101908080359060200190929190505050611055565b6040518080602001828103825283818151815260200191508051906020019080838360005b8381101561034c578082015181840152602081019050610331565b50505050905090810190601f1680156103795780820380516001836020036101000a031916815260200191505b509250505060405180910390f35b6104406004803603602081101561039d57600080fd5b81019080803590602001906401000000008111156103ba57600080fd5b8201836020820111156103cc57600080fd5b803590602001918460018302840111640100000000831117156103ee57600080fd5b91908080601f016020809104026020016040519081016040528093929190818152602001838380828437600081840152601f19601f82011690508083019250505050505050919291929050505061111f565b604051808273ffffffffffffffffffffffffffffffffffffffff16815260200191505060405180910390f35b6104ae6004803603602081101561048257600080fd5b81019080803573ffffffffffffffffffffffffffffffffffffffff1690602001909291905050506111db565b604051808481526020018060200180602001838103835285818151815260200191508051906020019080838360005b838110156104f85780820151818401526020810190506104dd565b50505050905090810190601f1680156105255780820380516001836020036101000a031916815260200191505b50838103825284818151815260200191508051906020019080838360005b8381101561055e578082015181840152602081019050610543565b50505050905090810190601f16801561058b5780820380516001836020036101000a031916815260200191505b509550505050505060405180910390f35b6106ec600480360360408110156105b257600080fd5b81019080803590602001906401000000008111156105cf57600080fd5b8201836020820111156105e157600080fd5b8035906020019184600183028401116401000000008311171561060357600080fd5b91908080601f016020809104026020016040519081016040528093929190818152602001838380828437600081840152601f19601f8201169050808301925050505050505091929192908035906020019064010000000081111561066657600080fd5b82018360208201111561067857600080fd5b8035906020019184600183028401116401000000008311171561069a57600080fd5b91908080601f016020809104026020016040519081016040528093929190818152602001838380828437600081840152601f19601f82011690508083019250505050505050919291929050505061141f565b60405180821515815260200191505060405180910390f35b6107bd6004803603602081101561071a57600080fd5b810190808035906020019064010000000081111561073757600080fd5b82018360208201111561074957600080fd5b8035906020019184600183028401116401000000008311171561076b57600080fd5b91908080601f016020809104026020016040519081016040528093929190818152602001838380828437600081840152601f19601f8201169050808301925050505050505091929192905050506115c7565b604051808481526020018373ffffffffffffffffffffffffffffffffffffffff16815260200180602001828103825283818151815260200191508051906020019080838360005b8381101561081f578082015181840152602081019050610804565b50505050905090810190601f16801561084c5780820380516001836020036101000a031916815260200191505b5094505050505060405180910390f35b61089e6004803603602081101561087257600080fd5b81019080803573ffffffffffffffffffffffffffffffffffffffff16906020019092919050505061187a565b60405180821515815260200191505060405180910390f35b6108f8600480360360208110156108cc57600080fd5b81019080803573ffffffffffffffffffffffffffffffffffffffff169060200190929190505050611932565b6040518080602001828103825283818151815260200191508051906020019080838360005b8381101561093857808201518184015260208101905061091d565b50505050905090810190601f1680156109655780820380516001836020036101000a031916815260200191505b509250505060405180910390f35b61097b611a3b565b6040518082815260200191505060405180910390f35b610a4a600480360360208110156109a757600080fd5b81019080803590602001906401000000008111156109c457600080fd5b8201836020820111156109d657600080fd5b803590602001918460018302840111640100000000831117156109f857600080fd5b91908080601f016020809104026020016040519081016040528093929190818152602001838380828437600081840152601f19601f820116905080830192505050505050509192919290505050611a48565b6040518080602001828103825283818151815260200191508051906020019080838360005b83811015610a8a578082015181840152602081019050610a6f565b50505050905090810190601f168015610ab75780820380516001836020036101000a031916815260200191505b509250505060405180910390f35b610af160048036036020811015610adb57600080fd5b8101908080359060200190929190505050611b7c565b604051808273ffffffffffffffffffffffffffffffffffffffff16815260200191505060405180910390f35b610bd660048036036020811015610b3357600080fd5b8101908080359060200190640100000000811115610b5057600080fd5b820183602082011115610b6257600080fd5b80359060200191846001830284011164010000000083111715610b8457600080fd5b91908080601f016020809104026020016040519081016040528093929190818152602001838380828437600081840152601f19601f820116905080830192505050505050509192919290505050611bce565b6040518082815260200191505060405180910390f35b610c2e60048036036020811015610c0257600080fd5b81019080803573ffffffffffffffffffffffffffffffffffffffff169060200190929190505050611c53565b6040518080602001828103825283818151815260200191508051906020019080838360005b83811015610c6e578082015181840152602081019050610c53565b50505050905090810190601f168015610c9b5780820380516001836020036101000a031916815260200191505b509250505060405180910390f35b610d6260048036036020811015610cbf57600080fd5b8101908080359060200190640100000000811115610cdc57600080fd5b820183602082011115610cee57600080fd5b80359060200191846001830284011164010000000083111715610d1057600080fd5b91908080601f016020809104026020016040519081016040528093929190818152602001838380828437600081840152601f19601f820116905080830192505050505050509192919290505050611d5c565b60405180821515815260200191505060405180910390f35b610da660048036036020811015610d9057600080fd5b8101908080359060200190929190505050611dd1565b604051808473ffffffffffffffffffffffffffffffffffffffff1681526020018060200180602001838103835285818151815260200191508051906020019080838360005b83811015610e06578082015181840152602081019050610deb565b50505050905090810190601f168015610e335780820380516001836020036101000a031916815260200191505b50838103825284818151815260200191508051906020019080838360005b83811015610e6c578082015181840152602081019050610e51565b50505050905090810190601f168015610e995780820380516001836020036101000a031916815260200191505b509550505050505060405180910390f35b6000610eb53361187a565b610ebe57600080fd5b8160046000803373ffffffffffffffffffffffffffffffffffffffff1673ffffffffffffffffffffffffffffffffffffffff1681526020019081526020016000205481548110610f0a57fe5b906000526020600020019080519060200190610f27929190611f92565b5060019050919050565b60606002805490508210610f4457600080fd5b60038281548110610f5157fe5b906000526020600020018054600181600116156101000203166002900480601f016020809104026020016040519081016040528092919081815260200182805460018160011615610100020316600290048015610fef5780601f10610fc457610100808354040283529160200191610fef565b820191906000526020600020905b815481529060010190602001808311610fd257829003601f168201915b50505050509050919050565b60006110068261187a565b61100f57600080fd5b6000808373ffffffffffffffffffffffffffffffffffffffff1673ffffffffffffffffffffffffffffffffffffffff168152602001908152602001600020549050919050565b6060600280549050821061106857600080fd5b6004828154811061107557fe5b906000526020600020018054600181600116156101000203166002900480601f0160208091040260200160405190810160405280929190818152602001828054600181600116156101000203166002900480156111135780601f106110e857610100808354040283529160200191611113565b820191906000526020600020905b8154815290600101906020018083116110f657829003601f168201915b50505050509050919050565b600061112a82611d5c565b61113357600080fd5b60026001836040518082805190602001908083835b6020831061116b5780518252602082019150602081019050602083039250611148565b6001836020036101000a038019825116818451168082178552505050505050905001915050908152602001604051809103902054815481106111a957fe5b9060005260206000200160009054906101000a900473ffffffffffffffffffffffffffffffffffffffff169050919050565b600060608060028054905083106111f157600080fd5b6000808573ffffffffffffffffffffffffffffffffffffffff1673ffffffffffffffffffffffffffffffffffffffff1681526020019081526020016000205460036000808773ffffffffffffffffffffffffffffffffffffffff1673ffffffffffffffffffffffffffffffffffffffff168152602001908152602001600020548154811061127b57fe5b9060005260206000200160046000808873ffffffffffffffffffffffffffffffffffffffff1673ffffffffffffffffffffffffffffffffffffffff16815260200190815260200160002054815481106112d057fe5b90600052602060002001818054600181600116156101000203166002900480601f01602080910402602001604051908101604052809291908181526020018280546001816001161561010002031660029004801561136f5780601f106113445761010080835404028352916020019161136f565b820191906000526020600020905b81548152906001019060200180831161135257829003601f168201915b50505050509150808054600181600116156101000203166002900480601f01602080910402602001604051908101604052809291908181526020018280546001816001161561010002031660029004801561140b5780601f106113e05761010080835404028352916020019161140b565b820191906000526020600020905b8154815290600101906020018083116113ee57829003601f168201915b505050505090509250925092509193909250565b60006002339080600181540180825580915050600190039060005260206000200160009091909190916101000a81548173ffffffffffffffffffffffffffffffffffffffff021916908373ffffffffffffffffffffffffffffffffffffffff1602179055506003839080600181540180825580915050600190039060005260206000200160009091909190915090805190602001906114bf929190611f92565b506004829080600181540180825580915050600190039060005260206000200160009091909190915090805190602001906114fb929190611f92565b506001600280549050036000803373ffffffffffffffffffffffffffffffffffffffff1673ffffffffffffffffffffffffffffffffffffffff168152602001908152602001600020819055506001600280549050036001846040518082805190602001908083835b602083106115865780518252602082019150602081019050602083039250611563565b6001836020036101000a0380198251168184511680821785525050505050509050019150509081526020016040518091039020819055506001905092915050565b60008060606002805490506001856040518082805190602001908083835b6020831061160857805182526020820191506020810190506020830392506115e5565b6001836020036101000a0380198251168184511680821785525050505050509050019150509081526020016040518091039020541061164657600080fd5b6001846040518082805190602001908083835b6020831061167c5780518252602082019150602081019050602083039250611659565b6001836020036101000a03801982511681845116808217855250505050505090500191505090815260200160405180910390205460026001866040518082805190602001908083835b602083106116e857805182526020820191506020810190506020830392506116c5565b6001836020036101000a0380198251168184511680821785525050505050509050019150509081526020016040518091039020548154811061172657fe5b9060005260206000200160009054906101000a900473ffffffffffffffffffffffffffffffffffffffff1660046001876040518082805190602001908083835b602083106117895780518252602082019150602081019050602083039250611766565b6001836020036101000a038019825116818451168082178552505050505050905001915050908152602001604051809103902054815481106117c757fe5b90600052602060002001808054600181600116156101000203166002900480601f0160208091040260200160405190810160405280929190818152602001828054600181600116156101000203166002900480156118665780601f1061183b57610100808354040283529160200191611866565b820191906000526020600020905b81548152906001019060200180831161184957829003601f168201915b505050505090509250925092509193909250565b6000806000808473ffffffffffffffffffffffffffffffffffffffff1673ffffffffffffffffffffffffffffffffffffffff16815260200190815260200160002054118061192b575060026000815481106118d157fe5b9060005260206000200160009054906101000a900473ffffffffffffffffffffffffffffffffffffffff1673ffffffffffffffffffffffffffffffffffffffff168273ffffffffffffffffffffffffffffffffffffffff16145b9050919050565b606061193d8261187a565b61194657600080fd5b60046000808473ffffffffffffffffffffffffffffffffffffffff1673ffffffffffffffffffffffffffffffffffffffff168152602001908152602001600020548154811061199157fe5b906000526020600020018054600181600116156101000203166002900480601f016020809104026020016040519081016040528092919081815260200182805460018160011615610100020316600290048015611a2f5780601f10611a0457610100808354040283529160200191611a2f565b820191906000526020600020905b815481529060010190602001808311611a1257829003601f168201915b50505050509050919050565b6000600280549050905090565b6060611a5382611d5c565b611a5c57600080fd5b60046001836040518082805190602001908083835b60208310611a945780518252602082019150602081019050602083039250611a71565b6001836020036101000a03801982511681845116808217855250505050505090500191505090815260200160405180910390205481548110611ad257fe5b906000526020600020018054600181600116156101000203166002900480601f016020809104026020016040519081016040528092919081815260200182805460018160011615610100020316600290048015611b705780601f10611b4557610100808354040283529160200191611b70565b820191906000526020600020905b815481529060010190602001808311611b5357829003601f168201915b50505050509050919050565b60006002805490508210611b8f57600080fd5b60028281548110611b9c57fe5b9060005260206000200160009054906101000a900473ffffffffffffffffffffffffffffffffffffffff169050919050565b6000611bd982611d5c565b611be257600080fd5b6001826040518082805190602001908083835b60208310611c185780518252602082019150602081019050602083039250611bf5565b6001836020036101000a0380198251168184511680821785525050505050509050019150509081526020016040518091039020549050919050565b6060611c5e8261187a565b611c6757600080fd5b60036000808473ffffffffffffffffffffffffffffffffffffffff1673ffffffffffffffffffffffffffffffffffffffff1681526020019081526020016000205481548110611cb257fe5b906000526020600020018054600181600116156101000203166002900480601f016020809104026020016040519081016040528092919081815260200182805460018160011615610100020316600290048015611d505780601f10611d2557610100808354040283529160200191611d50565b820191906000526020600020905b815481529060010190602001808311611d3357829003601f168201915b50505050509050919050565b6000806001836040518082805190602001908083835b60208310611d955780518252602082019150602081019050602083039250611d72565b6001836020036101000a038019825116818451168082178552505050505050905001915050908152602001604051809103902054119050919050565b60006060806002805490508410611de757600080fd5b60028481548110611df457fe5b9060005260206000200160009054906101000a900473ffffffffffffffffffffffffffffffffffffffff1660038581548110611e2c57fe5b9060005260206000200160048681548110611e4357fe5b90600052602060002001818054600181600116156101000203166002900480601f016020809104026020016040519081016040528092919081815260200182805460018160011615610100020316600290048015611ee25780601f10611eb757610100808354040283529160200191611ee2565b820191906000526020600020905b815481529060010190602001808311611ec557829003601f168201915b50505050509150808054600181600116156101000203166002900480601f016020809104026020016040519081016040528092919081815260200182805460018160011615610100020316600290048015611f7e5780601f10611f5357610100808354040283529160200191611f7e565b820191906000526020600020905b815481529060010190602001808311611f6157829003601f168201915b505050505090509250925092509193909250565b828054600181600116156101000203166002900490600052602060002090601f016020900481019282611fc8576000855561200f565b82601f10611fe157805160ff191683800117855561200f565b8280016001018555821561200f579182015b8281111561200e578251825591602001919060010190611ff3565b5b50905061201c9190612020565b5090565b5b80821115612039576000816000905550600101612021565b509056fea2646970667358221220be18510ee9b66ac0bc431c3792939fc63b49a2784db27362a186913d4dd3ce2e64736f6c63430007060033",
  "immutableReferences": {},
  "source": "// SPDX-License-Identifier: MIT\r\npragma solidity >=0.4.21 <0.8.0;\r\ncontract User {\r\n    \r\n  mapping(address => uint) private addressToIndex;\r\n  mapping(string  => uint) private usernameToIndex;\r\n  address[] private addresses;\r\n  string [] private usernames;\r\n  string[] private ipfsHashes;\r\nconstructor ()public {\r\n    // mappings are virtually initialized to zero values so we need to \"waste\" the first element of the arrays\r\n    // instead of wasting it we use it to create a user for the contract itself\r\n    addresses.push(msg.sender);\r\n    usernames.push('self');\r\n    ipfsHashes.push('not-available');\r\n}\r\nfunction hasUser(address userAddress) public view returns(bool hasIndeed) \r\n  {\r\n    return (addressToIndex[userAddress] > 0 || userAddress == addresses[0]);\r\n  }\r\nfunction usernameTaken(string memory username) public view returns(bool takenIndeed) \r\n  {\r\n    return (usernameToIndex[username] > 0);\r\n  }\r\n  \r\n  function createUser(string memory username, string memory ipfsHash) public returns(bool success)\r\n  {\r\n //  require(!hasUser(msg.sender));\r\n //  require(!usernameTaken(username));\r\naddresses.push(msg.sender);\r\n    usernames.push(username);\r\n    ipfsHashes.push(ipfsHash);\r\naddressToIndex[msg.sender] = addresses.length - 1;\r\n    usernameToIndex[username] = addresses.length - 1;\r\n    \r\n    return true;\r\n  }\r\nfunction updateUser(string memory ipfsHash) public returns(bool success)\r\n  {\r\n    require(hasUser(msg.sender));\r\n    \r\n    ipfsHashes[addressToIndex[msg.sender]] = ipfsHash;\r\n    return true;\r\n  }  \r\n \r\n  function getUserCount() public view returns(uint count)\r\n  {\r\n    return addresses.length;\r\n  }\r\n// get by index\r\n  function getUserByIndex(uint index) public view returns(address userAddress, string memory username, string memory ipfsHash) {\r\n    require(index < addresses.length);\r\nreturn(addresses[index], usernames[index], ipfsHashes[index]);\r\n  }\r\nfunction getAddressByIndex(uint index) public view returns(address userAddress)\r\n  {\r\n    require(index < addresses.length);\r\nreturn addresses[index];\r\n  }\r\nfunction getUsernameByIndex(uint index) public view returns(string memory username)\r\n  {\r\n    require(index < addresses.length);\r\nreturn usernames[index];\r\n  }\r\nfunction getIpfsHashByIndex(uint index) public view returns(string memory ipfsHash)\r\n  {\r\n    require(index < addresses.length);\r\nreturn ipfsHashes[index];\r\n  }\r\n// get by address\r\n  function getUserByAddress(address userAddress) public view returns(uint index, string memory username, string memory ipfsHash) {\r\n    require(index < addresses.length);\r\nreturn(addressToIndex[userAddress], usernames[addressToIndex[userAddress]], ipfsHashes[addressToIndex[userAddress]]);\r\n  }\r\nfunction getIndexByAddress(address userAddress) public view returns(uint index)\r\n  {\r\n    require(hasUser(userAddress));\r\nreturn addressToIndex[userAddress];\r\n  }\r\nfunction getUsernameByAddress(address userAddress) public view returns(string memory  username)\r\n  {\r\n    require(hasUser(userAddress));\r\nreturn usernames[addressToIndex[userAddress]];\r\n  }\r\nfunction getIpfsHashByAddress(address userAddress) public view returns(string memory ipfsHash)\r\n  {\r\n    require(hasUser(userAddress));\r\nreturn ipfsHashes[addressToIndex[userAddress]];\r\n  }\r\n// get by username\r\n  function getUserByUsername(string memory username) public view returns(uint index, address userAddress, string memory ipfsHash) {\r\n    require(usernameToIndex[username] < addresses.length);\r\nreturn(usernameToIndex[username], addresses[usernameToIndex[username]], ipfsHashes[usernameToIndex[username]]);\r\n  }\r\nfunction getIndexByUsername(string memory username) public view returns(uint index)\r\n  {\r\n    require(usernameTaken(username));\r\nreturn usernameToIndex[username];\r\n  }\r\nfunction getAddressByUsername(string memory username) public view returns(address userAddress)\r\n  {\r\n    require(usernameTaken(username));\r\nreturn addresses[usernameToIndex[username]];\r\n  }\r\nfunction getIpfsHashByUsername(string memory username) public view returns(string memory ipfsHash)\r\n  {\r\n    require(usernameTaken(username));\r\nreturn ipfsHashes[usernameToIndex[username]];\r\n  }\r\n}",
  "sourcePath": "C:/Users/mehta/git/fashion-nft/src/contracts/User.sol",
  "compiler": {
    "name": "solc",
    "version": "0.7.6+commit.7338295f.Emscripten.clang"
  },
  "schemaVersion": "3.4.1",
  "updatedAt": "2021-07-06T11:19:33.730Z",
  "networkType": "ethereum",
  "devdoc": {
    "kind": "dev",
    "methods": {},
    "version": 1
  },
  "userdoc": {
    "kind": "user",
    "methods": {},
    "version": 1
  }
}