{
  "contractName": "Users",
  "abi": [
    {
      "inputs": [],
      "stateMutability": "nonpayable",
      "type": "constructor"
    },
    {
      "inputs": [
        {
          "internalType": "address",
          "name": "",
          "type": "address"
        }
      ],
      "name": "addressToId",
      "outputs": [
        {
          "internalType": "uint256",
          "name": "",
          "type": "uint256"
        }
      ],
      "stateMutability": "view",
      "type": "function",
      "constant": true
    },
    {
      "inputs": [
        {
          "internalType": "address",
          "name": "",
          "type": "address"
        }
      ],
      "name": "addressToName",
      "outputs": [
        {
          "internalType": "string",
          "name": "",
          "type": "string"
        }
      ],
      "stateMutability": "view",
      "type": "function",
      "constant": true
    },
    {
      "inputs": [
        {
          "internalType": "address",
          "name": "",
          "type": "address"
        }
      ],
      "name": "allUsers",
      "outputs": [
        {
          "internalType": "uint256",
          "name": "userId",
          "type": "uint256"
        },
        {
          "internalType": "string",
          "name": "userName",
          "type": "string"
        },
        {
          "internalType": "string",
          "name": "email",
          "type": "string"
        },
        {
          "internalType": "string",
          "name": "social",
          "type": "string"
        },
        {
          "internalType": "string",
          "name": "repo",
          "type": "string"
        },
        {
          "internalType": "string",
          "name": "bio",
          "type": "string"
        },
        {
          "internalType": "string",
          "name": "avatarhash",
          "type": "string"
        },
        {
          "internalType": "address",
          "name": "userAddress",
          "type": "address"
        }
      ],
      "stateMutability": "view",
      "type": "function",
      "constant": true
    },
    {
      "inputs": [
        {
          "internalType": "uint256",
          "name": "",
          "type": "uint256"
        }
      ],
      "name": "allUsersById",
      "outputs": [
        {
          "internalType": "uint256",
          "name": "userId",
          "type": "uint256"
        },
        {
          "internalType": "string",
          "name": "userName",
          "type": "string"
        },
        {
          "internalType": "string",
          "name": "email",
          "type": "string"
        },
        {
          "internalType": "string",
          "name": "social",
          "type": "string"
        },
        {
          "internalType": "string",
          "name": "repo",
          "type": "string"
        },
        {
          "internalType": "string",
          "name": "bio",
          "type": "string"
        },
        {
          "internalType": "string",
          "name": "avatarhash",
          "type": "string"
        },
        {
          "internalType": "address",
          "name": "userAddress",
          "type": "address"
        }
      ],
      "stateMutability": "view",
      "type": "function",
      "constant": true
    },
    {
      "inputs": [
        {
          "internalType": "string",
          "name": "",
          "type": "string"
        }
      ],
      "name": "nameToAddress",
      "outputs": [
        {
          "internalType": "address",
          "name": "",
          "type": "address"
        }
      ],
      "stateMutability": "view",
      "type": "function",
      "constant": true
    },
    {
      "inputs": [
        {
          "internalType": "string",
          "name": "",
          "type": "string"
        }
      ],
      "name": "nameToUser",
      "outputs": [
        {
          "internalType": "uint256",
          "name": "userId",
          "type": "uint256"
        },
        {
          "internalType": "string",
          "name": "userName",
          "type": "string"
        },
        {
          "internalType": "string",
          "name": "email",
          "type": "string"
        },
        {
          "internalType": "string",
          "name": "social",
          "type": "string"
        },
        {
          "internalType": "string",
          "name": "repo",
          "type": "string"
        },
        {
          "internalType": "string",
          "name": "bio",
          "type": "string"
        },
        {
          "internalType": "string",
          "name": "avatarhash",
          "type": "string"
        },
        {
          "internalType": "address",
          "name": "userAddress",
          "type": "address"
        }
      ],
      "stateMutability": "view",
      "type": "function",
      "constant": true
    },
    {
      "inputs": [
        {
          "internalType": "address",
          "name": "",
          "type": "address"
        }
      ],
      "name": "userAddressExists",
      "outputs": [
        {
          "internalType": "bool",
          "name": "",
          "type": "bool"
        }
      ],
      "stateMutability": "view",
      "type": "function",
      "constant": true
    },
    {
      "inputs": [],
      "name": "userCounter",
      "outputs": [
        {
          "internalType": "uint256",
          "name": "",
          "type": "uint256"
        }
      ],
      "stateMutability": "view",
      "type": "function",
      "constant": true
    },
    {
      "inputs": [
        {
          "internalType": "string",
          "name": "",
          "type": "string"
        }
      ],
      "name": "userEmailExists",
      "outputs": [
        {
          "internalType": "bool",
          "name": "",
          "type": "bool"
        }
      ],
      "stateMutability": "view",
      "type": "function",
      "constant": true
    },
    {
      "inputs": [
        {
          "internalType": "string",
          "name": "",
          "type": "string"
        }
      ],
      "name": "userNameExists",
      "outputs": [
        {
          "internalType": "bool",
          "name": "",
          "type": "bool"
        }
      ],
      "stateMutability": "view",
      "type": "function",
      "constant": true
    },
    {
      "inputs": [
        {
          "internalType": "string",
          "name": "_userName",
          "type": "string"
        },
        {
          "internalType": "string",
          "name": "_email",
          "type": "string"
        },
        {
          "internalType": "string",
          "name": "_social",
          "type": "string"
        },
        {
          "internalType": "string",
          "name": "_repo",
          "type": "string"
        },
        {
          "internalType": "string",
          "name": "_bio",
          "type": "string"
        },
        {
          "internalType": "string",
          "name": "_avatar",
          "type": "string"
        }
      ],
      "name": "createUser",
      "outputs": [],
      "stateMutability": "nonpayable",
      "type": "function"
    },
    {
      "inputs": [
        {
          "internalType": "string",
          "name": "_userName",
          "type": "string"
        },
        {
          "internalType": "string",
          "name": "_oldemail",
          "type": "string"
        },
        {
          "internalType": "string",
          "name": "_email",
          "type": "string"
        },
        {
          "internalType": "string",
          "name": "_social",
          "type": "string"
        },
        {
          "internalType": "string",
          "name": "_repo",
          "type": "string"
        },
        {
          "internalType": "string",
          "name": "_bio",
          "type": "string"
        },
        {
          "internalType": "string",
          "name": "_avatar",
          "type": "string"
        }
      ],
      "name": "updateUser",
      "outputs": [],
      "stateMutability": "nonpayable",
      "type": "function"
    }
  ],
  "bytecode": "0x608060405234801561001057600080fd5b5061331c806100206000396000f3fe608060405234801561001057600080fd5b50600436106100b45760003560e01c8063ad44e42c11610071578063ad44e42c14610cd2578063cb0e0d7d14611117578063e04b6f041461116f578063e2a04b6214611240578063edbece37146112fd578063f0c37a59146115fa576100b4565b806301dadb2b146100b957806302c905841461046757806308d88aad146104c157806348305c91146105a65780634ef8ba101461091a57806355d8a91414610c01575b600080fd5b610465600480360360c08110156100cf57600080fd5b81019080803590602001906401000000008111156100ec57600080fd5b8201836020820111156100fe57600080fd5b8035906020019184600183028401116401000000008311171561012057600080fd5b91908080601f016020809104026020016040519081016040528093929190818152602001838380828437600081840152601f19601f8201169050808301925050505050505091929192908035906020019064010000000081111561018357600080fd5b82018360208201111561019557600080fd5b803590602001918460018302840111640100000000831117156101b757600080fd5b91908080601f016020809104026020016040519081016040528093929190818152602001838380828437600081840152601f19601f8201169050808301925050505050505091929192908035906020019064010000000081111561021a57600080fd5b82018360208201111561022c57600080fd5b8035906020019184600183028401116401000000008311171561024e57600080fd5b91908080601f016020809104026020016040519081016040528093929190818152602001838380828437600081840152601f19601f820116905080830192505050505050509192919290803590602001906401000000008111156102b157600080fd5b8201836020820111156102c357600080fd5b803590602001918460018302840111640100000000831117156102e557600080fd5b91908080601f016020809104026020016040519081016040528093929190818152602001838380828437600081840152601f19601f8201169050808301925050505050505091929192908035906020019064010000000081111561034857600080fd5b82018360208201111561035a57600080fd5b8035906020019184600183028401116401000000008311171561037c57600080fd5b91908080601f016020809104026020016040519081016040528093929190818152602001838380828437600081840152601f19601f820116905080830192505050505050509192919290803590602001906401000000008111156103df57600080fd5b8201836020820111156103f157600080fd5b8035906020019184600183028401116401000000008311171561041357600080fd5b91908080601f016020809104026020016040519081016040528093929190818152602001838380828437600081840152601f19601f820116905080830192505050505050509192919290505050611618565b005b6104a96004803603602081101561047d57600080fd5b81019080803573ffffffffffffffffffffffffffffffffffffffff169060200190929190505050611de4565b60405180821515815260200191505060405180910390f35b61057a600480360360208110156104d757600080fd5b81019080803590602001906401000000008111156104f457600080fd5b82018360208201111561050657600080fd5b8035906020019184600183028401116401000000008311171561052857600080fd5b91908080601f016020809104026020016040519081016040528093929190818152602001838380828437600081840152601f19601f820116905080830192505050505050509192919290505050611e04565b604051808273ffffffffffffffffffffffffffffffffffffffff16815260200191505060405180910390f35b61065f600480360360208110156105bc57600080fd5b81019080803590602001906401000000008111156105d957600080fd5b8201836020820111156105eb57600080fd5b8035906020019184600183028401116401000000008311171561060d57600080fd5b91908080601f016020809104026020016040519081016040528093929190818152602001838380828437600081840152601f19601f820116905080830192505050505050509192919290505050611e4d565b604051808981526020018060200180602001806020018060200180602001806020018873ffffffffffffffffffffffffffffffffffffffff16815260200187810387528e818151815260200191508051906020019080838360005b838110156106d55780820151818401526020810190506106ba565b50505050905090810190601f1680156107025780820380516001836020036101000a031916815260200191505b5087810386528d818151815260200191508051906020019080838360005b8381101561073b578082015181840152602081019050610720565b50505050905090810190601f1680156107685780820380516001836020036101000a031916815260200191505b5087810385528c818151815260200191508051906020019080838360005b838110156107a1578082015181840152602081019050610786565b50505050905090810190601f1680156107ce5780820380516001836020036101000a031916815260200191505b5087810384528b818151815260200191508051906020019080838360005b838110156108075780820151818401526020810190506107ec565b50505050905090810190601f1680156108345780820380516001836020036101000a031916815260200191505b5087810383528a818151815260200191508051906020019080838360005b8381101561086d578082015181840152602081019050610852565b50505050905090810190601f16801561089a5780820380516001836020036101000a031916815260200191505b50878103825289818151815260200191508051906020019080838360005b838110156108d35780820151818401526020810190506108b8565b50505050905090810190601f1680156109005780820380516001836020036101000a031916815260200191505b509e50505050505050505050505050505060405180910390f35b6109466004803603602081101561093057600080fd5b810190808035906020019092919050505061225b565b604051808981526020018060200180602001806020018060200180602001806020018873ffffffffffffffffffffffffffffffffffffffff16815260200187810387528e818151815260200191508051906020019080838360005b838110156109bc5780820151818401526020810190506109a1565b50505050905090810190601f1680156109e95780820380516001836020036101000a031916815260200191505b5087810386528d818151815260200191508051906020019080838360005b83811015610a22578082015181840152602081019050610a07565b50505050905090810190601f168015610a4f5780820380516001836020036101000a031916815260200191505b5087810385528c818151815260200191508051906020019080838360005b83811015610a88578082015181840152602081019050610a6d565b50505050905090810190601f168015610ab55780820380516001836020036101000a031916815260200191505b5087810384528b818151815260200191508051906020019080838360005b83811015610aee578082015181840152602081019050610ad3565b50505050905090810190601f168015610b1b5780820380516001836020036101000a031916815260200191505b5087810383528a818151815260200191508051906020019080838360005b83811015610b54578082015181840152602081019050610b39565b50505050905090810190601f168015610b815780820380516001836020036101000a031916815260200191505b50878103825289818151815260200191508051906020019080838360005b83811015610bba578082015181840152602081019050610b9f565b50505050905090810190601f168015610be75780820380516001836020036101000a031916815260200191505b509e50505050505050505050505050505060405180910390f35b610cba60048036036020811015610c1757600080fd5b8101908080359060200190640100000000811115610c3457600080fd5b820183602082011115610c4657600080fd5b80359060200191846001830284011164010000000083111715610c6857600080fd5b91908080601f016020809104026020016040519081016040528093929190818152602001838380828437600081840152601f19601f820116905080830192505050505050509192919290505050612653565b60405180821515815260200191505060405180910390f35b611115600480360360e0811015610ce857600080fd5b8101908080359060200190640100000000811115610d0557600080fd5b820183602082011115610d1757600080fd5b80359060200191846001830284011164010000000083111715610d3957600080fd5b91908080601f016020809104026020016040519081016040528093929190818152602001838380828437600081840152601f19601f82011690508083019250505050505050919291929080359060200190640100000000811115610d9c57600080fd5b820183602082011115610dae57600080fd5b80359060200191846001830284011164010000000083111715610dd057600080fd5b91908080601f016020809104026020016040519081016040528093929190818152602001838380828437600081840152601f19601f82011690508083019250505050505050919291929080359060200190640100000000811115610e3357600080fd5b820183602082011115610e4557600080fd5b80359060200191846001830284011164010000000083111715610e6757600080fd5b91908080601f016020809104026020016040519081016040528093929190818152602001838380828437600081840152601f19601f82011690508083019250505050505050919291929080359060200190640100000000811115610eca57600080fd5b820183602082011115610edc57600080fd5b80359060200191846001830284011164010000000083111715610efe57600080fd5b91908080601f016020809104026020016040519081016040528093929190818152602001838380828437600081840152601f19601f82011690508083019250505050505050919291929080359060200190640100000000811115610f6157600080fd5b820183602082011115610f7357600080fd5b80359060200191846001830284011164010000000083111715610f9557600080fd5b91908080601f016020809104026020016040519081016040528093929190818152602001838380828437600081840152601f19601f82011690508083019250505050505050919291929080359060200190640100000000811115610ff857600080fd5b82018360208201111561100a57600080fd5b8035906020019184600183028401116401000000008311171561102c57600080fd5b91908080601f016020809104026020016040519081016040528093929190818152602001838380828437600081840152601f19601f8201169050808301925050505050505091929192908035906020019064010000000081111561108f57600080fd5b8201836020820111156110a157600080fd5b803590602001918460018302840111640100000000831117156110c357600080fd5b91908080601f016020809104026020016040519081016040528093929190818152602001838380828437600081840152601f19601f820116905080830192505050505050509192919290505050612689565b005b6111596004803603602081101561112d57600080fd5b81019080803573ffffffffffffffffffffffffffffffffffffffff169060200190929190505050612d3f565b6040518082815260200191505060405180910390f35b6112286004803603602081101561118557600080fd5b81019080803590602001906401000000008111156111a257600080fd5b8201836020820111156111b457600080fd5b803590602001918460018302840111640100000000831117156111d657600080fd5b91908080601f016020809104026020016040519081016040528093929190818152602001838380828437600081840152601f19601f820116905080830192505050505050509192919290505050612d57565b60405180821515815260200191505060405180910390f35b6112826004803603602081101561125657600080fd5b81019080803573ffffffffffffffffffffffffffffffffffffffff169060200190929190505050612d8d565b6040518080602001828103825283818151815260200191508051906020019080838360005b838110156112c25780820151818401526020810190506112a7565b50505050905090810190601f1680156112ef5780820380516001836020036101000a031916815260200191505b509250505060405180910390f35b61133f6004803603602081101561131357600080fd5b81019080803573ffffffffffffffffffffffffffffffffffffffff169060200190929190505050612e3d565b604051808981526020018060200180602001806020018060200180602001806020018873ffffffffffffffffffffffffffffffffffffffff16815260200187810387528e818151815260200191508051906020019080838360005b838110156113b557808201518184015260208101905061139a565b50505050905090810190601f1680156113e25780820380516001836020036101000a031916815260200191505b5087810386528d818151815260200191508051906020019080838360005b8381101561141b578082015181840152602081019050611400565b50505050905090810190601f1680156114485780820380516001836020036101000a031916815260200191505b5087810385528c818151815260200191508051906020019080838360005b83811015611481578082015181840152602081019050611466565b50505050905090810190601f1680156114ae5780820380516001836020036101000a031916815260200191505b5087810384528b818151815260200191508051906020019080838360005b838110156114e75780820151818401526020810190506114cc565b50505050905090810190601f1680156115145780820380516001836020036101000a031916815260200191505b5087810383528a818151815260200191508051906020019080838360005b8381101561154d578082015181840152602081019050611532565b50505050905090810190601f16801561157a5780820380516001836020036101000a031916815260200191505b50878103825289818151815260200191508051906020019080838360005b838110156115b3578082015181840152602081019050611598565b50505050905090810190601f1680156115e05780820380516001836020036101000a031916815260200191505b509e50505050505050505050505050505060405180910390f35b611602613235565b6040518082815260200191505060405180910390f35b600073ffffffffffffffffffffffffffffffffffffffff163373ffffffffffffffffffffffffffffffffffffffff16141561165257600080fd5b6000808154809291906001019190505550600560003373ffffffffffffffffffffffffffffffffffffffff1673ffffffffffffffffffffffffffffffffffffffff16815260200190815260200160002060009054906101000a900460ff16156116ba57600080fd5b6003866040518082805190602001908083835b602083106116f057805182526020820191506020810190506020830392506116cd565b6001836020036101000a038019825116818451168082178552505050505050905001915050908152602001604051809103902060009054906101000a900460ff161561173b57600080fd5b6004856040518082805190602001908083835b60208310611771578051825260208201915060208101905060208303925061174e565b6001836020036101000a038019825116818451168082178552505050505050905001915050908152602001604051809103902060009054906101000a900460ff16156117bc57600080fd5b60016003876040518082805190602001908083835b602083106117f457805182526020820191506020810190506020830392506117d1565b6001836020036101000a038019825116818451168082178552505050505050905001915050908152602001604051809103902060006101000a81548160ff0219169083151502179055506001600560003373ffffffffffffffffffffffffffffffffffffffff1673ffffffffffffffffffffffffffffffffffffffff16815260200190815260200160002060006101000a81548160ff02191690831515021790555060016004866040518082805190602001908083835b602083106118ce57805182526020820191506020810190506020830392506118ab565b6001836020036101000a038019825116818451168082178552505050505050905001915050908152602001604051809103902060006101000a81548160ff021916908315150217905550600060405180610100016040528060005481526020018881526020018781526020018681526020018581526020018481526020018381526020013373ffffffffffffffffffffffffffffffffffffffff16815250905080600160003373ffffffffffffffffffffffffffffffffffffffff1673ffffffffffffffffffffffffffffffffffffffff1681526020019081526020016000206000820151816000015560208201518160010190805190602001906119d492919061323b565b5060408201518160020190805190602001906119f192919061323b565b506060820151816003019080519060200190611a0e92919061323b565b506080820151816004019080519060200190611a2b92919061323b565b5060a0820151816005019080519060200190611a4892919061323b565b5060c0820151816006019080519060200190611a6592919061323b565b5060e08201518160070160006101000a81548173ffffffffffffffffffffffffffffffffffffffff021916908373ffffffffffffffffffffffffffffffffffffffff160217905550905050806002600080548152602001908152602001600020600082015181600001556020820151816001019080519060200190611aeb92919061323b565b506040820151816002019080519060200190611b0892919061323b565b506060820151816003019080519060200190611b2592919061323b565b506080820151816004019080519060200190611b4292919061323b565b5060a0820151816005019080519060200190611b5f92919061323b565b5060c0820151816006019080519060200190611b7c92919061323b565b5060e08201518160070160006101000a81548173ffffffffffffffffffffffffffffffffffffffff021916908373ffffffffffffffffffffffffffffffffffffffff160217905550905050806009886040518082805190602001908083835b60208310611bfe5780518252602082019150602081019050602083039250611bdb565b6001836020036101000a0380198251168184511680821785525050505050509050019150509081526020016040518091039020600082015181600001556020820151816001019080519060200190611c5792919061323b565b506040820151816002019080519060200190611c7492919061323b565b506060820151816003019080519060200190611c9192919061323b565b506080820151816004019080519060200190611cae92919061323b565b5060a0820151816005019080519060200190611ccb92919061323b565b5060c0820151816006019080519060200190611ce892919061323b565b5060e08201518160070160006101000a81548173ffffffffffffffffffffffffffffffffffffffff021916908373ffffffffffffffffffffffffffffffffffffffff160217905550905050336008886040518082805190602001908083835b60208310611d6a5780518252602082019150602081019050602083039250611d47565b6001836020036101000a038019825116818451168082178552505050505050905001915050908152602001604051809103902060006101000a81548173ffffffffffffffffffffffffffffffffffffffff021916908373ffffffffffffffffffffffffffffffffffffffff16021790555050505050505050565b60056020528060005260406000206000915054906101000a900460ff1681565b6008818051602081018201805184825260208301602085012081835280955050505050506000915054906101000a900473ffffffffffffffffffffffffffffffffffffffff1681565b600981805160208101820180518482526020830160208501208183528095505050505050600091509050806000015490806001018054600181600116156101000203166002900480601f016020809104026020016040519081016040528092919081815260200182805460018160011615610100020316600290048015611f155780601f10611eea57610100808354040283529160200191611f15565b820191906000526020600020905b815481529060010190602001808311611ef857829003601f168201915b505050505090806002018054600181600116156101000203166002900480601f016020809104026020016040519081016040528092919081815260200182805460018160011615610100020316600290048015611fb35780601f10611f8857610100808354040283529160200191611fb3565b820191906000526020600020905b815481529060010190602001808311611f9657829003601f168201915b505050505090806003018054600181600116156101000203166002900480601f0160208091040260200160405190810160405280929190818152602001828054600181600116156101000203166002900480156120515780601f1061202657610100808354040283529160200191612051565b820191906000526020600020905b81548152906001019060200180831161203457829003601f168201915b505050505090806004018054600181600116156101000203166002900480601f0160208091040260200160405190810160405280929190818152602001828054600181600116156101000203166002900480156120ef5780601f106120c4576101008083540402835291602001916120ef565b820191906000526020600020905b8154815290600101906020018083116120d257829003601f168201915b505050505090806005018054600181600116156101000203166002900480601f01602080910402602001604051908101604052809291908181526020018280546001816001161561010002031660029004801561218d5780601f106121625761010080835404028352916020019161218d565b820191906000526020600020905b81548152906001019060200180831161217057829003601f168201915b505050505090806006018054600181600116156101000203166002900480601f01602080910402602001604051908101604052809291908181526020018280546001816001161561010002031660029004801561222b5780601f106122005761010080835404028352916020019161222b565b820191906000526020600020905b81548152906001019060200180831161220e57829003601f168201915b5050505050908060070160009054906101000a900473ffffffffffffffffffffffffffffffffffffffff16905088565b6002602052806000526040600020600091509050806000015490806001018054600181600116156101000203166002900480601f01602080910402602001604051908101604052809291908181526020018280546001816001161561010002031660029004801561230d5780601f106122e25761010080835404028352916020019161230d565b820191906000526020600020905b8154815290600101906020018083116122f057829003601f168201915b505050505090806002018054600181600116156101000203166002900480601f0160208091040260200160405190810160405280929190818152602001828054600181600116156101000203166002900480156123ab5780601f10612380576101008083540402835291602001916123ab565b820191906000526020600020905b81548152906001019060200180831161238e57829003601f168201915b505050505090806003018054600181600116156101000203166002900480601f0160208091040260200160405190810160405280929190818152602001828054600181600116156101000203166002900480156124495780601f1061241e57610100808354040283529160200191612449565b820191906000526020600020905b81548152906001019060200180831161242c57829003601f168201915b505050505090806004018054600181600116156101000203166002900480601f0160208091040260200160405190810160405280929190818152602001828054600181600116156101000203166002900480156124e75780601f106124bc576101008083540402835291602001916124e7565b820191906000526020600020905b8154815290600101906020018083116124ca57829003601f168201915b505050505090806005018054600181600116156101000203166002900480601f0160208091040260200160405190810160405280929190818152602001828054600181600116156101000203166002900480156125855780601f1061255a57610100808354040283529160200191612585565b820191906000526020600020905b81548152906001019060200180831161256857829003601f168201915b505050505090806006018054600181600116156101000203166002900480601f0160208091040260200160405190810160405280929190818152602001828054600181600116156101000203166002900480156126235780601f106125f857610100808354040283529160200191612623565b820191906000526020600020905b81548152906001019060200180831161260657829003601f168201915b5050505050908060070160009054906101000a900473ffffffffffffffffffffffffffffffffffffffff16905088565b6004818051602081018201805184825260208301602085012081835280955050505050506000915054906101000a900460ff1681565b600073ffffffffffffffffffffffffffffffffffffffff163373ffffffffffffffffffffffffffffffffffffffff1614156126c357600080fd5b600560003373ffffffffffffffffffffffffffffffffffffffff1673ffffffffffffffffffffffffffffffffffffffff16815260200190815260200160002060009054906101000a900460ff1661271957600080fd5b60006004876040518082805190602001908083835b60208310612751578051825260208201915060208101905060208303925061272e565b6001836020036101000a038019825116818451168082178552505050505050905001915050908152602001604051809103902060006101000a81548160ff02191690831515021790555060016003886040518082805190602001908083835b602083106127d357805182526020820191506020810190506020830392506127b0565b6001836020036101000a038019825116818451168082178552505050505050905001915050908152602001604051809103902060006101000a81548160ff02191690831515021790555060016004866040518082805190602001908083835b602083106128555780518252602082019150602081019050602083039250612832565b6001836020036101000a038019825116818451168082178552505050505050905001915050908152602001604051809103902060006101000a81548160ff0219169083151502179055506000604051806101000160405280600760003373ffffffffffffffffffffffffffffffffffffffff1673ffffffffffffffffffffffffffffffffffffffff1681526020019081526020016000205481526020018981526020018781526020018681526020018581526020018481526020018381526020013373ffffffffffffffffffffffffffffffffffffffff16815250905080600160003373ffffffffffffffffffffffffffffffffffffffff1673ffffffffffffffffffffffffffffffffffffffff16815260200190815260200160002060008201518160000155602082015181600101908051906020019061299892919061323b565b5060408201518160020190805190602001906129b592919061323b565b5060608201518160030190805190602001906129d292919061323b565b5060808201518160040190805190602001906129ef92919061323b565b5060a0820151816005019080519060200190612a0c92919061323b565b5060c0820151816006019080519060200190612a2992919061323b565b5060e08201518160070160006101000a81548173ffffffffffffffffffffffffffffffffffffffff021916908373ffffffffffffffffffffffffffffffffffffffff1602179055509050508060026000600760003373ffffffffffffffffffffffffffffffffffffffff1673ffffffffffffffffffffffffffffffffffffffff168152602001908152602001600020548152602001908152602001600020600082015181600001556020820151816001019080519060200190612aed92919061323b565b506040820151816002019080519060200190612b0a92919061323b565b506060820151816003019080519060200190612b2792919061323b565b506080820151816004019080519060200190612b4492919061323b565b5060a0820151816005019080519060200190612b6192919061323b565b5060c0820151816006019080519060200190612b7e92919061323b565b5060e08201518160070160006101000a81548173ffffffffffffffffffffffffffffffffffffffff021916908373ffffffffffffffffffffffffffffffffffffffff160217905550905050806009896040518082805190602001908083835b60208310612c005780518252602082019150602081019050602083039250612bdd565b6001836020036101000a0380198251168184511680821785525050505050509050019150509081526020016040518091039020600082015181600001556020820151816001019080519060200190612c5992919061323b565b506040820151816002019080519060200190612c7692919061323b565b506060820151816003019080519060200190612c9392919061323b565b506080820151816004019080519060200190612cb092919061323b565b5060a0820151816005019080519060200190612ccd92919061323b565b5060c0820151816006019080519060200190612cea92919061323b565b5060e08201518160070160006101000a81548173ffffffffffffffffffffffffffffffffffffffff021916908373ffffffffffffffffffffffffffffffffffffffff1602179055509050505050505050505050565b60076020528060005260406000206000915090505481565b6003818051602081018201805184825260208301602085012081835280955050505050506000915054906101000a900460ff1681565b60066020528060005260406000206000915090508054600181600116156101000203166002900480601f016020809104026020016040519081016040528092919081815260200182805460018160011615610100020316600290048015612e355780601f10612e0a57610100808354040283529160200191612e35565b820191906000526020600020905b815481529060010190602001808311612e1857829003601f168201915b505050505081565b6001602052806000526040600020600091509050806000015490806001018054600181600116156101000203166002900480601f016020809104026020016040519081016040528092919081815260200182805460018160011615610100020316600290048015612eef5780601f10612ec457610100808354040283529160200191612eef565b820191906000526020600020905b815481529060010190602001808311612ed257829003601f168201915b505050505090806002018054600181600116156101000203166002900480601f016020809104026020016040519081016040528092919081815260200182805460018160011615610100020316600290048015612f8d5780601f10612f6257610100808354040283529160200191612f8d565b820191906000526020600020905b815481529060010190602001808311612f7057829003601f168201915b505050505090806003018054600181600116156101000203166002900480601f01602080910402602001604051908101604052809291908181526020018280546001816001161561010002031660029004801561302b5780601f106130005761010080835404028352916020019161302b565b820191906000526020600020905b81548152906001019060200180831161300e57829003601f168201915b505050505090806004018054600181600116156101000203166002900480601f0160208091040260200160405190810160405280929190818152602001828054600181600116156101000203166002900480156130c95780601f1061309e576101008083540402835291602001916130c9565b820191906000526020600020905b8154815290600101906020018083116130ac57829003601f168201915b505050505090806005018054600181600116156101000203166002900480601f0160208091040260200160405190810160405280929190818152602001828054600181600116156101000203166002900480156131675780601f1061313c57610100808354040283529160200191613167565b820191906000526020600020905b81548152906001019060200180831161314a57829003601f168201915b505050505090806006018054600181600116156101000203166002900480601f0160208091040260200160405190810160405280929190818152602001828054600181600116156101000203166002900480156132055780601f106131da57610100808354040283529160200191613205565b820191906000526020600020905b8154815290600101906020018083116131e857829003601f168201915b5050505050908060070160009054906101000a900473ffffffffffffffffffffffffffffffffffffffff16905088565b60005481565b828054600181600116156101000203166002900490600052602060002090601f01602090048101928261327157600085556132b8565b82601f1061328a57805160ff19168380011785556132b8565b828001600101855582156132b8579182015b828111156132b757825182559160200191906001019061329c565b5b5090506132c591906132c9565b5090565b5b808211156132e25760008160009055506001016132ca565b509056fea264697066735822122087d0eef87d7ee2e6505014ec5a8877bc657271e9a7a55abd473b98cedb3bfc5f64736f6c63430007060033",
  "immutableReferences": {},
  "source": "// SPDX-License-Identifier: MIT\r\npragma solidity >=0.4.21 <0.8.0;\r\n\r\n\r\ncontract Users{\r\n\r\n  // total number of users\r\n  uint256 public userCounter;\r\n  \r\n  //define user struct\r\n  struct User{\r\n    uint userId;\r\n    string userName;\r\n    string email;\r\n    string social;\r\n    string repo;\r\n    string bio;\r\n    string avatarhash;\r\n    address userAddress;\r\n  }\r\n  \r\n  // map cryptoboy's token id to crypto boy\r\n  mapping(address => User) public allUsers;\r\n  mapping(uint => User) public allUsersById;\r\n  // check if token name exists\r\n  mapping(string => bool) public userNameExists;\r\n  // check if image exists\r\n  mapping(string => bool) public userEmailExists;\r\n  // check if user Address exists\r\n  mapping(address => bool) public userAddressExists;\r\n  //map address to username\r\n  mapping(address=>string)public addressToName;\r\n  //map address to userId\r\n  mapping(address=>uint)public addressToId;\r\n  //map name to address\r\n  mapping(string=>address)public nameToAddress;\r\n  //map name to user\r\n  mapping(string=>User) public nameToUser;\r\n  \r\n  constructor(){\r\n   // userAddressExists[msg.sender]=true;\r\n  }\r\n\r\n \r\n  //create a user\r\n  function createUser(string memory _userName,string memory _email,string memory _social,string memory _repo,string memory _bio,string memory _avatar)external{\r\n    // check if thic fucntion caller is not an zero address account\r\n    require(msg.sender != address(0));\r\n    \r\n    // increment counter\r\n    userCounter ++;\r\n    // check if user already exists\r\n    require(!userAddressExists[msg.sender]); \r\n    // check if the userName already exists or not\r\n    require(!userNameExists[_userName]);\r\n\r\n    // check if the email already exists or not\r\n    require(!userEmailExists[_email]);\r\n    // make passed userName as exists\r\n    userNameExists[_userName]=true;\r\n    // make passed userAddress as exists\r\n    userAddressExists[msg.sender]=true;\r\n    // make passed email as exists\r\n    userEmailExists[_email]=true;\r\n    // creat a new user (struct) and pass in new values\r\n    User memory newUser=User(\r\n     userCounter,\r\n     _userName,\r\n     _email,\r\n     _social,\r\n     _repo,\r\n     _bio,\r\n     _avatar,\r\n     msg.sender\r\n    );\r\n    // add the address and it's user to all users mapping\r\n    allUsers[msg.sender] = newUser;\r\n    allUsersById[userCounter] =newUser;\r\n    nameToUser[_userName]=newUser;\r\n    nameToAddress[_userName]=msg.sender;\r\n\r\n  }\r\n\r\n  //update User\r\n  function updateUser(string memory _userName,string memory _oldemail,string memory _email,string memory _social,string memory _repo,string memory _bio,string memory _avatar)external{\r\n   // check if thic fucntion caller is not an zero address account\r\n    require(msg.sender != address(0));\r\n    // user already exists\r\n    require(userAddressExists[msg.sender]); \r\n    // check if the userName already exists or not\r\n    // if(keccak256(abi.encodePacked((addressToName[msg.sender])))==keccak256(abi.encodePacked((_userName)))){\r\n      \r\n    //   emit SameUserName(_userName);\r\n    //   userNameExists[_userName]=true;\r\n    // // make passed email as exists\r\n    // userEmailExists[_email]=true;\r\n    // User memory newUser=User(\r\n    //  addressToId[msg.sender],\r\n    //  _userName,\r\n    //  _email,\r\n    //  _social,\r\n    //  _repo,\r\n    //  _bio,\r\n    //  _avatar,\r\n    //  msg.sender\r\n    // );\r\n    //  // add the address and it's user to all users mapping\r\n    // allUsers[msg.sender] = newUser;\r\n    // }\r\n    // else{\r\n        \r\n    //require(!userNameExists[_userName]);\r\n    // check if the email already exists or not\r\n    //require(!userEmailExists[_email]);\r\n    // // make passed userName as exists\r\n    userEmailExists[_oldemail]=false;\r\n    userNameExists[_userName]=true;\r\n    // make passed email as exists\r\n    userEmailExists[_email]=true;\r\n    // creat a new user (struct) and pass in new values\r\n    User memory newUser=User(\r\n     addressToId[msg.sender],\r\n     _userName,\r\n     _email,\r\n     _social,\r\n     _repo,\r\n     _bio,\r\n     _avatar,\r\n     msg.sender\r\n    );\r\n     // add the address and it's user to all users mapping\r\n    allUsers[msg.sender] = newUser;\r\n    allUsersById[addressToId[msg.sender]] =newUser;\r\n    nameToUser[_userName]=newUser;\r\n    }\r\n   \r\n}\r\n\r\n\r\n",
  "sourcePath": "C:/Users/mehta/git/fashion-nft/src/contracts/Users.sol",
  "compiler": {
    "name": "solc",
    "version": "0.7.6+commit.7338295f.Emscripten.clang"
  },
  "schemaVersion": "3.4.1",
  "updatedAt": "2021-07-19T11:32:31.229Z",
  "networkType": "ethereum",
  "devdoc": {
    "kind": "dev",
    "methods": {},
    "version": 1
  },
  "userdoc": {
    "kind": "user",
    "methods": {},
    "version": 1
  }
}