{
  "contractName": "Users",
  "abi": [
    {
      "inputs": [],
      "stateMutability": "nonpayable",
      "type": "constructor"
    },
    {
      "inputs": [
        {
          "internalType": "address",
          "name": "",
          "type": "address"
        }
      ],
      "name": "addressToId",
      "outputs": [
        {
          "internalType": "uint256",
          "name": "",
          "type": "uint256"
        }
      ],
      "stateMutability": "view",
      "type": "function",
      "constant": true
    },
    {
      "inputs": [
        {
          "internalType": "address",
          "name": "",
          "type": "address"
        }
      ],
      "name": "addressToName",
      "outputs": [
        {
          "internalType": "string",
          "name": "",
          "type": "string"
        }
      ],
      "stateMutability": "view",
      "type": "function",
      "constant": true
    },
    {
      "inputs": [
        {
          "internalType": "address",
          "name": "",
          "type": "address"
        }
      ],
      "name": "allUsers",
      "outputs": [
        {
          "internalType": "uint256",
          "name": "userId",
          "type": "uint256"
        },
        {
          "internalType": "string",
          "name": "userName",
          "type": "string"
        },
        {
          "internalType": "string",
          "name": "email",
          "type": "string"
        },
        {
          "internalType": "string",
          "name": "social",
          "type": "string"
        },
        {
          "internalType": "string",
          "name": "repo",
          "type": "string"
        },
        {
          "internalType": "string",
          "name": "bio",
          "type": "string"
        },
        {
          "internalType": "string",
          "name": "avatarhash",
          "type": "string"
        },
        {
          "internalType": "address",
          "name": "userAddress",
          "type": "address"
        }
      ],
      "stateMutability": "view",
      "type": "function",
      "constant": true
    },
    {
      "inputs": [
        {
          "internalType": "address",
          "name": "",
          "type": "address"
        }
      ],
      "name": "userAddressExists",
      "outputs": [
        {
          "internalType": "bool",
          "name": "",
          "type": "bool"
        }
      ],
      "stateMutability": "view",
      "type": "function",
      "constant": true
    },
    {
      "inputs": [],
      "name": "userCounter",
      "outputs": [
        {
          "internalType": "uint256",
          "name": "",
          "type": "uint256"
        }
      ],
      "stateMutability": "view",
      "type": "function",
      "constant": true
    },
    {
      "inputs": [
        {
          "internalType": "string",
          "name": "",
          "type": "string"
        }
      ],
      "name": "userEmailExists",
      "outputs": [
        {
          "internalType": "bool",
          "name": "",
          "type": "bool"
        }
      ],
      "stateMutability": "view",
      "type": "function",
      "constant": true
    },
    {
      "inputs": [
        {
          "internalType": "string",
          "name": "",
          "type": "string"
        }
      ],
      "name": "userNameExists",
      "outputs": [
        {
          "internalType": "bool",
          "name": "",
          "type": "bool"
        }
      ],
      "stateMutability": "view",
      "type": "function",
      "constant": true
    },
    {
      "inputs": [
        {
          "internalType": "string",
          "name": "_userName",
          "type": "string"
        },
        {
          "internalType": "string",
          "name": "_email",
          "type": "string"
        },
        {
          "internalType": "string",
          "name": "_social",
          "type": "string"
        },
        {
          "internalType": "string",
          "name": "_repo",
          "type": "string"
        },
        {
          "internalType": "string",
          "name": "_bio",
          "type": "string"
        },
        {
          "internalType": "string",
          "name": "_avatar",
          "type": "string"
        }
      ],
      "name": "createUser",
      "outputs": [],
      "stateMutability": "nonpayable",
      "type": "function"
    },
    {
      "inputs": [
        {
          "internalType": "string",
          "name": "_userName",
          "type": "string"
        },
        {
          "internalType": "string",
          "name": "_email",
          "type": "string"
        },
        {
          "internalType": "string",
          "name": "_social",
          "type": "string"
        },
        {
          "internalType": "string",
          "name": "_repo",
          "type": "string"
        },
        {
          "internalType": "string",
          "name": "_bio",
          "type": "string"
        },
        {
          "internalType": "string",
          "name": "_avatar",
          "type": "string"
        }
      ],
      "name": "updateUser",
      "outputs": [],
      "stateMutability": "nonpayable",
      "type": "function"
    }
  ],
  "bytecode": "0x608060405234801561001057600080fd5b50611c66806100206000396000f3fe608060405234801561001057600080fd5b50600436106100935760003560e01c8063cb0e0d7d11610066578063cb0e0d7d1461091f578063e04b6f0414610977578063e2a04b6214610a48578063edbece3714610b05578063f0c37a5914610e0257610093565b806301dadb2b1461009857806302c905841461044657806315f5744a146104a057806355d8a9141461084e575b600080fd5b610444600480360360c08110156100ae57600080fd5b81019080803590602001906401000000008111156100cb57600080fd5b8201836020820111156100dd57600080fd5b803590602001918460018302840111640100000000831117156100ff57600080fd5b91908080601f016020809104026020016040519081016040528093929190818152602001838380828437600081840152601f19601f8201169050808301925050505050505091929192908035906020019064010000000081111561016257600080fd5b82018360208201111561017457600080fd5b8035906020019184600183028401116401000000008311171561019657600080fd5b91908080601f016020809104026020016040519081016040528093929190818152602001838380828437600081840152601f19601f820116905080830192505050505050509192919290803590602001906401000000008111156101f957600080fd5b82018360208201111561020b57600080fd5b8035906020019184600183028401116401000000008311171561022d57600080fd5b91908080601f016020809104026020016040519081016040528093929190818152602001838380828437600081840152601f19601f8201169050808301925050505050505091929192908035906020019064010000000081111561029057600080fd5b8201836020820111156102a257600080fd5b803590602001918460018302840111640100000000831117156102c457600080fd5b91908080601f016020809104026020016040519081016040528093929190818152602001838380828437600081840152601f19601f8201169050808301925050505050505091929192908035906020019064010000000081111561032757600080fd5b82018360208201111561033957600080fd5b8035906020019184600183028401116401000000008311171561035b57600080fd5b91908080601f016020809104026020016040519081016040528093929190818152602001838380828437600081840152601f19601f820116905080830192505050505050509192919290803590602001906401000000008111156103be57600080fd5b8201836020820111156103d057600080fd5b803590602001918460018302840111640100000000831117156103f257600080fd5b91908080601f016020809104026020016040519081016040528093929190818152602001838380828437600081840152601f19601f820116905080830192505050505050509192919290505050610e20565b005b6104886004803603602081101561045c57600080fd5b81019080803573ffffffffffffffffffffffffffffffffffffffff1690602001909291905050506112c1565b60405180821515815260200191505060405180910390f35b61084c600480360360c08110156104b657600080fd5b81019080803590602001906401000000008111156104d357600080fd5b8201836020820111156104e557600080fd5b8035906020019184600183028401116401000000008311171561050757600080fd5b91908080601f016020809104026020016040519081016040528093929190818152602001838380828437600081840152601f19601f8201169050808301925050505050505091929192908035906020019064010000000081111561056a57600080fd5b82018360208201111561057c57600080fd5b8035906020019184600183028401116401000000008311171561059e57600080fd5b91908080601f016020809104026020016040519081016040528093929190818152602001838380828437600081840152601f19601f8201169050808301925050505050505091929192908035906020019064010000000081111561060157600080fd5b82018360208201111561061357600080fd5b8035906020019184600183028401116401000000008311171561063557600080fd5b91908080601f016020809104026020016040519081016040528093929190818152602001838380828437600081840152601f19601f8201169050808301925050505050505091929192908035906020019064010000000081111561069857600080fd5b8201836020820111156106aa57600080fd5b803590602001918460018302840111640100000000831117156106cc57600080fd5b91908080601f016020809104026020016040519081016040528093929190818152602001838380828437600081840152601f19601f8201169050808301925050505050505091929192908035906020019064010000000081111561072f57600080fd5b82018360208201111561074157600080fd5b8035906020019184600183028401116401000000008311171561076357600080fd5b91908080601f016020809104026020016040519081016040528093929190818152602001838380828437600081840152601f19601f820116905080830192505050505050509192919290803590602001906401000000008111156107c657600080fd5b8201836020820111156107d857600080fd5b803590602001918460018302840111640100000000831117156107fa57600080fd5b91908080601f016020809104026020016040519081016040528093929190818152602001838380828437600081840152601f19601f8201169050808301925050505050505091929192905050506112e1565b005b6109076004803603602081101561086457600080fd5b810190808035906020019064010000000081111561088157600080fd5b82018360208201111561089357600080fd5b803590602001918460018302840111640100000000831117156108b557600080fd5b91908080601f016020809104026020016040519081016040528093929190818152602001838380828437600081840152601f19601f820116905080830192505050505050509192919290505050611653565b60405180821515815260200191505060405180910390f35b6109616004803603602081101561093557600080fd5b81019080803573ffffffffffffffffffffffffffffffffffffffff169060200190929190505050611689565b6040518082815260200191505060405180910390f35b610a306004803603602081101561098d57600080fd5b81019080803590602001906401000000008111156109aa57600080fd5b8201836020820111156109bc57600080fd5b803590602001918460018302840111640100000000831117156109de57600080fd5b91908080601f016020809104026020016040519081016040528093929190818152602001838380828437600081840152601f19601f8201169050808301925050505050505091929192905050506116a1565b60405180821515815260200191505060405180910390f35b610a8a60048036036020811015610a5e57600080fd5b81019080803573ffffffffffffffffffffffffffffffffffffffff1690602001909291905050506116d7565b6040518080602001828103825283818151815260200191508051906020019080838360005b83811015610aca578082015181840152602081019050610aaf565b50505050905090810190601f168015610af75780820380516001836020036101000a031916815260200191505b509250505060405180910390f35b610b4760048036036020811015610b1b57600080fd5b81019080803573ffffffffffffffffffffffffffffffffffffffff169060200190929190505050611787565b604051808981526020018060200180602001806020018060200180602001806020018873ffffffffffffffffffffffffffffffffffffffff16815260200187810387528e818151815260200191508051906020019080838360005b83811015610bbd578082015181840152602081019050610ba2565b50505050905090810190601f168015610bea5780820380516001836020036101000a031916815260200191505b5087810386528d818151815260200191508051906020019080838360005b83811015610c23578082015181840152602081019050610c08565b50505050905090810190601f168015610c505780820380516001836020036101000a031916815260200191505b5087810385528c818151815260200191508051906020019080838360005b83811015610c89578082015181840152602081019050610c6e565b50505050905090810190601f168015610cb65780820380516001836020036101000a031916815260200191505b5087810384528b818151815260200191508051906020019080838360005b83811015610cef578082015181840152602081019050610cd4565b50505050905090810190601f168015610d1c5780820380516001836020036101000a031916815260200191505b5087810383528a818151815260200191508051906020019080838360005b83811015610d55578082015181840152602081019050610d3a565b50505050905090810190601f168015610d825780820380516001836020036101000a031916815260200191505b50878103825289818151815260200191508051906020019080838360005b83811015610dbb578082015181840152602081019050610da0565b50505050905090810190601f168015610de85780820380516001836020036101000a031916815260200191505b509e50505050505050505050505050505060405180910390f35b610e0a611b7f565b6040518082815260200191505060405180910390f35b600073ffffffffffffffffffffffffffffffffffffffff163373ffffffffffffffffffffffffffffffffffffffff161415610e5a57600080fd5b6000808154809291906001019190505550600460003373ffffffffffffffffffffffffffffffffffffffff1673ffffffffffffffffffffffffffffffffffffffff16815260200190815260200160002060009054906101000a900460ff1615610ec257600080fd5b6002866040518082805190602001908083835b60208310610ef85780518252602082019150602081019050602083039250610ed5565b6001836020036101000a038019825116818451168082178552505050505050905001915050908152602001604051809103902060009054906101000a900460ff1615610f4357600080fd5b6003856040518082805190602001908083835b60208310610f795780518252602082019150602081019050602083039250610f56565b6001836020036101000a038019825116818451168082178552505050505050905001915050908152602001604051809103902060009054906101000a900460ff1615610fc457600080fd5b60016002876040518082805190602001908083835b60208310610ffc5780518252602082019150602081019050602083039250610fd9565b6001836020036101000a038019825116818451168082178552505050505050905001915050908152602001604051809103902060006101000a81548160ff0219169083151502179055506001600460003373ffffffffffffffffffffffffffffffffffffffff1673ffffffffffffffffffffffffffffffffffffffff16815260200190815260200160002060006101000a81548160ff02191690831515021790555060016003866040518082805190602001908083835b602083106110d657805182526020820191506020810190506020830392506110b3565b6001836020036101000a038019825116818451168082178552505050505050905001915050908152602001604051809103902060006101000a81548160ff021916908315150217905550600060405180610100016040528060005481526020018881526020018781526020018681526020018581526020018481526020018381526020013373ffffffffffffffffffffffffffffffffffffffff16815250905080600160003373ffffffffffffffffffffffffffffffffffffffff1673ffffffffffffffffffffffffffffffffffffffff1681526020019081526020016000206000820151816000015560208201518160010190805190602001906111dc929190611b85565b5060408201518160020190805190602001906111f9929190611b85565b506060820151816003019080519060200190611216929190611b85565b506080820151816004019080519060200190611233929190611b85565b5060a0820151816005019080519060200190611250929190611b85565b5060c082015181600601908051906020019061126d929190611b85565b5060e08201518160070160006101000a81548173ffffffffffffffffffffffffffffffffffffffff021916908373ffffffffffffffffffffffffffffffffffffffff16021790555090505050505050505050565b60046020528060005260406000206000915054906101000a900460ff1681565b600073ffffffffffffffffffffffffffffffffffffffff163373ffffffffffffffffffffffffffffffffffffffff16141561131b57600080fd5b600460003373ffffffffffffffffffffffffffffffffffffffff1673ffffffffffffffffffffffffffffffffffffffff16815260200190815260200160002060009054906101000a900460ff1661137157600080fd5b60016002876040518082805190602001908083835b602083106113a95780518252602082019150602081019050602083039250611386565b6001836020036101000a038019825116818451168082178552505050505050905001915050908152602001604051809103902060006101000a81548160ff02191690831515021790555060016003866040518082805190602001908083835b6020831061142b5780518252602082019150602081019050602083039250611408565b6001836020036101000a038019825116818451168082178552505050505050905001915050908152602001604051809103902060006101000a81548160ff0219169083151502179055506000604051806101000160405280600660003373ffffffffffffffffffffffffffffffffffffffff1673ffffffffffffffffffffffffffffffffffffffff1681526020019081526020016000205481526020018881526020018781526020018681526020018581526020018481526020018381526020013373ffffffffffffffffffffffffffffffffffffffff16815250905080600160003373ffffffffffffffffffffffffffffffffffffffff1673ffffffffffffffffffffffffffffffffffffffff16815260200190815260200160002060008201518160000155602082015181600101908051906020019061156e929190611b85565b50604082015181600201908051906020019061158b929190611b85565b5060608201518160030190805190602001906115a8929190611b85565b5060808201518160040190805190602001906115c5929190611b85565b5060a08201518160050190805190602001906115e2929190611b85565b5060c08201518160060190805190602001906115ff929190611b85565b5060e08201518160070160006101000a81548173ffffffffffffffffffffffffffffffffffffffff021916908373ffffffffffffffffffffffffffffffffffffffff16021790555090505050505050505050565b6003818051602081018201805184825260208301602085012081835280955050505050506000915054906101000a900460ff1681565b60066020528060005260406000206000915090505481565b6002818051602081018201805184825260208301602085012081835280955050505050506000915054906101000a900460ff1681565b60056020528060005260406000206000915090508054600181600116156101000203166002900480601f01602080910402602001604051908101604052809291908181526020018280546001816001161561010002031660029004801561177f5780601f106117545761010080835404028352916020019161177f565b820191906000526020600020905b81548152906001019060200180831161176257829003601f168201915b505050505081565b6001602052806000526040600020600091509050806000015490806001018054600181600116156101000203166002900480601f0160208091040260200160405190810160405280929190818152602001828054600181600116156101000203166002900480156118395780601f1061180e57610100808354040283529160200191611839565b820191906000526020600020905b81548152906001019060200180831161181c57829003601f168201915b505050505090806002018054600181600116156101000203166002900480601f0160208091040260200160405190810160405280929190818152602001828054600181600116156101000203166002900480156118d75780601f106118ac576101008083540402835291602001916118d7565b820191906000526020600020905b8154815290600101906020018083116118ba57829003601f168201915b505050505090806003018054600181600116156101000203166002900480601f0160208091040260200160405190810160405280929190818152602001828054600181600116156101000203166002900480156119755780601f1061194a57610100808354040283529160200191611975565b820191906000526020600020905b81548152906001019060200180831161195857829003601f168201915b505050505090806004018054600181600116156101000203166002900480601f016020809104026020016040519081016040528092919081815260200182805460018160011615610100020316600290048015611a135780601f106119e857610100808354040283529160200191611a13565b820191906000526020600020905b8154815290600101906020018083116119f657829003601f168201915b505050505090806005018054600181600116156101000203166002900480601f016020809104026020016040519081016040528092919081815260200182805460018160011615610100020316600290048015611ab15780601f10611a8657610100808354040283529160200191611ab1565b820191906000526020600020905b815481529060010190602001808311611a9457829003601f168201915b505050505090806006018054600181600116156101000203166002900480601f016020809104026020016040519081016040528092919081815260200182805460018160011615610100020316600290048015611b4f5780601f10611b2457610100808354040283529160200191611b4f565b820191906000526020600020905b815481529060010190602001808311611b3257829003601f168201915b5050505050908060070160009054906101000a900473ffffffffffffffffffffffffffffffffffffffff16905088565b60005481565b828054600181600116156101000203166002900490600052602060002090601f016020900481019282611bbb5760008555611c02565b82601f10611bd457805160ff1916838001178555611c02565b82800160010185558215611c02579182015b82811115611c01578251825591602001919060010190611be6565b5b509050611c0f9190611c13565b5090565b5b80821115611c2c576000816000905550600101611c14565b509056fea264697066735822122085f80c4f6a63babf475c2287584f55e1006536516069096a277edbb88f88ed6664736f6c63430007060033",
  "immutableReferences": {},
  "source": "// SPDX-License-Identifier: MIT\r\npragma solidity >=0.4.21 <0.8.0;\r\n\r\n\r\ncontract Users{\r\n\r\n  // total number of users\r\n  uint256 public userCounter;\r\n  \r\n  //define user struct\r\n  struct User{\r\n    uint userId;\r\n    string userName;\r\n    string email;\r\n    string social;\r\n    string repo;\r\n    string bio;\r\n    string avatarhash;\r\n    address userAddress;\r\n  }\r\n  \r\n  // map cryptoboy's token id to crypto boy\r\n  mapping(address => User) public allUsers;\r\n  // check if token name exists\r\n  mapping(string => bool) public userNameExists;\r\n  // check if image exists\r\n  mapping(string => bool) public userEmailExists;\r\n  // check if user Address exists\r\n  mapping(address => bool) public userAddressExists;\r\n  //map address to username\r\n  mapping(address=>string)public addressToName;\r\n  //map address to userId\r\n  mapping(address=>uint)public addressToId;\r\n  \r\n  constructor(){\r\n   // userAddressExists[msg.sender]=true;\r\n  }\r\n\r\n \r\n  //create a user\r\n  function createUser(string memory _userName,string memory _email,string memory _social,string memory _repo,string memory _bio,string memory _avatar)external{\r\n    // check if thic fucntion caller is not an zero address account\r\n    require(msg.sender != address(0));\r\n    \r\n    // increment counter\r\n    userCounter ++;\r\n    // check if user already exists\r\n    require(!userAddressExists[msg.sender]); \r\n    // check if the userName already exists or not\r\n    require(!userNameExists[_userName]);\r\n\r\n    // check if the email already exists or not\r\n    require(!userEmailExists[_email]);\r\n    // make passed userName as exists\r\n    userNameExists[_userName]=true;\r\n    // make passed userAddress as exists\r\n    userAddressExists[msg.sender]=true;\r\n    // make passed email as exists\r\n    userEmailExists[_email]=true;\r\n    // creat a new user (struct) and pass in new values\r\n    User memory newUser=User(\r\n     userCounter,\r\n     _userName,\r\n     _email,\r\n     _social,\r\n     _repo,\r\n     _bio,\r\n     _avatar,\r\n     msg.sender\r\n    );\r\n    // add the address and it's user to all users mapping\r\n    allUsers[msg.sender] = newUser;\r\n\r\n  }\r\n\r\n  //update User\r\n  function updateUser(string memory _userName,string memory _email,string memory _social,string memory _repo,string memory _bio,string memory _avatar)external{\r\n   // check if thic fucntion caller is not an zero address account\r\n    require(msg.sender != address(0));\r\n    // user already exists\r\n    require(userAddressExists[msg.sender]); \r\n    // check if the userName already exists or not\r\n    // if(keccak256(abi.encodePacked((addressToName[msg.sender])))==keccak256(abi.encodePacked((_userName)))){\r\n      \r\n    //   emit SameUserName(_userName);\r\n    //   userNameExists[_userName]=true;\r\n    // // make passed email as exists\r\n    // userEmailExists[_email]=true;\r\n    // User memory newUser=User(\r\n    //  addressToId[msg.sender],\r\n    //  _userName,\r\n    //  _email,\r\n    //  _social,\r\n    //  _repo,\r\n    //  _bio,\r\n    //  _avatar,\r\n    //  msg.sender\r\n    // );\r\n    //  // add the address and it's user to all users mapping\r\n    // allUsers[msg.sender] = newUser;\r\n    // }\r\n    // else{\r\n        \r\n    //require(!userNameExists[_userName]);\r\n    // check if the email already exists or not\r\n    //require(!userEmailExists[_email]);\r\n    // // make passed userName as exists\r\n    userNameExists[_userName]=true;\r\n    // make passed email as exists\r\n    userEmailExists[_email]=true;\r\n    // creat a new user (struct) and pass in new values\r\n    User memory newUser=User(\r\n     addressToId[msg.sender],\r\n     _userName,\r\n     _email,\r\n     _social,\r\n     _repo,\r\n     _bio,\r\n     _avatar,\r\n     msg.sender\r\n    );\r\n     // add the address and it's user to all users mapping\r\n    allUsers[msg.sender] = newUser;\r\n    }\r\n   \r\n}\r\n\r\n\r\n",
  "sourcePath": "C:/Users/mehta/git/fashion-nft/src/contracts/Users.sol",
  "compiler": {
    "name": "solc",
    "version": "0.7.6+commit.7338295f.Emscripten.clang"
  },
  "schemaVersion": "3.4.1",
  "updatedAt": "2021-07-10T04:00:33.546Z",
  "networkType": "ethereum",
  "devdoc": {
    "kind": "dev",
    "methods": {},
    "version": 1
  },
  "userdoc": {
    "kind": "user",
    "methods": {},
    "version": 1
  }
}